{
	"s.sol": {
		"GasDrop": {
			"abi": [
				{
					"inputs": [
						{
							"internalType": "address",
							"name": "a",
							"type": "address"
						},
						{
							"internalType": "address",
							"name": "b",
							"type": "address"
						}
					],
					"name": "sp",
					"outputs": [
						{
							"internalType": "bytes",
							"name": "",
							"type": "bytes"
						}
					],
					"stateMutability": "nonpayable",
					"type": "function"
				}
			],
			"devdoc": {
				"kind": "dev",
				"methods": {},
				"title": "GasDrop",
				"version": 1
			},
			"evm": {
				"assembly": "    /* \"s.sol\":190:329  contract GasDrop  {... */\n  mstore(0x40, 0x80)\n  callvalue\n  dup1\n  iszero\n  tag_1\n  jumpi\n  0x00\n  dup1\n  revert\ntag_1:\n  pop\n  dataSize(sub_0)\n  dup1\n  dataOffset(sub_0)\n  0x00\n  codecopy\n  0x00\n  return\nstop\n\nsub_0: assembly {\n        /* \"s.sol\":190:329  contract GasDrop  {... */\n      mstore(0x40, 0x80)\n      callvalue\n      dup1\n      iszero\n      tag_1\n      jumpi\n      0x00\n      dup1\n      revert\n    tag_1:\n      pop\n      jumpi(tag_2, lt(calldatasize, 0x04))\n      shr(0xe0, calldataload(0x00))\n      dup1\n      0xedc2dba1\n      eq\n      tag_3\n      jumpi\n    tag_2:\n      0x00\n      dup1\n      revert\n        /* \"s.sol\":215:326  function sp(address a, address b) public returns (bytes memory){... */\n    tag_3:\n      tag_4\n      0x04\n      dup1\n      calldatasize\n      sub\n      dup2\n      add\n      swap1\n      tag_5\n      swap2\n      swap1\n      tag_6\n      jump\t// in\n    tag_5:\n      tag_7\n      jump\t// in\n    tag_4:\n      mload(0x40)\n      tag_8\n      swap2\n      swap1\n      tag_9\n      jump\t// in\n    tag_8:\n      mload(0x40)\n      dup1\n      swap2\n      sub\n      swap1\n      return\n    tag_7:\n        /* \"s.sol\":265:277  bytes memory */\n      0x60\n        /* \"s.sol\":313:314  a */\n      dup3\n        /* \"s.sol\":316:317  b */\n      dup3\n        /* \"s.sol\":296:318  abi.encodePacked(a, b) */\n      add(0x20, mload(0x40))\n      tag_11\n      swap3\n      swap2\n      swap1\n      tag_12\n      jump\t// in\n    tag_11:\n      mload(0x40)\n      0x20\n      dup2\n      dup4\n      sub\n      sub\n      dup2\n      mstore\n      swap1\n      0x40\n      mstore\n        /* \"s.sol\":289:318  return abi.encodePacked(a, b) */\n      swap1\n      pop\n        /* \"s.sol\":215:326  function sp(address a, address b) public returns (bytes memory){... */\n      swap3\n      swap2\n      pop\n      pop\n      jump\t// out\n        /* \"#utility.yul\":88:205   */\n    tag_14:\n        /* \"#utility.yul\":197:198   */\n      0x00\n        /* \"#utility.yul\":194:195   */\n      dup1\n        /* \"#utility.yul\":187:199   */\n      revert\n        /* \"#utility.yul\":334:460   */\n    tag_16:\n        /* \"#utility.yul\":371:378   */\n      0x00\n        /* \"#utility.yul\":411:453   */\n      0xffffffffffffffffffffffffffffffffffffffff\n        /* \"#utility.yul\":404:409   */\n      dup3\n        /* \"#utility.yul\":400:454   */\n      and\n        /* \"#utility.yul\":389:454   */\n      swap1\n      pop\n        /* \"#utility.yul\":334:460   */\n      swap2\n      swap1\n      pop\n      jump\t// out\n        /* \"#utility.yul\":466:562   */\n    tag_17:\n        /* \"#utility.yul\":503:510   */\n      0x00\n        /* \"#utility.yul\":532:556   */\n      tag_35\n        /* \"#utility.yul\":550:555   */\n      dup3\n        /* \"#utility.yul\":532:556   */\n      tag_16\n      jump\t// in\n    tag_35:\n        /* \"#utility.yul\":521:556   */\n      swap1\n      pop\n        /* \"#utility.yul\":466:562   */\n      swap2\n      swap1\n      pop\n      jump\t// out\n        /* \"#utility.yul\":568:690   */\n    tag_18:\n        /* \"#utility.yul\":641:665   */\n      tag_37\n        /* \"#utility.yul\":659:664   */\n      dup2\n        /* \"#utility.yul\":641:665   */\n      tag_17\n      jump\t// in\n    tag_37:\n        /* \"#utility.yul\":634:639   */\n      dup2\n        /* \"#utility.yul\":631:666   */\n      eq\n        /* \"#utility.yul\":621:684   */\n      tag_38\n      jumpi\n        /* \"#utility.yul\":680:681   */\n      0x00\n        /* \"#utility.yul\":677:678   */\n      dup1\n        /* \"#utility.yul\":670:682   */\n      revert\n        /* \"#utility.yul\":621:684   */\n    tag_38:\n        /* \"#utility.yul\":568:690   */\n      pop\n      jump\t// out\n        /* \"#utility.yul\":696:835   */\n    tag_19:\n        /* \"#utility.yul\":742:747   */\n      0x00\n        /* \"#utility.yul\":780:786   */\n      dup2\n        /* \"#utility.yul\":767:787   */\n      calldataload\n        /* \"#utility.yul\":758:787   */\n      swap1\n      pop\n        /* \"#utility.yul\":796:829   */\n      tag_40\n        /* \"#utility.yul\":823:828   */\n      dup2\n        /* \"#utility.yul\":796:829   */\n      tag_18\n      jump\t// in\n    tag_40:\n        /* \"#utility.yul\":696:835   */\n      swap3\n      swap2\n      pop\n      pop\n      jump\t// out\n        /* \"#utility.yul\":841:1315   */\n    tag_6:\n        /* \"#utility.yul\":909:915   */\n      0x00\n        /* \"#utility.yul\":917:923   */\n      dup1\n        /* \"#utility.yul\":966:968   */\n      0x40\n        /* \"#utility.yul\":954:963   */\n      dup4\n        /* \"#utility.yul\":945:952   */\n      dup6\n        /* \"#utility.yul\":941:964   */\n      sub\n        /* \"#utility.yul\":937:969   */\n      slt\n        /* \"#utility.yul\":934:1053   */\n      iszero\n      tag_42\n      jumpi\n        /* \"#utility.yul\":972:1051   */\n      tag_43\n      tag_14\n      jump\t// in\n    tag_43:\n        /* \"#utility.yul\":934:1053   */\n    tag_42:\n        /* \"#utility.yul\":1092:1093   */\n      0x00\n        /* \"#utility.yul\":1117:1170   */\n      tag_44\n        /* \"#utility.yul\":1162:1169   */\n      dup6\n        /* \"#utility.yul\":1153:1159   */\n      dup3\n        /* \"#utility.yul\":1142:1151   */\n      dup7\n        /* \"#utility.yul\":1138:1160   */\n      add\n        /* \"#utility.yul\":1117:1170   */\n      tag_19\n      jump\t// in\n    tag_44:\n        /* \"#utility.yul\":1107:1170   */\n      swap3\n      pop\n        /* \"#utility.yul\":1063:1180   */\n      pop\n        /* \"#utility.yul\":1219:1221   */\n      0x20\n        /* \"#utility.yul\":1245:1298   */\n      tag_45\n        /* \"#utility.yul\":1290:1297   */\n      dup6\n        /* \"#utility.yul\":1281:1287   */\n      dup3\n        /* \"#utility.yul\":1270:1279   */\n      dup7\n        /* \"#utility.yul\":1266:1288   */\n      add\n        /* \"#utility.yul\":1245:1298   */\n      tag_19\n      jump\t// in\n    tag_45:\n        /* \"#utility.yul\":1235:1298   */\n      swap2\n      pop\n        /* \"#utility.yul\":1190:1308   */\n      pop\n        /* \"#utility.yul\":841:1315   */\n      swap3\n      pop\n      swap3\n      swap1\n      pop\n      jump\t// out\n        /* \"#utility.yul\":1321:1419   */\n    tag_20:\n        /* \"#utility.yul\":1372:1378   */\n      0x00\n        /* \"#utility.yul\":1406:1411   */\n      dup2\n        /* \"#utility.yul\":1400:1412   */\n      mload\n        /* \"#utility.yul\":1390:1412   */\n      swap1\n      pop\n        /* \"#utility.yul\":1321:1419   */\n      swap2\n      swap1\n      pop\n      jump\t// out\n        /* \"#utility.yul\":1425:1593   */\n    tag_21:\n        /* \"#utility.yul\":1508:1519   */\n      0x00\n        /* \"#utility.yul\":1542:1548   */\n      dup3\n        /* \"#utility.yul\":1537:1540   */\n      dup3\n        /* \"#utility.yul\":1530:1549   */\n      mstore\n        /* \"#utility.yul\":1582:1586   */\n      0x20\n        /* \"#utility.yul\":1577:1580   */\n      dup3\n        /* \"#utility.yul\":1573:1587   */\n      add\n        /* \"#utility.yul\":1558:1587   */\n      swap1\n      pop\n        /* \"#utility.yul\":1425:1593   */\n      swap3\n      swap2\n      pop\n      pop\n      jump\t// out\n        /* \"#utility.yul\":1599:1845   */\n    tag_22:\n        /* \"#utility.yul\":1680:1681   */\n      0x00\n        /* \"#utility.yul\":1690:1803   */\n    tag_49:\n        /* \"#utility.yul\":1704:1710   */\n      dup4\n        /* \"#utility.yul\":1701:1702   */\n      dup2\n        /* \"#utility.yul\":1698:1711   */\n      lt\n        /* \"#utility.yul\":1690:1803   */\n      iszero\n      tag_51\n      jumpi\n        /* \"#utility.yul\":1789:1790   */\n      dup1\n        /* \"#utility.yul\":1784:1787   */\n      dup3\n        /* \"#utility.yul\":1780:1791   */\n      add\n        /* \"#utility.yul\":1774:1792   */\n      mload\n        /* \"#utility.yul\":1770:1771   */\n      dup2\n        /* \"#utility.yul\":1765:1768   */\n      dup5\n        /* \"#utility.yul\":1761:1772   */\n      add\n        /* \"#utility.yul\":1754:1793   */\n      mstore\n        /* \"#utility.yul\":1726:1728   */\n      0x20\n        /* \"#utility.yul\":1723:1724   */\n      dup2\n        /* \"#utility.yul\":1719:1729   */\n      add\n        /* \"#utility.yul\":1714:1729   */\n      swap1\n      pop\n        /* \"#utility.yul\":1690:1803   */\n      jump(tag_49)\n    tag_51:\n        /* \"#utility.yul\":1837:1838   */\n      0x00\n        /* \"#utility.yul\":1828:1834   */\n      dup5\n        /* \"#utility.yul\":1823:1826   */\n      dup5\n        /* \"#utility.yul\":1819:1835   */\n      add\n        /* \"#utility.yul\":1812:1839   */\n      mstore\n        /* \"#utility.yul\":1661:1845   */\n      pop\n        /* \"#utility.yul\":1599:1845   */\n      pop\n      pop\n      pop\n      jump\t// out\n        /* \"#utility.yul\":1851:1953   */\n    tag_23:\n        /* \"#utility.yul\":1892:1898   */\n      0x00\n        /* \"#utility.yul\":1943:1945   */\n      0x1f\n        /* \"#utility.yul\":1939:1946   */\n      not\n        /* \"#utility.yul\":1934:1936   */\n      0x1f\n        /* \"#utility.yul\":1927:1932   */\n      dup4\n        /* \"#utility.yul\":1923:1937   */\n      add\n        /* \"#utility.yul\":1919:1947   */\n      and\n        /* \"#utility.yul\":1909:1947   */\n      swap1\n      pop\n        /* \"#utility.yul\":1851:1953   */\n      swap2\n      swap1\n      pop\n      jump\t// out\n        /* \"#utility.yul\":1959:2332   */\n    tag_24:\n        /* \"#utility.yul\":2045:2048   */\n      0x00\n        /* \"#utility.yul\":2073:2111   */\n      tag_54\n        /* \"#utility.yul\":2105:2110   */\n      dup3\n        /* \"#utility.yul\":2073:2111   */\n      tag_20\n      jump\t// in\n    tag_54:\n        /* \"#utility.yul\":2127:2197   */\n      tag_55\n        /* \"#utility.yul\":2190:2196   */\n      dup2\n        /* \"#utility.yul\":2185:2188   */\n      dup6\n        /* \"#utility.yul\":2127:2197   */\n      tag_21\n      jump\t// in\n    tag_55:\n        /* \"#utility.yul\":2120:2197   */\n      swap4\n      pop\n        /* \"#utility.yul\":2206:2271   */\n      tag_56\n        /* \"#utility.yul\":2264:2270   */\n      dup2\n        /* \"#utility.yul\":2259:2262   */\n      dup6\n        /* \"#utility.yul\":2252:2256   */\n      0x20\n        /* \"#utility.yul\":2245:2250   */\n      dup7\n        /* \"#utility.yul\":2241:2257   */\n      add\n        /* \"#utility.yul\":2206:2271   */\n      tag_22\n      jump\t// in\n    tag_56:\n        /* \"#utility.yul\":2296:2325   */\n      tag_57\n        /* \"#utility.yul\":2318:2324   */\n      dup2\n        /* \"#utility.yul\":2296:2325   */\n      tag_23\n      jump\t// in\n    tag_57:\n        /* \"#utility.yul\":2291:2294   */\n      dup5\n        /* \"#utility.yul\":2287:2326   */\n      add\n        /* \"#utility.yul\":2280:2326   */\n      swap2\n      pop\n        /* \"#utility.yul\":2049:2332   */\n      pop\n        /* \"#utility.yul\":1959:2332   */\n      swap3\n      swap2\n      pop\n      pop\n      jump\t// out\n        /* \"#utility.yul\":2338:2647   */\n    tag_9:\n        /* \"#utility.yul\":2449:2453   */\n      0x00\n        /* \"#utility.yul\":2487:2489   */\n      0x20\n        /* \"#utility.yul\":2476:2485   */\n      dup3\n        /* \"#utility.yul\":2472:2490   */\n      add\n        /* \"#utility.yul\":2464:2490   */\n      swap1\n      pop\n        /* \"#utility.yul\":2536:2545   */\n      dup2\n        /* \"#utility.yul\":2530:2534   */\n      dup2\n        /* \"#utility.yul\":2526:2546   */\n      sub\n        /* \"#utility.yul\":2522:2523   */\n      0x00\n        /* \"#utility.yul\":2511:2520   */\n      dup4\n        /* \"#utility.yul\":2507:2524   */\n      add\n        /* \"#utility.yul\":2500:2547   */\n      mstore\n        /* \"#utility.yul\":2564:2640   */\n      tag_59\n        /* \"#utility.yul\":2635:2639   */\n      dup2\n        /* \"#utility.yul\":2626:2632   */\n      dup5\n        /* \"#utility.yul\":2564:2640   */\n      tag_24\n      jump\t// in\n    tag_59:\n        /* \"#utility.yul\":2556:2640   */\n      swap1\n      pop\n        /* \"#utility.yul\":2338:2647   */\n      swap3\n      swap2\n      pop\n      pop\n      jump\t// out\n        /* \"#utility.yul\":2653:2747   */\n    tag_25:\n        /* \"#utility.yul\":2686:2694   */\n      0x00\n        /* \"#utility.yul\":2734:2739   */\n      dup2\n        /* \"#utility.yul\":2730:2732   */\n      0x60\n        /* \"#utility.yul\":2726:2740   */\n      shl\n        /* \"#utility.yul\":2705:2740   */\n      swap1\n      pop\n        /* \"#utility.yul\":2653:2747   */\n      swap2\n      swap1\n      pop\n      jump\t// out\n        /* \"#utility.yul\":2753:2847   */\n    tag_26:\n        /* \"#utility.yul\":2792:2799   */\n      0x00\n        /* \"#utility.yul\":2821:2841   */\n      tag_62\n        /* \"#utility.yul\":2835:2840   */\n      dup3\n        /* \"#utility.yul\":2821:2841   */\n      tag_25\n      jump\t// in\n    tag_62:\n        /* \"#utility.yul\":2810:2841   */\n      swap1\n      pop\n        /* \"#utility.yul\":2753:2847   */\n      swap2\n      swap1\n      pop\n      jump\t// out\n        /* \"#utility.yul\":2853:2953   */\n    tag_27:\n        /* \"#utility.yul\":2892:2899   */\n      0x00\n        /* \"#utility.yul\":2921:2947   */\n      tag_64\n        /* \"#utility.yul\":2941:2946   */\n      dup3\n        /* \"#utility.yul\":2921:2947   */\n      tag_26\n      jump\t// in\n    tag_64:\n        /* \"#utility.yul\":2910:2947   */\n      swap1\n      pop\n        /* \"#utility.yul\":2853:2953   */\n      swap2\n      swap1\n      pop\n      jump\t// out\n        /* \"#utility.yul\":2959:3116   */\n    tag_28:\n        /* \"#utility.yul\":3064:3109   */\n      tag_66\n        /* \"#utility.yul\":3084:3108   */\n      tag_67\n        /* \"#utility.yul\":3102:3107   */\n      dup3\n        /* \"#utility.yul\":3084:3108   */\n      tag_17\n      jump\t// in\n    tag_67:\n        /* \"#utility.yul\":3064:3109   */\n      tag_27\n      jump\t// in\n    tag_66:\n        /* \"#utility.yul\":3059:3062   */\n      dup3\n        /* \"#utility.yul\":3052:3110   */\n      mstore\n        /* \"#utility.yul\":2959:3116   */\n      pop\n      pop\n      jump\t// out\n        /* \"#utility.yul\":3122:3519   */\n    tag_12:\n        /* \"#utility.yul\":3262:3265   */\n      0x00\n        /* \"#utility.yul\":3277:3352   */\n      tag_69\n        /* \"#utility.yul\":3348:3351   */\n      dup3\n        /* \"#utility.yul\":3339:3345   */\n      dup6\n        /* \"#utility.yul\":3277:3352   */\n      tag_28\n      jump\t// in\n    tag_69:\n        /* \"#utility.yul\":3377:3379   */\n      0x14\n        /* \"#utility.yul\":3372:3375   */\n      dup3\n        /* \"#utility.yul\":3368:3380   */\n      add\n        /* \"#utility.yul\":3361:3380   */\n      swap2\n      pop\n        /* \"#utility.yul\":3390:3465   */\n      tag_70\n        /* \"#utility.yul\":3461:3464   */\n      dup3\n        /* \"#utility.yul\":3452:3458   */\n      dup5\n        /* \"#utility.yul\":3390:3465   */\n      tag_28\n      jump\t// in\n    tag_70:\n        /* \"#utility.yul\":3490:3492   */\n      0x14\n        /* \"#utility.yul\":3485:3488   */\n      dup3\n        /* \"#utility.yul\":3481:3493   */\n      add\n        /* \"#utility.yul\":3474:3493   */\n      swap2\n      pop\n        /* \"#utility.yul\":3510:3513   */\n      dup2\n        /* \"#utility.yul\":3503:3513   */\n      swap1\n      pop\n        /* \"#utility.yul\":3122:3519   */\n      swap4\n      swap3\n      pop\n      pop\n      pop\n      jump\t// out\n\n    auxdata: 0xa26469706673582212201492e8c37476fb3a752596e88b46fc73da831ec28677c5da2208acb1200fcf9f64736f6c63430008120033\n}\n",
				"bytecode": {
					"linkReferences": {},
					"object": "608060405234801561001057600080fd5b5061028b806100206000396000f3fe608060405234801561001057600080fd5b506004361061002b5760003560e01c8063edc2dba114610030575b600080fd5b61004a600480360381019061004591906100ef565b610060565b60405161005791906101bf565b60405180910390f35b60608282604051602001610075929190610229565b604051602081830303815290604052905092915050565b600080fd5b600073ffffffffffffffffffffffffffffffffffffffff82169050919050565b60006100bc82610091565b9050919050565b6100cc816100b1565b81146100d757600080fd5b50565b6000813590506100e9816100c3565b92915050565b600080604083850312156101065761010561008c565b5b6000610114858286016100da565b9250506020610125858286016100da565b9150509250929050565b600081519050919050565b600082825260208201905092915050565b60005b8381101561016957808201518184015260208101905061014e565b60008484015250505050565b6000601f19601f8301169050919050565b60006101918261012f565b61019b818561013a565b93506101ab81856020860161014b565b6101b481610175565b840191505092915050565b600060208201905081810360008301526101d98184610186565b905092915050565b60008160601b9050919050565b60006101f9826101e1565b9050919050565b600061020b826101ee565b9050919050565b61022361021e826100b1565b610200565b82525050565b60006102358285610212565b6014820191506102458284610212565b601482019150819050939250505056fea26469706673582212201492e8c37476fb3a752596e88b46fc73da831ec28677c5da2208acb1200fcf9f64736f6c63430008120033",
					"opcodes": "PUSH1 0x80 PUSH1 0x40 MSTORE CALLVALUE DUP1 ISZERO PUSH2 0x10 JUMPI PUSH1 0x0 DUP1 REVERT JUMPDEST POP PUSH2 0x28B DUP1 PUSH2 0x20 PUSH1 0x0 CODECOPY PUSH1 0x0 RETURN INVALID PUSH1 0x80 PUSH1 0x40 MSTORE CALLVALUE DUP1 ISZERO PUSH2 0x10 JUMPI PUSH1 0x0 DUP1 REVERT JUMPDEST POP PUSH1 0x4 CALLDATASIZE LT PUSH2 0x2B JUMPI PUSH1 0x0 CALLDATALOAD PUSH1 0xE0 SHR DUP1 PUSH4 0xEDC2DBA1 EQ PUSH2 0x30 JUMPI JUMPDEST PUSH1 0x0 DUP1 REVERT JUMPDEST PUSH2 0x4A PUSH1 0x4 DUP1 CALLDATASIZE SUB DUP2 ADD SWAP1 PUSH2 0x45 SWAP2 SWAP1 PUSH2 0xEF JUMP JUMPDEST PUSH2 0x60 JUMP JUMPDEST PUSH1 0x40 MLOAD PUSH2 0x57 SWAP2 SWAP1 PUSH2 0x1BF JUMP JUMPDEST PUSH1 0x40 MLOAD DUP1 SWAP2 SUB SWAP1 RETURN JUMPDEST PUSH1 0x60 DUP3 DUP3 PUSH1 0x40 MLOAD PUSH1 0x20 ADD PUSH2 0x75 SWAP3 SWAP2 SWAP1 PUSH2 0x229 JUMP JUMPDEST PUSH1 0x40 MLOAD PUSH1 0x20 DUP2 DUP4 SUB SUB DUP2 MSTORE SWAP1 PUSH1 0x40 MSTORE SWAP1 POP SWAP3 SWAP2 POP POP JUMP JUMPDEST PUSH1 0x0 DUP1 REVERT JUMPDEST PUSH1 0x0 PUSH20 0xFFFFFFFFFFFFFFFFFFFFFFFFFFFFFFFFFFFFFFFF DUP3 AND SWAP1 POP SWAP2 SWAP1 POP JUMP JUMPDEST PUSH1 0x0 PUSH2 0xBC DUP3 PUSH2 0x91 JUMP JUMPDEST SWAP1 POP SWAP2 SWAP1 POP JUMP JUMPDEST PUSH2 0xCC DUP2 PUSH2 0xB1 JUMP JUMPDEST DUP2 EQ PUSH2 0xD7 JUMPI PUSH1 0x0 DUP1 REVERT JUMPDEST POP JUMP JUMPDEST PUSH1 0x0 DUP2 CALLDATALOAD SWAP1 POP PUSH2 0xE9 DUP2 PUSH2 0xC3 JUMP JUMPDEST SWAP3 SWAP2 POP POP JUMP JUMPDEST PUSH1 0x0 DUP1 PUSH1 0x40 DUP4 DUP6 SUB SLT ISZERO PUSH2 0x106 JUMPI PUSH2 0x105 PUSH2 0x8C JUMP JUMPDEST JUMPDEST PUSH1 0x0 PUSH2 0x114 DUP6 DUP3 DUP7 ADD PUSH2 0xDA JUMP JUMPDEST SWAP3 POP POP PUSH1 0x20 PUSH2 0x125 DUP6 DUP3 DUP7 ADD PUSH2 0xDA JUMP JUMPDEST SWAP2 POP POP SWAP3 POP SWAP3 SWAP1 POP JUMP JUMPDEST PUSH1 0x0 DUP2 MLOAD SWAP1 POP SWAP2 SWAP1 POP JUMP JUMPDEST PUSH1 0x0 DUP3 DUP3 MSTORE PUSH1 0x20 DUP3 ADD SWAP1 POP SWAP3 SWAP2 POP POP JUMP JUMPDEST PUSH1 0x0 JUMPDEST DUP4 DUP2 LT ISZERO PUSH2 0x169 JUMPI DUP1 DUP3 ADD MLOAD DUP2 DUP5 ADD MSTORE PUSH1 0x20 DUP2 ADD SWAP1 POP PUSH2 0x14E JUMP JUMPDEST PUSH1 0x0 DUP5 DUP5 ADD MSTORE POP POP POP POP JUMP JUMPDEST PUSH1 0x0 PUSH1 0x1F NOT PUSH1 0x1F DUP4 ADD AND SWAP1 POP SWAP2 SWAP1 POP JUMP JUMPDEST PUSH1 0x0 PUSH2 0x191 DUP3 PUSH2 0x12F JUMP JUMPDEST PUSH2 0x19B DUP2 DUP6 PUSH2 0x13A JUMP JUMPDEST SWAP4 POP PUSH2 0x1AB DUP2 DUP6 PUSH1 0x20 DUP7 ADD PUSH2 0x14B JUMP JUMPDEST PUSH2 0x1B4 DUP2 PUSH2 0x175 JUMP JUMPDEST DUP5 ADD SWAP2 POP POP SWAP3 SWAP2 POP POP JUMP JUMPDEST PUSH1 0x0 PUSH1 0x20 DUP3 ADD SWAP1 POP DUP2 DUP2 SUB PUSH1 0x0 DUP4 ADD MSTORE PUSH2 0x1D9 DUP2 DUP5 PUSH2 0x186 JUMP JUMPDEST SWAP1 POP SWAP3 SWAP2 POP POP JUMP JUMPDEST PUSH1 0x0 DUP2 PUSH1 0x60 SHL SWAP1 POP SWAP2 SWAP1 POP JUMP JUMPDEST PUSH1 0x0 PUSH2 0x1F9 DUP3 PUSH2 0x1E1 JUMP JUMPDEST SWAP1 POP SWAP2 SWAP1 POP JUMP JUMPDEST PUSH1 0x0 PUSH2 0x20B DUP3 PUSH2 0x1EE JUMP JUMPDEST SWAP1 POP SWAP2 SWAP1 POP JUMP JUMPDEST PUSH2 0x223 PUSH2 0x21E DUP3 PUSH2 0xB1 JUMP JUMPDEST PUSH2 0x200 JUMP JUMPDEST DUP3 MSTORE POP POP JUMP JUMPDEST PUSH1 0x0 PUSH2 0x235 DUP3 DUP6 PUSH2 0x212 JUMP JUMPDEST PUSH1 0x14 DUP3 ADD SWAP2 POP PUSH2 0x245 DUP3 DUP5 PUSH2 0x212 JUMP JUMPDEST PUSH1 0x14 DUP3 ADD SWAP2 POP DUP2 SWAP1 POP SWAP4 SWAP3 POP POP POP JUMP INVALID LOG2 PUSH5 0x6970667358 0x22 SLT KECCAK256 EQ SWAP3 0xE8 0xC3 PUSH21 0x76FB3A752596E88B46FC73DA831EC28677C5DA2208 0xAC 0xB1 KECCAK256 0xF 0xCF SWAP16 PUSH5 0x736F6C6343 STOP ADDMOD SLT STOP CALLER "
				},
				"gasEstimates": {
					"creation": {
						"codeDepositCost": "130200",
						"executionCost": "177",
						"totalCost": "130377"
					},
					"external": {
						"sp(address,address)": "infinite"
					}
				},
				"methodIdentifiers": {
					"sp(address,address)": "edc2dba1"
				}
			},
			"storageLayout": {
				"storage": [],
				"types": null
			},
			"userdoc": {
				"kind": "user",
				"methods": {},
				"notice": "A contract for sending and receiving gas across chains using LayerZero's NonblockingLzApp.",
				"version": 1
			}
		}
	}
}