{
	"contracts/examples/sldtdrn.sol": {
		"LayerZeroTest": {
			"abi": [
				{
					"inputs": [
						{
							"internalType": "address",
							"name": "_lzEndpoint",
							"type": "address"
						}
					],
					"stateMutability": "nonpayable",
					"type": "constructor"
				},
				{
					"anonymous": false,
					"inputs": [
						{
							"indexed": false,
							"internalType": "uint16",
							"name": "_srcChainId",
							"type": "uint16"
						},
						{
							"indexed": false,
							"internalType": "bytes",
							"name": "_srcAddress",
							"type": "bytes"
						},
						{
							"indexed": false,
							"internalType": "uint64",
							"name": "_nonce",
							"type": "uint64"
						},
						{
							"indexed": false,
							"internalType": "bytes",
							"name": "_payload",
							"type": "bytes"
						},
						{
							"indexed": false,
							"internalType": "bytes",
							"name": "_reason",
							"type": "bytes"
						}
					],
					"name": "MessageFailed",
					"type": "event"
				},
				{
					"anonymous": false,
					"inputs": [
						{
							"indexed": true,
							"internalType": "address",
							"name": "previousOwner",
							"type": "address"
						},
						{
							"indexed": true,
							"internalType": "address",
							"name": "newOwner",
							"type": "address"
						}
					],
					"name": "OwnershipTransferred",
					"type": "event"
				},
				{
					"anonymous": false,
					"inputs": [
						{
							"indexed": false,
							"internalType": "uint16",
							"name": "_srcChainId",
							"type": "uint16"
						},
						{
							"indexed": false,
							"internalType": "bytes",
							"name": "_srcAddress",
							"type": "bytes"
						},
						{
							"indexed": false,
							"internalType": "uint64",
							"name": "_nonce",
							"type": "uint64"
						},
						{
							"indexed": false,
							"internalType": "bytes32",
							"name": "_payloadHash",
							"type": "bytes32"
						}
					],
					"name": "RetryMessageSuccess",
					"type": "event"
				},
				{
					"anonymous": false,
					"inputs": [
						{
							"indexed": false,
							"internalType": "uint16",
							"name": "_dstChainId",
							"type": "uint16"
						},
						{
							"indexed": false,
							"internalType": "uint16",
							"name": "_type",
							"type": "uint16"
						},
						{
							"indexed": false,
							"internalType": "uint256",
							"name": "_minDstGas",
							"type": "uint256"
						}
					],
					"name": "SetMinDstGas",
					"type": "event"
				},
				{
					"anonymous": false,
					"inputs": [
						{
							"indexed": false,
							"internalType": "address",
							"name": "precrime",
							"type": "address"
						}
					],
					"name": "SetPrecrime",
					"type": "event"
				},
				{
					"anonymous": false,
					"inputs": [
						{
							"indexed": false,
							"internalType": "uint16",
							"name": "_remoteChainId",
							"type": "uint16"
						},
						{
							"indexed": false,
							"internalType": "bytes",
							"name": "_path",
							"type": "bytes"
						}
					],
					"name": "SetTrustedRemote",
					"type": "event"
				},
				{
					"anonymous": false,
					"inputs": [
						{
							"indexed": false,
							"internalType": "uint16",
							"name": "_remoteChainId",
							"type": "uint16"
						},
						{
							"indexed": false,
							"internalType": "bytes",
							"name": "_remoteAddress",
							"type": "bytes"
						}
					],
					"name": "SetTrustedRemoteAddress",
					"type": "event"
				},
				{
					"inputs": [],
					"name": "DEFAULT_PAYLOAD_SIZE_LIMIT",
					"outputs": [
						{
							"internalType": "uint256",
							"name": "",
							"type": "uint256"
						}
					],
					"stateMutability": "view",
					"type": "function"
				},
				{
					"inputs": [],
					"name": "data",
					"outputs": [
						{
							"internalType": "string",
							"name": "",
							"type": "string"
						}
					],
					"stateMutability": "view",
					"type": "function"
				},
				{
					"inputs": [
						{
							"internalType": "uint16",
							"name": "",
							"type": "uint16"
						},
						{
							"internalType": "bytes",
							"name": "",
							"type": "bytes"
						},
						{
							"internalType": "uint64",
							"name": "",
							"type": "uint64"
						}
					],
					"name": "failedMessages",
					"outputs": [
						{
							"internalType": "bytes32",
							"name": "",
							"type": "bytes32"
						}
					],
					"stateMutability": "view",
					"type": "function"
				},
				{
					"inputs": [
						{
							"internalType": "uint16",
							"name": "_srcChainId",
							"type": "uint16"
						},
						{
							"internalType": "bytes",
							"name": "_srcAddress",
							"type": "bytes"
						}
					],
					"name": "forceResumeReceive",
					"outputs": [],
					"stateMutability": "nonpayable",
					"type": "function"
				},
				{
					"inputs": [
						{
							"internalType": "uint16",
							"name": "_version",
							"type": "uint16"
						},
						{
							"internalType": "uint16",
							"name": "_chainId",
							"type": "uint16"
						},
						{
							"internalType": "address",
							"name": "",
							"type": "address"
						},
						{
							"internalType": "uint256",
							"name": "_configType",
							"type": "uint256"
						}
					],
					"name": "getConfig",
					"outputs": [
						{
							"internalType": "bytes",
							"name": "",
							"type": "bytes"
						}
					],
					"stateMutability": "view",
					"type": "function"
				},
				{
					"inputs": [
						{
							"internalType": "uint16",
							"name": "_remoteChainId",
							"type": "uint16"
						}
					],
					"name": "getTrustedRemoteAddress",
					"outputs": [
						{
							"internalType": "bytes",
							"name": "",
							"type": "bytes"
						}
					],
					"stateMutability": "view",
					"type": "function"
				},
				{
					"inputs": [
						{
							"internalType": "uint16",
							"name": "_srcChainId",
							"type": "uint16"
						},
						{
							"internalType": "bytes",
							"name": "_srcAddress",
							"type": "bytes"
						}
					],
					"name": "isTrustedRemote",
					"outputs": [
						{
							"internalType": "bool",
							"name": "",
							"type": "bool"
						}
					],
					"stateMutability": "view",
					"type": "function"
				},
				{
					"inputs": [],
					"name": "lzEndpoint",
					"outputs": [
						{
							"internalType": "contract ILayerZeroEndpoint",
							"name": "",
							"type": "address"
						}
					],
					"stateMutability": "view",
					"type": "function"
				},
				{
					"inputs": [
						{
							"internalType": "uint16",
							"name": "_srcChainId",
							"type": "uint16"
						},
						{
							"internalType": "bytes",
							"name": "_srcAddress",
							"type": "bytes"
						},
						{
							"internalType": "uint64",
							"name": "_nonce",
							"type": "uint64"
						},
						{
							"internalType": "bytes",
							"name": "_payload",
							"type": "bytes"
						}
					],
					"name": "lzReceive",
					"outputs": [],
					"stateMutability": "nonpayable",
					"type": "function"
				},
				{
					"inputs": [
						{
							"internalType": "uint16",
							"name": "",
							"type": "uint16"
						},
						{
							"internalType": "uint16",
							"name": "",
							"type": "uint16"
						}
					],
					"name": "minDstGasLookup",
					"outputs": [
						{
							"internalType": "uint256",
							"name": "",
							"type": "uint256"
						}
					],
					"stateMutability": "view",
					"type": "function"
				},
				{
					"inputs": [
						{
							"internalType": "uint16",
							"name": "_srcChainId",
							"type": "uint16"
						},
						{
							"internalType": "bytes",
							"name": "_srcAddress",
							"type": "bytes"
						},
						{
							"internalType": "uint64",
							"name": "_nonce",
							"type": "uint64"
						},
						{
							"internalType": "bytes",
							"name": "_payload",
							"type": "bytes"
						}
					],
					"name": "nonblockingLzReceive",
					"outputs": [],
					"stateMutability": "nonpayable",
					"type": "function"
				},
				{
					"inputs": [],
					"name": "owner",
					"outputs": [
						{
							"internalType": "address",
							"name": "",
							"type": "address"
						}
					],
					"stateMutability": "view",
					"type": "function"
				},
				{
					"inputs": [
						{
							"internalType": "uint16",
							"name": "",
							"type": "uint16"
						}
					],
					"name": "payloadSizeLimitLookup",
					"outputs": [
						{
							"internalType": "uint256",
							"name": "",
							"type": "uint256"
						}
					],
					"stateMutability": "view",
					"type": "function"
				},
				{
					"inputs": [],
					"name": "precrime",
					"outputs": [
						{
							"internalType": "address",
							"name": "",
							"type": "address"
						}
					],
					"stateMutability": "view",
					"type": "function"
				},
				{
					"inputs": [],
					"name": "renounceOwnership",
					"outputs": [],
					"stateMutability": "nonpayable",
					"type": "function"
				},
				{
					"inputs": [
						{
							"internalType": "uint16",
							"name": "_srcChainId",
							"type": "uint16"
						},
						{
							"internalType": "bytes",
							"name": "_srcAddress",
							"type": "bytes"
						},
						{
							"internalType": "uint64",
							"name": "_nonce",
							"type": "uint64"
						},
						{
							"internalType": "bytes",
							"name": "_payload",
							"type": "bytes"
						}
					],
					"name": "retryMessage",
					"outputs": [],
					"stateMutability": "payable",
					"type": "function"
				},
				{
					"inputs": [
						{
							"internalType": "string",
							"name": "_message",
							"type": "string"
						}
					],
					"name": "send",
					"outputs": [],
					"stateMutability": "payable",
					"type": "function"
				},
				{
					"inputs": [
						{
							"internalType": "uint16",
							"name": "_version",
							"type": "uint16"
						},
						{
							"internalType": "uint16",
							"name": "_chainId",
							"type": "uint16"
						},
						{
							"internalType": "uint256",
							"name": "_configType",
							"type": "uint256"
						},
						{
							"internalType": "bytes",
							"name": "_config",
							"type": "bytes"
						}
					],
					"name": "setConfig",
					"outputs": [],
					"stateMutability": "nonpayable",
					"type": "function"
				},
				{
					"inputs": [
						{
							"internalType": "uint16",
							"name": "_dstChainId",
							"type": "uint16"
						},
						{
							"internalType": "uint16",
							"name": "_packetType",
							"type": "uint16"
						},
						{
							"internalType": "uint256",
							"name": "_minGas",
							"type": "uint256"
						}
					],
					"name": "setMinDstGas",
					"outputs": [],
					"stateMutability": "nonpayable",
					"type": "function"
				},
				{
					"inputs": [
						{
							"internalType": "uint16",
							"name": "_dstChainId",
							"type": "uint16"
						},
						{
							"internalType": "uint256",
							"name": "_size",
							"type": "uint256"
						}
					],
					"name": "setPayloadSizeLimit",
					"outputs": [],
					"stateMutability": "nonpayable",
					"type": "function"
				},
				{
					"inputs": [
						{
							"internalType": "address",
							"name": "_precrime",
							"type": "address"
						}
					],
					"name": "setPrecrime",
					"outputs": [],
					"stateMutability": "nonpayable",
					"type": "function"
				},
				{
					"inputs": [
						{
							"internalType": "uint16",
							"name": "_version",
							"type": "uint16"
						}
					],
					"name": "setReceiveVersion",
					"outputs": [],
					"stateMutability": "nonpayable",
					"type": "function"
				},
				{
					"inputs": [
						{
							"internalType": "uint16",
							"name": "_version",
							"type": "uint16"
						}
					],
					"name": "setSendVersion",
					"outputs": [],
					"stateMutability": "nonpayable",
					"type": "function"
				},
				{
					"inputs": [
						{
							"internalType": "uint16",
							"name": "_remoteChainId",
							"type": "uint16"
						},
						{
							"internalType": "bytes",
							"name": "_path",
							"type": "bytes"
						}
					],
					"name": "setTrustedRemote",
					"outputs": [],
					"stateMutability": "nonpayable",
					"type": "function"
				},
				{
					"inputs": [
						{
							"internalType": "uint16",
							"name": "_remoteChainId",
							"type": "uint16"
						},
						{
							"internalType": "bytes",
							"name": "_remoteAddress",
							"type": "bytes"
						}
					],
					"name": "setTrustedRemoteAddress",
					"outputs": [],
					"stateMutability": "nonpayable",
					"type": "function"
				},
				{
					"inputs": [
						{
							"internalType": "address",
							"name": "newOwner",
							"type": "address"
						}
					],
					"name": "transferOwnership",
					"outputs": [],
					"stateMutability": "nonpayable",
					"type": "function"
				},
				{
					"inputs": [
						{
							"internalType": "address",
							"name": "_otherContract",
							"type": "address"
						}
					],
					"name": "trustAddress",
					"outputs": [],
					"stateMutability": "nonpayable",
					"type": "function"
				},
				{
					"inputs": [
						{
							"internalType": "uint16",
							"name": "",
							"type": "uint16"
						}
					],
					"name": "trustedRemoteLookup",
					"outputs": [
						{
							"internalType": "bytes",
							"name": "",
							"type": "bytes"
						}
					],
					"stateMutability": "view",
					"type": "function"
				}
			],
			"devdoc": {
				"kind": "dev",
				"methods": {
					"owner()": {
						"details": "Returns the address of the current owner."
					},
					"renounceOwnership()": {
						"details": "Leaves the contract without owner. It will not be possible to call `onlyOwner` functions anymore. Can only be called by the current owner. NOTE: Renouncing ownership will leave the contract without an owner, thereby removing any functionality that is only available to the owner."
					},
					"transferOwnership(address)": {
						"details": "Transfers ownership of the contract to a new account (`newOwner`). Can only be called by the current owner."
					}
				},
				"version": 1
			},
			"evm": {
				"assembly": "    /* \"contracts/examples/sldtdrn.sol\":350:1301  contract LayerZeroTest is NonblockingLzApp {... */\n  mstore(0x40, 0xa0)\n    /* \"contracts/examples/sldtdrn.sol\":400:443  string public data = \"Nothing received yet\" */\n  mload(0x40)\n  dup1\n  0x40\n  add\n  0x40\n  mstore\n  dup1\n  0x14\n  dup2\n  mstore\n  0x20\n  add\n  0x4e6f7468696e6720726563656976656420796574000000000000000000000000\n  dup2\n  mstore\n  pop\n  0x06\n  swap1\n  dup2\n  tag_1\n  swap2\n  swap1\n  tag_2\n  jump\t// in\ntag_1:\n  pop\n    /* \"contracts/examples/sldtdrn.sol\":481:738  constructor(address _lzEndpoint) NonblockingLzApp(_lzEndpoint) {... */\n  callvalue\n  dup1\n  iszero\n  tag_3\n  jumpi\n  0x00\n  dup1\n  revert\ntag_3:\n  pop\n  mload(0x40)\n  sub(codesize, bytecodeSize)\n  dup1\n  bytecodeSize\n  dup4\n  codecopy\n  dup2\n  dup2\n  add\n  0x40\n  mstore\n  dup2\n  add\n  swap1\n  tag_4\n  swap2\n  swap1\n  tag_5\n  jump\t// in\ntag_4:\n    /* \"contracts/examples/sldtdrn.sol\":531:542  _lzEndpoint */\n  dup1\n    /* \"contracts/lzApp/NonblockingLzApp.sol\":603:612  _endpoint */\n  dup1\n    /* \"https://github.com/OpenZeppelin/openzeppelin-contracts/blob/release-v4.7/contracts/access/Ownable.sol\":936:968  _transferOwnership(_msgSender()) */\n  tag_11\n    /* \"https://github.com/OpenZeppelin/openzeppelin-contracts/blob/release-v4.7/contracts/access/Ownable.sol\":955:967  _msgSender() */\n  tag_12\n    /* \"https://github.com/OpenZeppelin/openzeppelin-contracts/blob/release-v4.7/contracts/access/Ownable.sol\":955:965  _msgSender */\n  shl(0x20, tag_13)\n    /* \"https://github.com/OpenZeppelin/openzeppelin-contracts/blob/release-v4.7/contracts/access/Ownable.sol\":955:967  _msgSender() */\n  0x20\n  shr\n  jump\t// in\ntag_12:\n    /* \"https://github.com/OpenZeppelin/openzeppelin-contracts/blob/release-v4.7/contracts/access/Ownable.sol\":936:954  _transferOwnership */\n  shl(0x20, tag_14)\n    /* \"https://github.com/OpenZeppelin/openzeppelin-contracts/blob/release-v4.7/contracts/access/Ownable.sol\":936:968  _transferOwnership(_msgSender()) */\n  0x20\n  shr\n  jump\t// in\ntag_11:\n    /* \"contracts/lzApp/LzApp.sol\":1292:1301  _endpoint */\n  dup1\n    /* \"contracts/lzApp/LzApp.sol\":1260:1302  lzEndpoint = ILayerZeroEndpoint(_endpoint) */\n  0xffffffffffffffffffffffffffffffffffffffff\n  and\n  0x80\n  dup2\n  0xffffffffffffffffffffffffffffffffffffffff\n  and\n  dup2\n  mstore\n  pop\n  pop\n    /* \"contracts/lzApp/LzApp.sol\":1219:1309  constructor(address _endpoint) {... */\n  pop\n    /* \"contracts/lzApp/NonblockingLzApp.sol\":566:616  constructor(address _endpoint) LzApp(_endpoint) {} */\n  pop\n    /* \"contracts/examples/sldtdrn.sol\":574:616  0xf69186dfBa60DdB133E91E9A4B5673624293d8F8 */\n  0xf69186dfba60ddb133e91e9a4b5673624293d8f8\n    /* \"contracts/examples/sldtdrn.sol\":559:616  _lzEndpoint == 0xf69186dfBa60DdB133E91E9A4B5673624293d8F8 */\n  0xffffffffffffffffffffffffffffffffffffffff\n  and\n    /* \"contracts/examples/sldtdrn.sol\":559:570  _lzEndpoint */\n  dup2\n    /* \"contracts/examples/sldtdrn.sol\":559:616  _lzEndpoint == 0xf69186dfBa60DdB133E91E9A4B5673624293d8F8 */\n  0xffffffffffffffffffffffffffffffffffffffff\n  and\n  sub\n    /* \"contracts/examples/sldtdrn.sol\":555:637  if (_lzEndpoint == 0xf69186dfBa60DdB133E91E9A4B5673624293d8F8) destChainId = 10153 */\n  tag_18\n  jumpi\n    /* \"contracts/examples/sldtdrn.sol\":632:637  10153 */\n  0x27a9\n    /* \"contracts/examples/sldtdrn.sol\":618:629  destChainId */\n  0x07\n  0x00\n    /* \"contracts/examples/sldtdrn.sol\":618:637  destChainId = 10153 */\n  0x0100\n  exp\n  dup2\n  sload\n  dup2\n  0xffff\n  mul\n  not\n  and\n  swap1\n  dup4\n  0xffff\n  and\n  mul\n  or\n  swap1\n  sstore\n  pop\n    /* \"contracts/examples/sldtdrn.sol\":555:637  if (_lzEndpoint == 0xf69186dfBa60DdB133E91E9A4B5673624293d8F8) destChainId = 10153 */\ntag_18:\n    /* \"contracts/examples/sldtdrn.sol\":667:709  0xbfD2135BFfbb0B5378b56643c2Df8a87552Bfa23 */\n  0xbfd2135bffbb0b5378b56643c2df8a87552bfa23\n    /* \"contracts/examples/sldtdrn.sol\":652:709  _lzEndpoint == 0xbfD2135BFfbb0B5378b56643c2Df8a87552Bfa23 */\n  0xffffffffffffffffffffffffffffffffffffffff\n  and\n    /* \"contracts/examples/sldtdrn.sol\":652:663  _lzEndpoint */\n  dup2\n    /* \"contracts/examples/sldtdrn.sol\":652:709  _lzEndpoint == 0xbfD2135BFfbb0B5378b56643c2Df8a87552Bfa23 */\n  0xffffffffffffffffffffffffffffffffffffffff\n  and\n  sub\n    /* \"contracts/examples/sldtdrn.sol\":648:730  if (_lzEndpoint == 0xbfD2135BFfbb0B5378b56643c2Df8a87552Bfa23) destChainId = 10109 */\n  tag_19\n  jumpi\n    /* \"contracts/examples/sldtdrn.sol\":725:730  10109 */\n  0x277d\n    /* \"contracts/examples/sldtdrn.sol\":711:722  destChainId */\n  0x07\n  0x00\n    /* \"contracts/examples/sldtdrn.sol\":711:730  destChainId = 10109 */\n  0x0100\n  exp\n  dup2\n  sload\n  dup2\n  0xffff\n  mul\n  not\n  and\n  swap1\n  dup4\n  0xffff\n  and\n  mul\n  or\n  swap1\n  sstore\n  pop\n    /* \"contracts/examples/sldtdrn.sol\":648:730  if (_lzEndpoint == 0xbfD2135BFfbb0B5378b56643c2Df8a87552Bfa23) destChainId = 10109 */\ntag_19:\n    /* \"contracts/examples/sldtdrn.sol\":481:738  constructor(address _lzEndpoint) NonblockingLzApp(_lzEndpoint) {... */\n  pop\n    /* \"contracts/examples/sldtdrn.sol\":350:1301  contract LayerZeroTest is NonblockingLzApp {... */\n  jump(tag_20)\n    /* \"https://github.com/OpenZeppelin/openzeppelin-contracts/blob/release-v4.7/contracts/utils/Context.sol\":640:736  function _msgSender() internal view virtual returns (address) {... */\ntag_13:\n    /* \"https://github.com/OpenZeppelin/openzeppelin-contracts/blob/release-v4.7/contracts/utils/Context.sol\":693:700  address */\n  0x00\n    /* \"https://github.com/OpenZeppelin/openzeppelin-contracts/blob/release-v4.7/contracts/utils/Context.sol\":719:729  msg.sender */\n  caller\n    /* \"https://github.com/OpenZeppelin/openzeppelin-contracts/blob/release-v4.7/contracts/utils/Context.sol\":712:729  return msg.sender */\n  swap1\n  pop\n    /* \"https://github.com/OpenZeppelin/openzeppelin-contracts/blob/release-v4.7/contracts/utils/Context.sol\":640:736  function _msgSender() internal view virtual returns (address) {... */\n  swap1\n  jump\t// out\n    /* \"https://github.com/OpenZeppelin/openzeppelin-contracts/blob/release-v4.7/contracts/access/Ownable.sol\":2433:2620  function _transferOwnership(address newOwner) internal virtual {... */\ntag_14:\n    /* \"https://github.com/OpenZeppelin/openzeppelin-contracts/blob/release-v4.7/contracts/access/Ownable.sol\":2506:2522  address oldOwner */\n  0x00\n    /* \"https://github.com/OpenZeppelin/openzeppelin-contracts/blob/release-v4.7/contracts/access/Ownable.sol\":2525:2531  _owner */\n  dup1\n  0x00\n  swap1\n  sload\n  swap1\n  0x0100\n  exp\n  swap1\n  div\n  0xffffffffffffffffffffffffffffffffffffffff\n  and\n    /* \"https://github.com/OpenZeppelin/openzeppelin-contracts/blob/release-v4.7/contracts/access/Ownable.sol\":2506:2531  address oldOwner = _owner */\n  swap1\n  pop\n    /* \"https://github.com/OpenZeppelin/openzeppelin-contracts/blob/release-v4.7/contracts/access/Ownable.sol\":2550:2558  newOwner */\n  dup2\n    /* \"https://github.com/OpenZeppelin/openzeppelin-contracts/blob/release-v4.7/contracts/access/Ownable.sol\":2541:2547  _owner */\n  0x00\n  dup1\n    /* \"https://github.com/OpenZeppelin/openzeppelin-contracts/blob/release-v4.7/contracts/access/Ownable.sol\":2541:2558  _owner = newOwner */\n  0x0100\n  exp\n  dup2\n  sload\n  dup2\n  0xffffffffffffffffffffffffffffffffffffffff\n  mul\n  not\n  and\n  swap1\n  dup4\n  0xffffffffffffffffffffffffffffffffffffffff\n  and\n  mul\n  or\n  swap1\n  sstore\n  pop\n    /* \"https://github.com/OpenZeppelin/openzeppelin-contracts/blob/release-v4.7/contracts/access/Ownable.sol\":2604:2612  newOwner */\n  dup2\n    /* \"https://github.com/OpenZeppelin/openzeppelin-contracts/blob/release-v4.7/contracts/access/Ownable.sol\":2573:2613  OwnershipTransferred(oldOwner, newOwner) */\n  0xffffffffffffffffffffffffffffffffffffffff\n  and\n    /* \"https://github.com/OpenZeppelin/openzeppelin-contracts/blob/release-v4.7/contracts/access/Ownable.sol\":2594:2602  oldOwner */\n  dup2\n    /* \"https://github.com/OpenZeppelin/openzeppelin-contracts/blob/release-v4.7/contracts/access/Ownable.sol\":2573:2613  OwnershipTransferred(oldOwner, newOwner) */\n  0xffffffffffffffffffffffffffffffffffffffff\n  and\n  0x8be0079c531659141344cd1fd0a4f28419497f9722a3daafe3b4186f6b6457e0\n  mload(0x40)\n  mload(0x40)\n  dup1\n  swap2\n  sub\n  swap1\n  log3\n    /* \"https://github.com/OpenZeppelin/openzeppelin-contracts/blob/release-v4.7/contracts/access/Ownable.sol\":2496:2620  {... */\n  pop\n    /* \"https://github.com/OpenZeppelin/openzeppelin-contracts/blob/release-v4.7/contracts/access/Ownable.sol\":2433:2620  function _transferOwnership(address newOwner) internal virtual {... */\n  pop\n  jump\t// out\n    /* \"#utility.yul\":7:106   */\ntag_23:\n    /* \"#utility.yul\":59:65   */\n  0x00\n    /* \"#utility.yul\":93:98   */\n  dup2\n    /* \"#utility.yul\":87:99   */\n  mload\n    /* \"#utility.yul\":77:99   */\n  swap1\n  pop\n    /* \"#utility.yul\":7:106   */\n  swap2\n  swap1\n  pop\n  jump\t// out\n    /* \"#utility.yul\":112:292   */\ntag_24:\n    /* \"#utility.yul\":160:237   */\n  0x4e487b7100000000000000000000000000000000000000000000000000000000\n    /* \"#utility.yul\":157:158   */\n  0x00\n    /* \"#utility.yul\":150:238   */\n  mstore\n    /* \"#utility.yul\":257:261   */\n  0x41\n    /* \"#utility.yul\":254:255   */\n  0x04\n    /* \"#utility.yul\":247:262   */\n  mstore\n    /* \"#utility.yul\":281:285   */\n  0x24\n    /* \"#utility.yul\":278:279   */\n  0x00\n    /* \"#utility.yul\":271:286   */\n  revert\n    /* \"#utility.yul\":298:478   */\ntag_25:\n    /* \"#utility.yul\":346:423   */\n  0x4e487b7100000000000000000000000000000000000000000000000000000000\n    /* \"#utility.yul\":343:344   */\n  0x00\n    /* \"#utility.yul\":336:424   */\n  mstore\n    /* \"#utility.yul\":443:447   */\n  0x22\n    /* \"#utility.yul\":440:441   */\n  0x04\n    /* \"#utility.yul\":433:448   */\n  mstore\n    /* \"#utility.yul\":467:471   */\n  0x24\n    /* \"#utility.yul\":464:465   */\n  0x00\n    /* \"#utility.yul\":457:472   */\n  revert\n    /* \"#utility.yul\":484:804   */\ntag_26:\n    /* \"#utility.yul\":528:534   */\n  0x00\n    /* \"#utility.yul\":565:566   */\n  0x02\n    /* \"#utility.yul\":559:563   */\n  dup3\n    /* \"#utility.yul\":555:567   */\n  div\n    /* \"#utility.yul\":545:567   */\n  swap1\n  pop\n    /* \"#utility.yul\":612:613   */\n  0x01\n    /* \"#utility.yul\":606:610   */\n  dup3\n    /* \"#utility.yul\":602:614   */\n  and\n    /* \"#utility.yul\":633:651   */\n  dup1\n    /* \"#utility.yul\":623:704   */\n  tag_55\n  jumpi\n    /* \"#utility.yul\":689:693   */\n  0x7f\n    /* \"#utility.yul\":681:687   */\n  dup3\n    /* \"#utility.yul\":677:694   */\n  and\n    /* \"#utility.yul\":667:694   */\n  swap2\n  pop\n    /* \"#utility.yul\":623:704   */\ntag_55:\n    /* \"#utility.yul\":751:753   */\n  0x20\n    /* \"#utility.yul\":743:749   */\n  dup3\n    /* \"#utility.yul\":740:754   */\n  lt\n    /* \"#utility.yul\":720:738   */\n  dup2\n    /* \"#utility.yul\":717:755   */\n  sub\n    /* \"#utility.yul\":714:798   */\n  tag_56\n  jumpi\n    /* \"#utility.yul\":770:788   */\n  tag_57\n  tag_25\n  jump\t// in\ntag_57:\n    /* \"#utility.yul\":714:798   */\ntag_56:\n    /* \"#utility.yul\":535:804   */\n  pop\n    /* \"#utility.yul\":484:804   */\n  swap2\n  swap1\n  pop\n  jump\t// out\n    /* \"#utility.yul\":810:951   */\ntag_27:\n    /* \"#utility.yul\":859:863   */\n  0x00\n    /* \"#utility.yul\":882:885   */\n  dup2\n    /* \"#utility.yul\":874:885   */\n  swap1\n  pop\n    /* \"#utility.yul\":905:908   */\n  dup2\n    /* \"#utility.yul\":902:903   */\n  0x00\n    /* \"#utility.yul\":895:909   */\n  mstore\n    /* \"#utility.yul\":939:943   */\n  0x20\n    /* \"#utility.yul\":936:937   */\n  0x00\n    /* \"#utility.yul\":926:944   */\n  keccak256\n    /* \"#utility.yul\":918:944   */\n  swap1\n  pop\n    /* \"#utility.yul\":810:951   */\n  swap2\n  swap1\n  pop\n  jump\t// out\n    /* \"#utility.yul\":957:1050   */\ntag_28:\n    /* \"#utility.yul\":994:1000   */\n  0x00\n    /* \"#utility.yul\":1041:1043   */\n  0x20\n    /* \"#utility.yul\":1036:1038   */\n  0x1f\n    /* \"#utility.yul\":1029:1034   */\n  dup4\n    /* \"#utility.yul\":1025:1039   */\n  add\n    /* \"#utility.yul\":1021:1044   */\n  div\n    /* \"#utility.yul\":1011:1044   */\n  swap1\n  pop\n    /* \"#utility.yul\":957:1050   */\n  swap2\n  swap1\n  pop\n  jump\t// out\n    /* \"#utility.yul\":1056:1163   */\ntag_29:\n    /* \"#utility.yul\":1100:1108   */\n  0x00\n    /* \"#utility.yul\":1150:1155   */\n  dup3\n    /* \"#utility.yul\":1144:1148   */\n  dup3\n    /* \"#utility.yul\":1140:1156   */\n  shl\n    /* \"#utility.yul\":1119:1156   */\n  swap1\n  pop\n    /* \"#utility.yul\":1056:1163   */\n  swap3\n  swap2\n  pop\n  pop\n  jump\t// out\n    /* \"#utility.yul\":1169:1562   */\ntag_30:\n    /* \"#utility.yul\":1238:1244   */\n  0x00\n    /* \"#utility.yul\":1288:1289   */\n  0x08\n    /* \"#utility.yul\":1276:1286   */\n  dup4\n    /* \"#utility.yul\":1272:1290   */\n  mul\n    /* \"#utility.yul\":1311:1408   */\n  tag_62\n    /* \"#utility.yul\":1341:1407   */\n  0xffffffffffffffffffffffffffffffffffffffffffffffffffffffffffffffff\n    /* \"#utility.yul\":1330:1339   */\n  dup3\n    /* \"#utility.yul\":1311:1408   */\n  tag_29\n  jump\t// in\ntag_62:\n    /* \"#utility.yul\":1429:1468   */\n  tag_63\n    /* \"#utility.yul\":1459:1467   */\n  dup7\n    /* \"#utility.yul\":1448:1457   */\n  dup4\n    /* \"#utility.yul\":1429:1468   */\n  tag_29\n  jump\t// in\ntag_63:\n    /* \"#utility.yul\":1417:1468   */\n  swap6\n  pop\n    /* \"#utility.yul\":1501:1505   */\n  dup1\n    /* \"#utility.yul\":1497:1506   */\n  not\n    /* \"#utility.yul\":1490:1495   */\n  dup5\n    /* \"#utility.yul\":1486:1507   */\n  and\n    /* \"#utility.yul\":1477:1507   */\n  swap4\n  pop\n    /* \"#utility.yul\":1550:1554   */\n  dup1\n    /* \"#utility.yul\":1540:1548   */\n  dup7\n    /* \"#utility.yul\":1536:1555   */\n  and\n    /* \"#utility.yul\":1529:1534   */\n  dup5\n    /* \"#utility.yul\":1526:1556   */\n  or\n    /* \"#utility.yul\":1516:1556   */\n  swap3\n  pop\n    /* \"#utility.yul\":1245:1562   */\n  pop\n  pop\n    /* \"#utility.yul\":1169:1562   */\n  swap4\n  swap3\n  pop\n  pop\n  pop\n  jump\t// out\n    /* \"#utility.yul\":1568:1645   */\ntag_31:\n    /* \"#utility.yul\":1605:1612   */\n  0x00\n    /* \"#utility.yul\":1634:1639   */\n  dup2\n    /* \"#utility.yul\":1623:1639   */\n  swap1\n  pop\n    /* \"#utility.yul\":1568:1645   */\n  swap2\n  swap1\n  pop\n  jump\t// out\n    /* \"#utility.yul\":1651:1711   */\ntag_32:\n    /* \"#utility.yul\":1679:1682   */\n  0x00\n    /* \"#utility.yul\":1700:1705   */\n  dup2\n    /* \"#utility.yul\":1693:1705   */\n  swap1\n  pop\n    /* \"#utility.yul\":1651:1711   */\n  swap2\n  swap1\n  pop\n  jump\t// out\n    /* \"#utility.yul\":1717:1859   */\ntag_33:\n    /* \"#utility.yul\":1767:1776   */\n  0x00\n    /* \"#utility.yul\":1800:1853   */\n  tag_67\n    /* \"#utility.yul\":1818:1852   */\n  tag_68\n    /* \"#utility.yul\":1827:1851   */\n  tag_69\n    /* \"#utility.yul\":1845:1850   */\n  dup5\n    /* \"#utility.yul\":1827:1851   */\n  tag_31\n  jump\t// in\ntag_69:\n    /* \"#utility.yul\":1818:1852   */\n  tag_32\n  jump\t// in\ntag_68:\n    /* \"#utility.yul\":1800:1853   */\n  tag_31\n  jump\t// in\ntag_67:\n    /* \"#utility.yul\":1787:1853   */\n  swap1\n  pop\n    /* \"#utility.yul\":1717:1859   */\n  swap2\n  swap1\n  pop\n  jump\t// out\n    /* \"#utility.yul\":1865:1940   */\ntag_34:\n    /* \"#utility.yul\":1908:1911   */\n  0x00\n    /* \"#utility.yul\":1929:1934   */\n  dup2\n    /* \"#utility.yul\":1922:1934   */\n  swap1\n  pop\n    /* \"#utility.yul\":1865:1940   */\n  swap2\n  swap1\n  pop\n  jump\t// out\n    /* \"#utility.yul\":1946:2215   */\ntag_35:\n    /* \"#utility.yul\":2056:2095   */\n  tag_72\n    /* \"#utility.yul\":2087:2094   */\n  dup4\n    /* \"#utility.yul\":2056:2095   */\n  tag_33\n  jump\t// in\ntag_72:\n    /* \"#utility.yul\":2117:2208   */\n  tag_73\n    /* \"#utility.yul\":2166:2207   */\n  tag_74\n    /* \"#utility.yul\":2190:2206   */\n  dup3\n    /* \"#utility.yul\":2166:2207   */\n  tag_34\n  jump\t// in\ntag_74:\n    /* \"#utility.yul\":2158:2164   */\n  dup5\n    /* \"#utility.yul\":2151:2155   */\n  dup5\n    /* \"#utility.yul\":2145:2156   */\n  sload\n    /* \"#utility.yul\":2117:2208   */\n  tag_30\n  jump\t// in\ntag_73:\n    /* \"#utility.yul\":2111:2115   */\n  dup3\n    /* \"#utility.yul\":2104:2209   */\n  sstore\n    /* \"#utility.yul\":2022:2215   */\n  pop\n    /* \"#utility.yul\":1946:2215   */\n  pop\n  pop\n  pop\n  jump\t// out\n    /* \"#utility.yul\":2221:2294   */\ntag_36:\n    /* \"#utility.yul\":2266:2269   */\n  0x00\n    /* \"#utility.yul\":2221:2294   */\n  swap1\n  jump\t// out\n    /* \"#utility.yul\":2300:2489   */\ntag_37:\n    /* \"#utility.yul\":2377:2409   */\n  tag_77\n  tag_36\n  jump\t// in\ntag_77:\n    /* \"#utility.yul\":2418:2483   */\n  tag_78\n    /* \"#utility.yul\":2476:2482   */\n  dup2\n    /* \"#utility.yul\":2468:2474   */\n  dup5\n    /* \"#utility.yul\":2462:2466   */\n  dup5\n    /* \"#utility.yul\":2418:2483   */\n  tag_35\n  jump\t// in\ntag_78:\n    /* \"#utility.yul\":2353:2489   */\n  pop\n    /* \"#utility.yul\":2300:2489   */\n  pop\n  pop\n  jump\t// out\n    /* \"#utility.yul\":2495:2681   */\ntag_38:\n    /* \"#utility.yul\":2555:2675   */\ntag_80:\n    /* \"#utility.yul\":2572:2575   */\n  dup2\n    /* \"#utility.yul\":2565:2570   */\n  dup2\n    /* \"#utility.yul\":2562:2576   */\n  lt\n    /* \"#utility.yul\":2555:2675   */\n  iszero\n  tag_82\n  jumpi\n    /* \"#utility.yul\":2626:2665   */\n  tag_83\n    /* \"#utility.yul\":2663:2664   */\n  0x00\n    /* \"#utility.yul\":2656:2661   */\n  dup3\n    /* \"#utility.yul\":2626:2665   */\n  tag_37\n  jump\t// in\ntag_83:\n    /* \"#utility.yul\":2599:2600   */\n  0x01\n    /* \"#utility.yul\":2592:2597   */\n  dup2\n    /* \"#utility.yul\":2588:2601   */\n  add\n    /* \"#utility.yul\":2579:2601   */\n  swap1\n  pop\n    /* \"#utility.yul\":2555:2675   */\n  jump(tag_80)\ntag_82:\n    /* \"#utility.yul\":2495:2681   */\n  pop\n  pop\n  jump\t// out\n    /* \"#utility.yul\":2687:3230   */\ntag_39:\n    /* \"#utility.yul\":2788:2790   */\n  0x1f\n    /* \"#utility.yul\":2783:2786   */\n  dup3\n    /* \"#utility.yul\":2780:2791   */\n  gt\n    /* \"#utility.yul\":2777:3223   */\n  iszero\n  tag_85\n  jumpi\n    /* \"#utility.yul\":2822:2860   */\n  tag_86\n    /* \"#utility.yul\":2854:2859   */\n  dup2\n    /* \"#utility.yul\":2822:2860   */\n  tag_27\n  jump\t// in\ntag_86:\n    /* \"#utility.yul\":2906:2935   */\n  tag_87\n    /* \"#utility.yul\":2924:2934   */\n  dup5\n    /* \"#utility.yul\":2906:2935   */\n  tag_28\n  jump\t// in\ntag_87:\n    /* \"#utility.yul\":2896:2904   */\n  dup2\n    /* \"#utility.yul\":2892:2936   */\n  add\n    /* \"#utility.yul\":3089:3091   */\n  0x20\n    /* \"#utility.yul\":3077:3087   */\n  dup6\n    /* \"#utility.yul\":3074:3092   */\n  lt\n    /* \"#utility.yul\":3071:3120   */\n  iszero\n  tag_88\n  jumpi\n    /* \"#utility.yul\":3110:3118   */\n  dup2\n    /* \"#utility.yul\":3095:3118   */\n  swap1\n  pop\n    /* \"#utility.yul\":3071:3120   */\ntag_88:\n    /* \"#utility.yul\":3133:3213   */\n  tag_89\n    /* \"#utility.yul\":3189:3211   */\n  tag_90\n    /* \"#utility.yul\":3207:3210   */\n  dup6\n    /* \"#utility.yul\":3189:3211   */\n  tag_28\n  jump\t// in\ntag_90:\n    /* \"#utility.yul\":3179:3187   */\n  dup4\n    /* \"#utility.yul\":3175:3212   */\n  add\n    /* \"#utility.yul\":3162:3173   */\n  dup3\n    /* \"#utility.yul\":3133:3213   */\n  tag_38\n  jump\t// in\ntag_89:\n    /* \"#utility.yul\":2792:3223   */\n  pop\n  pop\n    /* \"#utility.yul\":2777:3223   */\ntag_85:\n    /* \"#utility.yul\":2687:3230   */\n  pop\n  pop\n  pop\n  jump\t// out\n    /* \"#utility.yul\":3236:3353   */\ntag_40:\n    /* \"#utility.yul\":3290:3298   */\n  0x00\n    /* \"#utility.yul\":3340:3345   */\n  dup3\n    /* \"#utility.yul\":3334:3338   */\n  dup3\n    /* \"#utility.yul\":3330:3346   */\n  shr\n    /* \"#utility.yul\":3309:3346   */\n  swap1\n  pop\n    /* \"#utility.yul\":3236:3353   */\n  swap3\n  swap2\n  pop\n  pop\n  jump\t// out\n    /* \"#utility.yul\":3359:3528   */\ntag_41:\n    /* \"#utility.yul\":3403:3409   */\n  0x00\n    /* \"#utility.yul\":3436:3487   */\n  tag_93\n    /* \"#utility.yul\":3484:3485   */\n  0x00\n    /* \"#utility.yul\":3480:3486   */\n  not\n    /* \"#utility.yul\":3472:3477   */\n  dup5\n    /* \"#utility.yul\":3469:3470   */\n  0x08\n    /* \"#utility.yul\":3465:3478   */\n  mul\n    /* \"#utility.yul\":3436:3487   */\n  tag_40\n  jump\t// in\ntag_93:\n    /* \"#utility.yul\":3432:3488   */\n  not\n    /* \"#utility.yul\":3517:3521   */\n  dup1\n    /* \"#utility.yul\":3511:3515   */\n  dup4\n    /* \"#utility.yul\":3507:3522   */\n  and\n    /* \"#utility.yul\":3497:3522   */\n  swap2\n  pop\n    /* \"#utility.yul\":3410:3528   */\n  pop\n    /* \"#utility.yul\":3359:3528   */\n  swap3\n  swap2\n  pop\n  pop\n  jump\t// out\n    /* \"#utility.yul\":3533:3828   */\ntag_42:\n    /* \"#utility.yul\":3609:3613   */\n  0x00\n    /* \"#utility.yul\":3755:3784   */\n  tag_95\n    /* \"#utility.yul\":3780:3783   */\n  dup4\n    /* \"#utility.yul\":3774:3778   */\n  dup4\n    /* \"#utility.yul\":3755:3784   */\n  tag_41\n  jump\t// in\ntag_95:\n    /* \"#utility.yul\":3747:3784   */\n  swap2\n  pop\n    /* \"#utility.yul\":3817:3820   */\n  dup3\n    /* \"#utility.yul\":3814:3815   */\n  0x02\n    /* \"#utility.yul\":3810:3821   */\n  mul\n    /* \"#utility.yul\":3804:3808   */\n  dup3\n    /* \"#utility.yul\":3801:3822   */\n  or\n    /* \"#utility.yul\":3793:3822   */\n  swap1\n  pop\n    /* \"#utility.yul\":3533:3828   */\n  swap3\n  swap2\n  pop\n  pop\n  jump\t// out\n    /* \"#utility.yul\":3833:5228   */\ntag_2:\n    /* \"#utility.yul\":3950:3987   */\n  tag_97\n    /* \"#utility.yul\":3983:3986   */\n  dup3\n    /* \"#utility.yul\":3950:3987   */\n  tag_23\n  jump\t// in\ntag_97:\n    /* \"#utility.yul\":4052:4070   */\n  0xffffffffffffffff\n    /* \"#utility.yul\":4044:4050   */\n  dup2\n    /* \"#utility.yul\":4041:4071   */\n  gt\n    /* \"#utility.yul\":4038:4094   */\n  iszero\n  tag_98\n  jumpi\n    /* \"#utility.yul\":4074:4092   */\n  tag_99\n  tag_24\n  jump\t// in\ntag_99:\n    /* \"#utility.yul\":4038:4094   */\ntag_98:\n    /* \"#utility.yul\":4118:4156   */\n  tag_100\n    /* \"#utility.yul\":4150:4154   */\n  dup3\n    /* \"#utility.yul\":4144:4155   */\n  sload\n    /* \"#utility.yul\":4118:4156   */\n  tag_26\n  jump\t// in\ntag_100:\n    /* \"#utility.yul\":4203:4270   */\n  tag_101\n    /* \"#utility.yul\":4263:4269   */\n  dup3\n    /* \"#utility.yul\":4255:4261   */\n  dup3\n    /* \"#utility.yul\":4249:4253   */\n  dup6\n    /* \"#utility.yul\":4203:4270   */\n  tag_39\n  jump\t// in\ntag_101:\n    /* \"#utility.yul\":4297:4298   */\n  0x00\n    /* \"#utility.yul\":4321:4325   */\n  0x20\n    /* \"#utility.yul\":4308:4325   */\n  swap1\n  pop\n    /* \"#utility.yul\":4353:4355   */\n  0x1f\n    /* \"#utility.yul\":4345:4351   */\n  dup4\n    /* \"#utility.yul\":4342:4356   */\n  gt\n    /* \"#utility.yul\":4370:4371   */\n  0x01\n    /* \"#utility.yul\":4365:4983   */\n  dup2\n  eq\n  tag_103\n  jumpi\n    /* \"#utility.yul\":5027:5028   */\n  0x00\n    /* \"#utility.yul\":5044:5050   */\n  dup5\n    /* \"#utility.yul\":5041:5118   */\n  iszero\n  tag_104\n  jumpi\n    /* \"#utility.yul\":5093:5102   */\n  dup3\n    /* \"#utility.yul\":5088:5091   */\n  dup8\n    /* \"#utility.yul\":5084:5103   */\n  add\n    /* \"#utility.yul\":5078:5104   */\n  mload\n    /* \"#utility.yul\":5069:5104   */\n  swap1\n  pop\n    /* \"#utility.yul\":5041:5118   */\ntag_104:\n    /* \"#utility.yul\":5144:5211   */\n  tag_105\n    /* \"#utility.yul\":5204:5210   */\n  dup6\n    /* \"#utility.yul\":5197:5202   */\n  dup3\n    /* \"#utility.yul\":5144:5211   */\n  tag_42\n  jump\t// in\ntag_105:\n    /* \"#utility.yul\":5138:5142   */\n  dup7\n    /* \"#utility.yul\":5131:5212   */\n  sstore\n    /* \"#utility.yul\":5000:5222   */\n  pop\n    /* \"#utility.yul\":4335:5222   */\n  jump(tag_102)\n    /* \"#utility.yul\":4365:4983   */\ntag_103:\n    /* \"#utility.yul\":4417:4421   */\n  0x1f\n    /* \"#utility.yul\":4413:4422   */\n  not\n    /* \"#utility.yul\":4405:4411   */\n  dup5\n    /* \"#utility.yul\":4401:4423   */\n  and\n    /* \"#utility.yul\":4451:4488   */\n  tag_106\n    /* \"#utility.yul\":4483:4487   */\n  dup7\n    /* \"#utility.yul\":4451:4488   */\n  tag_27\n  jump\t// in\ntag_106:\n    /* \"#utility.yul\":4510:4511   */\n  0x00\n    /* \"#utility.yul\":4524:4732   */\ntag_107:\n    /* \"#utility.yul\":4538:4545   */\n  dup3\n    /* \"#utility.yul\":4535:4536   */\n  dup2\n    /* \"#utility.yul\":4532:4546   */\n  lt\n    /* \"#utility.yul\":4524:4732   */\n  iszero\n  tag_109\n  jumpi\n    /* \"#utility.yul\":4617:4626   */\n  dup5\n    /* \"#utility.yul\":4612:4615   */\n  dup10\n    /* \"#utility.yul\":4608:4627   */\n  add\n    /* \"#utility.yul\":4602:4628   */\n  mload\n    /* \"#utility.yul\":4594:4600   */\n  dup3\n    /* \"#utility.yul\":4587:4629   */\n  sstore\n    /* \"#utility.yul\":4668:4669   */\n  0x01\n    /* \"#utility.yul\":4660:4666   */\n  dup3\n    /* \"#utility.yul\":4656:4670   */\n  add\n    /* \"#utility.yul\":4646:4670   */\n  swap2\n  pop\n    /* \"#utility.yul\":4715:4717   */\n  0x20\n    /* \"#utility.yul\":4704:4713   */\n  dup6\n    /* \"#utility.yul\":4700:4718   */\n  add\n    /* \"#utility.yul\":4687:4718   */\n  swap5\n  pop\n    /* \"#utility.yul\":4561:4565   */\n  0x20\n    /* \"#utility.yul\":4558:4559   */\n  dup2\n    /* \"#utility.yul\":4554:4566   */\n  add\n    /* \"#utility.yul\":4549:4566   */\n  swap1\n  pop\n    /* \"#utility.yul\":4524:4732   */\n  jump(tag_107)\ntag_109:\n    /* \"#utility.yul\":4760:4766   */\n  dup7\n    /* \"#utility.yul\":4751:4758   */\n  dup4\n    /* \"#utility.yul\":4748:4767   */\n  lt\n    /* \"#utility.yul\":4745:4924   */\n  iszero\n  tag_110\n  jumpi\n    /* \"#utility.yul\":4818:4827   */\n  dup5\n    /* \"#utility.yul\":4813:4816   */\n  dup10\n    /* \"#utility.yul\":4809:4828   */\n  add\n    /* \"#utility.yul\":4803:4829   */\n  mload\n    /* \"#utility.yul\":4861:4909   */\n  tag_111\n    /* \"#utility.yul\":4903:4907   */\n  0x1f\n    /* \"#utility.yul\":4895:4901   */\n  dup10\n    /* \"#utility.yul\":4891:4908   */\n  and\n    /* \"#utility.yul\":4880:4889   */\n  dup3\n    /* \"#utility.yul\":4861:4909   */\n  tag_41\n  jump\t// in\ntag_111:\n    /* \"#utility.yul\":4853:4859   */\n  dup4\n    /* \"#utility.yul\":4846:4910   */\n  sstore\n    /* \"#utility.yul\":4768:4924   */\n  pop\n    /* \"#utility.yul\":4745:4924   */\ntag_110:\n    /* \"#utility.yul\":4970:4971   */\n  0x01\n    /* \"#utility.yul\":4966:4967   */\n  0x02\n    /* \"#utility.yul\":4958:4964   */\n  dup9\n    /* \"#utility.yul\":4954:4968   */\n  mul\n    /* \"#utility.yul\":4950:4972   */\n  add\n    /* \"#utility.yul\":4944:4948   */\n  dup9\n    /* \"#utility.yul\":4937:4973   */\n  sstore\n    /* \"#utility.yul\":4372:4983   */\n  pop\n  pop\n  pop\n    /* \"#utility.yul\":4335:5222   */\ntag_102:\n  pop\n    /* \"#utility.yul\":3925:5228   */\n  pop\n  pop\n  pop\n    /* \"#utility.yul\":3833:5228   */\n  pop\n  pop\n  jump\t// out\n    /* \"#utility.yul\":5315:5432   */\ntag_44:\n    /* \"#utility.yul\":5424:5425   */\n  0x00\n    /* \"#utility.yul\":5421:5422   */\n  dup1\n    /* \"#utility.yul\":5414:5426   */\n  revert\n    /* \"#utility.yul\":5561:5687   */\ntag_46:\n    /* \"#utility.yul\":5598:5605   */\n  0x00\n    /* \"#utility.yul\":5638:5680   */\n  0xffffffffffffffffffffffffffffffffffffffff\n    /* \"#utility.yul\":5631:5636   */\n  dup3\n    /* \"#utility.yul\":5627:5681   */\n  and\n    /* \"#utility.yul\":5616:5681   */\n  swap1\n  pop\n    /* \"#utility.yul\":5561:5687   */\n  swap2\n  swap1\n  pop\n  jump\t// out\n    /* \"#utility.yul\":5693:5789   */\ntag_47:\n    /* \"#utility.yul\":5730:5737   */\n  0x00\n    /* \"#utility.yul\":5759:5783   */\n  tag_117\n    /* \"#utility.yul\":5777:5782   */\n  dup3\n    /* \"#utility.yul\":5759:5783   */\n  tag_46\n  jump\t// in\ntag_117:\n    /* \"#utility.yul\":5748:5783   */\n  swap1\n  pop\n    /* \"#utility.yul\":5693:5789   */\n  swap2\n  swap1\n  pop\n  jump\t// out\n    /* \"#utility.yul\":5795:5917   */\ntag_48:\n    /* \"#utility.yul\":5868:5892   */\n  tag_119\n    /* \"#utility.yul\":5886:5891   */\n  dup2\n    /* \"#utility.yul\":5868:5892   */\n  tag_47\n  jump\t// in\ntag_119:\n    /* \"#utility.yul\":5861:5866   */\n  dup2\n    /* \"#utility.yul\":5858:5893   */\n  eq\n    /* \"#utility.yul\":5848:5911   */\n  tag_120\n  jumpi\n    /* \"#utility.yul\":5907:5908   */\n  0x00\n    /* \"#utility.yul\":5904:5905   */\n  dup1\n    /* \"#utility.yul\":5897:5909   */\n  revert\n    /* \"#utility.yul\":5848:5911   */\ntag_120:\n    /* \"#utility.yul\":5795:5917   */\n  pop\n  jump\t// out\n    /* \"#utility.yul\":5923:6066   */\ntag_49:\n    /* \"#utility.yul\":5980:5985   */\n  0x00\n    /* \"#utility.yul\":6011:6017   */\n  dup2\n    /* \"#utility.yul\":6005:6018   */\n  mload\n    /* \"#utility.yul\":5996:6018   */\n  swap1\n  pop\n    /* \"#utility.yul\":6027:6060   */\n  tag_122\n    /* \"#utility.yul\":6054:6059   */\n  dup2\n    /* \"#utility.yul\":6027:6060   */\n  tag_48\n  jump\t// in\ntag_122:\n    /* \"#utility.yul\":5923:6066   */\n  swap3\n  swap2\n  pop\n  pop\n  jump\t// out\n    /* \"#utility.yul\":6072:6423   */\ntag_5:\n    /* \"#utility.yul\":6142:6148   */\n  0x00\n    /* \"#utility.yul\":6191:6193   */\n  0x20\n    /* \"#utility.yul\":6179:6188   */\n  dup3\n    /* \"#utility.yul\":6170:6177   */\n  dup5\n    /* \"#utility.yul\":6166:6189   */\n  sub\n    /* \"#utility.yul\":6162:6194   */\n  slt\n    /* \"#utility.yul\":6159:6278   */\n  iszero\n  tag_124\n  jumpi\n    /* \"#utility.yul\":6197:6276   */\n  tag_125\n  tag_44\n  jump\t// in\ntag_125:\n    /* \"#utility.yul\":6159:6278   */\ntag_124:\n    /* \"#utility.yul\":6317:6318   */\n  0x00\n    /* \"#utility.yul\":6342:6406   */\n  tag_126\n    /* \"#utility.yul\":6398:6405   */\n  dup5\n    /* \"#utility.yul\":6389:6395   */\n  dup3\n    /* \"#utility.yul\":6378:6387   */\n  dup6\n    /* \"#utility.yul\":6374:6396   */\n  add\n    /* \"#utility.yul\":6342:6406   */\n  tag_49\n  jump\t// in\ntag_126:\n    /* \"#utility.yul\":6332:6406   */\n  swap2\n  pop\n    /* \"#utility.yul\":6288:6416   */\n  pop\n    /* \"#utility.yul\":6072:6423   */\n  swap3\n  swap2\n  pop\n  pop\n  jump\t// out\n    /* \"contracts/examples/sldtdrn.sol\":350:1301  contract LayerZeroTest is NonblockingLzApp {... */\ntag_20:\n  mload(0x80)\n  codecopy(0x00, dataOffset(sub_0), dataSize(sub_0))\n  0x00\n  assignImmutable(\"0xd2bf2e9a999710431595af5d3876bd6f95a9accd65a44f4cd49ef60c37cc3ecc\")\n  return(0x00, dataSize(sub_0))\nstop\n\nsub_0: assembly {\n        /* \"contracts/examples/sldtdrn.sol\":350:1301  contract LayerZeroTest is NonblockingLzApp {... */\n      mstore(0x40, 0x80)\n      jumpi(tag_1, lt(calldatasize, 0x04))\n      shr(0xe0, calldataload(0x00))\n      dup1\n      0x8cfd8f5c\n      gt\n      tag_30\n      jumpi\n      dup1\n      0xc4461834\n      gt\n      tag_31\n      jumpi\n      dup1\n      0xdf2a5b3b\n      gt\n      tag_32\n      jumpi\n      dup1\n      0xdf2a5b3b\n      eq\n      tag_26\n      jumpi\n      dup1\n      0xeb8d72b7\n      eq\n      tag_27\n      jumpi\n      dup1\n      0xf2fde38b\n      eq\n      tag_28\n      jumpi\n      dup1\n      0xf5ecbdbc\n      eq\n      tag_29\n      jumpi\n      jump(tag_1)\n    tag_32:\n      dup1\n      0xc4461834\n      eq\n      tag_23\n      jumpi\n      dup1\n      0xcbed8b9c\n      eq\n      tag_24\n      jumpi\n      dup1\n      0xd1deba1f\n      eq\n      tag_25\n      jumpi\n      jump(tag_1)\n    tag_31:\n      dup1\n      0x9f38369a\n      gt\n      tag_33\n      jumpi\n      dup1\n      0x9f38369a\n      eq\n      tag_19\n      jumpi\n      dup1\n      0xa6c3d165\n      eq\n      tag_20\n      jumpi\n      dup1\n      0xb353aaa7\n      eq\n      tag_21\n      jumpi\n      dup1\n      0xbaf3292d\n      eq\n      tag_22\n      jumpi\n      jump(tag_1)\n    tag_33:\n      dup1\n      0x8cfd8f5c\n      eq\n      tag_16\n      jumpi\n      dup1\n      0x8da5cb5b\n      eq\n      tag_17\n      jumpi\n      dup1\n      0x950c8a74\n      eq\n      tag_18\n      jumpi\n      jump(tag_1)\n    tag_30:\n      dup1\n      0x5b8c41e6\n      gt\n      tag_34\n      jumpi\n      dup1\n      0x66ad5c8a\n      gt\n      tag_35\n      jumpi\n      dup1\n      0x66ad5c8a\n      eq\n      tag_12\n      jumpi\n      dup1\n      0x715018a6\n      eq\n      tag_13\n      jumpi\n      dup1\n      0x73d4a13a\n      eq\n      tag_14\n      jumpi\n      dup1\n      0x7533d788\n      eq\n      tag_15\n      jumpi\n      jump(tag_1)\n    tag_35:\n      dup1\n      0x5b8c41e6\n      eq\n      tag_9\n      jumpi\n      dup1\n      0x5cdf1649\n      eq\n      tag_10\n      jumpi\n      dup1\n      0x66792ba1\n      eq\n      tag_11\n      jumpi\n      jump(tag_1)\n    tag_34:\n      dup1\n      0x10ddb137\n      gt\n      tag_36\n      jumpi\n      dup1\n      0x10ddb137\n      eq\n      tag_5\n      jumpi\n      dup1\n      0x3d8b38f6\n      eq\n      tag_6\n      jumpi\n      dup1\n      0x3f1f4fa4\n      eq\n      tag_7\n      jumpi\n      dup1\n      0x42d65a8d\n      eq\n      tag_8\n      jumpi\n      jump(tag_1)\n    tag_36:\n      dup1\n      0x1d3567\n      eq\n      tag_2\n      jumpi\n      dup1\n      0x07e0db17\n      eq\n      tag_3\n      jumpi\n      dup1\n      0x0df37483\n      eq\n      tag_4\n      jumpi\n    tag_1:\n      0x00\n      dup1\n      revert\n        /* \"contracts/lzApp/LzApp.sol\":1315:2140  function lzReceive(... */\n    tag_2:\n      callvalue\n      dup1\n      iszero\n      tag_37\n      jumpi\n      0x00\n      dup1\n      revert\n    tag_37:\n      pop\n      tag_38\n      0x04\n      dup1\n      calldatasize\n      sub\n      dup2\n      add\n      swap1\n      tag_39\n      swap2\n      swap1\n      tag_40\n      jump\t// in\n    tag_39:\n      tag_41\n      jump\t// in\n    tag_38:\n      stop\n        /* \"contracts/lzApp/LzApp.sol\":4850:4971  function setSendVersion(uint16 _version) external override onlyOwner {... */\n    tag_3:\n      callvalue\n      dup1\n      iszero\n      tag_42\n      jumpi\n      0x00\n      dup1\n      revert\n    tag_42:\n      pop\n      tag_43\n      0x04\n      dup1\n      calldatasize\n      sub\n      dup2\n      add\n      swap1\n      tag_44\n      swap2\n      swap1\n      tag_45\n      jump\t// in\n    tag_44:\n      tag_46\n      jump\t// in\n    tag_43:\n      stop\n        /* \"contracts/lzApp/LzApp.sol\":6708:6848  function setPayloadSizeLimit(uint16 _dstChainId, uint _size) external onlyOwner {... */\n    tag_4:\n      callvalue\n      dup1\n      iszero\n      tag_47\n      jumpi\n      0x00\n      dup1\n      revert\n    tag_47:\n      pop\n      tag_48\n      0x04\n      dup1\n      calldatasize\n      sub\n      dup2\n      add\n      swap1\n      tag_49\n      swap2\n      swap1\n      tag_50\n      jump\t// in\n    tag_49:\n      tag_51\n      jump\t// in\n    tag_48:\n      stop\n        /* \"contracts/lzApp/LzApp.sol\":4977:5104  function setReceiveVersion(uint16 _version) external override onlyOwner {... */\n    tag_5:\n      callvalue\n      dup1\n      iszero\n      tag_52\n      jumpi\n      0x00\n      dup1\n      revert\n    tag_52:\n      pop\n      tag_53\n      0x04\n      dup1\n      calldatasize\n      sub\n      dup2\n      add\n      swap1\n      tag_54\n      swap2\n      swap1\n      tag_45\n      jump\t// in\n    tag_54:\n      tag_55\n      jump\t// in\n    tag_53:\n      stop\n        /* \"contracts/lzApp/LzApp.sol\":6943:7190  function isTrustedRemote(uint16 _srcChainId, bytes calldata _srcAddress) external view returns (bool) {... */\n    tag_6:\n      callvalue\n      dup1\n      iszero\n      tag_56\n      jumpi\n      0x00\n      dup1\n      revert\n    tag_56:\n      pop\n      tag_57\n      0x04\n      dup1\n      calldatasize\n      sub\n      dup2\n      add\n      swap1\n      tag_58\n      swap2\n      swap1\n      tag_59\n      jump\t// in\n    tag_58:\n      tag_60\n      jump\t// in\n    tag_57:\n      mload(0x40)\n      tag_61\n      swap2\n      swap1\n      tag_62\n      jump\t// in\n    tag_61:\n      mload(0x40)\n      dup1\n      swap2\n      sub\n      swap1\n      return\n        /* \"contracts/lzApp/LzApp.sol\":869:922  mapping(uint16 => uint) public payloadSizeLimitLookup */\n    tag_7:\n      callvalue\n      dup1\n      iszero\n      tag_63\n      jumpi\n      0x00\n      dup1\n      revert\n    tag_63:\n      pop\n      tag_64\n      0x04\n      dup1\n      calldatasize\n      sub\n      dup2\n      add\n      swap1\n      tag_65\n      swap2\n      swap1\n      tag_45\n      jump\t// in\n    tag_65:\n      tag_66\n      jump\t// in\n    tag_64:\n      mload(0x40)\n      tag_67\n      swap2\n      swap1\n      tag_68\n      jump\t// in\n    tag_67:\n      mload(0x40)\n      dup1\n      swap2\n      sub\n      swap1\n      return\n        /* \"contracts/lzApp/LzApp.sol\":5110:5286  function forceResumeReceive(uint16 _srcChainId, bytes calldata _srcAddress) external override onlyOwner {... */\n    tag_8:\n      callvalue\n      dup1\n      iszero\n      tag_69\n      jumpi\n      0x00\n      dup1\n      revert\n    tag_69:\n      pop\n      tag_70\n      0x04\n      dup1\n      calldatasize\n      sub\n      dup2\n      add\n      swap1\n      tag_71\n      swap2\n      swap1\n      tag_59\n      jump\t// in\n    tag_71:\n      tag_72\n      jump\t// in\n    tag_70:\n      stop\n        /* \"contracts/lzApp/NonblockingLzApp.sol\":622:707  mapping(uint16 => mapping(bytes => mapping(uint64 => bytes32))) public failedMessages */\n    tag_9:\n      callvalue\n      dup1\n      iszero\n      tag_73\n      jumpi\n      0x00\n      dup1\n      revert\n    tag_73:\n      pop\n      tag_74\n      0x04\n      dup1\n      calldatasize\n      sub\n      dup2\n      add\n      swap1\n      tag_75\n      swap2\n      swap1\n      tag_76\n      jump\t// in\n    tag_75:\n      tag_77\n      jump\t// in\n    tag_74:\n      mload(0x40)\n      tag_78\n      swap2\n      swap1\n      tag_79\n      jump\t// in\n    tag_78:\n      mload(0x40)\n      dup1\n      swap2\n      sub\n      swap1\n      return\n        /* \"contracts/examples/sldtdrn.sol\":1131:1298  function trustAddress(address _otherContract) public onlyOwner {... */\n    tag_10:\n      callvalue\n      dup1\n      iszero\n      tag_80\n      jumpi\n      0x00\n      dup1\n      revert\n    tag_80:\n      pop\n      tag_81\n      0x04\n      dup1\n      calldatasize\n      sub\n      dup2\n      add\n      swap1\n      tag_82\n      swap2\n      swap1\n      tag_83\n      jump\t// in\n    tag_82:\n      tag_84\n      jump\t// in\n    tag_81:\n      stop\n        /* \"contracts/examples/sldtdrn.sol\":911:1123  function send(string memory _message) public payable {... */\n    tag_11:\n      tag_85\n      0x04\n      dup1\n      calldatasize\n      sub\n      dup2\n      add\n      swap1\n      tag_86\n      swap2\n      swap1\n      tag_87\n      jump\t// in\n    tag_86:\n      tag_88\n      jump\t// in\n    tag_85:\n      stop\n        /* \"contracts/lzApp/NonblockingLzApp.sol\":1912:2292  function nonblockingLzReceive(... */\n    tag_12:\n      callvalue\n      dup1\n      iszero\n      tag_89\n      jumpi\n      0x00\n      dup1\n      revert\n    tag_89:\n      pop\n      tag_90\n      0x04\n      dup1\n      calldatasize\n      sub\n      dup2\n      add\n      swap1\n      tag_91\n      swap2\n      swap1\n      tag_40\n      jump\t// in\n    tag_91:\n      tag_92\n      jump\t// in\n    tag_90:\n      stop\n        /* \"https://github.com/OpenZeppelin/openzeppelin-contracts/blob/release-v4.7/contracts/access/Ownable.sol\":1831:1932  function renounceOwnership() public virtual onlyOwner {... */\n    tag_13:\n      callvalue\n      dup1\n      iszero\n      tag_93\n      jumpi\n      0x00\n      dup1\n      revert\n    tag_93:\n      pop\n      tag_94\n      tag_95\n      jump\t// in\n    tag_94:\n      stop\n        /* \"contracts/examples/sldtdrn.sol\":400:443  string public data = \"Nothing received yet\" */\n    tag_14:\n      callvalue\n      dup1\n      iszero\n      tag_96\n      jumpi\n      0x00\n      dup1\n      revert\n    tag_96:\n      pop\n      tag_97\n      tag_98\n      jump\t// in\n    tag_97:\n      mload(0x40)\n      tag_99\n      swap2\n      swap1\n      tag_100\n      jump\t// in\n    tag_99:\n      mload(0x40)\n      dup1\n      swap2\n      sub\n      swap1\n      return\n        /* \"contracts/lzApp/LzApp.sol\":741:792  mapping(uint16 => bytes) public trustedRemoteLookup */\n    tag_15:\n      callvalue\n      dup1\n      iszero\n      tag_101\n      jumpi\n      0x00\n      dup1\n      revert\n    tag_101:\n      pop\n      tag_102\n      0x04\n      dup1\n      calldatasize\n      sub\n      dup2\n      add\n      swap1\n      tag_103\n      swap2\n      swap1\n      tag_45\n      jump\t// in\n    tag_103:\n      tag_104\n      jump\t// in\n    tag_102:\n      mload(0x40)\n      tag_105\n      swap2\n      swap1\n      tag_106\n      jump\t// in\n    tag_105:\n      mload(0x40)\n      dup1\n      swap2\n      sub\n      swap1\n      return\n        /* \"contracts/lzApp/LzApp.sol\":798:863  mapping(uint16 => mapping(uint16 => uint)) public minDstGasLookup */\n    tag_16:\n      callvalue\n      dup1\n      iszero\n      tag_107\n      jumpi\n      0x00\n      dup1\n      revert\n    tag_107:\n      pop\n      tag_108\n      0x04\n      dup1\n      calldatasize\n      sub\n      dup2\n      add\n      swap1\n      tag_109\n      swap2\n      swap1\n      tag_110\n      jump\t// in\n    tag_109:\n      tag_111\n      jump\t// in\n    tag_108:\n      mload(0x40)\n      tag_112\n      swap2\n      swap1\n      tag_68\n      jump\t// in\n    tag_112:\n      mload(0x40)\n      dup1\n      swap2\n      sub\n      swap1\n      return\n        /* \"https://github.com/OpenZeppelin/openzeppelin-contracts/blob/release-v4.7/contracts/access/Ownable.sol\":1201:1286  function owner() public view virtual returns (address) {... */\n    tag_17:\n      callvalue\n      dup1\n      iszero\n      tag_113\n      jumpi\n      0x00\n      dup1\n      revert\n    tag_113:\n      pop\n      tag_114\n      tag_115\n      jump\t// in\n    tag_114:\n      mload(0x40)\n      tag_116\n      swap2\n      swap1\n      tag_117\n      jump\t// in\n    tag_116:\n      mload(0x40)\n      dup1\n      swap2\n      sub\n      swap1\n      return\n        /* \"contracts/lzApp/LzApp.sol\":928:951  address public precrime */\n    tag_18:\n      callvalue\n      dup1\n      iszero\n      tag_118\n      jumpi\n      0x00\n      dup1\n      revert\n    tag_118:\n      pop\n      tag_119\n      tag_120\n      jump\t// in\n    tag_119:\n      mload(0x40)\n      tag_121\n      swap2\n      swap1\n      tag_117\n      jump\t// in\n    tag_121:\n      mload(0x40)\n      dup1\n      swap2\n      sub\n      swap1\n      return\n        /* \"contracts/lzApp/LzApp.sol\":5923:6249  function getTrustedRemoteAddress(uint16 _remoteChainId) external view returns (bytes memory) {... */\n    tag_19:\n      callvalue\n      dup1\n      iszero\n      tag_122\n      jumpi\n      0x00\n      dup1\n      revert\n    tag_122:\n      pop\n      tag_123\n      0x04\n      dup1\n      calldatasize\n      sub\n      dup2\n      add\n      swap1\n      tag_124\n      swap2\n      swap1\n      tag_45\n      jump\t// in\n    tag_124:\n      tag_125\n      jump\t// in\n    tag_123:\n      mload(0x40)\n      tag_126\n      swap2\n      swap1\n      tag_106\n      jump\t// in\n    tag_126:\n      mload(0x40)\n      dup1\n      swap2\n      sub\n      swap1\n      return\n        /* \"contracts/lzApp/LzApp.sol\":5639:5917  function setTrustedRemoteAddress(uint16 _remoteChainId, bytes calldata _remoteAddress) external onlyOwner {... */\n    tag_20:\n      callvalue\n      dup1\n      iszero\n      tag_127\n      jumpi\n      0x00\n      dup1\n      revert\n    tag_127:\n      pop\n      tag_128\n      0x04\n      dup1\n      calldatasize\n      sub\n      dup2\n      add\n      swap1\n      tag_129\n      swap2\n      swap1\n      tag_59\n      jump\t// in\n    tag_129:\n      tag_130\n      jump\t// in\n    tag_128:\n      stop\n        /* \"contracts/lzApp/LzApp.sol\":689:735  ILayerZeroEndpoint public immutable lzEndpoint */\n    tag_21:\n      callvalue\n      dup1\n      iszero\n      tag_131\n      jumpi\n      0x00\n      dup1\n      revert\n    tag_131:\n      pop\n      tag_132\n      tag_133\n      jump\t// in\n    tag_132:\n      mload(0x40)\n      tag_134\n      swap2\n      swap1\n      tag_135\n      jump\t// in\n    tag_134:\n      mload(0x40)\n      dup1\n      swap2\n      sub\n      swap1\n      return\n        /* \"contracts/lzApp/LzApp.sol\":6255:6388  function setPrecrime(address _precrime) external onlyOwner {... */\n    tag_22:\n      callvalue\n      dup1\n      iszero\n      tag_136\n      jumpi\n      0x00\n      dup1\n      revert\n    tag_136:\n      pop\n      tag_137\n      0x04\n      dup1\n      calldatasize\n      sub\n      dup2\n      add\n      swap1\n      tag_138\n      swap2\n      swap1\n      tag_83\n      jump\t// in\n    tag_138:\n      tag_139\n      jump\t// in\n    tag_137:\n      stop\n        /* \"contracts/lzApp/LzApp.sol\":627:682  uint public constant DEFAULT_PAYLOAD_SIZE_LIMIT = 10000 */\n    tag_23:\n      callvalue\n      dup1\n      iszero\n      tag_140\n      jumpi\n      0x00\n      dup1\n      revert\n    tag_140:\n      pop\n      tag_141\n      tag_142\n      jump\t// in\n    tag_141:\n      mload(0x40)\n      tag_143\n      swap2\n      swap1\n      tag_68\n      jump\t// in\n    tag_143:\n      mload(0x40)\n      dup1\n      swap2\n      sub\n      swap1\n      return\n        /* \"contracts/lzApp/LzApp.sol\":4604:4844  function setConfig(... */\n    tag_24:\n      callvalue\n      dup1\n      iszero\n      tag_144\n      jumpi\n      0x00\n      dup1\n      revert\n    tag_144:\n      pop\n      tag_145\n      0x04\n      dup1\n      calldatasize\n      sub\n      dup2\n      add\n      swap1\n      tag_146\n      swap2\n      swap1\n      tag_147\n      jump\t// in\n    tag_146:\n      tag_148\n      jump\t// in\n    tag_145:\n      stop\n        /* \"contracts/lzApp/NonblockingLzApp.sol\":2511:3306  function retryMessage(... */\n    tag_25:\n      tag_149\n      0x04\n      dup1\n      calldatasize\n      sub\n      dup2\n      add\n      swap1\n      tag_150\n      swap2\n      swap1\n      tag_40\n      jump\t// in\n    tag_150:\n      tag_151\n      jump\t// in\n    tag_149:\n      stop\n        /* \"contracts/lzApp/LzApp.sol\":6394:6649  function setMinDstGas(... */\n    tag_26:\n      callvalue\n      dup1\n      iszero\n      tag_152\n      jumpi\n      0x00\n      dup1\n      revert\n    tag_152:\n      pop\n      tag_153\n      0x04\n      dup1\n      calldatasize\n      sub\n      dup2\n      add\n      swap1\n      tag_154\n      swap2\n      swap1\n      tag_155\n      jump\t// in\n    tag_154:\n      tag_156\n      jump\t// in\n    tag_153:\n      stop\n        /* \"contracts/lzApp/LzApp.sol\":5429:5633  function setTrustedRemote(uint16 _remoteChainId, bytes calldata _path) external onlyOwner {... */\n    tag_27:\n      callvalue\n      dup1\n      iszero\n      tag_157\n      jumpi\n      0x00\n      dup1\n      revert\n    tag_157:\n      pop\n      tag_158\n      0x04\n      dup1\n      calldatasize\n      sub\n      dup2\n      add\n      swap1\n      tag_159\n      swap2\n      swap1\n      tag_59\n      jump\t// in\n    tag_159:\n      tag_160\n      jump\t// in\n    tag_158:\n      stop\n        /* \"https://github.com/OpenZeppelin/openzeppelin-contracts/blob/release-v4.7/contracts/access/Ownable.sol\":2081:2279  function transferOwnership(address newOwner) public virtual onlyOwner {... */\n    tag_28:\n      callvalue\n      dup1\n      iszero\n      tag_161\n      jumpi\n      0x00\n      dup1\n      revert\n    tag_161:\n      pop\n      tag_162\n      0x04\n      dup1\n      calldatasize\n      sub\n      dup2\n      add\n      swap1\n      tag_163\n      swap2\n      swap1\n      tag_83\n      jump\t// in\n    tag_163:\n      tag_164\n      jump\t// in\n    tag_162:\n      stop\n        /* \"contracts/lzApp/LzApp.sol\":4298:4545  function getConfig(... */\n    tag_29:\n      callvalue\n      dup1\n      iszero\n      tag_165\n      jumpi\n      0x00\n      dup1\n      revert\n    tag_165:\n      pop\n      tag_166\n      0x04\n      dup1\n      calldatasize\n      sub\n      dup2\n      add\n      swap1\n      tag_167\n      swap2\n      swap1\n      tag_168\n      jump\t// in\n    tag_167:\n      tag_169\n      jump\t// in\n    tag_166:\n      mload(0x40)\n      tag_170\n      swap2\n      swap1\n      tag_106\n      jump\t// in\n    tag_170:\n      mload(0x40)\n      dup1\n      swap2\n      sub\n      swap1\n      return\n        /* \"contracts/lzApp/LzApp.sol\":1315:2140  function lzReceive(... */\n    tag_41:\n        /* \"contracts/lzApp/LzApp.sol\":1591:1601  lzEndpoint */\n      immutable(\"0xd2bf2e9a999710431595af5d3876bd6f95a9accd65a44f4cd49ef60c37cc3ecc\")\n        /* \"contracts/lzApp/LzApp.sol\":1567:1602  _msgSender() == address(lzEndpoint) */\n      0xffffffffffffffffffffffffffffffffffffffff\n      and\n        /* \"contracts/lzApp/LzApp.sol\":1567:1579  _msgSender() */\n      tag_172\n        /* \"contracts/lzApp/LzApp.sol\":1567:1577  _msgSender */\n      tag_173\n        /* \"contracts/lzApp/LzApp.sol\":1567:1579  _msgSender() */\n      jump\t// in\n    tag_172:\n        /* \"contracts/lzApp/LzApp.sol\":1567:1602  _msgSender() == address(lzEndpoint) */\n      0xffffffffffffffffffffffffffffffffffffffff\n      and\n      eq\n        /* \"contracts/lzApp/LzApp.sol\":1559:1637  require(_msgSender() == address(lzEndpoint), \"LzApp: invalid endpoint caller\") */\n      tag_174\n      jumpi\n      mload(0x40)\n      0x08c379a000000000000000000000000000000000000000000000000000000000\n      dup2\n      mstore\n      0x04\n      add\n      tag_175\n      swap1\n      tag_176\n      jump\t// in\n    tag_175:\n      mload(0x40)\n      dup1\n      swap2\n      sub\n      swap1\n      revert\n    tag_174:\n        /* \"contracts/lzApp/LzApp.sol\":1648:1674  bytes memory trustedRemote */\n      0x00\n        /* \"contracts/lzApp/LzApp.sol\":1677:1696  trustedRemoteLookup */\n      0x01\n        /* \"contracts/lzApp/LzApp.sol\":1677:1709  trustedRemoteLookup[_srcChainId] */\n      0x00\n        /* \"contracts/lzApp/LzApp.sol\":1697:1708  _srcChainId */\n      dup9\n        /* \"contracts/lzApp/LzApp.sol\":1677:1709  trustedRemoteLookup[_srcChainId] */\n      0xffff\n      and\n      0xffff\n      and\n      dup2\n      mstore\n      0x20\n      add\n      swap1\n      dup2\n      mstore\n      0x20\n      add\n      0x00\n      keccak256\n        /* \"contracts/lzApp/LzApp.sol\":1648:1709  bytes memory trustedRemote = trustedRemoteLookup[_srcChainId] */\n      dup1\n      sload\n      tag_177\n      swap1\n      tag_178\n      jump\t// in\n    tag_177:\n      dup1\n      0x1f\n      add\n      0x20\n      dup1\n      swap2\n      div\n      mul\n      0x20\n      add\n      mload(0x40)\n      swap1\n      dup2\n      add\n      0x40\n      mstore\n      dup1\n      swap3\n      swap2\n      swap1\n      dup2\n      dup2\n      mstore\n      0x20\n      add\n      dup3\n      dup1\n      sload\n      tag_179\n      swap1\n      tag_178\n      jump\t// in\n    tag_179:\n      dup1\n      iszero\n      tag_180\n      jumpi\n      dup1\n      0x1f\n      lt\n      tag_181\n      jumpi\n      0x0100\n      dup1\n      dup4\n      sload\n      div\n      mul\n      dup4\n      mstore\n      swap2\n      0x20\n      add\n      swap2\n      jump(tag_180)\n    tag_181:\n      dup3\n      add\n      swap2\n      swap1\n      0x00\n      mstore\n      keccak256(0x00, 0x20)\n      swap1\n    tag_182:\n      dup2\n      sload\n      dup2\n      mstore\n      swap1\n      0x01\n      add\n      swap1\n      0x20\n      add\n      dup1\n      dup4\n      gt\n      tag_182\n      jumpi\n      dup3\n      swap1\n      sub\n      0x1f\n      and\n      dup3\n      add\n      swap2\n    tag_180:\n      pop\n      pop\n      pop\n      pop\n      pop\n      swap1\n      pop\n        /* \"contracts/lzApp/LzApp.sol\":1894:1907  trustedRemote */\n      dup1\n        /* \"contracts/lzApp/LzApp.sol\":1894:1914  trustedRemote.length */\n      mload\n        /* \"contracts/lzApp/LzApp.sol\":1872:1883  _srcAddress */\n      dup7\n      dup7\n        /* \"contracts/lzApp/LzApp.sol\":1872:1890  _srcAddress.length */\n      swap1\n      pop\n        /* \"contracts/lzApp/LzApp.sol\":1872:1914  _srcAddress.length == trustedRemote.length */\n      eq\n        /* \"contracts/lzApp/LzApp.sol\":1872:1942  _srcAddress.length == trustedRemote.length && trustedRemote.length > 0 */\n      dup1\n      iszero\n      tag_183\n      jumpi\n      pop\n        /* \"contracts/lzApp/LzApp.sol\":1941:1942  0 */\n      0x00\n        /* \"contracts/lzApp/LzApp.sol\":1918:1931  trustedRemote */\n      dup2\n        /* \"contracts/lzApp/LzApp.sol\":1918:1938  trustedRemote.length */\n      mload\n        /* \"contracts/lzApp/LzApp.sol\":1918:1942  trustedRemote.length > 0 */\n      gt\n        /* \"contracts/lzApp/LzApp.sol\":1872:1942  _srcAddress.length == trustedRemote.length && trustedRemote.length > 0 */\n    tag_183:\n        /* \"contracts/lzApp/LzApp.sol\":1872:1996  _srcAddress.length == trustedRemote.length && trustedRemote.length > 0 && keccak256(_srcAddress) == keccak256(trustedRemote) */\n      dup1\n      iszero\n      tag_184\n      jumpi\n      pop\n        /* \"contracts/lzApp/LzApp.sol\":1982:1995  trustedRemote */\n      dup1\n        /* \"contracts/lzApp/LzApp.sol\":1972:1996  keccak256(trustedRemote) */\n      dup1\n      mload\n      swap1\n      0x20\n      add\n      keccak256\n        /* \"contracts/lzApp/LzApp.sol\":1956:1967  _srcAddress */\n      dup7\n      dup7\n        /* \"contracts/lzApp/LzApp.sol\":1946:1968  keccak256(_srcAddress) */\n      mload(0x40)\n      tag_185\n      swap3\n      swap2\n      swap1\n      tag_186\n      jump\t// in\n    tag_185:\n      mload(0x40)\n      dup1\n      swap2\n      sub\n      swap1\n      keccak256\n        /* \"contracts/lzApp/LzApp.sol\":1946:1996  keccak256(_srcAddress) == keccak256(trustedRemote) */\n      eq\n        /* \"contracts/lzApp/LzApp.sol\":1872:1996  _srcAddress.length == trustedRemote.length && trustedRemote.length > 0 && keccak256(_srcAddress) == keccak256(trustedRemote) */\n    tag_184:\n        /* \"contracts/lzApp/LzApp.sol\":1851:2060  require(... */\n      tag_187\n      jumpi\n      mload(0x40)\n      0x08c379a000000000000000000000000000000000000000000000000000000000\n      dup2\n      mstore\n      0x04\n      add\n      tag_188\n      swap1\n      tag_189\n      jump\t// in\n    tag_188:\n      mload(0x40)\n      dup1\n      swap2\n      sub\n      swap1\n      revert\n    tag_187:\n        /* \"contracts/lzApp/LzApp.sol\":2071:2133  _blockingLzReceive(_srcChainId, _srcAddress, _nonce, _payload) */\n      tag_190\n        /* \"contracts/lzApp/LzApp.sol\":2090:2101  _srcChainId */\n      dup8\n        /* \"contracts/lzApp/LzApp.sol\":2103:2114  _srcAddress */\n      dup8\n      dup8\n        /* \"contracts/lzApp/LzApp.sol\":2071:2133  _blockingLzReceive(_srcChainId, _srcAddress, _nonce, _payload) */\n      dup1\n      dup1\n      0x1f\n      add\n      0x20\n      dup1\n      swap2\n      div\n      mul\n      0x20\n      add\n      mload(0x40)\n      swap1\n      dup2\n      add\n      0x40\n      mstore\n      dup1\n      swap4\n      swap3\n      swap2\n      swap1\n      dup2\n      dup2\n      mstore\n      0x20\n      add\n      dup4\n      dup4\n      dup1\n      dup3\n      dup5\n      calldatacopy\n      0x00\n      dup2\n      dup5\n      add\n      mstore\n      not(0x1f)\n      0x1f\n      dup3\n      add\n      and\n      swap1\n      pop\n      dup1\n      dup4\n      add\n      swap3\n      pop\n      pop\n      pop\n      pop\n      pop\n      pop\n      pop\n        /* \"contracts/lzApp/LzApp.sol\":2116:2122  _nonce */\n      dup7\n        /* \"contracts/lzApp/LzApp.sol\":2124:2132  _payload */\n      dup7\n      dup7\n        /* \"contracts/lzApp/LzApp.sol\":2071:2133  _blockingLzReceive(_srcChainId, _srcAddress, _nonce, _payload) */\n      dup1\n      dup1\n      0x1f\n      add\n      0x20\n      dup1\n      swap2\n      div\n      mul\n      0x20\n      add\n      mload(0x40)\n      swap1\n      dup2\n      add\n      0x40\n      mstore\n      dup1\n      swap4\n      swap3\n      swap2\n      swap1\n      dup2\n      dup2\n      mstore\n      0x20\n      add\n      dup4\n      dup4\n      dup1\n      dup3\n      dup5\n      calldatacopy\n      0x00\n      dup2\n      dup5\n      add\n      mstore\n      not(0x1f)\n      0x1f\n      dup3\n      add\n      and\n      swap1\n      pop\n      dup1\n      dup4\n      add\n      swap3\n      pop\n      pop\n      pop\n      pop\n      pop\n      pop\n      pop\n        /* \"contracts/lzApp/LzApp.sol\":2071:2089  _blockingLzReceive */\n      tag_191\n        /* \"contracts/lzApp/LzApp.sol\":2071:2133  _blockingLzReceive(_srcChainId, _srcAddress, _nonce, _payload) */\n      jump\t// in\n    tag_190:\n        /* \"contracts/lzApp/LzApp.sol\":1484:2140  {... */\n      pop\n        /* \"contracts/lzApp/LzApp.sol\":1315:2140  function lzReceive(... */\n      pop\n      pop\n      pop\n      pop\n      pop\n      pop\n      jump\t// out\n        /* \"contracts/lzApp/LzApp.sol\":4850:4971  function setSendVersion(uint16 _version) external override onlyOwner {... */\n    tag_46:\n        /* \"https://github.com/OpenZeppelin/openzeppelin-contracts/blob/release-v4.7/contracts/access/Ownable.sol\":1094:1107  _checkOwner() */\n      tag_193\n        /* \"https://github.com/OpenZeppelin/openzeppelin-contracts/blob/release-v4.7/contracts/access/Ownable.sol\":1094:1105  _checkOwner */\n      tag_194\n        /* \"https://github.com/OpenZeppelin/openzeppelin-contracts/blob/release-v4.7/contracts/access/Ownable.sol\":1094:1107  _checkOwner() */\n      jump\t// in\n    tag_193:\n        /* \"contracts/lzApp/LzApp.sol\":4929:4939  lzEndpoint */\n      immutable(\"0xd2bf2e9a999710431595af5d3876bd6f95a9accd65a44f4cd49ef60c37cc3ecc\")\n        /* \"contracts/lzApp/LzApp.sol\":4929:4954  lzEndpoint.setSendVersion */\n      0xffffffffffffffffffffffffffffffffffffffff\n      and\n      0x07e0db17\n        /* \"contracts/lzApp/LzApp.sol\":4955:4963  _version */\n      dup3\n        /* \"contracts/lzApp/LzApp.sol\":4929:4964  lzEndpoint.setSendVersion(_version) */\n      mload(0x40)\n      dup3\n      0xffffffff\n      and\n      0xe0\n      shl\n      dup2\n      mstore\n      0x04\n      add\n      tag_196\n      swap2\n      swap1\n      tag_197\n      jump\t// in\n    tag_196:\n      0x00\n      mload(0x40)\n      dup1\n      dup4\n      sub\n      dup2\n      0x00\n      dup8\n      dup1\n      extcodesize\n      iszero\n      dup1\n      iszero\n      tag_198\n      jumpi\n      0x00\n      dup1\n      revert\n    tag_198:\n      pop\n      gas\n      call\n      iszero\n      dup1\n      iszero\n      tag_200\n      jumpi\n      returndatasize\n      0x00\n      dup1\n      returndatacopy\n      revert(0x00, returndatasize)\n    tag_200:\n      pop\n      pop\n      pop\n      pop\n        /* \"contracts/lzApp/LzApp.sol\":4850:4971  function setSendVersion(uint16 _version) external override onlyOwner {... */\n      pop\n      jump\t// out\n        /* \"contracts/lzApp/LzApp.sol\":6708:6848  function setPayloadSizeLimit(uint16 _dstChainId, uint _size) external onlyOwner {... */\n    tag_51:\n        /* \"https://github.com/OpenZeppelin/openzeppelin-contracts/blob/release-v4.7/contracts/access/Ownable.sol\":1094:1107  _checkOwner() */\n      tag_202\n        /* \"https://github.com/OpenZeppelin/openzeppelin-contracts/blob/release-v4.7/contracts/access/Ownable.sol\":1094:1105  _checkOwner */\n      tag_194\n        /* \"https://github.com/OpenZeppelin/openzeppelin-contracts/blob/release-v4.7/contracts/access/Ownable.sol\":1094:1107  _checkOwner() */\n      jump\t// in\n    tag_202:\n        /* \"contracts/lzApp/LzApp.sol\":6836:6841  _size */\n      dup1\n        /* \"contracts/lzApp/LzApp.sol\":6798:6820  payloadSizeLimitLookup */\n      0x03\n        /* \"contracts/lzApp/LzApp.sol\":6798:6833  payloadSizeLimitLookup[_dstChainId] */\n      0x00\n        /* \"contracts/lzApp/LzApp.sol\":6821:6832  _dstChainId */\n      dup5\n        /* \"contracts/lzApp/LzApp.sol\":6798:6833  payloadSizeLimitLookup[_dstChainId] */\n      0xffff\n      and\n      0xffff\n      and\n      dup2\n      mstore\n      0x20\n      add\n      swap1\n      dup2\n      mstore\n      0x20\n      add\n      0x00\n      keccak256\n        /* \"contracts/lzApp/LzApp.sol\":6798:6841  payloadSizeLimitLookup[_dstChainId] = _size */\n      dup2\n      swap1\n      sstore\n      pop\n        /* \"contracts/lzApp/LzApp.sol\":6708:6848  function setPayloadSizeLimit(uint16 _dstChainId, uint _size) external onlyOwner {... */\n      pop\n      pop\n      jump\t// out\n        /* \"contracts/lzApp/LzApp.sol\":4977:5104  function setReceiveVersion(uint16 _version) external override onlyOwner {... */\n    tag_55:\n        /* \"https://github.com/OpenZeppelin/openzeppelin-contracts/blob/release-v4.7/contracts/access/Ownable.sol\":1094:1107  _checkOwner() */\n      tag_205\n        /* \"https://github.com/OpenZeppelin/openzeppelin-contracts/blob/release-v4.7/contracts/access/Ownable.sol\":1094:1105  _checkOwner */\n      tag_194\n        /* \"https://github.com/OpenZeppelin/openzeppelin-contracts/blob/release-v4.7/contracts/access/Ownable.sol\":1094:1107  _checkOwner() */\n      jump\t// in\n    tag_205:\n        /* \"contracts/lzApp/LzApp.sol\":5059:5069  lzEndpoint */\n      immutable(\"0xd2bf2e9a999710431595af5d3876bd6f95a9accd65a44f4cd49ef60c37cc3ecc\")\n        /* \"contracts/lzApp/LzApp.sol\":5059:5087  lzEndpoint.setReceiveVersion */\n      0xffffffffffffffffffffffffffffffffffffffff\n      and\n      0x10ddb137\n        /* \"contracts/lzApp/LzApp.sol\":5088:5096  _version */\n      dup3\n        /* \"contracts/lzApp/LzApp.sol\":5059:5097  lzEndpoint.setReceiveVersion(_version) */\n      mload(0x40)\n      dup3\n      0xffffffff\n      and\n      0xe0\n      shl\n      dup2\n      mstore\n      0x04\n      add\n      tag_207\n      swap2\n      swap1\n      tag_197\n      jump\t// in\n    tag_207:\n      0x00\n      mload(0x40)\n      dup1\n      dup4\n      sub\n      dup2\n      0x00\n      dup8\n      dup1\n      extcodesize\n      iszero\n      dup1\n      iszero\n      tag_208\n      jumpi\n      0x00\n      dup1\n      revert\n    tag_208:\n      pop\n      gas\n      call\n      iszero\n      dup1\n      iszero\n      tag_210\n      jumpi\n      returndatasize\n      0x00\n      dup1\n      returndatacopy\n      revert(0x00, returndatasize)\n    tag_210:\n      pop\n      pop\n      pop\n      pop\n        /* \"contracts/lzApp/LzApp.sol\":4977:5104  function setReceiveVersion(uint16 _version) external override onlyOwner {... */\n      pop\n      jump\t// out\n        /* \"contracts/lzApp/LzApp.sol\":6943:7190  function isTrustedRemote(uint16 _srcChainId, bytes calldata _srcAddress) external view returns (bool) {... */\n    tag_60:\n        /* \"contracts/lzApp/LzApp.sol\":7039:7043  bool */\n      0x00\n        /* \"contracts/lzApp/LzApp.sol\":7055:7081  bytes memory trustedSource */\n      dup1\n        /* \"contracts/lzApp/LzApp.sol\":7084:7103  trustedRemoteLookup */\n      0x01\n        /* \"contracts/lzApp/LzApp.sol\":7084:7116  trustedRemoteLookup[_srcChainId] */\n      0x00\n        /* \"contracts/lzApp/LzApp.sol\":7104:7115  _srcChainId */\n      dup7\n        /* \"contracts/lzApp/LzApp.sol\":7084:7116  trustedRemoteLookup[_srcChainId] */\n      0xffff\n      and\n      0xffff\n      and\n      dup2\n      mstore\n      0x20\n      add\n      swap1\n      dup2\n      mstore\n      0x20\n      add\n      0x00\n      keccak256\n        /* \"contracts/lzApp/LzApp.sol\":7055:7116  bytes memory trustedSource = trustedRemoteLookup[_srcChainId] */\n      dup1\n      sload\n      tag_212\n      swap1\n      tag_178\n      jump\t// in\n    tag_212:\n      dup1\n      0x1f\n      add\n      0x20\n      dup1\n      swap2\n      div\n      mul\n      0x20\n      add\n      mload(0x40)\n      swap1\n      dup2\n      add\n      0x40\n      mstore\n      dup1\n      swap3\n      swap2\n      swap1\n      dup2\n      dup2\n      mstore\n      0x20\n      add\n      dup3\n      dup1\n      sload\n      tag_213\n      swap1\n      tag_178\n      jump\t// in\n    tag_213:\n      dup1\n      iszero\n      tag_214\n      jumpi\n      dup1\n      0x1f\n      lt\n      tag_215\n      jumpi\n      0x0100\n      dup1\n      dup4\n      sload\n      div\n      mul\n      dup4\n      mstore\n      swap2\n      0x20\n      add\n      swap2\n      jump(tag_214)\n    tag_215:\n      dup3\n      add\n      swap2\n      swap1\n      0x00\n      mstore\n      keccak256(0x00, 0x20)\n      swap1\n    tag_216:\n      dup2\n      sload\n      dup2\n      mstore\n      swap1\n      0x01\n      add\n      swap1\n      0x20\n      add\n      dup1\n      dup4\n      gt\n      tag_216\n      jumpi\n      dup3\n      swap1\n      sub\n      0x1f\n      and\n      dup3\n      add\n      swap2\n    tag_214:\n      pop\n      pop\n      pop\n      pop\n      pop\n      swap1\n      pop\n        /* \"contracts/lzApp/LzApp.sol\":7171:7182  _srcAddress */\n      dup4\n      dup4\n        /* \"contracts/lzApp/LzApp.sol\":7161:7183  keccak256(_srcAddress) */\n      mload(0x40)\n      tag_217\n      swap3\n      swap2\n      swap1\n      tag_186\n      jump\t// in\n    tag_217:\n      mload(0x40)\n      dup1\n      swap2\n      sub\n      swap1\n      keccak256\n        /* \"contracts/lzApp/LzApp.sol\":7143:7156  trustedSource */\n      dup2\n        /* \"contracts/lzApp/LzApp.sol\":7133:7157  keccak256(trustedSource) */\n      dup1\n      mload\n      swap1\n      0x20\n      add\n      keccak256\n        /* \"contracts/lzApp/LzApp.sol\":7133:7183  keccak256(trustedSource) == keccak256(_srcAddress) */\n      eq\n        /* \"contracts/lzApp/LzApp.sol\":7126:7183  return keccak256(trustedSource) == keccak256(_srcAddress) */\n      swap2\n      pop\n      pop\n        /* \"contracts/lzApp/LzApp.sol\":6943:7190  function isTrustedRemote(uint16 _srcChainId, bytes calldata _srcAddress) external view returns (bool) {... */\n      swap4\n      swap3\n      pop\n      pop\n      pop\n      jump\t// out\n        /* \"contracts/lzApp/LzApp.sol\":869:922  mapping(uint16 => uint) public payloadSizeLimitLookup */\n    tag_66:\n      mstore(0x20, 0x03)\n      dup1\n      0x00\n      mstore\n      keccak256(0x00, 0x40)\n      0x00\n      swap2\n      pop\n      swap1\n      pop\n      sload\n      dup2\n      jump\t// out\n        /* \"contracts/lzApp/LzApp.sol\":5110:5286  function forceResumeReceive(uint16 _srcChainId, bytes calldata _srcAddress) external override onlyOwner {... */\n    tag_72:\n        /* \"https://github.com/OpenZeppelin/openzeppelin-contracts/blob/release-v4.7/contracts/access/Ownable.sol\":1094:1107  _checkOwner() */\n      tag_219\n        /* \"https://github.com/OpenZeppelin/openzeppelin-contracts/blob/release-v4.7/contracts/access/Ownable.sol\":1094:1105  _checkOwner */\n      tag_194\n        /* \"https://github.com/OpenZeppelin/openzeppelin-contracts/blob/release-v4.7/contracts/access/Ownable.sol\":1094:1107  _checkOwner() */\n      jump\t// in\n    tag_219:\n        /* \"contracts/lzApp/LzApp.sol\":5224:5234  lzEndpoint */\n      immutable(\"0xd2bf2e9a999710431595af5d3876bd6f95a9accd65a44f4cd49ef60c37cc3ecc\")\n        /* \"contracts/lzApp/LzApp.sol\":5224:5253  lzEndpoint.forceResumeReceive */\n      0xffffffffffffffffffffffffffffffffffffffff\n      and\n      0x42d65a8d\n        /* \"contracts/lzApp/LzApp.sol\":5254:5265  _srcChainId */\n      dup5\n        /* \"contracts/lzApp/LzApp.sol\":5267:5278  _srcAddress */\n      dup5\n      dup5\n        /* \"contracts/lzApp/LzApp.sol\":5224:5279  lzEndpoint.forceResumeReceive(_srcChainId, _srcAddress) */\n      mload(0x40)\n      dup5\n      0xffffffff\n      and\n      0xe0\n      shl\n      dup2\n      mstore\n      0x04\n      add\n      tag_221\n      swap4\n      swap3\n      swap2\n      swap1\n      tag_222\n      jump\t// in\n    tag_221:\n      0x00\n      mload(0x40)\n      dup1\n      dup4\n      sub\n      dup2\n      0x00\n      dup8\n      dup1\n      extcodesize\n      iszero\n      dup1\n      iszero\n      tag_223\n      jumpi\n      0x00\n      dup1\n      revert\n    tag_223:\n      pop\n      gas\n      call\n      iszero\n      dup1\n      iszero\n      tag_225\n      jumpi\n      returndatasize\n      0x00\n      dup1\n      returndatacopy\n      revert(0x00, returndatasize)\n    tag_225:\n      pop\n      pop\n      pop\n      pop\n        /* \"contracts/lzApp/LzApp.sol\":5110:5286  function forceResumeReceive(uint16 _srcChainId, bytes calldata _srcAddress) external override onlyOwner {... */\n      pop\n      pop\n      pop\n      jump\t// out\n        /* \"contracts/lzApp/NonblockingLzApp.sol\":622:707  mapping(uint16 => mapping(bytes => mapping(uint64 => bytes32))) public failedMessages */\n    tag_77:\n      mstore(0x20, 0x05)\n      dup3\n      0x00\n      mstore\n      keccak256(0x00, 0x40)\n      dup3\n      dup1\n      mload\n      0x20\n      dup2\n      add\n      dup3\n      add\n      dup1\n      mload\n      dup5\n      dup3\n      mstore\n      0x20\n      dup4\n      add\n      0x20\n      dup6\n      add\n      keccak256\n      dup2\n      dup4\n      mstore\n      dup1\n      swap6\n      pop\n      pop\n      pop\n      pop\n      pop\n      pop\n      0x20\n      mstore\n      dup1\n      0x00\n      mstore\n      keccak256(0x00, 0x40)\n      0x00\n      swap3\n      pop\n      swap3\n      pop\n      pop\n      pop\n      sload\n      dup2\n      jump\t// out\n        /* \"contracts/examples/sldtdrn.sol\":1131:1298  function trustAddress(address _otherContract) public onlyOwner {... */\n    tag_84:\n        /* \"https://github.com/OpenZeppelin/openzeppelin-contracts/blob/release-v4.7/contracts/access/Ownable.sol\":1094:1107  _checkOwner() */\n      tag_227\n        /* \"https://github.com/OpenZeppelin/openzeppelin-contracts/blob/release-v4.7/contracts/access/Ownable.sol\":1094:1105  _checkOwner */\n      tag_194\n        /* \"https://github.com/OpenZeppelin/openzeppelin-contracts/blob/release-v4.7/contracts/access/Ownable.sol\":1094:1107  _checkOwner() */\n      jump\t// in\n    tag_227:\n        /* \"contracts/examples/sldtdrn.sol\":1257:1271  _otherContract */\n      dup1\n        /* \"contracts/examples/sldtdrn.sol\":1281:1285  this */\n      address\n        /* \"contracts/examples/sldtdrn.sol\":1240:1287  abi.encodePacked(_otherContract, address(this)) */\n      add(0x20, mload(0x40))\n      tag_229\n      swap3\n      swap2\n      swap1\n      tag_230\n      jump\t// in\n    tag_229:\n      mload(0x40)\n      0x20\n      dup2\n      dup4\n      sub\n      sub\n      dup2\n      mstore\n      swap1\n      0x40\n      mstore\n        /* \"contracts/examples/sldtdrn.sol\":1205:1224  trustedRemoteLookup */\n      0x01\n        /* \"contracts/examples/sldtdrn.sol\":1205:1237  trustedRemoteLookup[destChainId] */\n      0x00\n        /* \"contracts/examples/sldtdrn.sol\":1225:1236  destChainId */\n      0x07\n      0x00\n      swap1\n      sload\n      swap1\n      0x0100\n      exp\n      swap1\n      div\n      0xffff\n      and\n        /* \"contracts/examples/sldtdrn.sol\":1205:1237  trustedRemoteLookup[destChainId] */\n      0xffff\n      and\n      0xffff\n      and\n      dup2\n      mstore\n      0x20\n      add\n      swap1\n      dup2\n      mstore\n      0x20\n      add\n      0x00\n      keccak256\n        /* \"contracts/examples/sldtdrn.sol\":1205:1287  trustedRemoteLookup[destChainId] = abi.encodePacked(_otherContract, address(this)) */\n      swap1\n      dup2\n      tag_231\n      swap2\n      swap1\n      tag_232\n      jump\t// in\n    tag_231:\n      pop\n        /* \"contracts/examples/sldtdrn.sol\":1131:1298  function trustAddress(address _otherContract) public onlyOwner {... */\n      pop\n      jump\t// out\n        /* \"contracts/examples/sldtdrn.sol\":911:1123  function send(string memory _message) public payable {... */\n    tag_88:\n        /* \"contracts/examples/sldtdrn.sol\":975:995  bytes memory payload */\n      0x00\n        /* \"contracts/examples/sldtdrn.sol\":1009:1017  _message */\n      dup2\n        /* \"contracts/examples/sldtdrn.sol\":998:1018  abi.encode(_message) */\n      add(0x20, mload(0x40))\n      tag_234\n      swap2\n      swap1\n      tag_100\n      jump\t// in\n    tag_234:\n      mload(0x40)\n      0x20\n      dup2\n      dup4\n      sub\n      sub\n      dup2\n      mstore\n      swap1\n      0x40\n      mstore\n        /* \"contracts/examples/sldtdrn.sol\":975:1018  bytes memory payload = abi.encode(_message) */\n      swap1\n      pop\n        /* \"contracts/examples/sldtdrn.sol\":1029:1115  _lzSend(destChainId, payload, payable(msg.sender), address(0x0), bytes(\"\"), msg.value) */\n      tag_235\n        /* \"contracts/examples/sldtdrn.sol\":1037:1048  destChainId */\n      0x07\n      0x00\n      swap1\n      sload\n      swap1\n      0x0100\n      exp\n      swap1\n      div\n      0xffff\n      and\n        /* \"contracts/examples/sldtdrn.sol\":1050:1057  payload */\n      dup3\n        /* \"contracts/examples/sldtdrn.sol\":1067:1077  msg.sender */\n      caller\n        /* \"contracts/examples/sldtdrn.sol\":1088:1091  0x0 */\n      0x00\n        /* \"contracts/examples/sldtdrn.sol\":1094:1103  bytes(\"\") */\n      mload(0x40)\n      dup1\n      0x20\n      add\n      0x40\n      mstore\n      dup1\n      0x00\n      dup2\n      mstore\n      pop\n        /* \"contracts/examples/sldtdrn.sol\":1105:1114  msg.value */\n      callvalue\n        /* \"contracts/examples/sldtdrn.sol\":1029:1036  _lzSend */\n      tag_236\n        /* \"contracts/examples/sldtdrn.sol\":1029:1115  _lzSend(destChainId, payload, payable(msg.sender), address(0x0), bytes(\"\"), msg.value) */\n      jump\t// in\n    tag_235:\n        /* \"contracts/examples/sldtdrn.sol\":964:1123  {... */\n      pop\n        /* \"contracts/examples/sldtdrn.sol\":911:1123  function send(string memory _message) public payable {... */\n      pop\n      jump\t// out\n        /* \"contracts/lzApp/NonblockingLzApp.sol\":1912:2292  function nonblockingLzReceive(... */\n    tag_92:\n        /* \"contracts/lzApp/NonblockingLzApp.sol\":2162:2166  this */\n      address\n        /* \"contracts/lzApp/NonblockingLzApp.sol\":2138:2167  _msgSender() == address(this) */\n      0xffffffffffffffffffffffffffffffffffffffff\n      and\n        /* \"contracts/lzApp/NonblockingLzApp.sol\":2138:2150  _msgSender() */\n      tag_238\n        /* \"contracts/lzApp/NonblockingLzApp.sol\":2138:2148  _msgSender */\n      tag_173\n        /* \"contracts/lzApp/NonblockingLzApp.sol\":2138:2150  _msgSender() */\n      jump\t// in\n    tag_238:\n        /* \"contracts/lzApp/NonblockingLzApp.sol\":2138:2167  _msgSender() == address(this) */\n      0xffffffffffffffffffffffffffffffffffffffff\n      and\n      eq\n        /* \"contracts/lzApp/NonblockingLzApp.sol\":2130:2210  require(_msgSender() == address(this), \"NonblockingLzApp: caller must be LzApp\") */\n      tag_239\n      jumpi\n      mload(0x40)\n      0x08c379a000000000000000000000000000000000000000000000000000000000\n      dup2\n      mstore\n      0x04\n      add\n      tag_240\n      swap1\n      tag_241\n      jump\t// in\n    tag_240:\n      mload(0x40)\n      dup1\n      swap2\n      sub\n      swap1\n      revert\n    tag_239:\n        /* \"contracts/lzApp/NonblockingLzApp.sol\":2220:2285  _nonblockingLzReceive(_srcChainId, _srcAddress, _nonce, _payload) */\n      tag_242\n        /* \"contracts/lzApp/NonblockingLzApp.sol\":2242:2253  _srcChainId */\n      dup7\n        /* \"contracts/lzApp/NonblockingLzApp.sol\":2255:2266  _srcAddress */\n      dup7\n      dup7\n        /* \"contracts/lzApp/NonblockingLzApp.sol\":2220:2285  _nonblockingLzReceive(_srcChainId, _srcAddress, _nonce, _payload) */\n      dup1\n      dup1\n      0x1f\n      add\n      0x20\n      dup1\n      swap2\n      div\n      mul\n      0x20\n      add\n      mload(0x40)\n      swap1\n      dup2\n      add\n      0x40\n      mstore\n      dup1\n      swap4\n      swap3\n      swap2\n      swap1\n      dup2\n      dup2\n      mstore\n      0x20\n      add\n      dup4\n      dup4\n      dup1\n      dup3\n      dup5\n      calldatacopy\n      0x00\n      dup2\n      dup5\n      add\n      mstore\n      not(0x1f)\n      0x1f\n      dup3\n      add\n      and\n      swap1\n      pop\n      dup1\n      dup4\n      add\n      swap3\n      pop\n      pop\n      pop\n      pop\n      pop\n      pop\n      pop\n        /* \"contracts/lzApp/NonblockingLzApp.sol\":2268:2274  _nonce */\n      dup6\n        /* \"contracts/lzApp/NonblockingLzApp.sol\":2276:2284  _payload */\n      dup6\n      dup6\n        /* \"contracts/lzApp/NonblockingLzApp.sol\":2220:2285  _nonblockingLzReceive(_srcChainId, _srcAddress, _nonce, _payload) */\n      dup1\n      dup1\n      0x1f\n      add\n      0x20\n      dup1\n      swap2\n      div\n      mul\n      0x20\n      add\n      mload(0x40)\n      swap1\n      dup2\n      add\n      0x40\n      mstore\n      dup1\n      swap4\n      swap3\n      swap2\n      swap1\n      dup2\n      dup2\n      mstore\n      0x20\n      add\n      dup4\n      dup4\n      dup1\n      dup3\n      dup5\n      calldatacopy\n      0x00\n      dup2\n      dup5\n      add\n      mstore\n      not(0x1f)\n      0x1f\n      dup3\n      add\n      and\n      swap1\n      pop\n      dup1\n      dup4\n      add\n      swap3\n      pop\n      pop\n      pop\n      pop\n      pop\n      pop\n      pop\n        /* \"contracts/lzApp/NonblockingLzApp.sol\":2220:2241  _nonblockingLzReceive */\n      tag_243\n        /* \"contracts/lzApp/NonblockingLzApp.sol\":2220:2285  _nonblockingLzReceive(_srcChainId, _srcAddress, _nonce, _payload) */\n      jump\t// in\n    tag_242:\n        /* \"contracts/lzApp/NonblockingLzApp.sol\":1912:2292  function nonblockingLzReceive(... */\n      pop\n      pop\n      pop\n      pop\n      pop\n      pop\n      jump\t// out\n        /* \"https://github.com/OpenZeppelin/openzeppelin-contracts/blob/release-v4.7/contracts/access/Ownable.sol\":1831:1932  function renounceOwnership() public virtual onlyOwner {... */\n    tag_95:\n        /* \"https://github.com/OpenZeppelin/openzeppelin-contracts/blob/release-v4.7/contracts/access/Ownable.sol\":1094:1107  _checkOwner() */\n      tag_245\n        /* \"https://github.com/OpenZeppelin/openzeppelin-contracts/blob/release-v4.7/contracts/access/Ownable.sol\":1094:1105  _checkOwner */\n      tag_194\n        /* \"https://github.com/OpenZeppelin/openzeppelin-contracts/blob/release-v4.7/contracts/access/Ownable.sol\":1094:1107  _checkOwner() */\n      jump\t// in\n    tag_245:\n        /* \"https://github.com/OpenZeppelin/openzeppelin-contracts/blob/release-v4.7/contracts/access/Ownable.sol\":1895:1925  _transferOwnership(address(0)) */\n      tag_247\n        /* \"https://github.com/OpenZeppelin/openzeppelin-contracts/blob/release-v4.7/contracts/access/Ownable.sol\":1922:1923  0 */\n      0x00\n        /* \"https://github.com/OpenZeppelin/openzeppelin-contracts/blob/release-v4.7/contracts/access/Ownable.sol\":1895:1913  _transferOwnership */\n      tag_248\n        /* \"https://github.com/OpenZeppelin/openzeppelin-contracts/blob/release-v4.7/contracts/access/Ownable.sol\":1895:1925  _transferOwnership(address(0)) */\n      jump\t// in\n    tag_247:\n        /* \"https://github.com/OpenZeppelin/openzeppelin-contracts/blob/release-v4.7/contracts/access/Ownable.sol\":1831:1932  function renounceOwnership() public virtual onlyOwner {... */\n      jump\t// out\n        /* \"contracts/examples/sldtdrn.sol\":400:443  string public data = \"Nothing received yet\" */\n    tag_98:\n      0x06\n      dup1\n      sload\n      tag_249\n      swap1\n      tag_178\n      jump\t// in\n    tag_249:\n      dup1\n      0x1f\n      add\n      0x20\n      dup1\n      swap2\n      div\n      mul\n      0x20\n      add\n      mload(0x40)\n      swap1\n      dup2\n      add\n      0x40\n      mstore\n      dup1\n      swap3\n      swap2\n      swap1\n      dup2\n      dup2\n      mstore\n      0x20\n      add\n      dup3\n      dup1\n      sload\n      tag_250\n      swap1\n      tag_178\n      jump\t// in\n    tag_250:\n      dup1\n      iszero\n      tag_251\n      jumpi\n      dup1\n      0x1f\n      lt\n      tag_252\n      jumpi\n      0x0100\n      dup1\n      dup4\n      sload\n      div\n      mul\n      dup4\n      mstore\n      swap2\n      0x20\n      add\n      swap2\n      jump(tag_251)\n    tag_252:\n      dup3\n      add\n      swap2\n      swap1\n      0x00\n      mstore\n      keccak256(0x00, 0x20)\n      swap1\n    tag_253:\n      dup2\n      sload\n      dup2\n      mstore\n      swap1\n      0x01\n      add\n      swap1\n      0x20\n      add\n      dup1\n      dup4\n      gt\n      tag_253\n      jumpi\n      dup3\n      swap1\n      sub\n      0x1f\n      and\n      dup3\n      add\n      swap2\n    tag_251:\n      pop\n      pop\n      pop\n      pop\n      pop\n      dup2\n      jump\t// out\n        /* \"contracts/lzApp/LzApp.sol\":741:792  mapping(uint16 => bytes) public trustedRemoteLookup */\n    tag_104:\n      mstore(0x20, 0x01)\n      dup1\n      0x00\n      mstore\n      keccak256(0x00, 0x40)\n      0x00\n      swap2\n      pop\n      swap1\n      pop\n      dup1\n      sload\n      tag_254\n      swap1\n      tag_178\n      jump\t// in\n    tag_254:\n      dup1\n      0x1f\n      add\n      0x20\n      dup1\n      swap2\n      div\n      mul\n      0x20\n      add\n      mload(0x40)\n      swap1\n      dup2\n      add\n      0x40\n      mstore\n      dup1\n      swap3\n      swap2\n      swap1\n      dup2\n      dup2\n      mstore\n      0x20\n      add\n      dup3\n      dup1\n      sload\n      tag_255\n      swap1\n      tag_178\n      jump\t// in\n    tag_255:\n      dup1\n      iszero\n      tag_256\n      jumpi\n      dup1\n      0x1f\n      lt\n      tag_257\n      jumpi\n      0x0100\n      dup1\n      dup4\n      sload\n      div\n      mul\n      dup4\n      mstore\n      swap2\n      0x20\n      add\n      swap2\n      jump(tag_256)\n    tag_257:\n      dup3\n      add\n      swap2\n      swap1\n      0x00\n      mstore\n      keccak256(0x00, 0x20)\n      swap1\n    tag_258:\n      dup2\n      sload\n      dup2\n      mstore\n      swap1\n      0x01\n      add\n      swap1\n      0x20\n      add\n      dup1\n      dup4\n      gt\n      tag_258\n      jumpi\n      dup3\n      swap1\n      sub\n      0x1f\n      and\n      dup3\n      add\n      swap2\n    tag_256:\n      pop\n      pop\n      pop\n      pop\n      pop\n      dup2\n      jump\t// out\n        /* \"contracts/lzApp/LzApp.sol\":798:863  mapping(uint16 => mapping(uint16 => uint)) public minDstGasLookup */\n    tag_111:\n      mstore(0x20, 0x02)\n      dup2\n      0x00\n      mstore\n      mstore(0x20, keccak256(0x00, 0x40))\n      dup1\n      0x00\n      mstore\n      keccak256(0x00, 0x40)\n      0x00\n      swap2\n      pop\n      swap2\n      pop\n      pop\n      sload\n      dup2\n      jump\t// out\n        /* \"https://github.com/OpenZeppelin/openzeppelin-contracts/blob/release-v4.7/contracts/access/Ownable.sol\":1201:1286  function owner() public view virtual returns (address) {... */\n    tag_115:\n        /* \"https://github.com/OpenZeppelin/openzeppelin-contracts/blob/release-v4.7/contracts/access/Ownable.sol\":1247:1254  address */\n      0x00\n        /* \"https://github.com/OpenZeppelin/openzeppelin-contracts/blob/release-v4.7/contracts/access/Ownable.sol\":1273:1279  _owner */\n      dup1\n      0x00\n      swap1\n      sload\n      swap1\n      0x0100\n      exp\n      swap1\n      div\n      0xffffffffffffffffffffffffffffffffffffffff\n      and\n        /* \"https://github.com/OpenZeppelin/openzeppelin-contracts/blob/release-v4.7/contracts/access/Ownable.sol\":1266:1279  return _owner */\n      swap1\n      pop\n        /* \"https://github.com/OpenZeppelin/openzeppelin-contracts/blob/release-v4.7/contracts/access/Ownable.sol\":1201:1286  function owner() public view virtual returns (address) {... */\n      swap1\n      jump\t// out\n        /* \"contracts/lzApp/LzApp.sol\":928:951  address public precrime */\n    tag_120:\n      0x04\n      0x00\n      swap1\n      sload\n      swap1\n      0x0100\n      exp\n      swap1\n      div\n      0xffffffffffffffffffffffffffffffffffffffff\n      and\n      dup2\n      jump\t// out\n        /* \"contracts/lzApp/LzApp.sol\":5923:6249  function getTrustedRemoteAddress(uint16 _remoteChainId) external view returns (bytes memory) {... */\n    tag_125:\n        /* \"contracts/lzApp/LzApp.sol\":6002:6014  bytes memory */\n      0x60\n        /* \"contracts/lzApp/LzApp.sol\":6026:6043  bytes memory path */\n      0x00\n        /* \"contracts/lzApp/LzApp.sol\":6046:6065  trustedRemoteLookup */\n      0x01\n        /* \"contracts/lzApp/LzApp.sol\":6046:6081  trustedRemoteLookup[_remoteChainId] */\n      0x00\n        /* \"contracts/lzApp/LzApp.sol\":6066:6080  _remoteChainId */\n      dup5\n        /* \"contracts/lzApp/LzApp.sol\":6046:6081  trustedRemoteLookup[_remoteChainId] */\n      0xffff\n      and\n      0xffff\n      and\n      dup2\n      mstore\n      0x20\n      add\n      swap1\n      dup2\n      mstore\n      0x20\n      add\n      0x00\n      keccak256\n        /* \"contracts/lzApp/LzApp.sol\":6026:6081  bytes memory path = trustedRemoteLookup[_remoteChainId] */\n      dup1\n      sload\n      tag_261\n      swap1\n      tag_178\n      jump\t// in\n    tag_261:\n      dup1\n      0x1f\n      add\n      0x20\n      dup1\n      swap2\n      div\n      mul\n      0x20\n      add\n      mload(0x40)\n      swap1\n      dup2\n      add\n      0x40\n      mstore\n      dup1\n      swap3\n      swap2\n      swap1\n      dup2\n      dup2\n      mstore\n      0x20\n      add\n      dup3\n      dup1\n      sload\n      tag_262\n      swap1\n      tag_178\n      jump\t// in\n    tag_262:\n      dup1\n      iszero\n      tag_263\n      jumpi\n      dup1\n      0x1f\n      lt\n      tag_264\n      jumpi\n      0x0100\n      dup1\n      dup4\n      sload\n      div\n      mul\n      dup4\n      mstore\n      swap2\n      0x20\n      add\n      swap2\n      jump(tag_263)\n    tag_264:\n      dup3\n      add\n      swap2\n      swap1\n      0x00\n      mstore\n      keccak256(0x00, 0x20)\n      swap1\n    tag_265:\n      dup2\n      sload\n      dup2\n      mstore\n      swap1\n      0x01\n      add\n      swap1\n      0x20\n      add\n      dup1\n      dup4\n      gt\n      tag_265\n      jumpi\n      dup3\n      swap1\n      sub\n      0x1f\n      and\n      dup3\n      add\n      swap2\n    tag_263:\n      pop\n      pop\n      pop\n      pop\n      pop\n      swap1\n      pop\n        /* \"contracts/lzApp/LzApp.sol\":6114:6115  0 */\n      0x00\n        /* \"contracts/lzApp/LzApp.sol\":6099:6103  path */\n      dup2\n        /* \"contracts/lzApp/LzApp.sol\":6099:6110  path.length */\n      mload\n        /* \"contracts/lzApp/LzApp.sol\":6099:6115  path.length != 0 */\n      sub\n        /* \"contracts/lzApp/LzApp.sol\":6091:6149  require(path.length != 0, \"LzApp: no trusted path record\") */\n      tag_266\n      jumpi\n      mload(0x40)\n      0x08c379a000000000000000000000000000000000000000000000000000000000\n      dup2\n      mstore\n      0x04\n      add\n      tag_267\n      swap1\n      tag_268\n      jump\t// in\n    tag_267:\n      mload(0x40)\n      dup1\n      swap2\n      sub\n      swap1\n      revert\n    tag_266:\n        /* \"contracts/lzApp/LzApp.sol\":6166:6197  path.slice(0, path.length - 20) */\n      tag_269\n        /* \"contracts/lzApp/LzApp.sol\":6177:6178  0 */\n      0x00\n        /* \"contracts/lzApp/LzApp.sol\":6194:6196  20 */\n      0x14\n        /* \"contracts/lzApp/LzApp.sol\":6180:6184  path */\n      dup4\n        /* \"contracts/lzApp/LzApp.sol\":6180:6191  path.length */\n      mload\n        /* \"contracts/lzApp/LzApp.sol\":6180:6196  path.length - 20 */\n      tag_270\n      swap2\n      swap1\n      tag_271\n      jump\t// in\n    tag_270:\n        /* \"contracts/lzApp/LzApp.sol\":6166:6170  path */\n      dup4\n        /* \"contracts/lzApp/LzApp.sol\":6166:6176  path.slice */\n      tag_272\n      swap1\n        /* \"contracts/lzApp/LzApp.sol\":6166:6197  path.slice(0, path.length - 20) */\n      swap3\n      swap2\n      swap1\n      0xffffffff\n      and\n      jump\t// in\n    tag_269:\n        /* \"contracts/lzApp/LzApp.sol\":6159:6197  return path.slice(0, path.length - 20) */\n      swap2\n      pop\n      pop\n        /* \"contracts/lzApp/LzApp.sol\":5923:6249  function getTrustedRemoteAddress(uint16 _remoteChainId) external view returns (bytes memory) {... */\n      swap2\n      swap1\n      pop\n      jump\t// out\n        /* \"contracts/lzApp/LzApp.sol\":5639:5917  function setTrustedRemoteAddress(uint16 _remoteChainId, bytes calldata _remoteAddress) external onlyOwner {... */\n    tag_130:\n        /* \"https://github.com/OpenZeppelin/openzeppelin-contracts/blob/release-v4.7/contracts/access/Ownable.sol\":1094:1107  _checkOwner() */\n      tag_274\n        /* \"https://github.com/OpenZeppelin/openzeppelin-contracts/blob/release-v4.7/contracts/access/Ownable.sol\":1094:1105  _checkOwner */\n      tag_194\n        /* \"https://github.com/OpenZeppelin/openzeppelin-contracts/blob/release-v4.7/contracts/access/Ownable.sol\":1094:1107  _checkOwner() */\n      jump\t// in\n    tag_274:\n        /* \"contracts/lzApp/LzApp.sol\":5810:5824  _remoteAddress */\n      dup2\n      dup2\n        /* \"contracts/lzApp/LzApp.sol\":5834:5838  this */\n      address\n        /* \"contracts/lzApp/LzApp.sol\":5793:5840  abi.encodePacked(_remoteAddress, address(this)) */\n      add(0x20, mload(0x40))\n      tag_276\n      swap4\n      swap3\n      swap2\n      swap1\n      tag_277\n      jump\t// in\n    tag_276:\n      mload(0x40)\n      0x20\n      dup2\n      dup4\n      sub\n      sub\n      dup2\n      mstore\n      swap1\n      0x40\n      mstore\n        /* \"contracts/lzApp/LzApp.sol\":5755:5774  trustedRemoteLookup */\n      0x01\n        /* \"contracts/lzApp/LzApp.sol\":5755:5790  trustedRemoteLookup[_remoteChainId] */\n      0x00\n        /* \"contracts/lzApp/LzApp.sol\":5775:5789  _remoteChainId */\n      dup6\n        /* \"contracts/lzApp/LzApp.sol\":5755:5790  trustedRemoteLookup[_remoteChainId] */\n      0xffff\n      and\n      0xffff\n      and\n      dup2\n      mstore\n      0x20\n      add\n      swap1\n      dup2\n      mstore\n      0x20\n      add\n      0x00\n      keccak256\n        /* \"contracts/lzApp/LzApp.sol\":5755:5840  trustedRemoteLookup[_remoteChainId] = abi.encodePacked(_remoteAddress, address(this)) */\n      swap1\n      dup2\n      tag_278\n      swap2\n      swap1\n      tag_232\n      jump\t// in\n    tag_278:\n      pop\n        /* \"contracts/lzApp/LzApp.sol\":5855:5910  SetTrustedRemoteAddress(_remoteChainId, _remoteAddress) */\n      0x8c0400cfe2d1199b1a725c78960bcc2a344d869b80590d0f2bd005db15a572ce\n        /* \"contracts/lzApp/LzApp.sol\":5879:5893  _remoteChainId */\n      dup4\n        /* \"contracts/lzApp/LzApp.sol\":5895:5909  _remoteAddress */\n      dup4\n      dup4\n        /* \"contracts/lzApp/LzApp.sol\":5855:5910  SetTrustedRemoteAddress(_remoteChainId, _remoteAddress) */\n      mload(0x40)\n      tag_279\n      swap4\n      swap3\n      swap2\n      swap1\n      tag_222\n      jump\t// in\n    tag_279:\n      mload(0x40)\n      dup1\n      swap2\n      sub\n      swap1\n      log1\n        /* \"contracts/lzApp/LzApp.sol\":5639:5917  function setTrustedRemoteAddress(uint16 _remoteChainId, bytes calldata _remoteAddress) external onlyOwner {... */\n      pop\n      pop\n      pop\n      jump\t// out\n        /* \"contracts/lzApp/LzApp.sol\":689:735  ILayerZeroEndpoint public immutable lzEndpoint */\n    tag_133:\n      immutable(\"0xd2bf2e9a999710431595af5d3876bd6f95a9accd65a44f4cd49ef60c37cc3ecc\")\n      dup2\n      jump\t// out\n        /* \"contracts/lzApp/LzApp.sol\":6255:6388  function setPrecrime(address _precrime) external onlyOwner {... */\n    tag_139:\n        /* \"https://github.com/OpenZeppelin/openzeppelin-contracts/blob/release-v4.7/contracts/access/Ownable.sol\":1094:1107  _checkOwner() */\n      tag_281\n        /* \"https://github.com/OpenZeppelin/openzeppelin-contracts/blob/release-v4.7/contracts/access/Ownable.sol\":1094:1105  _checkOwner */\n      tag_194\n        /* \"https://github.com/OpenZeppelin/openzeppelin-contracts/blob/release-v4.7/contracts/access/Ownable.sol\":1094:1107  _checkOwner() */\n      jump\t// in\n    tag_281:\n        /* \"contracts/lzApp/LzApp.sol\":6335:6344  _precrime */\n      dup1\n        /* \"contracts/lzApp/LzApp.sol\":6324:6332  precrime */\n      0x04\n      0x00\n        /* \"contracts/lzApp/LzApp.sol\":6324:6344  precrime = _precrime */\n      0x0100\n      exp\n      dup2\n      sload\n      dup2\n      0xffffffffffffffffffffffffffffffffffffffff\n      mul\n      not\n      and\n      swap1\n      dup4\n      0xffffffffffffffffffffffffffffffffffffffff\n      and\n      mul\n      or\n      swap1\n      sstore\n      pop\n        /* \"contracts/lzApp/LzApp.sol\":6359:6381  SetPrecrime(_precrime) */\n      0x5db758e995a17ec1ad84bdef7e8c3293a0bd6179bcce400dff5d4c3d87db726b\n        /* \"contracts/lzApp/LzApp.sol\":6371:6380  _precrime */\n      dup2\n        /* \"contracts/lzApp/LzApp.sol\":6359:6381  SetPrecrime(_precrime) */\n      mload(0x40)\n      tag_283\n      swap2\n      swap1\n      tag_117\n      jump\t// in\n    tag_283:\n      mload(0x40)\n      dup1\n      swap2\n      sub\n      swap1\n      log1\n        /* \"contracts/lzApp/LzApp.sol\":6255:6388  function setPrecrime(address _precrime) external onlyOwner {... */\n      pop\n      jump\t// out\n        /* \"contracts/lzApp/LzApp.sol\":627:682  uint public constant DEFAULT_PAYLOAD_SIZE_LIMIT = 10000 */\n    tag_142:\n        /* \"contracts/lzApp/LzApp.sol\":677:682  10000 */\n      0x2710\n        /* \"contracts/lzApp/LzApp.sol\":627:682  uint public constant DEFAULT_PAYLOAD_SIZE_LIMIT = 10000 */\n      dup2\n      jump\t// out\n        /* \"contracts/lzApp/LzApp.sol\":4604:4844  function setConfig(... */\n    tag_148:\n        /* \"https://github.com/OpenZeppelin/openzeppelin-contracts/blob/release-v4.7/contracts/access/Ownable.sol\":1094:1107  _checkOwner() */\n      tag_285\n        /* \"https://github.com/OpenZeppelin/openzeppelin-contracts/blob/release-v4.7/contracts/access/Ownable.sol\":1094:1105  _checkOwner */\n      tag_194\n        /* \"https://github.com/OpenZeppelin/openzeppelin-contracts/blob/release-v4.7/contracts/access/Ownable.sol\":1094:1107  _checkOwner() */\n      jump\t// in\n    tag_285:\n        /* \"contracts/lzApp/LzApp.sol\":4775:4785  lzEndpoint */\n      immutable(\"0xd2bf2e9a999710431595af5d3876bd6f95a9accd65a44f4cd49ef60c37cc3ecc\")\n        /* \"contracts/lzApp/LzApp.sol\":4775:4795  lzEndpoint.setConfig */\n      0xffffffffffffffffffffffffffffffffffffffff\n      and\n      0xcbed8b9c\n        /* \"contracts/lzApp/LzApp.sol\":4796:4804  _version */\n      dup7\n        /* \"contracts/lzApp/LzApp.sol\":4806:4814  _chainId */\n      dup7\n        /* \"contracts/lzApp/LzApp.sol\":4816:4827  _configType */\n      dup7\n        /* \"contracts/lzApp/LzApp.sol\":4829:4836  _config */\n      dup7\n      dup7\n        /* \"contracts/lzApp/LzApp.sol\":4775:4837  lzEndpoint.setConfig(_version, _chainId, _configType, _config) */\n      mload(0x40)\n      dup7\n      0xffffffff\n      and\n      0xe0\n      shl\n      dup2\n      mstore\n      0x04\n      add\n      tag_287\n      swap6\n      swap5\n      swap4\n      swap3\n      swap2\n      swap1\n      tag_288\n      jump\t// in\n    tag_287:\n      0x00\n      mload(0x40)\n      dup1\n      dup4\n      sub\n      dup2\n      0x00\n      dup8\n      dup1\n      extcodesize\n      iszero\n      dup1\n      iszero\n      tag_289\n      jumpi\n      0x00\n      dup1\n      revert\n    tag_289:\n      pop\n      gas\n      call\n      iszero\n      dup1\n      iszero\n      tag_291\n      jumpi\n      returndatasize\n      0x00\n      dup1\n      returndatacopy\n      revert(0x00, returndatasize)\n    tag_291:\n      pop\n      pop\n      pop\n      pop\n        /* \"contracts/lzApp/LzApp.sol\":4604:4844  function setConfig(... */\n      pop\n      pop\n      pop\n      pop\n      pop\n      jump\t// out\n        /* \"contracts/lzApp/NonblockingLzApp.sol\":2511:3306  function retryMessage(... */\n    tag_151:\n        /* \"contracts/lzApp/NonblockingLzApp.sol\":2736:2755  bytes32 payloadHash */\n      0x00\n        /* \"contracts/lzApp/NonblockingLzApp.sol\":2758:2772  failedMessages */\n      0x05\n        /* \"contracts/lzApp/NonblockingLzApp.sol\":2758:2785  failedMessages[_srcChainId] */\n      0x00\n        /* \"contracts/lzApp/NonblockingLzApp.sol\":2773:2784  _srcChainId */\n      dup9\n        /* \"contracts/lzApp/NonblockingLzApp.sol\":2758:2785  failedMessages[_srcChainId] */\n      0xffff\n      and\n      0xffff\n      and\n      dup2\n      mstore\n      0x20\n      add\n      swap1\n      dup2\n      mstore\n      0x20\n      add\n      0x00\n      keccak256\n        /* \"contracts/lzApp/NonblockingLzApp.sol\":2786:2797  _srcAddress */\n      dup7\n      dup7\n        /* \"contracts/lzApp/NonblockingLzApp.sol\":2758:2798  failedMessages[_srcChainId][_srcAddress] */\n      mload(0x40)\n      tag_293\n      swap3\n      swap2\n      swap1\n      tag_186\n      jump\t// in\n    tag_293:\n      swap1\n      dup2\n      mstore\n      0x20\n      add\n      mload(0x40)\n      dup1\n      swap2\n      sub\n      swap1\n      keccak256\n        /* \"contracts/lzApp/NonblockingLzApp.sol\":2758:2806  failedMessages[_srcChainId][_srcAddress][_nonce] */\n      0x00\n        /* \"contracts/lzApp/NonblockingLzApp.sol\":2799:2805  _nonce */\n      dup6\n        /* \"contracts/lzApp/NonblockingLzApp.sol\":2758:2806  failedMessages[_srcChainId][_srcAddress][_nonce] */\n      0xffffffffffffffff\n      and\n      0xffffffffffffffff\n      and\n      dup2\n      mstore\n      0x20\n      add\n      swap1\n      dup2\n      mstore\n      0x20\n      add\n      0x00\n      keccak256\n      sload\n        /* \"contracts/lzApp/NonblockingLzApp.sol\":2736:2806  bytes32 payloadHash = failedMessages[_srcChainId][_srcAddress][_nonce] */\n      swap1\n      pop\n        /* \"contracts/lzApp/NonblockingLzApp.sol\":2847:2848  0 */\n      0x00\n        /* \"contracts/lzApp/NonblockingLzApp.sol\":2839:2849  bytes32(0) */\n      dup1\n      shl\n        /* \"contracts/lzApp/NonblockingLzApp.sol\":2824:2835  payloadHash */\n      dup2\n        /* \"contracts/lzApp/NonblockingLzApp.sol\":2824:2849  payloadHash != bytes32(0) */\n      sub\n        /* \"contracts/lzApp/NonblockingLzApp.sol\":2816:2889  require(payloadHash != bytes32(0), \"NonblockingLzApp: no stored message\") */\n      tag_294\n      jumpi\n      mload(0x40)\n      0x08c379a000000000000000000000000000000000000000000000000000000000\n      dup2\n      mstore\n      0x04\n      add\n      tag_295\n      swap1\n      tag_296\n      jump\t// in\n    tag_295:\n      mload(0x40)\n      dup1\n      swap2\n      sub\n      swap1\n      revert\n    tag_294:\n        /* \"contracts/lzApp/NonblockingLzApp.sol\":2930:2941  payloadHash */\n      dup1\n        /* \"contracts/lzApp/NonblockingLzApp.sol\":2917:2925  _payload */\n      dup4\n      dup4\n        /* \"contracts/lzApp/NonblockingLzApp.sol\":2907:2926  keccak256(_payload) */\n      mload(0x40)\n      tag_297\n      swap3\n      swap2\n      swap1\n      tag_186\n      jump\t// in\n    tag_297:\n      mload(0x40)\n      dup1\n      swap2\n      sub\n      swap1\n      keccak256\n        /* \"contracts/lzApp/NonblockingLzApp.sol\":2907:2941  keccak256(_payload) == payloadHash */\n      eq\n        /* \"contracts/lzApp/NonblockingLzApp.sol\":2899:2979  require(keccak256(_payload) == payloadHash, \"NonblockingLzApp: invalid payload\") */\n      tag_298\n      jumpi\n      mload(0x40)\n      0x08c379a000000000000000000000000000000000000000000000000000000000\n      dup2\n      mstore\n      0x04\n      add\n      tag_299\n      swap1\n      tag_300\n      jump\t// in\n    tag_299:\n      mload(0x40)\n      dup1\n      swap2\n      sub\n      swap1\n      revert\n    tag_298:\n        /* \"contracts/lzApp/NonblockingLzApp.sol\":3084:3085  0 */\n      0x00\n        /* \"contracts/lzApp/NonblockingLzApp.sol\":3076:3086  bytes32(0) */\n      dup1\n      shl\n        /* \"contracts/lzApp/NonblockingLzApp.sol\":3025:3039  failedMessages */\n      0x05\n        /* \"contracts/lzApp/NonblockingLzApp.sol\":3025:3052  failedMessages[_srcChainId] */\n      0x00\n        /* \"contracts/lzApp/NonblockingLzApp.sol\":3040:3051  _srcChainId */\n      dup10\n        /* \"contracts/lzApp/NonblockingLzApp.sol\":3025:3052  failedMessages[_srcChainId] */\n      0xffff\n      and\n      0xffff\n      and\n      dup2\n      mstore\n      0x20\n      add\n      swap1\n      dup2\n      mstore\n      0x20\n      add\n      0x00\n      keccak256\n        /* \"contracts/lzApp/NonblockingLzApp.sol\":3053:3064  _srcAddress */\n      dup8\n      dup8\n        /* \"contracts/lzApp/NonblockingLzApp.sol\":3025:3065  failedMessages[_srcChainId][_srcAddress] */\n      mload(0x40)\n      tag_301\n      swap3\n      swap2\n      swap1\n      tag_186\n      jump\t// in\n    tag_301:\n      swap1\n      dup2\n      mstore\n      0x20\n      add\n      mload(0x40)\n      dup1\n      swap2\n      sub\n      swap1\n      keccak256\n        /* \"contracts/lzApp/NonblockingLzApp.sol\":3025:3073  failedMessages[_srcChainId][_srcAddress][_nonce] */\n      0x00\n        /* \"contracts/lzApp/NonblockingLzApp.sol\":3066:3072  _nonce */\n      dup7\n        /* \"contracts/lzApp/NonblockingLzApp.sol\":3025:3073  failedMessages[_srcChainId][_srcAddress][_nonce] */\n      0xffffffffffffffff\n      and\n      0xffffffffffffffff\n      and\n      dup2\n      mstore\n      0x20\n      add\n      swap1\n      dup2\n      mstore\n      0x20\n      add\n      0x00\n      keccak256\n        /* \"contracts/lzApp/NonblockingLzApp.sol\":3025:3086  failedMessages[_srcChainId][_srcAddress][_nonce] = bytes32(0) */\n      dup2\n      swap1\n      sstore\n      pop\n        /* \"contracts/lzApp/NonblockingLzApp.sol\":3153:3218  _nonblockingLzReceive(_srcChainId, _srcAddress, _nonce, _payload) */\n      tag_302\n        /* \"contracts/lzApp/NonblockingLzApp.sol\":3175:3186  _srcChainId */\n      dup8\n        /* \"contracts/lzApp/NonblockingLzApp.sol\":3188:3199  _srcAddress */\n      dup8\n      dup8\n        /* \"contracts/lzApp/NonblockingLzApp.sol\":3153:3218  _nonblockingLzReceive(_srcChainId, _srcAddress, _nonce, _payload) */\n      dup1\n      dup1\n      0x1f\n      add\n      0x20\n      dup1\n      swap2\n      div\n      mul\n      0x20\n      add\n      mload(0x40)\n      swap1\n      dup2\n      add\n      0x40\n      mstore\n      dup1\n      swap4\n      swap3\n      swap2\n      swap1\n      dup2\n      dup2\n      mstore\n      0x20\n      add\n      dup4\n      dup4\n      dup1\n      dup3\n      dup5\n      calldatacopy\n      0x00\n      dup2\n      dup5\n      add\n      mstore\n      not(0x1f)\n      0x1f\n      dup3\n      add\n      and\n      swap1\n      pop\n      dup1\n      dup4\n      add\n      swap3\n      pop\n      pop\n      pop\n      pop\n      pop\n      pop\n      pop\n        /* \"contracts/lzApp/NonblockingLzApp.sol\":3201:3207  _nonce */\n      dup7\n        /* \"contracts/lzApp/NonblockingLzApp.sol\":3209:3217  _payload */\n      dup7\n      dup7\n        /* \"contracts/lzApp/NonblockingLzApp.sol\":3153:3218  _nonblockingLzReceive(_srcChainId, _srcAddress, _nonce, _payload) */\n      dup1\n      dup1\n      0x1f\n      add\n      0x20\n      dup1\n      swap2\n      div\n      mul\n      0x20\n      add\n      mload(0x40)\n      swap1\n      dup2\n      add\n      0x40\n      mstore\n      dup1\n      swap4\n      swap3\n      swap2\n      swap1\n      dup2\n      dup2\n      mstore\n      0x20\n      add\n      dup4\n      dup4\n      dup1\n      dup3\n      dup5\n      calldatacopy\n      0x00\n      dup2\n      dup5\n      add\n      mstore\n      not(0x1f)\n      0x1f\n      dup3\n      add\n      and\n      swap1\n      pop\n      dup1\n      dup4\n      add\n      swap3\n      pop\n      pop\n      pop\n      pop\n      pop\n      pop\n      pop\n        /* \"contracts/lzApp/NonblockingLzApp.sol\":3153:3174  _nonblockingLzReceive */\n      tag_243\n        /* \"contracts/lzApp/NonblockingLzApp.sol\":3153:3218  _nonblockingLzReceive(_srcChainId, _srcAddress, _nonce, _payload) */\n      jump\t// in\n    tag_302:\n        /* \"contracts/lzApp/NonblockingLzApp.sol\":3233:3299  RetryMessageSuccess(_srcChainId, _srcAddress, _nonce, payloadHash) */\n      0xc264d91f3adc5588250e1551f547752ca0cfa8f6b530d243b9f9f4cab10ea8e5\n        /* \"contracts/lzApp/NonblockingLzApp.sol\":3253:3264  _srcChainId */\n      dup8\n        /* \"contracts/lzApp/NonblockingLzApp.sol\":3266:3277  _srcAddress */\n      dup8\n      dup8\n        /* \"contracts/lzApp/NonblockingLzApp.sol\":3279:3285  _nonce */\n      dup8\n        /* \"contracts/lzApp/NonblockingLzApp.sol\":3287:3298  payloadHash */\n      dup6\n        /* \"contracts/lzApp/NonblockingLzApp.sol\":3233:3299  RetryMessageSuccess(_srcChainId, _srcAddress, _nonce, payloadHash) */\n      mload(0x40)\n      tag_303\n      swap6\n      swap5\n      swap4\n      swap3\n      swap2\n      swap1\n      tag_304\n      jump\t// in\n    tag_303:\n      mload(0x40)\n      dup1\n      swap2\n      sub\n      swap1\n      log1\n        /* \"contracts/lzApp/NonblockingLzApp.sol\":2682:3306  {... */\n      pop\n        /* \"contracts/lzApp/NonblockingLzApp.sol\":2511:3306  function retryMessage(... */\n      pop\n      pop\n      pop\n      pop\n      pop\n      pop\n      jump\t// out\n        /* \"contracts/lzApp/LzApp.sol\":6394:6649  function setMinDstGas(... */\n    tag_156:\n        /* \"https://github.com/OpenZeppelin/openzeppelin-contracts/blob/release-v4.7/contracts/access/Ownable.sol\":1094:1107  _checkOwner() */\n      tag_306\n        /* \"https://github.com/OpenZeppelin/openzeppelin-contracts/blob/release-v4.7/contracts/access/Ownable.sol\":1094:1105  _checkOwner */\n      tag_194\n        /* \"https://github.com/OpenZeppelin/openzeppelin-contracts/blob/release-v4.7/contracts/access/Ownable.sol\":1094:1107  _checkOwner() */\n      jump\t// in\n    tag_306:\n        /* \"contracts/lzApp/LzApp.sol\":6573:6580  _minGas */\n      dup1\n        /* \"contracts/lzApp/LzApp.sol\":6529:6544  minDstGasLookup */\n      0x02\n        /* \"contracts/lzApp/LzApp.sol\":6529:6557  minDstGasLookup[_dstChainId] */\n      0x00\n        /* \"contracts/lzApp/LzApp.sol\":6545:6556  _dstChainId */\n      dup6\n        /* \"contracts/lzApp/LzApp.sol\":6529:6557  minDstGasLookup[_dstChainId] */\n      0xffff\n      and\n      0xffff\n      and\n      dup2\n      mstore\n      0x20\n      add\n      swap1\n      dup2\n      mstore\n      0x20\n      add\n      0x00\n      keccak256\n        /* \"contracts/lzApp/LzApp.sol\":6529:6570  minDstGasLookup[_dstChainId][_packetType] */\n      0x00\n        /* \"contracts/lzApp/LzApp.sol\":6558:6569  _packetType */\n      dup5\n        /* \"contracts/lzApp/LzApp.sol\":6529:6570  minDstGasLookup[_dstChainId][_packetType] */\n      0xffff\n      and\n      0xffff\n      and\n      dup2\n      mstore\n      0x20\n      add\n      swap1\n      dup2\n      mstore\n      0x20\n      add\n      0x00\n      keccak256\n        /* \"contracts/lzApp/LzApp.sol\":6529:6580  minDstGasLookup[_dstChainId][_packetType] = _minGas */\n      dup2\n      swap1\n      sstore\n      pop\n        /* \"contracts/lzApp/LzApp.sol\":6595:6642  SetMinDstGas(_dstChainId, _packetType, _minGas) */\n      0x9d5c7c0b934da8fefa9c7760c98383778a12dfbfc0c3b3106518f43fb9508ac0\n        /* \"contracts/lzApp/LzApp.sol\":6608:6619  _dstChainId */\n      dup4\n        /* \"contracts/lzApp/LzApp.sol\":6621:6632  _packetType */\n      dup4\n        /* \"contracts/lzApp/LzApp.sol\":6634:6641  _minGas */\n      dup4\n        /* \"contracts/lzApp/LzApp.sol\":6595:6642  SetMinDstGas(_dstChainId, _packetType, _minGas) */\n      mload(0x40)\n      tag_308\n      swap4\n      swap3\n      swap2\n      swap1\n      tag_309\n      jump\t// in\n    tag_308:\n      mload(0x40)\n      dup1\n      swap2\n      sub\n      swap1\n      log1\n        /* \"contracts/lzApp/LzApp.sol\":6394:6649  function setMinDstGas(... */\n      pop\n      pop\n      pop\n      jump\t// out\n        /* \"contracts/lzApp/LzApp.sol\":5429:5633  function setTrustedRemote(uint16 _remoteChainId, bytes calldata _path) external onlyOwner {... */\n    tag_160:\n        /* \"https://github.com/OpenZeppelin/openzeppelin-contracts/blob/release-v4.7/contracts/access/Ownable.sol\":1094:1107  _checkOwner() */\n      tag_311\n        /* \"https://github.com/OpenZeppelin/openzeppelin-contracts/blob/release-v4.7/contracts/access/Ownable.sol\":1094:1105  _checkOwner */\n      tag_194\n        /* \"https://github.com/OpenZeppelin/openzeppelin-contracts/blob/release-v4.7/contracts/access/Ownable.sol\":1094:1107  _checkOwner() */\n      jump\t// in\n    tag_311:\n        /* \"contracts/lzApp/LzApp.sol\":5567:5572  _path */\n      dup2\n      dup2\n        /* \"contracts/lzApp/LzApp.sol\":5529:5548  trustedRemoteLookup */\n      0x01\n        /* \"contracts/lzApp/LzApp.sol\":5529:5564  trustedRemoteLookup[_remoteChainId] */\n      0x00\n        /* \"contracts/lzApp/LzApp.sol\":5549:5563  _remoteChainId */\n      dup7\n        /* \"contracts/lzApp/LzApp.sol\":5529:5564  trustedRemoteLookup[_remoteChainId] */\n      0xffff\n      and\n      0xffff\n      and\n      dup2\n      mstore\n      0x20\n      add\n      swap1\n      dup2\n      mstore\n      0x20\n      add\n      0x00\n      keccak256\n        /* \"contracts/lzApp/LzApp.sol\":5529:5572  trustedRemoteLookup[_remoteChainId] = _path */\n      swap2\n      dup3\n      tag_313\n      swap3\n      swap2\n      swap1\n      tag_314\n      jump\t// in\n    tag_313:\n      pop\n        /* \"contracts/lzApp/LzApp.sol\":5587:5626  SetTrustedRemote(_remoteChainId, _path) */\n      0xfa41487ad5d6728f0b19276fa1eddc16558578f5109fc39d2dc33c3230470dab\n        /* \"contracts/lzApp/LzApp.sol\":5604:5618  _remoteChainId */\n      dup4\n        /* \"contracts/lzApp/LzApp.sol\":5620:5625  _path */\n      dup4\n      dup4\n        /* \"contracts/lzApp/LzApp.sol\":5587:5626  SetTrustedRemote(_remoteChainId, _path) */\n      mload(0x40)\n      tag_315\n      swap4\n      swap3\n      swap2\n      swap1\n      tag_222\n      jump\t// in\n    tag_315:\n      mload(0x40)\n      dup1\n      swap2\n      sub\n      swap1\n      log1\n        /* \"contracts/lzApp/LzApp.sol\":5429:5633  function setTrustedRemote(uint16 _remoteChainId, bytes calldata _path) external onlyOwner {... */\n      pop\n      pop\n      pop\n      jump\t// out\n        /* \"https://github.com/OpenZeppelin/openzeppelin-contracts/blob/release-v4.7/contracts/access/Ownable.sol\":2081:2279  function transferOwnership(address newOwner) public virtual onlyOwner {... */\n    tag_164:\n        /* \"https://github.com/OpenZeppelin/openzeppelin-contracts/blob/release-v4.7/contracts/access/Ownable.sol\":1094:1107  _checkOwner() */\n      tag_317\n        /* \"https://github.com/OpenZeppelin/openzeppelin-contracts/blob/release-v4.7/contracts/access/Ownable.sol\":1094:1105  _checkOwner */\n      tag_194\n        /* \"https://github.com/OpenZeppelin/openzeppelin-contracts/blob/release-v4.7/contracts/access/Ownable.sol\":1094:1107  _checkOwner() */\n      jump\t// in\n    tag_317:\n        /* \"https://github.com/OpenZeppelin/openzeppelin-contracts/blob/release-v4.7/contracts/access/Ownable.sol\":2189:2190  0 */\n      0x00\n        /* \"https://github.com/OpenZeppelin/openzeppelin-contracts/blob/release-v4.7/contracts/access/Ownable.sol\":2169:2191  newOwner != address(0) */\n      0xffffffffffffffffffffffffffffffffffffffff\n      and\n        /* \"https://github.com/OpenZeppelin/openzeppelin-contracts/blob/release-v4.7/contracts/access/Ownable.sol\":2169:2177  newOwner */\n      dup2\n        /* \"https://github.com/OpenZeppelin/openzeppelin-contracts/blob/release-v4.7/contracts/access/Ownable.sol\":2169:2191  newOwner != address(0) */\n      0xffffffffffffffffffffffffffffffffffffffff\n      and\n      sub\n        /* \"https://github.com/OpenZeppelin/openzeppelin-contracts/blob/release-v4.7/contracts/access/Ownable.sol\":2161:2234  require(newOwner != address(0), \"Ownable: new owner is the zero address\") */\n      tag_319\n      jumpi\n      mload(0x40)\n      0x08c379a000000000000000000000000000000000000000000000000000000000\n      dup2\n      mstore\n      0x04\n      add\n      tag_320\n      swap1\n      tag_321\n      jump\t// in\n    tag_320:\n      mload(0x40)\n      dup1\n      swap2\n      sub\n      swap1\n      revert\n    tag_319:\n        /* \"https://github.com/OpenZeppelin/openzeppelin-contracts/blob/release-v4.7/contracts/access/Ownable.sol\":2244:2272  _transferOwnership(newOwner) */\n      tag_322\n        /* \"https://github.com/OpenZeppelin/openzeppelin-contracts/blob/release-v4.7/contracts/access/Ownable.sol\":2263:2271  newOwner */\n      dup2\n        /* \"https://github.com/OpenZeppelin/openzeppelin-contracts/blob/release-v4.7/contracts/access/Ownable.sol\":2244:2262  _transferOwnership */\n      tag_248\n        /* \"https://github.com/OpenZeppelin/openzeppelin-contracts/blob/release-v4.7/contracts/access/Ownable.sol\":2244:2272  _transferOwnership(newOwner) */\n      jump\t// in\n    tag_322:\n        /* \"https://github.com/OpenZeppelin/openzeppelin-contracts/blob/release-v4.7/contracts/access/Ownable.sol\":2081:2279  function transferOwnership(address newOwner) public virtual onlyOwner {... */\n      pop\n      jump\t// out\n        /* \"contracts/lzApp/LzApp.sol\":4298:4545  function getConfig(... */\n    tag_169:\n        /* \"contracts/lzApp/LzApp.sol\":4439:4451  bytes memory */\n      0x60\n        /* \"contracts/lzApp/LzApp.sol\":4470:4480  lzEndpoint */\n      immutable(\"0xd2bf2e9a999710431595af5d3876bd6f95a9accd65a44f4cd49ef60c37cc3ecc\")\n        /* \"contracts/lzApp/LzApp.sol\":4470:4490  lzEndpoint.getConfig */\n      0xffffffffffffffffffffffffffffffffffffffff\n      and\n      0xf5ecbdbc\n        /* \"contracts/lzApp/LzApp.sol\":4491:4499  _version */\n      dup7\n        /* \"contracts/lzApp/LzApp.sol\":4501:4509  _chainId */\n      dup7\n        /* \"contracts/lzApp/LzApp.sol\":4519:4523  this */\n      address\n        /* \"contracts/lzApp/LzApp.sol\":4526:4537  _configType */\n      dup7\n        /* \"contracts/lzApp/LzApp.sol\":4470:4538  lzEndpoint.getConfig(_version, _chainId, address(this), _configType) */\n      mload(0x40)\n      dup6\n      0xffffffff\n      and\n      0xe0\n      shl\n      dup2\n      mstore\n      0x04\n      add\n      tag_324\n      swap5\n      swap4\n      swap3\n      swap2\n      swap1\n      tag_325\n      jump\t// in\n    tag_324:\n      0x00\n      mload(0x40)\n      dup1\n      dup4\n      sub\n      dup2\n      dup7\n      gas\n      staticcall\n      iszero\n      dup1\n      iszero\n      tag_327\n      jumpi\n      returndatasize\n      0x00\n      dup1\n      returndatacopy\n      revert(0x00, returndatasize)\n    tag_327:\n      pop\n      pop\n      pop\n      pop\n      mload(0x40)\n      returndatasize\n      0x00\n      dup3\n      returndatacopy\n      returndatasize\n      not(0x1f)\n      0x1f\n      dup3\n      add\n      and\n      dup3\n      add\n      dup1\n      0x40\n      mstore\n      pop\n      dup2\n      add\n      swap1\n      tag_328\n      swap2\n      swap1\n      tag_329\n      jump\t// in\n    tag_328:\n        /* \"contracts/lzApp/LzApp.sol\":4463:4538  return lzEndpoint.getConfig(_version, _chainId, address(this), _configType) */\n      swap1\n      pop\n        /* \"contracts/lzApp/LzApp.sol\":4298:4545  function getConfig(... */\n      swap5\n      swap4\n      pop\n      pop\n      pop\n      pop\n      jump\t// out\n        /* \"https://github.com/OpenZeppelin/openzeppelin-contracts/blob/release-v4.7/contracts/utils/Context.sol\":640:736  function _msgSender() internal view virtual returns (address) {... */\n    tag_173:\n        /* \"https://github.com/OpenZeppelin/openzeppelin-contracts/blob/release-v4.7/contracts/utils/Context.sol\":693:700  address */\n      0x00\n        /* \"https://github.com/OpenZeppelin/openzeppelin-contracts/blob/release-v4.7/contracts/utils/Context.sol\":719:729  msg.sender */\n      caller\n        /* \"https://github.com/OpenZeppelin/openzeppelin-contracts/blob/release-v4.7/contracts/utils/Context.sol\":712:729  return msg.sender */\n      swap1\n      pop\n        /* \"https://github.com/OpenZeppelin/openzeppelin-contracts/blob/release-v4.7/contracts/utils/Context.sol\":640:736  function _msgSender() internal view virtual returns (address) {... */\n      swap1\n      jump\t// out\n        /* \"contracts/lzApp/NonblockingLzApp.sol\":985:1534  function _blockingLzReceive(... */\n    tag_191:\n        /* \"contracts/lzApp/NonblockingLzApp.sol\":1172:1184  bool success */\n      0x00\n        /* \"contracts/lzApp/NonblockingLzApp.sol\":1186:1205  bytes memory reason */\n      dup1\n        /* \"contracts/lzApp/NonblockingLzApp.sol\":1209:1408  address(this).excessivelySafeCall(... */\n      tag_332\n        /* \"contracts/lzApp/NonblockingLzApp.sol\":1256:1265  gasleft() */\n      gas\n        /* \"contracts/lzApp/NonblockingLzApp.sol\":1279:1282  150 */\n      0x96\n        /* \"contracts/lzApp/NonblockingLzApp.sol\":1319:1353  this.nonblockingLzReceive.selector */\n      shl(0xe0, 0x66ad5c8a)\n        /* \"contracts/lzApp/NonblockingLzApp.sol\":1355:1366  _srcChainId */\n      dup10\n        /* \"contracts/lzApp/NonblockingLzApp.sol\":1368:1379  _srcAddress */\n      dup10\n        /* \"contracts/lzApp/NonblockingLzApp.sol\":1381:1387  _nonce */\n      dup10\n        /* \"contracts/lzApp/NonblockingLzApp.sol\":1389:1397  _payload */\n      dup10\n        /* \"contracts/lzApp/NonblockingLzApp.sol\":1296:1398  abi.encodeWithSelector(this.nonblockingLzReceive.selector, _srcChainId, _srcAddress, _nonce, _payload) */\n      add(0x24, mload(0x40))\n      tag_333\n      swap5\n      swap4\n      swap3\n      swap2\n      swap1\n      tag_334\n      jump\t// in\n    tag_333:\n      mload(0x40)\n      0x20\n      dup2\n      dup4\n      sub\n      sub\n      dup2\n      mstore\n      swap1\n      0x40\n      mstore\n      swap1\n      not(0xffffffffffffffffffffffffffffffffffffffffffffffffffffffff)\n      and\n      0x20\n      dup3\n      add\n      dup1\n      mload\n      0xffffffffffffffffffffffffffffffffffffffffffffffffffffffff\n      dup4\n      dup2\n      dup4\n      and\n      or\n      dup4\n      mstore\n      pop\n      pop\n      pop\n      pop\n        /* \"contracts/lzApp/NonblockingLzApp.sol\":1217:1221  this */\n      address\n        /* \"contracts/lzApp/NonblockingLzApp.sol\":1209:1242  address(this).excessivelySafeCall */\n      0xffffffffffffffffffffffffffffffffffffffff\n      and\n      tag_335\n      swap1\n        /* \"contracts/lzApp/NonblockingLzApp.sol\":1209:1408  address(this).excessivelySafeCall(... */\n      swap4\n      swap3\n      swap2\n      swap1\n      0xffffffff\n      and\n      jump\t// in\n    tag_332:\n        /* \"contracts/lzApp/NonblockingLzApp.sol\":1171:1408  (bool success, bytes memory reason) = address(this).excessivelySafeCall(... */\n      swap2\n      pop\n      swap2\n      pop\n        /* \"contracts/lzApp/NonblockingLzApp.sol\":1423:1430  success */\n      dup2\n        /* \"contracts/lzApp/NonblockingLzApp.sol\":1418:1528  if (!success) {... */\n      tag_336\n      jumpi\n        /* \"contracts/lzApp/NonblockingLzApp.sol\":1446:1517  _storeFailedMessage(_srcChainId, _srcAddress, _nonce, _payload, reason) */\n      tag_337\n        /* \"contracts/lzApp/NonblockingLzApp.sol\":1466:1477  _srcChainId */\n      dup7\n        /* \"contracts/lzApp/NonblockingLzApp.sol\":1479:1490  _srcAddress */\n      dup7\n        /* \"contracts/lzApp/NonblockingLzApp.sol\":1492:1498  _nonce */\n      dup7\n        /* \"contracts/lzApp/NonblockingLzApp.sol\":1500:1508  _payload */\n      dup7\n        /* \"contracts/lzApp/NonblockingLzApp.sol\":1510:1516  reason */\n      dup6\n        /* \"contracts/lzApp/NonblockingLzApp.sol\":1446:1465  _storeFailedMessage */\n      tag_338\n        /* \"contracts/lzApp/NonblockingLzApp.sol\":1446:1517  _storeFailedMessage(_srcChainId, _srcAddress, _nonce, _payload, reason) */\n      jump\t// in\n    tag_337:\n        /* \"contracts/lzApp/NonblockingLzApp.sol\":1418:1528  if (!success) {... */\n    tag_336:\n        /* \"contracts/lzApp/NonblockingLzApp.sol\":1161:1534  {... */\n      pop\n      pop\n        /* \"contracts/lzApp/NonblockingLzApp.sol\":985:1534  function _blockingLzReceive(... */\n      pop\n      pop\n      pop\n      pop\n      jump\t// out\n        /* \"https://github.com/OpenZeppelin/openzeppelin-contracts/blob/release-v4.7/contracts/access/Ownable.sol\":1359:1489  function _checkOwner() internal view virtual {... */\n    tag_194:\n        /* \"https://github.com/OpenZeppelin/openzeppelin-contracts/blob/release-v4.7/contracts/access/Ownable.sol\":1433:1445  _msgSender() */\n      tag_340\n        /* \"https://github.com/OpenZeppelin/openzeppelin-contracts/blob/release-v4.7/contracts/access/Ownable.sol\":1433:1443  _msgSender */\n      tag_173\n        /* \"https://github.com/OpenZeppelin/openzeppelin-contracts/blob/release-v4.7/contracts/access/Ownable.sol\":1433:1445  _msgSender() */\n      jump\t// in\n    tag_340:\n        /* \"https://github.com/OpenZeppelin/openzeppelin-contracts/blob/release-v4.7/contracts/access/Ownable.sol\":1422:1445  owner() == _msgSender() */\n      0xffffffffffffffffffffffffffffffffffffffff\n      and\n        /* \"https://github.com/OpenZeppelin/openzeppelin-contracts/blob/release-v4.7/contracts/access/Ownable.sol\":1422:1429  owner() */\n      tag_341\n        /* \"https://github.com/OpenZeppelin/openzeppelin-contracts/blob/release-v4.7/contracts/access/Ownable.sol\":1422:1427  owner */\n      tag_115\n        /* \"https://github.com/OpenZeppelin/openzeppelin-contracts/blob/release-v4.7/contracts/access/Ownable.sol\":1422:1429  owner() */\n      jump\t// in\n    tag_341:\n        /* \"https://github.com/OpenZeppelin/openzeppelin-contracts/blob/release-v4.7/contracts/access/Ownable.sol\":1422:1445  owner() == _msgSender() */\n      0xffffffffffffffffffffffffffffffffffffffff\n      and\n      eq\n        /* \"https://github.com/OpenZeppelin/openzeppelin-contracts/blob/release-v4.7/contracts/access/Ownable.sol\":1414:1482  require(owner() == _msgSender(), \"Ownable: caller is not the owner\") */\n      tag_342\n      jumpi\n      mload(0x40)\n      0x08c379a000000000000000000000000000000000000000000000000000000000\n      dup2\n      mstore\n      0x04\n      add\n      tag_343\n      swap1\n      tag_344\n      jump\t// in\n    tag_343:\n      mload(0x40)\n      dup1\n      swap2\n      sub\n      swap1\n      revert\n    tag_342:\n        /* \"https://github.com/OpenZeppelin/openzeppelin-contracts/blob/release-v4.7/contracts/access/Ownable.sol\":1359:1489  function _checkOwner() internal view virtual {... */\n      jump\t// out\n        /* \"contracts/lzApp/LzApp.sol\":2462:3064  function _lzSend(... */\n    tag_236:\n        /* \"contracts/lzApp/LzApp.sol\":2709:2735  bytes memory trustedRemote */\n      0x00\n        /* \"contracts/lzApp/LzApp.sol\":2738:2757  trustedRemoteLookup */\n      0x01\n        /* \"contracts/lzApp/LzApp.sol\":2738:2770  trustedRemoteLookup[_dstChainId] */\n      0x00\n        /* \"contracts/lzApp/LzApp.sol\":2758:2769  _dstChainId */\n      dup9\n        /* \"contracts/lzApp/LzApp.sol\":2738:2770  trustedRemoteLookup[_dstChainId] */\n      0xffff\n      and\n      0xffff\n      and\n      dup2\n      mstore\n      0x20\n      add\n      swap1\n      dup2\n      mstore\n      0x20\n      add\n      0x00\n      keccak256\n        /* \"contracts/lzApp/LzApp.sol\":2709:2770  bytes memory trustedRemote = trustedRemoteLookup[_dstChainId] */\n      dup1\n      sload\n      tag_346\n      swap1\n      tag_178\n      jump\t// in\n    tag_346:\n      dup1\n      0x1f\n      add\n      0x20\n      dup1\n      swap2\n      div\n      mul\n      0x20\n      add\n      mload(0x40)\n      swap1\n      dup2\n      add\n      0x40\n      mstore\n      dup1\n      swap3\n      swap2\n      swap1\n      dup2\n      dup2\n      mstore\n      0x20\n      add\n      dup3\n      dup1\n      sload\n      tag_347\n      swap1\n      tag_178\n      jump\t// in\n    tag_347:\n      dup1\n      iszero\n      tag_348\n      jumpi\n      dup1\n      0x1f\n      lt\n      tag_349\n      jumpi\n      0x0100\n      dup1\n      dup4\n      sload\n      div\n      mul\n      dup4\n      mstore\n      swap2\n      0x20\n      add\n      swap2\n      jump(tag_348)\n    tag_349:\n      dup3\n      add\n      swap2\n      swap1\n      0x00\n      mstore\n      keccak256(0x00, 0x20)\n      swap1\n    tag_350:\n      dup2\n      sload\n      dup2\n      mstore\n      swap1\n      0x01\n      add\n      swap1\n      0x20\n      add\n      dup1\n      dup4\n      gt\n      tag_350\n      jumpi\n      dup3\n      swap1\n      sub\n      0x1f\n      and\n      dup3\n      add\n      swap2\n    tag_348:\n      pop\n      pop\n      pop\n      pop\n      pop\n      swap1\n      pop\n        /* \"contracts/lzApp/LzApp.sol\":2812:2813  0 */\n      0x00\n        /* \"contracts/lzApp/LzApp.sol\":2788:2801  trustedRemote */\n      dup2\n        /* \"contracts/lzApp/LzApp.sol\":2788:2808  trustedRemote.length */\n      mload\n        /* \"contracts/lzApp/LzApp.sol\":2788:2813  trustedRemote.length != 0 */\n      sub\n        /* \"contracts/lzApp/LzApp.sol\":2780:2866  require(trustedRemote.length != 0, \"LzApp: destination chain is not a trusted source\") */\n      tag_351\n      jumpi\n      mload(0x40)\n      0x08c379a000000000000000000000000000000000000000000000000000000000\n      dup2\n      mstore\n      0x04\n      add\n      tag_352\n      swap1\n      tag_353\n      jump\t// in\n    tag_352:\n      mload(0x40)\n      dup1\n      swap2\n      sub\n      swap1\n      revert\n    tag_351:\n        /* \"contracts/lzApp/LzApp.sol\":2876:2923  _checkPayloadSize(_dstChainId, _payload.length) */\n      tag_354\n        /* \"contracts/lzApp/LzApp.sol\":2894:2905  _dstChainId */\n      dup8\n        /* \"contracts/lzApp/LzApp.sol\":2907:2915  _payload */\n      dup8\n        /* \"contracts/lzApp/LzApp.sol\":2907:2922  _payload.length */\n      mload\n        /* \"contracts/lzApp/LzApp.sol\":2876:2893  _checkPayloadSize */\n      tag_355\n        /* \"contracts/lzApp/LzApp.sol\":2876:2923  _checkPayloadSize(_dstChainId, _payload.length) */\n      jump\t// in\n    tag_354:\n        /* \"contracts/lzApp/LzApp.sol\":2933:2943  lzEndpoint */\n      immutable(\"0xd2bf2e9a999710431595af5d3876bd6f95a9accd65a44f4cd49ef60c37cc3ecc\")\n        /* \"contracts/lzApp/LzApp.sol\":2933:2948  lzEndpoint.send */\n      0xffffffffffffffffffffffffffffffffffffffff\n      and\n      0xc5803100\n        /* \"contracts/lzApp/LzApp.sol\":2956:2966  _nativeFee */\n      dup4\n        /* \"contracts/lzApp/LzApp.sol\":2968:2979  _dstChainId */\n      dup10\n        /* \"contracts/lzApp/LzApp.sol\":2981:2994  trustedRemote */\n      dup5\n        /* \"contracts/lzApp/LzApp.sol\":2996:3004  _payload */\n      dup11\n        /* \"contracts/lzApp/LzApp.sol\":3006:3020  _refundAddress */\n      dup11\n        /* \"contracts/lzApp/LzApp.sol\":3022:3040  _zroPaymentAddress */\n      dup11\n        /* \"contracts/lzApp/LzApp.sol\":3042:3056  _adapterParams */\n      dup11\n        /* \"contracts/lzApp/LzApp.sol\":2933:3057  lzEndpoint.send{value: _nativeFee}(_dstChainId, trustedRemote, _payload, _refundAddress, _zroPaymentAddress, _adapterParams) */\n      mload(0x40)\n      dup9\n      0xffffffff\n      and\n      0xe0\n      shl\n      dup2\n      mstore\n      0x04\n      add\n      tag_356\n      swap7\n      swap6\n      swap5\n      swap4\n      swap3\n      swap2\n      swap1\n      tag_357\n      jump\t// in\n    tag_356:\n      0x00\n      mload(0x40)\n      dup1\n      dup4\n      sub\n      dup2\n      dup6\n      dup9\n      dup1\n      extcodesize\n      iszero\n      dup1\n      iszero\n      tag_358\n      jumpi\n      0x00\n      dup1\n      revert\n    tag_358:\n      pop\n      gas\n      call\n      iszero\n      dup1\n      iszero\n      tag_360\n      jumpi\n      returndatasize\n      0x00\n      dup1\n      returndatacopy\n      revert(0x00, returndatasize)\n    tag_360:\n      pop\n      pop\n      pop\n      pop\n      pop\n        /* \"contracts/lzApp/LzApp.sol\":2699:3064  {... */\n      pop\n        /* \"contracts/lzApp/LzApp.sol\":2462:3064  function _lzSend(... */\n      pop\n      pop\n      pop\n      pop\n      pop\n      pop\n      jump\t// out\n        /* \"contracts/examples/sldtdrn.sol\":746:903  function _nonblockingLzReceive(uint16, bytes memory, uint64, bytes memory _payload) internal override {... */\n    tag_243:\n        /* \"contracts/examples/sldtdrn.sol\":876:884  _payload */\n      dup1\n        /* \"contracts/examples/sldtdrn.sol\":865:895  abi.decode(_payload, (string)) */\n      dup1\n      0x20\n      add\n      swap1\n      mload\n      dup2\n      add\n      swap1\n      tag_362\n      swap2\n      swap1\n      tag_363\n      jump\t// in\n    tag_362:\n        /* \"contracts/examples/sldtdrn.sol\":858:862  data */\n      0x06\n        /* \"contracts/examples/sldtdrn.sol\":858:895  data = abi.decode(_payload, (string)) */\n      swap1\n      dup2\n      tag_364\n      swap2\n      swap1\n      tag_365\n      jump\t// in\n    tag_364:\n      pop\n        /* \"contracts/examples/sldtdrn.sol\":746:903  function _nonblockingLzReceive(uint16, bytes memory, uint64, bytes memory _payload) internal override {... */\n      pop\n      pop\n      pop\n      pop\n      jump\t// out\n        /* \"https://github.com/OpenZeppelin/openzeppelin-contracts/blob/release-v4.7/contracts/access/Ownable.sol\":2433:2620  function _transferOwnership(address newOwner) internal virtual {... */\n    tag_248:\n        /* \"https://github.com/OpenZeppelin/openzeppelin-contracts/blob/release-v4.7/contracts/access/Ownable.sol\":2506:2522  address oldOwner */\n      0x00\n        /* \"https://github.com/OpenZeppelin/openzeppelin-contracts/blob/release-v4.7/contracts/access/Ownable.sol\":2525:2531  _owner */\n      dup1\n      0x00\n      swap1\n      sload\n      swap1\n      0x0100\n      exp\n      swap1\n      div\n      0xffffffffffffffffffffffffffffffffffffffff\n      and\n        /* \"https://github.com/OpenZeppelin/openzeppelin-contracts/blob/release-v4.7/contracts/access/Ownable.sol\":2506:2531  address oldOwner = _owner */\n      swap1\n      pop\n        /* \"https://github.com/OpenZeppelin/openzeppelin-contracts/blob/release-v4.7/contracts/access/Ownable.sol\":2550:2558  newOwner */\n      dup2\n        /* \"https://github.com/OpenZeppelin/openzeppelin-contracts/blob/release-v4.7/contracts/access/Ownable.sol\":2541:2547  _owner */\n      0x00\n      dup1\n        /* \"https://github.com/OpenZeppelin/openzeppelin-contracts/blob/release-v4.7/contracts/access/Ownable.sol\":2541:2558  _owner = newOwner */\n      0x0100\n      exp\n      dup2\n      sload\n      dup2\n      0xffffffffffffffffffffffffffffffffffffffff\n      mul\n      not\n      and\n      swap1\n      dup4\n      0xffffffffffffffffffffffffffffffffffffffff\n      and\n      mul\n      or\n      swap1\n      sstore\n      pop\n        /* \"https://github.com/OpenZeppelin/openzeppelin-contracts/blob/release-v4.7/contracts/access/Ownable.sol\":2604:2612  newOwner */\n      dup2\n        /* \"https://github.com/OpenZeppelin/openzeppelin-contracts/blob/release-v4.7/contracts/access/Ownable.sol\":2573:2613  OwnershipTransferred(oldOwner, newOwner) */\n      0xffffffffffffffffffffffffffffffffffffffff\n      and\n        /* \"https://github.com/OpenZeppelin/openzeppelin-contracts/blob/release-v4.7/contracts/access/Ownable.sol\":2594:2602  oldOwner */\n      dup2\n        /* \"https://github.com/OpenZeppelin/openzeppelin-contracts/blob/release-v4.7/contracts/access/Ownable.sol\":2573:2613  OwnershipTransferred(oldOwner, newOwner) */\n      0xffffffffffffffffffffffffffffffffffffffff\n      and\n      0x8be0079c531659141344cd1fd0a4f28419497f9722a3daafe3b4186f6b6457e0\n      mload(0x40)\n      mload(0x40)\n      dup1\n      swap2\n      sub\n      swap1\n      log3\n        /* \"https://github.com/OpenZeppelin/openzeppelin-contracts/blob/release-v4.7/contracts/access/Ownable.sol\":2496:2620  {... */\n      pop\n        /* \"https://github.com/OpenZeppelin/openzeppelin-contracts/blob/release-v4.7/contracts/access/Ownable.sol\":2433:2620  function _transferOwnership(address newOwner) internal virtual {... */\n      pop\n      jump\t// out\n        /* \"contracts/libraries/BytesLib.sol\":9258:12028  function slice(... */\n    tag_272:\n        /* \"contracts/libraries/BytesLib.sol\":9374:9386  bytes memory */\n      0x60\n        /* \"contracts/libraries/BytesLib.sol\":9422:9429  _length */\n      dup2\n        /* \"contracts/libraries/BytesLib.sol\":9416:9418  31 */\n      0x1f\n        /* \"contracts/libraries/BytesLib.sol\":9406:9413  _length */\n      dup4\n        /* \"contracts/libraries/BytesLib.sol\":9406:9418  _length + 31 */\n      tag_368\n      swap2\n      swap1\n      tag_369\n      jump\t// in\n    tag_368:\n        /* \"contracts/libraries/BytesLib.sol\":9406:9429  _length + 31 >= _length */\n      lt\n      iszero\n        /* \"contracts/libraries/BytesLib.sol\":9398:9448  require(_length + 31 >= _length, \"slice_overflow\") */\n      tag_370\n      jumpi\n      mload(0x40)\n      0x08c379a000000000000000000000000000000000000000000000000000000000\n      dup2\n      mstore\n      0x04\n      add\n      tag_371\n      swap1\n      tag_372\n      jump\t// in\n    tag_371:\n      mload(0x40)\n      dup1\n      swap2\n      sub\n      swap1\n      revert\n    tag_370:\n        /* \"contracts/libraries/BytesLib.sol\":9492:9499  _length */\n      dup2\n        /* \"contracts/libraries/BytesLib.sol\":9483:9489  _start */\n      dup4\n        /* \"contracts/libraries/BytesLib.sol\":9483:9499  _start + _length */\n      tag_373\n      swap2\n      swap1\n      tag_369\n      jump\t// in\n    tag_373:\n        /* \"contracts/libraries/BytesLib.sol\":9466:9472  _bytes */\n      dup5\n        /* \"contracts/libraries/BytesLib.sol\":9466:9479  _bytes.length */\n      mload\n        /* \"contracts/libraries/BytesLib.sol\":9466:9499  _bytes.length >= _start + _length */\n      lt\n      iszero\n        /* \"contracts/libraries/BytesLib.sol\":9458:9521  require(_bytes.length >= _start + _length, \"slice_outOfBounds\") */\n      tag_374\n      jumpi\n      mload(0x40)\n      0x08c379a000000000000000000000000000000000000000000000000000000000\n      dup2\n      mstore\n      0x04\n      add\n      tag_375\n      swap1\n      tag_376\n      jump\t// in\n    tag_375:\n      mload(0x40)\n      dup1\n      swap2\n      sub\n      swap1\n      revert\n    tag_374:\n        /* \"contracts/libraries/BytesLib.sol\":9532:9554  bytes memory tempBytes */\n      0x60\n        /* \"contracts/libraries/BytesLib.sol\":9602:9609  _length */\n      dup3\n        /* \"contracts/libraries/BytesLib.sol\":9595:9610  iszero(_length) */\n      iszero\n        /* \"contracts/libraries/BytesLib.sol\":9628:9629  0 */\n      0x00\n        /* \"contracts/libraries/BytesLib.sol\":9623:11590  case 0 {... */\n      dup2\n      eq\n      tag_378\n      jumpi\n        /* \"contracts/libraries/BytesLib.sol\":11731:11735  0x40 */\n      0x40\n        /* \"contracts/libraries/BytesLib.sol\":11725:11736  mload(0x40) */\n      mload\n        /* \"contracts/libraries/BytesLib.sol\":11712:11736  tempBytes := mload(0x40) */\n      swap2\n      pop\n        /* \"contracts/libraries/BytesLib.sol\":11917:11918  0 */\n      0x00\n        /* \"contracts/libraries/BytesLib.sol\":11906:11915  tempBytes */\n      dup3\n        /* \"contracts/libraries/BytesLib.sol\":11899:11919  mstore(tempBytes, 0) */\n      mstore\n        /* \"contracts/libraries/BytesLib.sol\":11965:11969  0x20 */\n      0x20\n        /* \"contracts/libraries/BytesLib.sol\":11954:11963  tempBytes */\n      dup3\n        /* \"contracts/libraries/BytesLib.sol\":11950:11970  add(tempBytes, 0x20) */\n      add\n        /* \"contracts/libraries/BytesLib.sol\":11944:11948  0x40 */\n      0x40\n        /* \"contracts/libraries/BytesLib.sol\":11937:11971  mstore(0x40, add(tempBytes, 0x20)) */\n      mstore\n        /* \"contracts/libraries/BytesLib.sol\":9588:11985  switch iszero(_length)... */\n      jump(tag_377)\n        /* \"contracts/libraries/BytesLib.sol\":9623:11590  case 0 {... */\n    tag_378:\n        /* \"contracts/libraries/BytesLib.sol\":9805:9809  0x40 */\n      0x40\n        /* \"contracts/libraries/BytesLib.sol\":9799:9810  mload(0x40) */\n      mload\n        /* \"contracts/libraries/BytesLib.sol\":9786:9810  tempBytes := mload(0x40) */\n      swap2\n      pop\n        /* \"contracts/libraries/BytesLib.sol\":10464:10466  31 */\n      0x1f\n        /* \"contracts/libraries/BytesLib.sol\":10455:10462  _length */\n      dup5\n        /* \"contracts/libraries/BytesLib.sol\":10451:10467  and(_length, 31) */\n      and\n        /* \"contracts/libraries/BytesLib.sol\":10846:10855  lengthmod */\n      dup1\n        /* \"contracts/libraries/BytesLib.sol\":10839:10856  iszero(lengthmod) */\n      iszero\n        /* \"contracts/libraries/BytesLib.sol\":10833:10837  0x20 */\n      0x20\n        /* \"contracts/libraries/BytesLib.sol\":10829:10857  mul(0x20, iszero(lengthmod)) */\n      mul\n        /* \"contracts/libraries/BytesLib.sol\":10817:10826  lengthmod */\n      dup2\n        /* \"contracts/libraries/BytesLib.sol\":10806:10815  tempBytes */\n      dup5\n        /* \"contracts/libraries/BytesLib.sol\":10802:10827  add(tempBytes, lengthmod) */\n      add\n        /* \"contracts/libraries/BytesLib.sol\":10798:10858  add(add(tempBytes, lengthmod), mul(0x20, iszero(lengthmod))) */\n      add\n        /* \"contracts/libraries/BytesLib.sol\":10894:10901  _length */\n      dup6\n        /* \"contracts/libraries/BytesLib.sol\":10890:10892  mc */\n      dup2\n        /* \"contracts/libraries/BytesLib.sol\":10886:10902  add(mc, _length) */\n      add\n        /* \"contracts/libraries/BytesLib.sol\":11146:11152  _start */\n      dup8\n        /* \"contracts/libraries/BytesLib.sol\":11132:11141  lengthmod */\n      dup4\n        /* \"contracts/libraries/BytesLib.sol\":11125:11142  iszero(lengthmod) */\n      iszero\n        /* \"contracts/libraries/BytesLib.sol\":11119:11123  0x20 */\n      0x20\n        /* \"contracts/libraries/BytesLib.sol\":11115:11143  mul(0x20, iszero(lengthmod)) */\n      mul\n        /* \"contracts/libraries/BytesLib.sol\":11103:11112  lengthmod */\n      dup5\n        /* \"contracts/libraries/BytesLib.sol\":11095:11101  _bytes */\n      dup12\n        /* \"contracts/libraries/BytesLib.sol\":11091:11113  add(_bytes, lengthmod) */\n      add\n        /* \"contracts/libraries/BytesLib.sol\":11087:11144  add(add(_bytes, lengthmod), mul(0x20, iszero(lengthmod))) */\n      add\n        /* \"contracts/libraries/BytesLib.sol\":11083:11153  add(add(add(_bytes, lengthmod), mul(0x20, iszero(lengthmod))), _start) */\n      add\n        /* \"contracts/libraries/BytesLib.sol\":10920:11345  for {... */\n    tag_379:\n        /* \"contracts/libraries/BytesLib.sol\":11179:11182  end */\n      dup2\n        /* \"contracts/libraries/BytesLib.sol\":11175:11177  mc */\n      dup4\n        /* \"contracts/libraries/BytesLib.sol\":11172:11183  lt(mc, end) */\n      lt\n        /* \"contracts/libraries/BytesLib.sol\":10920:11345  for {... */\n      iszero\n      tag_381\n      jumpi\n        /* \"contracts/libraries/BytesLib.sol\":11323:11325  cc */\n      dup1\n        /* \"contracts/libraries/BytesLib.sol\":11317:11326  mload(cc) */\n      mload\n        /* \"contracts/libraries/BytesLib.sol\":11313:11315  mc */\n      dup4\n        /* \"contracts/libraries/BytesLib.sol\":11306:11327  mstore(mc, mload(cc)) */\n      mstore\n        /* \"contracts/libraries/BytesLib.sol\":11220:11224  0x20 */\n      0x20\n        /* \"contracts/libraries/BytesLib.sol\":11216:11218  mc */\n      dup4\n        /* \"contracts/libraries/BytesLib.sol\":11212:11225  add(mc, 0x20) */\n      add\n        /* \"contracts/libraries/BytesLib.sol\":11206:11225  mc := add(mc, 0x20) */\n      swap3\n      pop\n        /* \"contracts/libraries/BytesLib.sol\":11260:11264  0x20 */\n      0x20\n        /* \"contracts/libraries/BytesLib.sol\":11256:11258  cc */\n      dup2\n        /* \"contracts/libraries/BytesLib.sol\":11252:11265  add(cc, 0x20) */\n      add\n        /* \"contracts/libraries/BytesLib.sol\":11246:11265  cc := add(cc, 0x20) */\n      swap1\n      pop\n        /* \"contracts/libraries/BytesLib.sol\":10920:11345  for {... */\n      jump(tag_379)\n    tag_381:\n        /* \"contracts/libraries/BytesLib.sol\":10924:11171  {... */\n      pop\n        /* \"contracts/libraries/BytesLib.sol\":11381:11388  _length */\n      dup7\n        /* \"contracts/libraries/BytesLib.sol\":11370:11379  tempBytes */\n      dup6\n        /* \"contracts/libraries/BytesLib.sol\":11363:11389  mstore(tempBytes, _length) */\n      mstore\n        /* \"contracts/libraries/BytesLib.sol\":11571:11573  31 */\n      0x1f\n        /* \"contracts/libraries/BytesLib.sol\":11567:11574  not(31) */\n      not\n        /* \"contracts/libraries/BytesLib.sol\":11562:11564  31 */\n      0x1f\n        /* \"contracts/libraries/BytesLib.sol\":11558:11560  mc */\n      dup4\n        /* \"contracts/libraries/BytesLib.sol\":11554:11565  add(mc, 31) */\n      add\n        /* \"contracts/libraries/BytesLib.sol\":11550:11575  and(add(mc, 31), not(31)) */\n      and\n        /* \"contracts/libraries/BytesLib.sol\":11544:11548  0x40 */\n      0x40\n        /* \"contracts/libraries/BytesLib.sol\":11537:11576  mstore(0x40, and(add(mc, 31), not(31))) */\n      mstore\n        /* \"contracts/libraries/BytesLib.sol\":9630:11590  {... */\n      pop\n      pop\n      pop\n        /* \"contracts/libraries/BytesLib.sol\":9588:11985  switch iszero(_length)... */\n    tag_377:\n      pop\n        /* \"contracts/libraries/BytesLib.sol\":12012:12021  tempBytes */\n      dup1\n        /* \"contracts/libraries/BytesLib.sol\":12005:12021  return tempBytes */\n      swap2\n      pop\n      pop\n        /* \"contracts/libraries/BytesLib.sol\":9258:12028  function slice(... */\n      swap4\n      swap3\n      pop\n      pop\n      pop\n      jump\t// out\n        /* \"contracts/libraries/ExcessivelySafeCall.sol\":1111:2385  function excessivelySafeCall(... */\n    tag_335:\n        /* \"contracts/libraries/ExcessivelySafeCall.sol\":1265:1269  bool */\n      0x00\n        /* \"contracts/libraries/ExcessivelySafeCall.sol\":1271:1283  bytes memory */\n      0x60\n        /* \"contracts/libraries/ExcessivelySafeCall.sol\":1331:1343  uint _toCopy */\n      0x00\n        /* \"contracts/libraries/ExcessivelySafeCall.sol\":1353:1366  bool _success */\n      dup1\n        /* \"contracts/libraries/ExcessivelySafeCall.sol\":1376:1400  bytes memory _returnData */\n      0x00\n        /* \"contracts/libraries/ExcessivelySafeCall.sol\":1413:1421  _maxCopy */\n      dup7\n        /* \"contracts/libraries/ExcessivelySafeCall.sol\":1403:1422  new bytes(_maxCopy) */\n      0xffff\n      and\n      0xffffffffffffffff\n      dup2\n      gt\n      iszero\n      tag_383\n      jumpi\n      tag_384\n      tag_385\n      jump\t// in\n    tag_384:\n    tag_383:\n      mload(0x40)\n      swap1\n      dup1\n      dup3\n      mstore\n      dup1\n      0x1f\n      add\n      not(0x1f)\n      and\n      0x20\n      add\n      dup3\n      add\n      0x40\n      mstore\n      dup1\n      iszero\n      tag_386\n      jumpi\n      dup2\n      0x20\n      add\n      0x01\n      dup3\n      mul\n      dup1\n      calldatasize\n      dup4\n      calldatacopy\n      dup1\n      dup3\n      add\n      swap2\n      pop\n      pop\n      swap1\n      pop\n    tag_386:\n      pop\n        /* \"contracts/libraries/ExcessivelySafeCall.sol\":1376:1422  bytes memory _returnData = new bytes(_maxCopy) */\n      swap1\n      pop\n        /* \"contracts/libraries/ExcessivelySafeCall.sol\":1919:1920  0 */\n      0x00\n        /* \"contracts/libraries/ExcessivelySafeCall.sol\":1890:1891  0 */\n      dup1\n        /* \"contracts/libraries/ExcessivelySafeCall.sol\":1853:1862  _calldata */\n      dup8\n        /* \"contracts/libraries/ExcessivelySafeCall.sol\":1847:1863  mload(_calldata) */\n      mload\n        /* \"contracts/libraries/ExcessivelySafeCall.sol\":1815:1819  0x20 */\n      0x20\n        /* \"contracts/libraries/ExcessivelySafeCall.sol\":1804:1813  _calldata */\n      dup10\n        /* \"contracts/libraries/ExcessivelySafeCall.sol\":1800:1820  add(_calldata, 0x20) */\n      add\n        /* \"contracts/libraries/ExcessivelySafeCall.sol\":1766:1767  0 */\n      0x00\n        /* \"contracts/libraries/ExcessivelySafeCall.sol\":1728:1735  _target */\n      dup14\n        /* \"contracts/libraries/ExcessivelySafeCall.sol\":1699:1703  _gas */\n      dup14\n        /* \"contracts/libraries/ExcessivelySafeCall.sol\":1677:1944  call(... */\n      call\n        /* \"contracts/libraries/ExcessivelySafeCall.sol\":1665:1944  _success := call(... */\n      swap2\n      pop\n        /* \"contracts/libraries/ExcessivelySafeCall.sol\":2011:2027  returndatasize() */\n      returndatasize\n        /* \"contracts/libraries/ExcessivelySafeCall.sol\":2000:2027  _toCopy := returndatasize() */\n      swap3\n      pop\n        /* \"contracts/libraries/ExcessivelySafeCall.sol\":2055:2063  _maxCopy */\n      dup7\n        /* \"contracts/libraries/ExcessivelySafeCall.sol\":2046:2053  _toCopy */\n      dup4\n        /* \"contracts/libraries/ExcessivelySafeCall.sol\":2043:2064  gt(_toCopy, _maxCopy) */\n      gt\n        /* \"contracts/libraries/ExcessivelySafeCall.sol\":2040:2116  if gt(_toCopy, _maxCopy) {... */\n      iszero\n      tag_387\n      jumpi\n        /* \"contracts/libraries/ExcessivelySafeCall.sol\":2094:2102  _maxCopy */\n      dup7\n        /* \"contracts/libraries/ExcessivelySafeCall.sol\":2083:2102  _toCopy := _maxCopy */\n      swap3\n      pop\n        /* \"contracts/libraries/ExcessivelySafeCall.sol\":2040:2116  if gt(_toCopy, _maxCopy) {... */\n    tag_387:\n        /* \"contracts/libraries/ExcessivelySafeCall.sol\":2201:2208  _toCopy */\n      dup3\n        /* \"contracts/libraries/ExcessivelySafeCall.sol\":2188:2199  _returnData */\n      dup2\n        /* \"contracts/libraries/ExcessivelySafeCall.sol\":2181:2209  mstore(_returnData, _toCopy) */\n      mstore\n        /* \"contracts/libraries/ExcessivelySafeCall.sol\":2321:2328  _toCopy */\n      dup3\n        /* \"contracts/libraries/ExcessivelySafeCall.sol\":2318:2319  0 */\n      0x00\n        /* \"contracts/libraries/ExcessivelySafeCall.sol\":2311:2315  0x20 */\n      0x20\n        /* \"contracts/libraries/ExcessivelySafeCall.sol\":2298:2309  _returnData */\n      dup4\n        /* \"contracts/libraries/ExcessivelySafeCall.sol\":2294:2316  add(_returnData, 0x20) */\n      add\n        /* \"contracts/libraries/ExcessivelySafeCall.sol\":2279:2329  returndatacopy(add(_returnData, 0x20), 0, _toCopy) */\n      returndatacopy\n        /* \"contracts/libraries/ExcessivelySafeCall.sol\":2356:2364  _success */\n      dup2\n        /* \"contracts/libraries/ExcessivelySafeCall.sol\":2366:2377  _returnData */\n      dup2\n        /* \"contracts/libraries/ExcessivelySafeCall.sol\":2348:2378  return (_success, _returnData) */\n      swap5\n      pop\n      swap5\n      pop\n      pop\n      pop\n      pop\n        /* \"contracts/libraries/ExcessivelySafeCall.sol\":1111:2385  function excessivelySafeCall(... */\n      swap5\n      pop\n      swap5\n      swap3\n      pop\n      pop\n      pop\n      jump\t// out\n        /* \"contracts/lzApp/NonblockingLzApp.sol\":1540:1906  function _storeFailedMessage(... */\n    tag_338:\n        /* \"contracts/lzApp/NonblockingLzApp.sol\":1809:1817  _payload */\n      dup2\n        /* \"contracts/lzApp/NonblockingLzApp.sol\":1799:1818  keccak256(_payload) */\n      dup1\n      mload\n      swap1\n      0x20\n      add\n      keccak256\n        /* \"contracts/lzApp/NonblockingLzApp.sol\":1748:1762  failedMessages */\n      0x05\n        /* \"contracts/lzApp/NonblockingLzApp.sol\":1748:1775  failedMessages[_srcChainId] */\n      0x00\n        /* \"contracts/lzApp/NonblockingLzApp.sol\":1763:1774  _srcChainId */\n      dup8\n        /* \"contracts/lzApp/NonblockingLzApp.sol\":1748:1775  failedMessages[_srcChainId] */\n      0xffff\n      and\n      0xffff\n      and\n      dup2\n      mstore\n      0x20\n      add\n      swap1\n      dup2\n      mstore\n      0x20\n      add\n      0x00\n      keccak256\n        /* \"contracts/lzApp/NonblockingLzApp.sol\":1776:1787  _srcAddress */\n      dup6\n        /* \"contracts/lzApp/NonblockingLzApp.sol\":1748:1788  failedMessages[_srcChainId][_srcAddress] */\n      mload(0x40)\n      tag_389\n      swap2\n      swap1\n      tag_390\n      jump\t// in\n    tag_389:\n      swap1\n      dup2\n      mstore\n      0x20\n      add\n      mload(0x40)\n      dup1\n      swap2\n      sub\n      swap1\n      keccak256\n        /* \"contracts/lzApp/NonblockingLzApp.sol\":1748:1796  failedMessages[_srcChainId][_srcAddress][_nonce] */\n      0x00\n        /* \"contracts/lzApp/NonblockingLzApp.sol\":1789:1795  _nonce */\n      dup6\n        /* \"contracts/lzApp/NonblockingLzApp.sol\":1748:1796  failedMessages[_srcChainId][_srcAddress][_nonce] */\n      0xffffffffffffffff\n      and\n      0xffffffffffffffff\n      and\n      dup2\n      mstore\n      0x20\n      add\n      swap1\n      dup2\n      mstore\n      0x20\n      add\n      0x00\n      keccak256\n        /* \"contracts/lzApp/NonblockingLzApp.sol\":1748:1818  failedMessages[_srcChainId][_srcAddress][_nonce] = keccak256(_payload) */\n      dup2\n      swap1\n      sstore\n      pop\n        /* \"contracts/lzApp/NonblockingLzApp.sol\":1833:1899  MessageFailed(_srcChainId, _srcAddress, _nonce, _payload, _reason) */\n      0xe183f33de2837795525b4792ca4cd60535bd77c53b7e7030060bfcf5734d6b0c\n        /* \"contracts/lzApp/NonblockingLzApp.sol\":1847:1858  _srcChainId */\n      dup6\n        /* \"contracts/lzApp/NonblockingLzApp.sol\":1860:1871  _srcAddress */\n      dup6\n        /* \"contracts/lzApp/NonblockingLzApp.sol\":1873:1879  _nonce */\n      dup6\n        /* \"contracts/lzApp/NonblockingLzApp.sol\":1881:1889  _payload */\n      dup6\n        /* \"contracts/lzApp/NonblockingLzApp.sol\":1891:1898  _reason */\n      dup6\n        /* \"contracts/lzApp/NonblockingLzApp.sol\":1833:1899  MessageFailed(_srcChainId, _srcAddress, _nonce, _payload, _reason) */\n      mload(0x40)\n      tag_391\n      swap6\n      swap5\n      swap4\n      swap3\n      swap2\n      swap1\n      tag_392\n      jump\t// in\n    tag_391:\n      mload(0x40)\n      dup1\n      swap2\n      sub\n      swap1\n      log1\n        /* \"contracts/lzApp/NonblockingLzApp.sol\":1540:1906  function _storeFailedMessage(... */\n      pop\n      pop\n      pop\n      pop\n      pop\n      jump\t// out\n        /* \"contracts/lzApp/LzApp.sol\":3801:4196  function _checkPayloadSize(uint16 _dstChainId, uint _payloadSize) internal view virtual {... */\n    tag_355:\n        /* \"contracts/lzApp/LzApp.sol\":3899:3920  uint payloadSizeLimit */\n      0x00\n        /* \"contracts/lzApp/LzApp.sol\":3923:3945  payloadSizeLimitLookup */\n      0x03\n        /* \"contracts/lzApp/LzApp.sol\":3923:3958  payloadSizeLimitLookup[_dstChainId] */\n      0x00\n        /* \"contracts/lzApp/LzApp.sol\":3946:3957  _dstChainId */\n      dup5\n        /* \"contracts/lzApp/LzApp.sol\":3923:3958  payloadSizeLimitLookup[_dstChainId] */\n      0xffff\n      and\n      0xffff\n      and\n      dup2\n      mstore\n      0x20\n      add\n      swap1\n      dup2\n      mstore\n      0x20\n      add\n      0x00\n      keccak256\n      sload\n        /* \"contracts/lzApp/LzApp.sol\":3899:3958  uint payloadSizeLimit = payloadSizeLimitLookup[_dstChainId] */\n      swap1\n      pop\n        /* \"contracts/lzApp/LzApp.sol\":3992:3993  0 */\n      0x00\n        /* \"contracts/lzApp/LzApp.sol\":3972:3988  payloadSizeLimit */\n      dup2\n        /* \"contracts/lzApp/LzApp.sol\":3972:3993  payloadSizeLimit == 0 */\n      sub\n        /* \"contracts/lzApp/LzApp.sol\":3968:4103  if (payloadSizeLimit == 0) {... */\n      tag_394\n      jumpi\n        /* \"contracts/lzApp/LzApp.sol\":677:682  10000 */\n      0x2710\n        /* \"contracts/lzApp/LzApp.sol\":4047:4092  payloadSizeLimit = DEFAULT_PAYLOAD_SIZE_LIMIT */\n      swap1\n      pop\n        /* \"contracts/lzApp/LzApp.sol\":3968:4103  if (payloadSizeLimit == 0) {... */\n    tag_394:\n        /* \"contracts/lzApp/LzApp.sol\":4136:4152  payloadSizeLimit */\n      dup1\n        /* \"contracts/lzApp/LzApp.sol\":4120:4132  _payloadSize */\n      dup3\n        /* \"contracts/lzApp/LzApp.sol\":4120:4152  _payloadSize <= payloadSizeLimit */\n      gt\n      iszero\n        /* \"contracts/lzApp/LzApp.sol\":4112:4189  require(_payloadSize <= payloadSizeLimit, \"LzApp: payload size is too large\") */\n      tag_395\n      jumpi\n      mload(0x40)\n      0x08c379a000000000000000000000000000000000000000000000000000000000\n      dup2\n      mstore\n      0x04\n      add\n      tag_396\n      swap1\n      tag_397\n      jump\t// in\n    tag_396:\n      mload(0x40)\n      dup1\n      swap2\n      sub\n      swap1\n      revert\n    tag_395:\n        /* \"contracts/lzApp/LzApp.sol\":3889:4196  {... */\n      pop\n        /* \"contracts/lzApp/LzApp.sol\":3801:4196  function _checkPayloadSize(uint16 _dstChainId, uint _payloadSize) internal view virtual {... */\n      pop\n      pop\n      jump\t// out\n        /* \"#utility.yul\":7:82   */\n    tag_398:\n        /* \"#utility.yul\":40:46   */\n      0x00\n        /* \"#utility.yul\":73:75   */\n      0x40\n        /* \"#utility.yul\":67:76   */\n      mload\n        /* \"#utility.yul\":57:76   */\n      swap1\n      pop\n        /* \"#utility.yul\":7:82   */\n      swap1\n      jump\t// out\n        /* \"#utility.yul\":88:205   */\n    tag_399:\n        /* \"#utility.yul\":197:198   */\n      0x00\n        /* \"#utility.yul\":194:195   */\n      dup1\n        /* \"#utility.yul\":187:199   */\n      revert\n        /* \"#utility.yul\":211:328   */\n    tag_400:\n        /* \"#utility.yul\":320:321   */\n      0x00\n        /* \"#utility.yul\":317:318   */\n      dup1\n        /* \"#utility.yul\":310:322   */\n      revert\n        /* \"#utility.yul\":334:423   */\n    tag_401:\n        /* \"#utility.yul\":370:377   */\n      0x00\n        /* \"#utility.yul\":410:416   */\n      0xffff\n        /* \"#utility.yul\":403:408   */\n      dup3\n        /* \"#utility.yul\":399:417   */\n      and\n        /* \"#utility.yul\":388:417   */\n      swap1\n      pop\n        /* \"#utility.yul\":334:423   */\n      swap2\n      swap1\n      pop\n      jump\t// out\n        /* \"#utility.yul\":429:549   */\n    tag_402:\n        /* \"#utility.yul\":501:524   */\n      tag_512\n        /* \"#utility.yul\":518:523   */\n      dup2\n        /* \"#utility.yul\":501:524   */\n      tag_401\n      jump\t// in\n    tag_512:\n        /* \"#utility.yul\":494:499   */\n      dup2\n        /* \"#utility.yul\":491:525   */\n      eq\n        /* \"#utility.yul\":481:543   */\n      tag_513\n      jumpi\n        /* \"#utility.yul\":539:540   */\n      0x00\n        /* \"#utility.yul\":536:537   */\n      dup1\n        /* \"#utility.yul\":529:541   */\n      revert\n        /* \"#utility.yul\":481:543   */\n    tag_513:\n        /* \"#utility.yul\":429:549   */\n      pop\n      jump\t// out\n        /* \"#utility.yul\":555:692   */\n    tag_403:\n        /* \"#utility.yul\":600:605   */\n      0x00\n        /* \"#utility.yul\":638:644   */\n      dup2\n        /* \"#utility.yul\":625:645   */\n      calldataload\n        /* \"#utility.yul\":616:645   */\n      swap1\n      pop\n        /* \"#utility.yul\":654:686   */\n      tag_515\n        /* \"#utility.yul\":680:685   */\n      dup2\n        /* \"#utility.yul\":654:686   */\n      tag_402\n      jump\t// in\n    tag_515:\n        /* \"#utility.yul\":555:692   */\n      swap3\n      swap2\n      pop\n      pop\n      jump\t// out\n        /* \"#utility.yul\":698:815   */\n    tag_404:\n        /* \"#utility.yul\":807:808   */\n      0x00\n        /* \"#utility.yul\":804:805   */\n      dup1\n        /* \"#utility.yul\":797:809   */\n      revert\n        /* \"#utility.yul\":821:938   */\n    tag_405:\n        /* \"#utility.yul\":930:931   */\n      0x00\n        /* \"#utility.yul\":927:928   */\n      dup1\n        /* \"#utility.yul\":920:932   */\n      revert\n        /* \"#utility.yul\":944:1061   */\n    tag_406:\n        /* \"#utility.yul\":1053:1054   */\n      0x00\n        /* \"#utility.yul\":1050:1051   */\n      dup1\n        /* \"#utility.yul\":1043:1055   */\n      revert\n        /* \"#utility.yul\":1080:1632   */\n    tag_407:\n        /* \"#utility.yul\":1137:1145   */\n      0x00\n        /* \"#utility.yul\":1147:1153   */\n      dup1\n        /* \"#utility.yul\":1197:1200   */\n      dup4\n        /* \"#utility.yul\":1190:1194   */\n      0x1f\n        /* \"#utility.yul\":1182:1188   */\n      dup5\n        /* \"#utility.yul\":1178:1195   */\n      add\n        /* \"#utility.yul\":1174:1201   */\n      slt\n        /* \"#utility.yul\":1164:1286   */\n      tag_520\n      jumpi\n        /* \"#utility.yul\":1205:1284   */\n      tag_521\n      tag_404\n      jump\t// in\n    tag_521:\n        /* \"#utility.yul\":1164:1286   */\n    tag_520:\n        /* \"#utility.yul\":1318:1324   */\n      dup3\n        /* \"#utility.yul\":1305:1325   */\n      calldataload\n        /* \"#utility.yul\":1295:1325   */\n      swap1\n      pop\n        /* \"#utility.yul\":1348:1366   */\n      0xffffffffffffffff\n        /* \"#utility.yul\":1340:1346   */\n      dup2\n        /* \"#utility.yul\":1337:1367   */\n      gt\n        /* \"#utility.yul\":1334:1451   */\n      iszero\n      tag_522\n      jumpi\n        /* \"#utility.yul\":1370:1449   */\n      tag_523\n      tag_405\n      jump\t// in\n    tag_523:\n        /* \"#utility.yul\":1334:1451   */\n    tag_522:\n        /* \"#utility.yul\":1484:1488   */\n      0x20\n        /* \"#utility.yul\":1476:1482   */\n      dup4\n        /* \"#utility.yul\":1472:1489   */\n      add\n        /* \"#utility.yul\":1460:1489   */\n      swap2\n      pop\n        /* \"#utility.yul\":1538:1541   */\n      dup4\n        /* \"#utility.yul\":1530:1534   */\n      0x01\n        /* \"#utility.yul\":1522:1528   */\n      dup3\n        /* \"#utility.yul\":1518:1535   */\n      mul\n        /* \"#utility.yul\":1508:1516   */\n      dup4\n        /* \"#utility.yul\":1504:1536   */\n      add\n        /* \"#utility.yul\":1501:1542   */\n      gt\n        /* \"#utility.yul\":1498:1626   */\n      iszero\n      tag_524\n      jumpi\n        /* \"#utility.yul\":1545:1624   */\n      tag_525\n      tag_406\n      jump\t// in\n    tag_525:\n        /* \"#utility.yul\":1498:1626   */\n    tag_524:\n        /* \"#utility.yul\":1080:1632   */\n      swap3\n      pop\n      swap3\n      swap1\n      pop\n      jump\t// out\n        /* \"#utility.yul\":1638:1739   */\n    tag_408:\n        /* \"#utility.yul\":1674:1681   */\n      0x00\n        /* \"#utility.yul\":1714:1732   */\n      0xffffffffffffffff\n        /* \"#utility.yul\":1707:1712   */\n      dup3\n        /* \"#utility.yul\":1703:1733   */\n      and\n        /* \"#utility.yul\":1692:1733   */\n      swap1\n      pop\n        /* \"#utility.yul\":1638:1739   */\n      swap2\n      swap1\n      pop\n      jump\t// out\n        /* \"#utility.yul\":1745:1865   */\n    tag_409:\n        /* \"#utility.yul\":1817:1840   */\n      tag_528\n        /* \"#utility.yul\":1834:1839   */\n      dup2\n        /* \"#utility.yul\":1817:1840   */\n      tag_408\n      jump\t// in\n    tag_528:\n        /* \"#utility.yul\":1810:1815   */\n      dup2\n        /* \"#utility.yul\":1807:1841   */\n      eq\n        /* \"#utility.yul\":1797:1859   */\n      tag_529\n      jumpi\n        /* \"#utility.yul\":1855:1856   */\n      0x00\n        /* \"#utility.yul\":1852:1853   */\n      dup1\n        /* \"#utility.yul\":1845:1857   */\n      revert\n        /* \"#utility.yul\":1797:1859   */\n    tag_529:\n        /* \"#utility.yul\":1745:1865   */\n      pop\n      jump\t// out\n        /* \"#utility.yul\":1871:2008   */\n    tag_410:\n        /* \"#utility.yul\":1916:1921   */\n      0x00\n        /* \"#utility.yul\":1954:1960   */\n      dup2\n        /* \"#utility.yul\":1941:1961   */\n      calldataload\n        /* \"#utility.yul\":1932:1961   */\n      swap1\n      pop\n        /* \"#utility.yul\":1970:2002   */\n      tag_531\n        /* \"#utility.yul\":1996:2001   */\n      dup2\n        /* \"#utility.yul\":1970:2002   */\n      tag_409\n      jump\t// in\n    tag_531:\n        /* \"#utility.yul\":1871:2008   */\n      swap3\n      swap2\n      pop\n      pop\n      jump\t// out\n        /* \"#utility.yul\":2014:3171   */\n    tag_40:\n        /* \"#utility.yul\":2120:2126   */\n      0x00\n        /* \"#utility.yul\":2128:2134   */\n      dup1\n        /* \"#utility.yul\":2136:2142   */\n      0x00\n        /* \"#utility.yul\":2144:2150   */\n      dup1\n        /* \"#utility.yul\":2152:2158   */\n      0x00\n        /* \"#utility.yul\":2160:2166   */\n      dup1\n        /* \"#utility.yul\":2209:2212   */\n      0x80\n        /* \"#utility.yul\":2197:2206   */\n      dup8\n        /* \"#utility.yul\":2188:2195   */\n      dup10\n        /* \"#utility.yul\":2184:2207   */\n      sub\n        /* \"#utility.yul\":2180:2213   */\n      slt\n        /* \"#utility.yul\":2177:2297   */\n      iszero\n      tag_533\n      jumpi\n        /* \"#utility.yul\":2216:2295   */\n      tag_534\n      tag_399\n      jump\t// in\n    tag_534:\n        /* \"#utility.yul\":2177:2297   */\n    tag_533:\n        /* \"#utility.yul\":2336:2337   */\n      0x00\n        /* \"#utility.yul\":2361:2413   */\n      tag_535\n        /* \"#utility.yul\":2405:2412   */\n      dup10\n        /* \"#utility.yul\":2396:2402   */\n      dup3\n        /* \"#utility.yul\":2385:2394   */\n      dup11\n        /* \"#utility.yul\":2381:2403   */\n      add\n        /* \"#utility.yul\":2361:2413   */\n      tag_403\n      jump\t// in\n    tag_535:\n        /* \"#utility.yul\":2351:2413   */\n      swap7\n      pop\n        /* \"#utility.yul\":2307:2423   */\n      pop\n        /* \"#utility.yul\":2490:2492   */\n      0x20\n        /* \"#utility.yul\":2479:2488   */\n      dup8\n        /* \"#utility.yul\":2475:2493   */\n      add\n        /* \"#utility.yul\":2462:2494   */\n      calldataload\n        /* \"#utility.yul\":2521:2539   */\n      0xffffffffffffffff\n        /* \"#utility.yul\":2513:2519   */\n      dup2\n        /* \"#utility.yul\":2510:2540   */\n      gt\n        /* \"#utility.yul\":2507:2624   */\n      iszero\n      tag_536\n      jumpi\n        /* \"#utility.yul\":2543:2622   */\n      tag_537\n      tag_400\n      jump\t// in\n    tag_537:\n        /* \"#utility.yul\":2507:2624   */\n    tag_536:\n        /* \"#utility.yul\":2656:2720   */\n      tag_538\n        /* \"#utility.yul\":2712:2719   */\n      dup10\n        /* \"#utility.yul\":2703:2709   */\n      dup3\n        /* \"#utility.yul\":2692:2701   */\n      dup11\n        /* \"#utility.yul\":2688:2710   */\n      add\n        /* \"#utility.yul\":2656:2720   */\n      tag_407\n      jump\t// in\n    tag_538:\n        /* \"#utility.yul\":2638:2720   */\n      swap6\n      pop\n      swap6\n      pop\n        /* \"#utility.yul\":2433:2730   */\n      pop\n        /* \"#utility.yul\":2769:2771   */\n      0x40\n        /* \"#utility.yul\":2795:2847   */\n      tag_539\n        /* \"#utility.yul\":2839:2846   */\n      dup10\n        /* \"#utility.yul\":2830:2836   */\n      dup3\n        /* \"#utility.yul\":2819:2828   */\n      dup11\n        /* \"#utility.yul\":2815:2837   */\n      add\n        /* \"#utility.yul\":2795:2847   */\n      tag_410\n      jump\t// in\n    tag_539:\n        /* \"#utility.yul\":2785:2847   */\n      swap4\n      pop\n        /* \"#utility.yul\":2740:2857   */\n      pop\n        /* \"#utility.yul\":2924:2926   */\n      0x60\n        /* \"#utility.yul\":2913:2922   */\n      dup8\n        /* \"#utility.yul\":2909:2927   */\n      add\n        /* \"#utility.yul\":2896:2928   */\n      calldataload\n        /* \"#utility.yul\":2955:2973   */\n      0xffffffffffffffff\n        /* \"#utility.yul\":2947:2953   */\n      dup2\n        /* \"#utility.yul\":2944:2974   */\n      gt\n        /* \"#utility.yul\":2941:3058   */\n      iszero\n      tag_540\n      jumpi\n        /* \"#utility.yul\":2977:3056   */\n      tag_541\n      tag_400\n      jump\t// in\n    tag_541:\n        /* \"#utility.yul\":2941:3058   */\n    tag_540:\n        /* \"#utility.yul\":3090:3154   */\n      tag_542\n        /* \"#utility.yul\":3146:3153   */\n      dup10\n        /* \"#utility.yul\":3137:3143   */\n      dup3\n        /* \"#utility.yul\":3126:3135   */\n      dup11\n        /* \"#utility.yul\":3122:3144   */\n      add\n        /* \"#utility.yul\":3090:3154   */\n      tag_407\n      jump\t// in\n    tag_542:\n        /* \"#utility.yul\":3072:3154   */\n      swap3\n      pop\n      swap3\n      pop\n        /* \"#utility.yul\":2867:3164   */\n      pop\n        /* \"#utility.yul\":2014:3171   */\n      swap3\n      swap6\n      pop\n      swap3\n      swap6\n      pop\n      swap3\n      swap6\n      jump\t// out\n        /* \"#utility.yul\":3177:3504   */\n    tag_45:\n        /* \"#utility.yul\":3235:3241   */\n      0x00\n        /* \"#utility.yul\":3284:3286   */\n      0x20\n        /* \"#utility.yul\":3272:3281   */\n      dup3\n        /* \"#utility.yul\":3263:3270   */\n      dup5\n        /* \"#utility.yul\":3259:3282   */\n      sub\n        /* \"#utility.yul\":3255:3287   */\n      slt\n        /* \"#utility.yul\":3252:3371   */\n      iszero\n      tag_544\n      jumpi\n        /* \"#utility.yul\":3290:3369   */\n      tag_545\n      tag_399\n      jump\t// in\n    tag_545:\n        /* \"#utility.yul\":3252:3371   */\n    tag_544:\n        /* \"#utility.yul\":3410:3411   */\n      0x00\n        /* \"#utility.yul\":3435:3487   */\n      tag_546\n        /* \"#utility.yul\":3479:3486   */\n      dup5\n        /* \"#utility.yul\":3470:3476   */\n      dup3\n        /* \"#utility.yul\":3459:3468   */\n      dup6\n        /* \"#utility.yul\":3455:3477   */\n      add\n        /* \"#utility.yul\":3435:3487   */\n      tag_403\n      jump\t// in\n    tag_546:\n        /* \"#utility.yul\":3425:3487   */\n      swap2\n      pop\n        /* \"#utility.yul\":3381:3497   */\n      pop\n        /* \"#utility.yul\":3177:3504   */\n      swap3\n      swap2\n      pop\n      pop\n      jump\t// out\n        /* \"#utility.yul\":3510:3587   */\n    tag_411:\n        /* \"#utility.yul\":3547:3554   */\n      0x00\n        /* \"#utility.yul\":3576:3581   */\n      dup2\n        /* \"#utility.yul\":3565:3581   */\n      swap1\n      pop\n        /* \"#utility.yul\":3510:3587   */\n      swap2\n      swap1\n      pop\n      jump\t// out\n        /* \"#utility.yul\":3593:3715   */\n    tag_412:\n        /* \"#utility.yul\":3666:3690   */\n      tag_549\n        /* \"#utility.yul\":3684:3689   */\n      dup2\n        /* \"#utility.yul\":3666:3690   */\n      tag_411\n      jump\t// in\n    tag_549:\n        /* \"#utility.yul\":3659:3664   */\n      dup2\n        /* \"#utility.yul\":3656:3691   */\n      eq\n        /* \"#utility.yul\":3646:3709   */\n      tag_550\n      jumpi\n        /* \"#utility.yul\":3705:3706   */\n      0x00\n        /* \"#utility.yul\":3702:3703   */\n      dup1\n        /* \"#utility.yul\":3695:3707   */\n      revert\n        /* \"#utility.yul\":3646:3709   */\n    tag_550:\n        /* \"#utility.yul\":3593:3715   */\n      pop\n      jump\t// out\n        /* \"#utility.yul\":3721:3860   */\n    tag_413:\n        /* \"#utility.yul\":3767:3772   */\n      0x00\n        /* \"#utility.yul\":3805:3811   */\n      dup2\n        /* \"#utility.yul\":3792:3812   */\n      calldataload\n        /* \"#utility.yul\":3783:3812   */\n      swap1\n      pop\n        /* \"#utility.yul\":3821:3854   */\n      tag_552\n        /* \"#utility.yul\":3848:3853   */\n      dup2\n        /* \"#utility.yul\":3821:3854   */\n      tag_412\n      jump\t// in\n    tag_552:\n        /* \"#utility.yul\":3721:3860   */\n      swap3\n      swap2\n      pop\n      pop\n      jump\t// out\n        /* \"#utility.yul\":3866:4338   */\n    tag_50:\n        /* \"#utility.yul\":3933:3939   */\n      0x00\n        /* \"#utility.yul\":3941:3947   */\n      dup1\n        /* \"#utility.yul\":3990:3992   */\n      0x40\n        /* \"#utility.yul\":3978:3987   */\n      dup4\n        /* \"#utility.yul\":3969:3976   */\n      dup6\n        /* \"#utility.yul\":3965:3988   */\n      sub\n        /* \"#utility.yul\":3961:3993   */\n      slt\n        /* \"#utility.yul\":3958:4077   */\n      iszero\n      tag_554\n      jumpi\n        /* \"#utility.yul\":3996:4075   */\n      tag_555\n      tag_399\n      jump\t// in\n    tag_555:\n        /* \"#utility.yul\":3958:4077   */\n    tag_554:\n        /* \"#utility.yul\":4116:4117   */\n      0x00\n        /* \"#utility.yul\":4141:4193   */\n      tag_556\n        /* \"#utility.yul\":4185:4192   */\n      dup6\n        /* \"#utility.yul\":4176:4182   */\n      dup3\n        /* \"#utility.yul\":4165:4174   */\n      dup7\n        /* \"#utility.yul\":4161:4183   */\n      add\n        /* \"#utility.yul\":4141:4193   */\n      tag_403\n      jump\t// in\n    tag_556:\n        /* \"#utility.yul\":4131:4193   */\n      swap3\n      pop\n        /* \"#utility.yul\":4087:4203   */\n      pop\n        /* \"#utility.yul\":4242:4244   */\n      0x20\n        /* \"#utility.yul\":4268:4321   */\n      tag_557\n        /* \"#utility.yul\":4313:4320   */\n      dup6\n        /* \"#utility.yul\":4304:4310   */\n      dup3\n        /* \"#utility.yul\":4293:4302   */\n      dup7\n        /* \"#utility.yul\":4289:4311   */\n      add\n        /* \"#utility.yul\":4268:4321   */\n      tag_413\n      jump\t// in\n    tag_557:\n        /* \"#utility.yul\":4258:4321   */\n      swap2\n      pop\n        /* \"#utility.yul\":4213:4331   */\n      pop\n        /* \"#utility.yul\":3866:4338   */\n      swap3\n      pop\n      swap3\n      swap1\n      pop\n      jump\t// out\n        /* \"#utility.yul\":4344:5014   */\n    tag_59:\n        /* \"#utility.yul\":4422:4428   */\n      0x00\n        /* \"#utility.yul\":4430:4436   */\n      dup1\n        /* \"#utility.yul\":4438:4444   */\n      0x00\n        /* \"#utility.yul\":4487:4489   */\n      0x40\n        /* \"#utility.yul\":4475:4484   */\n      dup5\n        /* \"#utility.yul\":4466:4473   */\n      dup7\n        /* \"#utility.yul\":4462:4485   */\n      sub\n        /* \"#utility.yul\":4458:4490   */\n      slt\n        /* \"#utility.yul\":4455:4574   */\n      iszero\n      tag_559\n      jumpi\n        /* \"#utility.yul\":4493:4572   */\n      tag_560\n      tag_399\n      jump\t// in\n    tag_560:\n        /* \"#utility.yul\":4455:4574   */\n    tag_559:\n        /* \"#utility.yul\":4613:4614   */\n      0x00\n        /* \"#utility.yul\":4638:4690   */\n      tag_561\n        /* \"#utility.yul\":4682:4689   */\n      dup7\n        /* \"#utility.yul\":4673:4679   */\n      dup3\n        /* \"#utility.yul\":4662:4671   */\n      dup8\n        /* \"#utility.yul\":4658:4680   */\n      add\n        /* \"#utility.yul\":4638:4690   */\n      tag_403\n      jump\t// in\n    tag_561:\n        /* \"#utility.yul\":4628:4690   */\n      swap4\n      pop\n        /* \"#utility.yul\":4584:4700   */\n      pop\n        /* \"#utility.yul\":4767:4769   */\n      0x20\n        /* \"#utility.yul\":4756:4765   */\n      dup5\n        /* \"#utility.yul\":4752:4770   */\n      add\n        /* \"#utility.yul\":4739:4771   */\n      calldataload\n        /* \"#utility.yul\":4798:4816   */\n      0xffffffffffffffff\n        /* \"#utility.yul\":4790:4796   */\n      dup2\n        /* \"#utility.yul\":4787:4817   */\n      gt\n        /* \"#utility.yul\":4784:4901   */\n      iszero\n      tag_562\n      jumpi\n        /* \"#utility.yul\":4820:4899   */\n      tag_563\n      tag_400\n      jump\t// in\n    tag_563:\n        /* \"#utility.yul\":4784:4901   */\n    tag_562:\n        /* \"#utility.yul\":4933:4997   */\n      tag_564\n        /* \"#utility.yul\":4989:4996   */\n      dup7\n        /* \"#utility.yul\":4980:4986   */\n      dup3\n        /* \"#utility.yul\":4969:4978   */\n      dup8\n        /* \"#utility.yul\":4965:4987   */\n      add\n        /* \"#utility.yul\":4933:4997   */\n      tag_407\n      jump\t// in\n    tag_564:\n        /* \"#utility.yul\":4915:4997   */\n      swap3\n      pop\n      swap3\n      pop\n        /* \"#utility.yul\":4710:5007   */\n      pop\n        /* \"#utility.yul\":4344:5014   */\n      swap3\n      pop\n      swap3\n      pop\n      swap3\n      jump\t// out\n        /* \"#utility.yul\":5020:5110   */\n    tag_414:\n        /* \"#utility.yul\":5054:5061   */\n      0x00\n        /* \"#utility.yul\":5097:5102   */\n      dup2\n        /* \"#utility.yul\":5090:5103   */\n      iszero\n        /* \"#utility.yul\":5083:5104   */\n      iszero\n        /* \"#utility.yul\":5072:5104   */\n      swap1\n      pop\n        /* \"#utility.yul\":5020:5110   */\n      swap2\n      swap1\n      pop\n      jump\t// out\n        /* \"#utility.yul\":5116:5225   */\n    tag_415:\n        /* \"#utility.yul\":5197:5218   */\n      tag_567\n        /* \"#utility.yul\":5212:5217   */\n      dup2\n        /* \"#utility.yul\":5197:5218   */\n      tag_414\n      jump\t// in\n    tag_567:\n        /* \"#utility.yul\":5192:5195   */\n      dup3\n        /* \"#utility.yul\":5185:5219   */\n      mstore\n        /* \"#utility.yul\":5116:5225   */\n      pop\n      pop\n      jump\t// out\n        /* \"#utility.yul\":5231:5441   */\n    tag_62:\n        /* \"#utility.yul\":5318:5322   */\n      0x00\n        /* \"#utility.yul\":5356:5358   */\n      0x20\n        /* \"#utility.yul\":5345:5354   */\n      dup3\n        /* \"#utility.yul\":5341:5359   */\n      add\n        /* \"#utility.yul\":5333:5359   */\n      swap1\n      pop\n        /* \"#utility.yul\":5369:5434   */\n      tag_569\n        /* \"#utility.yul\":5431:5432   */\n      0x00\n        /* \"#utility.yul\":5420:5429   */\n      dup4\n        /* \"#utility.yul\":5416:5433   */\n      add\n        /* \"#utility.yul\":5407:5413   */\n      dup5\n        /* \"#utility.yul\":5369:5434   */\n      tag_415\n      jump\t// in\n    tag_569:\n        /* \"#utility.yul\":5231:5441   */\n      swap3\n      swap2\n      pop\n      pop\n      jump\t// out\n        /* \"#utility.yul\":5447:5565   */\n    tag_416:\n        /* \"#utility.yul\":5534:5558   */\n      tag_571\n        /* \"#utility.yul\":5552:5557   */\n      dup2\n        /* \"#utility.yul\":5534:5558   */\n      tag_411\n      jump\t// in\n    tag_571:\n        /* \"#utility.yul\":5529:5532   */\n      dup3\n        /* \"#utility.yul\":5522:5559   */\n      mstore\n        /* \"#utility.yul\":5447:5565   */\n      pop\n      pop\n      jump\t// out\n        /* \"#utility.yul\":5571:5793   */\n    tag_68:\n        /* \"#utility.yul\":5664:5668   */\n      0x00\n        /* \"#utility.yul\":5702:5704   */\n      0x20\n        /* \"#utility.yul\":5691:5700   */\n      dup3\n        /* \"#utility.yul\":5687:5705   */\n      add\n        /* \"#utility.yul\":5679:5705   */\n      swap1\n      pop\n        /* \"#utility.yul\":5715:5786   */\n      tag_573\n        /* \"#utility.yul\":5783:5784   */\n      0x00\n        /* \"#utility.yul\":5772:5781   */\n      dup4\n        /* \"#utility.yul\":5768:5785   */\n      add\n        /* \"#utility.yul\":5759:5765   */\n      dup5\n        /* \"#utility.yul\":5715:5786   */\n      tag_416\n      jump\t// in\n    tag_573:\n        /* \"#utility.yul\":5571:5793   */\n      swap3\n      swap2\n      pop\n      pop\n      jump\t// out\n        /* \"#utility.yul\":5799:5916   */\n    tag_417:\n        /* \"#utility.yul\":5908:5909   */\n      0x00\n        /* \"#utility.yul\":5905:5906   */\n      dup1\n        /* \"#utility.yul\":5898:5910   */\n      revert\n        /* \"#utility.yul\":5922:6024   */\n    tag_418:\n        /* \"#utility.yul\":5963:5969   */\n      0x00\n        /* \"#utility.yul\":6014:6016   */\n      0x1f\n        /* \"#utility.yul\":6010:6017   */\n      not\n        /* \"#utility.yul\":6005:6007   */\n      0x1f\n        /* \"#utility.yul\":5998:6003   */\n      dup4\n        /* \"#utility.yul\":5994:6008   */\n      add\n        /* \"#utility.yul\":5990:6018   */\n      and\n        /* \"#utility.yul\":5980:6018   */\n      swap1\n      pop\n        /* \"#utility.yul\":5922:6024   */\n      swap2\n      swap1\n      pop\n      jump\t// out\n        /* \"#utility.yul\":6030:6210   */\n    tag_385:\n        /* \"#utility.yul\":6078:6155   */\n      0x4e487b7100000000000000000000000000000000000000000000000000000000\n        /* \"#utility.yul\":6075:6076   */\n      0x00\n        /* \"#utility.yul\":6068:6156   */\n      mstore\n        /* \"#utility.yul\":6175:6179   */\n      0x41\n        /* \"#utility.yul\":6172:6173   */\n      0x04\n        /* \"#utility.yul\":6165:6180   */\n      mstore\n        /* \"#utility.yul\":6199:6203   */\n      0x24\n        /* \"#utility.yul\":6196:6197   */\n      0x00\n        /* \"#utility.yul\":6189:6204   */\n      revert\n        /* \"#utility.yul\":6216:6497   */\n    tag_419:\n        /* \"#utility.yul\":6299:6326   */\n      tag_578\n        /* \"#utility.yul\":6321:6325   */\n      dup3\n        /* \"#utility.yul\":6299:6326   */\n      tag_418\n      jump\t// in\n    tag_578:\n        /* \"#utility.yul\":6291:6297   */\n      dup2\n        /* \"#utility.yul\":6287:6327   */\n      add\n        /* \"#utility.yul\":6429:6435   */\n      dup2\n        /* \"#utility.yul\":6417:6427   */\n      dup2\n        /* \"#utility.yul\":6414:6436   */\n      lt\n        /* \"#utility.yul\":6393:6411   */\n      0xffffffffffffffff\n        /* \"#utility.yul\":6381:6391   */\n      dup3\n        /* \"#utility.yul\":6378:6412   */\n      gt\n        /* \"#utility.yul\":6375:6437   */\n      or\n        /* \"#utility.yul\":6372:6460   */\n      iszero\n      tag_579\n      jumpi\n        /* \"#utility.yul\":6440:6458   */\n      tag_580\n      tag_385\n      jump\t// in\n    tag_580:\n        /* \"#utility.yul\":6372:6460   */\n    tag_579:\n        /* \"#utility.yul\":6480:6490   */\n      dup1\n        /* \"#utility.yul\":6476:6478   */\n      0x40\n        /* \"#utility.yul\":6469:6491   */\n      mstore\n        /* \"#utility.yul\":6259:6497   */\n      pop\n        /* \"#utility.yul\":6216:6497   */\n      pop\n      pop\n      jump\t// out\n        /* \"#utility.yul\":6503:6632   */\n    tag_420:\n        /* \"#utility.yul\":6537:6543   */\n      0x00\n        /* \"#utility.yul\":6564:6584   */\n      tag_582\n      tag_398\n      jump\t// in\n    tag_582:\n        /* \"#utility.yul\":6554:6584   */\n      swap1\n      pop\n        /* \"#utility.yul\":6593:6626   */\n      tag_583\n        /* \"#utility.yul\":6621:6625   */\n      dup3\n        /* \"#utility.yul\":6613:6619   */\n      dup3\n        /* \"#utility.yul\":6593:6626   */\n      tag_419\n      jump\t// in\n    tag_583:\n        /* \"#utility.yul\":6503:6632   */\n      swap2\n      swap1\n      pop\n      jump\t// out\n        /* \"#utility.yul\":6638:6945   */\n    tag_421:\n        /* \"#utility.yul\":6699:6703   */\n      0x00\n        /* \"#utility.yul\":6789:6807   */\n      0xffffffffffffffff\n        /* \"#utility.yul\":6781:6787   */\n      dup3\n        /* \"#utility.yul\":6778:6808   */\n      gt\n        /* \"#utility.yul\":6775:6831   */\n      iszero\n      tag_585\n      jumpi\n        /* \"#utility.yul\":6811:6829   */\n      tag_586\n      tag_385\n      jump\t// in\n    tag_586:\n        /* \"#utility.yul\":6775:6831   */\n    tag_585:\n        /* \"#utility.yul\":6849:6878   */\n      tag_587\n        /* \"#utility.yul\":6871:6877   */\n      dup3\n        /* \"#utility.yul\":6849:6878   */\n      tag_418\n      jump\t// in\n    tag_587:\n        /* \"#utility.yul\":6841:6878   */\n      swap1\n      pop\n        /* \"#utility.yul\":6933:6937   */\n      0x20\n        /* \"#utility.yul\":6927:6931   */\n      dup2\n        /* \"#utility.yul\":6923:6938   */\n      add\n        /* \"#utility.yul\":6915:6938   */\n      swap1\n      pop\n        /* \"#utility.yul\":6638:6945   */\n      swap2\n      swap1\n      pop\n      jump\t// out\n        /* \"#utility.yul\":6951:7097   */\n    tag_422:\n        /* \"#utility.yul\":7048:7054   */\n      dup3\n        /* \"#utility.yul\":7043:7046   */\n      dup2\n        /* \"#utility.yul\":7038:7041   */\n      dup4\n        /* \"#utility.yul\":7025:7055   */\n      calldatacopy\n        /* \"#utility.yul\":7089:7090   */\n      0x00\n        /* \"#utility.yul\":7080:7086   */\n      dup4\n        /* \"#utility.yul\":7075:7078   */\n      dup4\n        /* \"#utility.yul\":7071:7087   */\n      add\n        /* \"#utility.yul\":7064:7091   */\n      mstore\n        /* \"#utility.yul\":6951:7097   */\n      pop\n      pop\n      pop\n      jump\t// out\n        /* \"#utility.yul\":7103:7526   */\n    tag_423:\n        /* \"#utility.yul\":7180:7185   */\n      0x00\n        /* \"#utility.yul\":7205:7270   */\n      tag_590\n        /* \"#utility.yul\":7221:7269   */\n      tag_591\n        /* \"#utility.yul\":7262:7268   */\n      dup5\n        /* \"#utility.yul\":7221:7269   */\n      tag_421\n      jump\t// in\n    tag_591:\n        /* \"#utility.yul\":7205:7270   */\n      tag_420\n      jump\t// in\n    tag_590:\n        /* \"#utility.yul\":7196:7270   */\n      swap1\n      pop\n        /* \"#utility.yul\":7293:7299   */\n      dup3\n        /* \"#utility.yul\":7286:7291   */\n      dup2\n        /* \"#utility.yul\":7279:7300   */\n      mstore\n        /* \"#utility.yul\":7331:7335   */\n      0x20\n        /* \"#utility.yul\":7324:7329   */\n      dup2\n        /* \"#utility.yul\":7320:7336   */\n      add\n        /* \"#utility.yul\":7369:7372   */\n      dup5\n        /* \"#utility.yul\":7360:7366   */\n      dup5\n        /* \"#utility.yul\":7355:7358   */\n      dup5\n        /* \"#utility.yul\":7351:7367   */\n      add\n        /* \"#utility.yul\":7348:7373   */\n      gt\n        /* \"#utility.yul\":7345:7457   */\n      iszero\n      tag_592\n      jumpi\n        /* \"#utility.yul\":7376:7455   */\n      tag_593\n      tag_417\n      jump\t// in\n    tag_593:\n        /* \"#utility.yul\":7345:7457   */\n    tag_592:\n        /* \"#utility.yul\":7466:7520   */\n      tag_594\n        /* \"#utility.yul\":7513:7519   */\n      dup5\n        /* \"#utility.yul\":7508:7511   */\n      dup3\n        /* \"#utility.yul\":7503:7506   */\n      dup6\n        /* \"#utility.yul\":7466:7520   */\n      tag_422\n      jump\t// in\n    tag_594:\n        /* \"#utility.yul\":7186:7526   */\n      pop\n        /* \"#utility.yul\":7103:7526   */\n      swap4\n      swap3\n      pop\n      pop\n      pop\n      jump\t// out\n        /* \"#utility.yul\":7545:7883   */\n    tag_424:\n        /* \"#utility.yul\":7600:7605   */\n      0x00\n        /* \"#utility.yul\":7649:7652   */\n      dup3\n        /* \"#utility.yul\":7642:7646   */\n      0x1f\n        /* \"#utility.yul\":7634:7640   */\n      dup4\n        /* \"#utility.yul\":7630:7647   */\n      add\n        /* \"#utility.yul\":7626:7653   */\n      slt\n        /* \"#utility.yul\":7616:7738   */\n      tag_596\n      jumpi\n        /* \"#utility.yul\":7657:7736   */\n      tag_597\n      tag_404\n      jump\t// in\n    tag_597:\n        /* \"#utility.yul\":7616:7738   */\n    tag_596:\n        /* \"#utility.yul\":7774:7780   */\n      dup2\n        /* \"#utility.yul\":7761:7781   */\n      calldataload\n        /* \"#utility.yul\":7799:7877   */\n      tag_598\n        /* \"#utility.yul\":7873:7876   */\n      dup5\n        /* \"#utility.yul\":7865:7871   */\n      dup3\n        /* \"#utility.yul\":7858:7862   */\n      0x20\n        /* \"#utility.yul\":7850:7856   */\n      dup7\n        /* \"#utility.yul\":7846:7863   */\n      add\n        /* \"#utility.yul\":7799:7877   */\n      tag_423\n      jump\t// in\n    tag_598:\n        /* \"#utility.yul\":7790:7877   */\n      swap2\n      pop\n        /* \"#utility.yul\":7606:7883   */\n      pop\n        /* \"#utility.yul\":7545:7883   */\n      swap3\n      swap2\n      pop\n      pop\n      jump\t// out\n        /* \"#utility.yul\":7889:8682   */\n    tag_76:\n        /* \"#utility.yul\":7973:7979   */\n      0x00\n        /* \"#utility.yul\":7981:7987   */\n      dup1\n        /* \"#utility.yul\":7989:7995   */\n      0x00\n        /* \"#utility.yul\":8038:8040   */\n      0x60\n        /* \"#utility.yul\":8026:8035   */\n      dup5\n        /* \"#utility.yul\":8017:8024   */\n      dup7\n        /* \"#utility.yul\":8013:8036   */\n      sub\n        /* \"#utility.yul\":8009:8041   */\n      slt\n        /* \"#utility.yul\":8006:8125   */\n      iszero\n      tag_600\n      jumpi\n        /* \"#utility.yul\":8044:8123   */\n      tag_601\n      tag_399\n      jump\t// in\n    tag_601:\n        /* \"#utility.yul\":8006:8125   */\n    tag_600:\n        /* \"#utility.yul\":8164:8165   */\n      0x00\n        /* \"#utility.yul\":8189:8241   */\n      tag_602\n        /* \"#utility.yul\":8233:8240   */\n      dup7\n        /* \"#utility.yul\":8224:8230   */\n      dup3\n        /* \"#utility.yul\":8213:8222   */\n      dup8\n        /* \"#utility.yul\":8209:8231   */\n      add\n        /* \"#utility.yul\":8189:8241   */\n      tag_403\n      jump\t// in\n    tag_602:\n        /* \"#utility.yul\":8179:8241   */\n      swap4\n      pop\n        /* \"#utility.yul\":8135:8251   */\n      pop\n        /* \"#utility.yul\":8318:8320   */\n      0x20\n        /* \"#utility.yul\":8307:8316   */\n      dup5\n        /* \"#utility.yul\":8303:8321   */\n      add\n        /* \"#utility.yul\":8290:8322   */\n      calldataload\n        /* \"#utility.yul\":8349:8367   */\n      0xffffffffffffffff\n        /* \"#utility.yul\":8341:8347   */\n      dup2\n        /* \"#utility.yul\":8338:8368   */\n      gt\n        /* \"#utility.yul\":8335:8452   */\n      iszero\n      tag_603\n      jumpi\n        /* \"#utility.yul\":8371:8450   */\n      tag_604\n      tag_400\n      jump\t// in\n    tag_604:\n        /* \"#utility.yul\":8335:8452   */\n    tag_603:\n        /* \"#utility.yul\":8476:8538   */\n      tag_605\n        /* \"#utility.yul\":8530:8537   */\n      dup7\n        /* \"#utility.yul\":8521:8527   */\n      dup3\n        /* \"#utility.yul\":8510:8519   */\n      dup8\n        /* \"#utility.yul\":8506:8528   */\n      add\n        /* \"#utility.yul\":8476:8538   */\n      tag_424\n      jump\t// in\n    tag_605:\n        /* \"#utility.yul\":8466:8538   */\n      swap3\n      pop\n        /* \"#utility.yul\":8261:8548   */\n      pop\n        /* \"#utility.yul\":8587:8589   */\n      0x40\n        /* \"#utility.yul\":8613:8665   */\n      tag_606\n        /* \"#utility.yul\":8657:8664   */\n      dup7\n        /* \"#utility.yul\":8648:8654   */\n      dup3\n        /* \"#utility.yul\":8637:8646   */\n      dup8\n        /* \"#utility.yul\":8633:8655   */\n      add\n        /* \"#utility.yul\":8613:8665   */\n      tag_410\n      jump\t// in\n    tag_606:\n        /* \"#utility.yul\":8603:8665   */\n      swap2\n      pop\n        /* \"#utility.yul\":8558:8675   */\n      pop\n        /* \"#utility.yul\":7889:8682   */\n      swap3\n      pop\n      swap3\n      pop\n      swap3\n      jump\t// out\n        /* \"#utility.yul\":8688:8765   */\n    tag_425:\n        /* \"#utility.yul\":8725:8732   */\n      0x00\n        /* \"#utility.yul\":8754:8759   */\n      dup2\n        /* \"#utility.yul\":8743:8759   */\n      swap1\n      pop\n        /* \"#utility.yul\":8688:8765   */\n      swap2\n      swap1\n      pop\n      jump\t// out\n        /* \"#utility.yul\":8771:8889   */\n    tag_426:\n        /* \"#utility.yul\":8858:8882   */\n      tag_609\n        /* \"#utility.yul\":8876:8881   */\n      dup2\n        /* \"#utility.yul\":8858:8882   */\n      tag_425\n      jump\t// in\n    tag_609:\n        /* \"#utility.yul\":8853:8856   */\n      dup3\n        /* \"#utility.yul\":8846:8883   */\n      mstore\n        /* \"#utility.yul\":8771:8889   */\n      pop\n      pop\n      jump\t// out\n        /* \"#utility.yul\":8895:9117   */\n    tag_79:\n        /* \"#utility.yul\":8988:8992   */\n      0x00\n        /* \"#utility.yul\":9026:9028   */\n      0x20\n        /* \"#utility.yul\":9015:9024   */\n      dup3\n        /* \"#utility.yul\":9011:9029   */\n      add\n        /* \"#utility.yul\":9003:9029   */\n      swap1\n      pop\n        /* \"#utility.yul\":9039:9110   */\n      tag_611\n        /* \"#utility.yul\":9107:9108   */\n      0x00\n        /* \"#utility.yul\":9096:9105   */\n      dup4\n        /* \"#utility.yul\":9092:9109   */\n      add\n        /* \"#utility.yul\":9083:9089   */\n      dup5\n        /* \"#utility.yul\":9039:9110   */\n      tag_426\n      jump\t// in\n    tag_611:\n        /* \"#utility.yul\":8895:9117   */\n      swap3\n      swap2\n      pop\n      pop\n      jump\t// out\n        /* \"#utility.yul\":9123:9249   */\n    tag_427:\n        /* \"#utility.yul\":9160:9167   */\n      0x00\n        /* \"#utility.yul\":9200:9242   */\n      0xffffffffffffffffffffffffffffffffffffffff\n        /* \"#utility.yul\":9193:9198   */\n      dup3\n        /* \"#utility.yul\":9189:9243   */\n      and\n        /* \"#utility.yul\":9178:9243   */\n      swap1\n      pop\n        /* \"#utility.yul\":9123:9249   */\n      swap2\n      swap1\n      pop\n      jump\t// out\n        /* \"#utility.yul\":9255:9351   */\n    tag_428:\n        /* \"#utility.yul\":9292:9299   */\n      0x00\n        /* \"#utility.yul\":9321:9345   */\n      tag_614\n        /* \"#utility.yul\":9339:9344   */\n      dup3\n        /* \"#utility.yul\":9321:9345   */\n      tag_427\n      jump\t// in\n    tag_614:\n        /* \"#utility.yul\":9310:9345   */\n      swap1\n      pop\n        /* \"#utility.yul\":9255:9351   */\n      swap2\n      swap1\n      pop\n      jump\t// out\n        /* \"#utility.yul\":9357:9479   */\n    tag_429:\n        /* \"#utility.yul\":9430:9454   */\n      tag_616\n        /* \"#utility.yul\":9448:9453   */\n      dup2\n        /* \"#utility.yul\":9430:9454   */\n      tag_428\n      jump\t// in\n    tag_616:\n        /* \"#utility.yul\":9423:9428   */\n      dup2\n        /* \"#utility.yul\":9420:9455   */\n      eq\n        /* \"#utility.yul\":9410:9473   */\n      tag_617\n      jumpi\n        /* \"#utility.yul\":9469:9470   */\n      0x00\n        /* \"#utility.yul\":9466:9467   */\n      dup1\n        /* \"#utility.yul\":9459:9471   */\n      revert\n        /* \"#utility.yul\":9410:9473   */\n    tag_617:\n        /* \"#utility.yul\":9357:9479   */\n      pop\n      jump\t// out\n        /* \"#utility.yul\":9485:9624   */\n    tag_430:\n        /* \"#utility.yul\":9531:9536   */\n      0x00\n        /* \"#utility.yul\":9569:9575   */\n      dup2\n        /* \"#utility.yul\":9556:9576   */\n      calldataload\n        /* \"#utility.yul\":9547:9576   */\n      swap1\n      pop\n        /* \"#utility.yul\":9585:9618   */\n      tag_619\n        /* \"#utility.yul\":9612:9617   */\n      dup2\n        /* \"#utility.yul\":9585:9618   */\n      tag_429\n      jump\t// in\n    tag_619:\n        /* \"#utility.yul\":9485:9624   */\n      swap3\n      swap2\n      pop\n      pop\n      jump\t// out\n        /* \"#utility.yul\":9630:9959   */\n    tag_83:\n        /* \"#utility.yul\":9689:9695   */\n      0x00\n        /* \"#utility.yul\":9738:9740   */\n      0x20\n        /* \"#utility.yul\":9726:9735   */\n      dup3\n        /* \"#utility.yul\":9717:9724   */\n      dup5\n        /* \"#utility.yul\":9713:9736   */\n      sub\n        /* \"#utility.yul\":9709:9741   */\n      slt\n        /* \"#utility.yul\":9706:9825   */\n      iszero\n      tag_621\n      jumpi\n        /* \"#utility.yul\":9744:9823   */\n      tag_622\n      tag_399\n      jump\t// in\n    tag_622:\n        /* \"#utility.yul\":9706:9825   */\n    tag_621:\n        /* \"#utility.yul\":9864:9865   */\n      0x00\n        /* \"#utility.yul\":9889:9942   */\n      tag_623\n        /* \"#utility.yul\":9934:9941   */\n      dup5\n        /* \"#utility.yul\":9925:9931   */\n      dup3\n        /* \"#utility.yul\":9914:9923   */\n      dup6\n        /* \"#utility.yul\":9910:9932   */\n      add\n        /* \"#utility.yul\":9889:9942   */\n      tag_430\n      jump\t// in\n    tag_623:\n        /* \"#utility.yul\":9879:9942   */\n      swap2\n      pop\n        /* \"#utility.yul\":9835:9952   */\n      pop\n        /* \"#utility.yul\":9630:9959   */\n      swap3\n      swap2\n      pop\n      pop\n      jump\t// out\n        /* \"#utility.yul\":9965:10273   */\n    tag_431:\n        /* \"#utility.yul\":10027:10031   */\n      0x00\n        /* \"#utility.yul\":10117:10135   */\n      0xffffffffffffffff\n        /* \"#utility.yul\":10109:10115   */\n      dup3\n        /* \"#utility.yul\":10106:10136   */\n      gt\n        /* \"#utility.yul\":10103:10159   */\n      iszero\n      tag_625\n      jumpi\n        /* \"#utility.yul\":10139:10157   */\n      tag_626\n      tag_385\n      jump\t// in\n    tag_626:\n        /* \"#utility.yul\":10103:10159   */\n    tag_625:\n        /* \"#utility.yul\":10177:10206   */\n      tag_627\n        /* \"#utility.yul\":10199:10205   */\n      dup3\n        /* \"#utility.yul\":10177:10206   */\n      tag_418\n      jump\t// in\n    tag_627:\n        /* \"#utility.yul\":10169:10206   */\n      swap1\n      pop\n        /* \"#utility.yul\":10261:10265   */\n      0x20\n        /* \"#utility.yul\":10255:10259   */\n      dup2\n        /* \"#utility.yul\":10251:10266   */\n      add\n        /* \"#utility.yul\":10243:10266   */\n      swap1\n      pop\n        /* \"#utility.yul\":9965:10273   */\n      swap2\n      swap1\n      pop\n      jump\t// out\n        /* \"#utility.yul\":10279:10704   */\n    tag_432:\n        /* \"#utility.yul\":10357:10362   */\n      0x00\n        /* \"#utility.yul\":10382:10448   */\n      tag_629\n        /* \"#utility.yul\":10398:10447   */\n      tag_630\n        /* \"#utility.yul\":10440:10446   */\n      dup5\n        /* \"#utility.yul\":10398:10447   */\n      tag_431\n      jump\t// in\n    tag_630:\n        /* \"#utility.yul\":10382:10448   */\n      tag_420\n      jump\t// in\n    tag_629:\n        /* \"#utility.yul\":10373:10448   */\n      swap1\n      pop\n        /* \"#utility.yul\":10471:10477   */\n      dup3\n        /* \"#utility.yul\":10464:10469   */\n      dup2\n        /* \"#utility.yul\":10457:10478   */\n      mstore\n        /* \"#utility.yul\":10509:10513   */\n      0x20\n        /* \"#utility.yul\":10502:10507   */\n      dup2\n        /* \"#utility.yul\":10498:10514   */\n      add\n        /* \"#utility.yul\":10547:10550   */\n      dup5\n        /* \"#utility.yul\":10538:10544   */\n      dup5\n        /* \"#utility.yul\":10533:10536   */\n      dup5\n        /* \"#utility.yul\":10529:10545   */\n      add\n        /* \"#utility.yul\":10526:10551   */\n      gt\n        /* \"#utility.yul\":10523:10635   */\n      iszero\n      tag_631\n      jumpi\n        /* \"#utility.yul\":10554:10633   */\n      tag_632\n      tag_417\n      jump\t// in\n    tag_632:\n        /* \"#utility.yul\":10523:10635   */\n    tag_631:\n        /* \"#utility.yul\":10644:10698   */\n      tag_633\n        /* \"#utility.yul\":10691:10697   */\n      dup5\n        /* \"#utility.yul\":10686:10689   */\n      dup3\n        /* \"#utility.yul\":10681:10684   */\n      dup6\n        /* \"#utility.yul\":10644:10698   */\n      tag_422\n      jump\t// in\n    tag_633:\n        /* \"#utility.yul\":10363:10704   */\n      pop\n        /* \"#utility.yul\":10279:10704   */\n      swap4\n      swap3\n      pop\n      pop\n      pop\n      jump\t// out\n        /* \"#utility.yul\":10724:11064   */\n    tag_433:\n        /* \"#utility.yul\":10780:10785   */\n      0x00\n        /* \"#utility.yul\":10829:10832   */\n      dup3\n        /* \"#utility.yul\":10822:10826   */\n      0x1f\n        /* \"#utility.yul\":10814:10820   */\n      dup4\n        /* \"#utility.yul\":10810:10827   */\n      add\n        /* \"#utility.yul\":10806:10833   */\n      slt\n        /* \"#utility.yul\":10796:10918   */\n      tag_635\n      jumpi\n        /* \"#utility.yul\":10837:10916   */\n      tag_636\n      tag_404\n      jump\t// in\n    tag_636:\n        /* \"#utility.yul\":10796:10918   */\n    tag_635:\n        /* \"#utility.yul\":10954:10960   */\n      dup2\n        /* \"#utility.yul\":10941:10961   */\n      calldataload\n        /* \"#utility.yul\":10979:11058   */\n      tag_637\n        /* \"#utility.yul\":11054:11057   */\n      dup5\n        /* \"#utility.yul\":11046:11052   */\n      dup3\n        /* \"#utility.yul\":11039:11043   */\n      0x20\n        /* \"#utility.yul\":11031:11037   */\n      dup7\n        /* \"#utility.yul\":11027:11044   */\n      add\n        /* \"#utility.yul\":10979:11058   */\n      tag_432\n      jump\t// in\n    tag_637:\n        /* \"#utility.yul\":10970:11058   */\n      swap2\n      pop\n        /* \"#utility.yul\":10786:11064   */\n      pop\n        /* \"#utility.yul\":10724:11064   */\n      swap3\n      swap2\n      pop\n      pop\n      jump\t// out\n        /* \"#utility.yul\":11070:11579   */\n    tag_87:\n        /* \"#utility.yul\":11139:11145   */\n      0x00\n        /* \"#utility.yul\":11188:11190   */\n      0x20\n        /* \"#utility.yul\":11176:11185   */\n      dup3\n        /* \"#utility.yul\":11167:11174   */\n      dup5\n        /* \"#utility.yul\":11163:11186   */\n      sub\n        /* \"#utility.yul\":11159:11191   */\n      slt\n        /* \"#utility.yul\":11156:11275   */\n      iszero\n      tag_639\n      jumpi\n        /* \"#utility.yul\":11194:11273   */\n      tag_640\n      tag_399\n      jump\t// in\n    tag_640:\n        /* \"#utility.yul\":11156:11275   */\n    tag_639:\n        /* \"#utility.yul\":11342:11343   */\n      0x00\n        /* \"#utility.yul\":11331:11340   */\n      dup3\n        /* \"#utility.yul\":11327:11344   */\n      add\n        /* \"#utility.yul\":11314:11345   */\n      calldataload\n        /* \"#utility.yul\":11372:11390   */\n      0xffffffffffffffff\n        /* \"#utility.yul\":11364:11370   */\n      dup2\n        /* \"#utility.yul\":11361:11391   */\n      gt\n        /* \"#utility.yul\":11358:11475   */\n      iszero\n      tag_641\n      jumpi\n        /* \"#utility.yul\":11394:11473   */\n      tag_642\n      tag_400\n      jump\t// in\n    tag_642:\n        /* \"#utility.yul\":11358:11475   */\n    tag_641:\n        /* \"#utility.yul\":11499:11562   */\n      tag_643\n        /* \"#utility.yul\":11554:11561   */\n      dup5\n        /* \"#utility.yul\":11545:11551   */\n      dup3\n        /* \"#utility.yul\":11534:11543   */\n      dup6\n        /* \"#utility.yul\":11530:11552   */\n      add\n        /* \"#utility.yul\":11499:11562   */\n      tag_433\n      jump\t// in\n    tag_643:\n        /* \"#utility.yul\":11489:11562   */\n      swap2\n      pop\n        /* \"#utility.yul\":11285:11572   */\n      pop\n        /* \"#utility.yul\":11070:11579   */\n      swap3\n      swap2\n      pop\n      pop\n      jump\t// out\n        /* \"#utility.yul\":11585:11684   */\n    tag_434:\n        /* \"#utility.yul\":11637:11643   */\n      0x00\n        /* \"#utility.yul\":11671:11676   */\n      dup2\n        /* \"#utility.yul\":11665:11677   */\n      mload\n        /* \"#utility.yul\":11655:11677   */\n      swap1\n      pop\n        /* \"#utility.yul\":11585:11684   */\n      swap2\n      swap1\n      pop\n      jump\t// out\n        /* \"#utility.yul\":11690:11859   */\n    tag_435:\n        /* \"#utility.yul\":11774:11785   */\n      0x00\n        /* \"#utility.yul\":11808:11814   */\n      dup3\n        /* \"#utility.yul\":11803:11806   */\n      dup3\n        /* \"#utility.yul\":11796:11815   */\n      mstore\n        /* \"#utility.yul\":11848:11852   */\n      0x20\n        /* \"#utility.yul\":11843:11846   */\n      dup3\n        /* \"#utility.yul\":11839:11853   */\n      add\n        /* \"#utility.yul\":11824:11853   */\n      swap1\n      pop\n        /* \"#utility.yul\":11690:11859   */\n      swap3\n      swap2\n      pop\n      pop\n      jump\t// out\n        /* \"#utility.yul\":11865:12111   */\n    tag_436:\n        /* \"#utility.yul\":11946:11947   */\n      0x00\n        /* \"#utility.yul\":11956:12069   */\n    tag_647:\n        /* \"#utility.yul\":11970:11976   */\n      dup4\n        /* \"#utility.yul\":11967:11968   */\n      dup2\n        /* \"#utility.yul\":11964:11977   */\n      lt\n        /* \"#utility.yul\":11956:12069   */\n      iszero\n      tag_649\n      jumpi\n        /* \"#utility.yul\":12055:12056   */\n      dup1\n        /* \"#utility.yul\":12050:12053   */\n      dup3\n        /* \"#utility.yul\":12046:12057   */\n      add\n        /* \"#utility.yul\":12040:12058   */\n      mload\n        /* \"#utility.yul\":12036:12037   */\n      dup2\n        /* \"#utility.yul\":12031:12034   */\n      dup5\n        /* \"#utility.yul\":12027:12038   */\n      add\n        /* \"#utility.yul\":12020:12059   */\n      mstore\n        /* \"#utility.yul\":11992:11994   */\n      0x20\n        /* \"#utility.yul\":11989:11990   */\n      dup2\n        /* \"#utility.yul\":11985:11995   */\n      add\n        /* \"#utility.yul\":11980:11995   */\n      swap1\n      pop\n        /* \"#utility.yul\":11956:12069   */\n      jump(tag_647)\n    tag_649:\n        /* \"#utility.yul\":12103:12104   */\n      0x00\n        /* \"#utility.yul\":12094:12100   */\n      dup5\n        /* \"#utility.yul\":12089:12092   */\n      dup5\n        /* \"#utility.yul\":12085:12101   */\n      add\n        /* \"#utility.yul\":12078:12105   */\n      mstore\n        /* \"#utility.yul\":11927:12111   */\n      pop\n        /* \"#utility.yul\":11865:12111   */\n      pop\n      pop\n      pop\n      jump\t// out\n        /* \"#utility.yul\":12117:12494   */\n    tag_437:\n        /* \"#utility.yul\":12205:12208   */\n      0x00\n        /* \"#utility.yul\":12233:12272   */\n      tag_651\n        /* \"#utility.yul\":12266:12271   */\n      dup3\n        /* \"#utility.yul\":12233:12272   */\n      tag_434\n      jump\t// in\n    tag_651:\n        /* \"#utility.yul\":12288:12359   */\n      tag_652\n        /* \"#utility.yul\":12352:12358   */\n      dup2\n        /* \"#utility.yul\":12347:12350   */\n      dup6\n        /* \"#utility.yul\":12288:12359   */\n      tag_435\n      jump\t// in\n    tag_652:\n        /* \"#utility.yul\":12281:12359   */\n      swap4\n      pop\n        /* \"#utility.yul\":12368:12433   */\n      tag_653\n        /* \"#utility.yul\":12426:12432   */\n      dup2\n        /* \"#utility.yul\":12421:12424   */\n      dup6\n        /* \"#utility.yul\":12414:12418   */\n      0x20\n        /* \"#utility.yul\":12407:12412   */\n      dup7\n        /* \"#utility.yul\":12403:12419   */\n      add\n        /* \"#utility.yul\":12368:12433   */\n      tag_436\n      jump\t// in\n    tag_653:\n        /* \"#utility.yul\":12458:12487   */\n      tag_654\n        /* \"#utility.yul\":12480:12486   */\n      dup2\n        /* \"#utility.yul\":12458:12487   */\n      tag_418\n      jump\t// in\n    tag_654:\n        /* \"#utility.yul\":12453:12456   */\n      dup5\n        /* \"#utility.yul\":12449:12488   */\n      add\n        /* \"#utility.yul\":12442:12488   */\n      swap2\n      pop\n        /* \"#utility.yul\":12209:12494   */\n      pop\n        /* \"#utility.yul\":12117:12494   */\n      swap3\n      swap2\n      pop\n      pop\n      jump\t// out\n        /* \"#utility.yul\":12500:12813   */\n    tag_100:\n        /* \"#utility.yul\":12613:12617   */\n      0x00\n        /* \"#utility.yul\":12651:12653   */\n      0x20\n        /* \"#utility.yul\":12640:12649   */\n      dup3\n        /* \"#utility.yul\":12636:12654   */\n      add\n        /* \"#utility.yul\":12628:12654   */\n      swap1\n      pop\n        /* \"#utility.yul\":12700:12709   */\n      dup2\n        /* \"#utility.yul\":12694:12698   */\n      dup2\n        /* \"#utility.yul\":12690:12710   */\n      sub\n        /* \"#utility.yul\":12686:12687   */\n      0x00\n        /* \"#utility.yul\":12675:12684   */\n      dup4\n        /* \"#utility.yul\":12671:12688   */\n      add\n        /* \"#utility.yul\":12664:12711   */\n      mstore\n        /* \"#utility.yul\":12728:12806   */\n      tag_656\n        /* \"#utility.yul\":12801:12805   */\n      dup2\n        /* \"#utility.yul\":12792:12798   */\n      dup5\n        /* \"#utility.yul\":12728:12806   */\n      tag_437\n      jump\t// in\n    tag_656:\n        /* \"#utility.yul\":12720:12806   */\n      swap1\n      pop\n        /* \"#utility.yul\":12500:12813   */\n      swap3\n      swap2\n      pop\n      pop\n      jump\t// out\n        /* \"#utility.yul\":12819:12917   */\n    tag_438:\n        /* \"#utility.yul\":12870:12876   */\n      0x00\n        /* \"#utility.yul\":12904:12909   */\n      dup2\n        /* \"#utility.yul\":12898:12910   */\n      mload\n        /* \"#utility.yul\":12888:12910   */\n      swap1\n      pop\n        /* \"#utility.yul\":12819:12917   */\n      swap2\n      swap1\n      pop\n      jump\t// out\n        /* \"#utility.yul\":12923:13091   */\n    tag_439:\n        /* \"#utility.yul\":13006:13017   */\n      0x00\n        /* \"#utility.yul\":13040:13046   */\n      dup3\n        /* \"#utility.yul\":13035:13038   */\n      dup3\n        /* \"#utility.yul\":13028:13047   */\n      mstore\n        /* \"#utility.yul\":13080:13084   */\n      0x20\n        /* \"#utility.yul\":13075:13078   */\n      dup3\n        /* \"#utility.yul\":13071:13085   */\n      add\n        /* \"#utility.yul\":13056:13085   */\n      swap1\n      pop\n        /* \"#utility.yul\":12923:13091   */\n      swap3\n      swap2\n      pop\n      pop\n      jump\t// out\n        /* \"#utility.yul\":13097:13470   */\n    tag_440:\n        /* \"#utility.yul\":13183:13186   */\n      0x00\n        /* \"#utility.yul\":13211:13249   */\n      tag_660\n        /* \"#utility.yul\":13243:13248   */\n      dup3\n        /* \"#utility.yul\":13211:13249   */\n      tag_438\n      jump\t// in\n    tag_660:\n        /* \"#utility.yul\":13265:13335   */\n      tag_661\n        /* \"#utility.yul\":13328:13334   */\n      dup2\n        /* \"#utility.yul\":13323:13326   */\n      dup6\n        /* \"#utility.yul\":13265:13335   */\n      tag_439\n      jump\t// in\n    tag_661:\n        /* \"#utility.yul\":13258:13335   */\n      swap4\n      pop\n        /* \"#utility.yul\":13344:13409   */\n      tag_662\n        /* \"#utility.yul\":13402:13408   */\n      dup2\n        /* \"#utility.yul\":13397:13400   */\n      dup6\n        /* \"#utility.yul\":13390:13394   */\n      0x20\n        /* \"#utility.yul\":13383:13388   */\n      dup7\n        /* \"#utility.yul\":13379:13395   */\n      add\n        /* \"#utility.yul\":13344:13409   */\n      tag_436\n      jump\t// in\n    tag_662:\n        /* \"#utility.yul\":13434:13463   */\n      tag_663\n        /* \"#utility.yul\":13456:13462   */\n      dup2\n        /* \"#utility.yul\":13434:13463   */\n      tag_418\n      jump\t// in\n    tag_663:\n        /* \"#utility.yul\":13429:13432   */\n      dup5\n        /* \"#utility.yul\":13425:13464   */\n      add\n        /* \"#utility.yul\":13418:13464   */\n      swap2\n      pop\n        /* \"#utility.yul\":13187:13470   */\n      pop\n        /* \"#utility.yul\":13097:13470   */\n      swap3\n      swap2\n      pop\n      pop\n      jump\t// out\n        /* \"#utility.yul\":13476:13785   */\n    tag_106:\n        /* \"#utility.yul\":13587:13591   */\n      0x00\n        /* \"#utility.yul\":13625:13627   */\n      0x20\n        /* \"#utility.yul\":13614:13623   */\n      dup3\n        /* \"#utility.yul\":13610:13628   */\n      add\n        /* \"#utility.yul\":13602:13628   */\n      swap1\n      pop\n        /* \"#utility.yul\":13674:13683   */\n      dup2\n        /* \"#utility.yul\":13668:13672   */\n      dup2\n        /* \"#utility.yul\":13664:13684   */\n      sub\n        /* \"#utility.yul\":13660:13661   */\n      0x00\n        /* \"#utility.yul\":13649:13658   */\n      dup4\n        /* \"#utility.yul\":13645:13662   */\n      add\n        /* \"#utility.yul\":13638:13685   */\n      mstore\n        /* \"#utility.yul\":13702:13778   */\n      tag_665\n        /* \"#utility.yul\":13773:13777   */\n      dup2\n        /* \"#utility.yul\":13764:13770   */\n      dup5\n        /* \"#utility.yul\":13702:13778   */\n      tag_440\n      jump\t// in\n    tag_665:\n        /* \"#utility.yul\":13694:13778   */\n      swap1\n      pop\n        /* \"#utility.yul\":13476:13785   */\n      swap3\n      swap2\n      pop\n      pop\n      jump\t// out\n        /* \"#utility.yul\":13791:14261   */\n    tag_110:\n        /* \"#utility.yul\":13857:13863   */\n      0x00\n        /* \"#utility.yul\":13865:13871   */\n      dup1\n        /* \"#utility.yul\":13914:13916   */\n      0x40\n        /* \"#utility.yul\":13902:13911   */\n      dup4\n        /* \"#utility.yul\":13893:13900   */\n      dup6\n        /* \"#utility.yul\":13889:13912   */\n      sub\n        /* \"#utility.yul\":13885:13917   */\n      slt\n        /* \"#utility.yul\":13882:14001   */\n      iszero\n      tag_667\n      jumpi\n        /* \"#utility.yul\":13920:13999   */\n      tag_668\n      tag_399\n      jump\t// in\n    tag_668:\n        /* \"#utility.yul\":13882:14001   */\n    tag_667:\n        /* \"#utility.yul\":14040:14041   */\n      0x00\n        /* \"#utility.yul\":14065:14117   */\n      tag_669\n        /* \"#utility.yul\":14109:14116   */\n      dup6\n        /* \"#utility.yul\":14100:14106   */\n      dup3\n        /* \"#utility.yul\":14089:14098   */\n      dup7\n        /* \"#utility.yul\":14085:14107   */\n      add\n        /* \"#utility.yul\":14065:14117   */\n      tag_403\n      jump\t// in\n    tag_669:\n        /* \"#utility.yul\":14055:14117   */\n      swap3\n      pop\n        /* \"#utility.yul\":14011:14127   */\n      pop\n        /* \"#utility.yul\":14166:14168   */\n      0x20\n        /* \"#utility.yul\":14192:14244   */\n      tag_670\n        /* \"#utility.yul\":14236:14243   */\n      dup6\n        /* \"#utility.yul\":14227:14233   */\n      dup3\n        /* \"#utility.yul\":14216:14225   */\n      dup7\n        /* \"#utility.yul\":14212:14234   */\n      add\n        /* \"#utility.yul\":14192:14244   */\n      tag_403\n      jump\t// in\n    tag_670:\n        /* \"#utility.yul\":14182:14244   */\n      swap2\n      pop\n        /* \"#utility.yul\":14137:14254   */\n      pop\n        /* \"#utility.yul\":13791:14261   */\n      swap3\n      pop\n      swap3\n      swap1\n      pop\n      jump\t// out\n        /* \"#utility.yul\":14267:14385   */\n    tag_441:\n        /* \"#utility.yul\":14354:14378   */\n      tag_672\n        /* \"#utility.yul\":14372:14377   */\n      dup2\n        /* \"#utility.yul\":14354:14378   */\n      tag_428\n      jump\t// in\n    tag_672:\n        /* \"#utility.yul\":14349:14352   */\n      dup3\n        /* \"#utility.yul\":14342:14379   */\n      mstore\n        /* \"#utility.yul\":14267:14385   */\n      pop\n      pop\n      jump\t// out\n        /* \"#utility.yul\":14391:14613   */\n    tag_117:\n        /* \"#utility.yul\":14484:14488   */\n      0x00\n        /* \"#utility.yul\":14522:14524   */\n      0x20\n        /* \"#utility.yul\":14511:14520   */\n      dup3\n        /* \"#utility.yul\":14507:14525   */\n      add\n        /* \"#utility.yul\":14499:14525   */\n      swap1\n      pop\n        /* \"#utility.yul\":14535:14606   */\n      tag_674\n        /* \"#utility.yul\":14603:14604   */\n      0x00\n        /* \"#utility.yul\":14592:14601   */\n      dup4\n        /* \"#utility.yul\":14588:14605   */\n      add\n        /* \"#utility.yul\":14579:14585   */\n      dup5\n        /* \"#utility.yul\":14535:14606   */\n      tag_441\n      jump\t// in\n    tag_674:\n        /* \"#utility.yul\":14391:14613   */\n      swap3\n      swap2\n      pop\n      pop\n      jump\t// out\n        /* \"#utility.yul\":14619:14679   */\n    tag_442:\n        /* \"#utility.yul\":14647:14650   */\n      0x00\n        /* \"#utility.yul\":14668:14673   */\n      dup2\n        /* \"#utility.yul\":14661:14673   */\n      swap1\n      pop\n        /* \"#utility.yul\":14619:14679   */\n      swap2\n      swap1\n      pop\n      jump\t// out\n        /* \"#utility.yul\":14685:14827   */\n    tag_443:\n        /* \"#utility.yul\":14735:14744   */\n      0x00\n        /* \"#utility.yul\":14768:14821   */\n      tag_677\n        /* \"#utility.yul\":14786:14820   */\n      tag_678\n        /* \"#utility.yul\":14795:14819   */\n      tag_679\n        /* \"#utility.yul\":14813:14818   */\n      dup5\n        /* \"#utility.yul\":14795:14819   */\n      tag_427\n      jump\t// in\n    tag_679:\n        /* \"#utility.yul\":14786:14820   */\n      tag_442\n      jump\t// in\n    tag_678:\n        /* \"#utility.yul\":14768:14821   */\n      tag_427\n      jump\t// in\n    tag_677:\n        /* \"#utility.yul\":14755:14821   */\n      swap1\n      pop\n        /* \"#utility.yul\":14685:14827   */\n      swap2\n      swap1\n      pop\n      jump\t// out\n        /* \"#utility.yul\":14833:14959   */\n    tag_444:\n        /* \"#utility.yul\":14883:14892   */\n      0x00\n        /* \"#utility.yul\":14916:14953   */\n      tag_681\n        /* \"#utility.yul\":14947:14952   */\n      dup3\n        /* \"#utility.yul\":14916:14953   */\n      tag_443\n      jump\t// in\n    tag_681:\n        /* \"#utility.yul\":14903:14953   */\n      swap1\n      pop\n        /* \"#utility.yul\":14833:14959   */\n      swap2\n      swap1\n      pop\n      jump\t// out\n        /* \"#utility.yul\":14965:15118   */\n    tag_445:\n        /* \"#utility.yul\":15042:15051   */\n      0x00\n        /* \"#utility.yul\":15075:15112   */\n      tag_683\n        /* \"#utility.yul\":15106:15111   */\n      dup3\n        /* \"#utility.yul\":15075:15112   */\n      tag_444\n      jump\t// in\n    tag_683:\n        /* \"#utility.yul\":15062:15112   */\n      swap1\n      pop\n        /* \"#utility.yul\":14965:15118   */\n      swap2\n      swap1\n      pop\n      jump\t// out\n        /* \"#utility.yul\":15124:15309   */\n    tag_446:\n        /* \"#utility.yul\":15238:15302   */\n      tag_685\n        /* \"#utility.yul\":15296:15301   */\n      dup2\n        /* \"#utility.yul\":15238:15302   */\n      tag_445\n      jump\t// in\n    tag_685:\n        /* \"#utility.yul\":15233:15236   */\n      dup3\n        /* \"#utility.yul\":15226:15303   */\n      mstore\n        /* \"#utility.yul\":15124:15309   */\n      pop\n      pop\n      jump\t// out\n        /* \"#utility.yul\":15315:15591   */\n    tag_135:\n        /* \"#utility.yul\":15435:15439   */\n      0x00\n        /* \"#utility.yul\":15473:15475   */\n      0x20\n        /* \"#utility.yul\":15462:15471   */\n      dup3\n        /* \"#utility.yul\":15458:15476   */\n      add\n        /* \"#utility.yul\":15450:15476   */\n      swap1\n      pop\n        /* \"#utility.yul\":15486:15584   */\n      tag_687\n        /* \"#utility.yul\":15581:15582   */\n      0x00\n        /* \"#utility.yul\":15570:15579   */\n      dup4\n        /* \"#utility.yul\":15566:15583   */\n      add\n        /* \"#utility.yul\":15557:15563   */\n      dup5\n        /* \"#utility.yul\":15486:15584   */\n      tag_446\n      jump\t// in\n    tag_687:\n        /* \"#utility.yul\":15315:15591   */\n      swap3\n      swap2\n      pop\n      pop\n      jump\t// out\n        /* \"#utility.yul\":15597:16556   */\n    tag_147:\n        /* \"#utility.yul\":15692:15698   */\n      0x00\n        /* \"#utility.yul\":15700:15706   */\n      dup1\n        /* \"#utility.yul\":15708:15714   */\n      0x00\n        /* \"#utility.yul\":15716:15722   */\n      dup1\n        /* \"#utility.yul\":15724:15730   */\n      0x00\n        /* \"#utility.yul\":15773:15776   */\n      0x80\n        /* \"#utility.yul\":15761:15770   */\n      dup7\n        /* \"#utility.yul\":15752:15759   */\n      dup9\n        /* \"#utility.yul\":15748:15771   */\n      sub\n        /* \"#utility.yul\":15744:15777   */\n      slt\n        /* \"#utility.yul\":15741:15861   */\n      iszero\n      tag_689\n      jumpi\n        /* \"#utility.yul\":15780:15859   */\n      tag_690\n      tag_399\n      jump\t// in\n    tag_690:\n        /* \"#utility.yul\":15741:15861   */\n    tag_689:\n        /* \"#utility.yul\":15900:15901   */\n      0x00\n        /* \"#utility.yul\":15925:15977   */\n      tag_691\n        /* \"#utility.yul\":15969:15976   */\n      dup9\n        /* \"#utility.yul\":15960:15966   */\n      dup3\n        /* \"#utility.yul\":15949:15958   */\n      dup10\n        /* \"#utility.yul\":15945:15967   */\n      add\n        /* \"#utility.yul\":15925:15977   */\n      tag_403\n      jump\t// in\n    tag_691:\n        /* \"#utility.yul\":15915:15977   */\n      swap6\n      pop\n        /* \"#utility.yul\":15871:15987   */\n      pop\n        /* \"#utility.yul\":16026:16028   */\n      0x20\n        /* \"#utility.yul\":16052:16104   */\n      tag_692\n        /* \"#utility.yul\":16096:16103   */\n      dup9\n        /* \"#utility.yul\":16087:16093   */\n      dup3\n        /* \"#utility.yul\":16076:16085   */\n      dup10\n        /* \"#utility.yul\":16072:16094   */\n      add\n        /* \"#utility.yul\":16052:16104   */\n      tag_403\n      jump\t// in\n    tag_692:\n        /* \"#utility.yul\":16042:16104   */\n      swap5\n      pop\n        /* \"#utility.yul\":15997:16114   */\n      pop\n        /* \"#utility.yul\":16153:16155   */\n      0x40\n        /* \"#utility.yul\":16179:16232   */\n      tag_693\n        /* \"#utility.yul\":16224:16231   */\n      dup9\n        /* \"#utility.yul\":16215:16221   */\n      dup3\n        /* \"#utility.yul\":16204:16213   */\n      dup10\n        /* \"#utility.yul\":16200:16222   */\n      add\n        /* \"#utility.yul\":16179:16232   */\n      tag_413\n      jump\t// in\n    tag_693:\n        /* \"#utility.yul\":16169:16232   */\n      swap4\n      pop\n        /* \"#utility.yul\":16124:16242   */\n      pop\n        /* \"#utility.yul\":16309:16311   */\n      0x60\n        /* \"#utility.yul\":16298:16307   */\n      dup7\n        /* \"#utility.yul\":16294:16312   */\n      add\n        /* \"#utility.yul\":16281:16313   */\n      calldataload\n        /* \"#utility.yul\":16340:16358   */\n      0xffffffffffffffff\n        /* \"#utility.yul\":16332:16338   */\n      dup2\n        /* \"#utility.yul\":16329:16359   */\n      gt\n        /* \"#utility.yul\":16326:16443   */\n      iszero\n      tag_694\n      jumpi\n        /* \"#utility.yul\":16362:16441   */\n      tag_695\n      tag_400\n      jump\t// in\n    tag_695:\n        /* \"#utility.yul\":16326:16443   */\n    tag_694:\n        /* \"#utility.yul\":16475:16539   */\n      tag_696\n        /* \"#utility.yul\":16531:16538   */\n      dup9\n        /* \"#utility.yul\":16522:16528   */\n      dup3\n        /* \"#utility.yul\":16511:16520   */\n      dup10\n        /* \"#utility.yul\":16507:16529   */\n      add\n        /* \"#utility.yul\":16475:16539   */\n      tag_407\n      jump\t// in\n    tag_696:\n        /* \"#utility.yul\":16457:16539   */\n      swap3\n      pop\n      swap3\n      pop\n        /* \"#utility.yul\":16252:16549   */\n      pop\n        /* \"#utility.yul\":15597:16556   */\n      swap3\n      swap6\n      pop\n      swap3\n      swap6\n      swap1\n      swap4\n      pop\n      jump\t// out\n        /* \"#utility.yul\":16562:17177   */\n    tag_155:\n        /* \"#utility.yul\":16637:16643   */\n      0x00\n        /* \"#utility.yul\":16645:16651   */\n      dup1\n        /* \"#utility.yul\":16653:16659   */\n      0x00\n        /* \"#utility.yul\":16702:16704   */\n      0x60\n        /* \"#utility.yul\":16690:16699   */\n      dup5\n        /* \"#utility.yul\":16681:16688   */\n      dup7\n        /* \"#utility.yul\":16677:16700   */\n      sub\n        /* \"#utility.yul\":16673:16705   */\n      slt\n        /* \"#utility.yul\":16670:16789   */\n      iszero\n      tag_698\n      jumpi\n        /* \"#utility.yul\":16708:16787   */\n      tag_699\n      tag_399\n      jump\t// in\n    tag_699:\n        /* \"#utility.yul\":16670:16789   */\n    tag_698:\n        /* \"#utility.yul\":16828:16829   */\n      0x00\n        /* \"#utility.yul\":16853:16905   */\n      tag_700\n        /* \"#utility.yul\":16897:16904   */\n      dup7\n        /* \"#utility.yul\":16888:16894   */\n      dup3\n        /* \"#utility.yul\":16877:16886   */\n      dup8\n        /* \"#utility.yul\":16873:16895   */\n      add\n        /* \"#utility.yul\":16853:16905   */\n      tag_403\n      jump\t// in\n    tag_700:\n        /* \"#utility.yul\":16843:16905   */\n      swap4\n      pop\n        /* \"#utility.yul\":16799:16915   */\n      pop\n        /* \"#utility.yul\":16954:16956   */\n      0x20\n        /* \"#utility.yul\":16980:17032   */\n      tag_701\n        /* \"#utility.yul\":17024:17031   */\n      dup7\n        /* \"#utility.yul\":17015:17021   */\n      dup3\n        /* \"#utility.yul\":17004:17013   */\n      dup8\n        /* \"#utility.yul\":17000:17022   */\n      add\n        /* \"#utility.yul\":16980:17032   */\n      tag_403\n      jump\t// in\n    tag_701:\n        /* \"#utility.yul\":16970:17032   */\n      swap3\n      pop\n        /* \"#utility.yul\":16925:17042   */\n      pop\n        /* \"#utility.yul\":17081:17083   */\n      0x40\n        /* \"#utility.yul\":17107:17160   */\n      tag_702\n        /* \"#utility.yul\":17152:17159   */\n      dup7\n        /* \"#utility.yul\":17143:17149   */\n      dup3\n        /* \"#utility.yul\":17132:17141   */\n      dup8\n        /* \"#utility.yul\":17128:17150   */\n      add\n        /* \"#utility.yul\":17107:17160   */\n      tag_413\n      jump\t// in\n    tag_702:\n        /* \"#utility.yul\":17097:17160   */\n      swap2\n      pop\n        /* \"#utility.yul\":17052:17170   */\n      pop\n        /* \"#utility.yul\":16562:17177   */\n      swap3\n      pop\n      swap3\n      pop\n      swap3\n      jump\t// out\n        /* \"#utility.yul\":17183:17944   */\n    tag_168:\n        /* \"#utility.yul\":17267:17273   */\n      0x00\n        /* \"#utility.yul\":17275:17281   */\n      dup1\n        /* \"#utility.yul\":17283:17289   */\n      0x00\n        /* \"#utility.yul\":17291:17297   */\n      dup1\n        /* \"#utility.yul\":17340:17343   */\n      0x80\n        /* \"#utility.yul\":17328:17337   */\n      dup6\n        /* \"#utility.yul\":17319:17326   */\n      dup8\n        /* \"#utility.yul\":17315:17338   */\n      sub\n        /* \"#utility.yul\":17311:17344   */\n      slt\n        /* \"#utility.yul\":17308:17428   */\n      iszero\n      tag_704\n      jumpi\n        /* \"#utility.yul\":17347:17426   */\n      tag_705\n      tag_399\n      jump\t// in\n    tag_705:\n        /* \"#utility.yul\":17308:17428   */\n    tag_704:\n        /* \"#utility.yul\":17467:17468   */\n      0x00\n        /* \"#utility.yul\":17492:17544   */\n      tag_706\n        /* \"#utility.yul\":17536:17543   */\n      dup8\n        /* \"#utility.yul\":17527:17533   */\n      dup3\n        /* \"#utility.yul\":17516:17525   */\n      dup9\n        /* \"#utility.yul\":17512:17534   */\n      add\n        /* \"#utility.yul\":17492:17544   */\n      tag_403\n      jump\t// in\n    tag_706:\n        /* \"#utility.yul\":17482:17544   */\n      swap5\n      pop\n        /* \"#utility.yul\":17438:17554   */\n      pop\n        /* \"#utility.yul\":17593:17595   */\n      0x20\n        /* \"#utility.yul\":17619:17671   */\n      tag_707\n        /* \"#utility.yul\":17663:17670   */\n      dup8\n        /* \"#utility.yul\":17654:17660   */\n      dup3\n        /* \"#utility.yul\":17643:17652   */\n      dup9\n        /* \"#utility.yul\":17639:17661   */\n      add\n        /* \"#utility.yul\":17619:17671   */\n      tag_403\n      jump\t// in\n    tag_707:\n        /* \"#utility.yul\":17609:17671   */\n      swap4\n      pop\n        /* \"#utility.yul\":17564:17681   */\n      pop\n        /* \"#utility.yul\":17720:17722   */\n      0x40\n        /* \"#utility.yul\":17746:17799   */\n      tag_708\n        /* \"#utility.yul\":17791:17798   */\n      dup8\n        /* \"#utility.yul\":17782:17788   */\n      dup3\n        /* \"#utility.yul\":17771:17780   */\n      dup9\n        /* \"#utility.yul\":17767:17789   */\n      add\n        /* \"#utility.yul\":17746:17799   */\n      tag_430\n      jump\t// in\n    tag_708:\n        /* \"#utility.yul\":17736:17799   */\n      swap3\n      pop\n        /* \"#utility.yul\":17691:17809   */\n      pop\n        /* \"#utility.yul\":17848:17850   */\n      0x60\n        /* \"#utility.yul\":17874:17927   */\n      tag_709\n        /* \"#utility.yul\":17919:17926   */\n      dup8\n        /* \"#utility.yul\":17910:17916   */\n      dup3\n        /* \"#utility.yul\":17899:17908   */\n      dup9\n        /* \"#utility.yul\":17895:17917   */\n      add\n        /* \"#utility.yul\":17874:17927   */\n      tag_413\n      jump\t// in\n    tag_709:\n        /* \"#utility.yul\":17864:17927   */\n      swap2\n      pop\n        /* \"#utility.yul\":17819:17937   */\n      pop\n        /* \"#utility.yul\":17183:17944   */\n      swap3\n      swap6\n      swap2\n      swap5\n      pop\n      swap3\n      pop\n      jump\t// out\n        /* \"#utility.yul\":17950:18130   */\n    tag_447:\n        /* \"#utility.yul\":18090:18122   */\n      0x4c7a4170703a20696e76616c696420656e64706f696e742063616c6c65720000\n        /* \"#utility.yul\":18086:18087   */\n      0x00\n        /* \"#utility.yul\":18078:18084   */\n      dup3\n        /* \"#utility.yul\":18074:18088   */\n      add\n        /* \"#utility.yul\":18067:18123   */\n      mstore\n        /* \"#utility.yul\":17950:18130   */\n      pop\n      jump\t// out\n        /* \"#utility.yul\":18136:18502   */\n    tag_448:\n        /* \"#utility.yul\":18278:18281   */\n      0x00\n        /* \"#utility.yul\":18299:18366   */\n      tag_712\n        /* \"#utility.yul\":18363:18365   */\n      0x1e\n        /* \"#utility.yul\":18358:18361   */\n      dup4\n        /* \"#utility.yul\":18299:18366   */\n      tag_435\n      jump\t// in\n    tag_712:\n        /* \"#utility.yul\":18292:18366   */\n      swap2\n      pop\n        /* \"#utility.yul\":18375:18468   */\n      tag_713\n        /* \"#utility.yul\":18464:18467   */\n      dup3\n        /* \"#utility.yul\":18375:18468   */\n      tag_447\n      jump\t// in\n    tag_713:\n        /* \"#utility.yul\":18493:18495   */\n      0x20\n        /* \"#utility.yul\":18488:18491   */\n      dup3\n        /* \"#utility.yul\":18484:18496   */\n      add\n        /* \"#utility.yul\":18477:18496   */\n      swap1\n      pop\n        /* \"#utility.yul\":18136:18502   */\n      swap2\n      swap1\n      pop\n      jump\t// out\n        /* \"#utility.yul\":18508:18927   */\n    tag_176:\n        /* \"#utility.yul\":18674:18678   */\n      0x00\n        /* \"#utility.yul\":18712:18714   */\n      0x20\n        /* \"#utility.yul\":18701:18710   */\n      dup3\n        /* \"#utility.yul\":18697:18715   */\n      add\n        /* \"#utility.yul\":18689:18715   */\n      swap1\n      pop\n        /* \"#utility.yul\":18761:18770   */\n      dup2\n        /* \"#utility.yul\":18755:18759   */\n      dup2\n        /* \"#utility.yul\":18751:18771   */\n      sub\n        /* \"#utility.yul\":18747:18748   */\n      0x00\n        /* \"#utility.yul\":18736:18745   */\n      dup4\n        /* \"#utility.yul\":18732:18749   */\n      add\n        /* \"#utility.yul\":18725:18772   */\n      mstore\n        /* \"#utility.yul\":18789:18920   */\n      tag_715\n        /* \"#utility.yul\":18915:18919   */\n      dup2\n        /* \"#utility.yul\":18789:18920   */\n      tag_448\n      jump\t// in\n    tag_715:\n        /* \"#utility.yul\":18781:18920   */\n      swap1\n      pop\n        /* \"#utility.yul\":18508:18927   */\n      swap2\n      swap1\n      pop\n      jump\t// out\n        /* \"#utility.yul\":18933:19113   */\n    tag_449:\n        /* \"#utility.yul\":18981:19058   */\n      0x4e487b7100000000000000000000000000000000000000000000000000000000\n        /* \"#utility.yul\":18978:18979   */\n      0x00\n        /* \"#utility.yul\":18971:19059   */\n      mstore\n        /* \"#utility.yul\":19078:19082   */\n      0x22\n        /* \"#utility.yul\":19075:19076   */\n      0x04\n        /* \"#utility.yul\":19068:19083   */\n      mstore\n        /* \"#utility.yul\":19102:19106   */\n      0x24\n        /* \"#utility.yul\":19099:19100   */\n      0x00\n        /* \"#utility.yul\":19092:19107   */\n      revert\n        /* \"#utility.yul\":19119:19439   */\n    tag_178:\n        /* \"#utility.yul\":19163:19169   */\n      0x00\n        /* \"#utility.yul\":19200:19201   */\n      0x02\n        /* \"#utility.yul\":19194:19198   */\n      dup3\n        /* \"#utility.yul\":19190:19202   */\n      div\n        /* \"#utility.yul\":19180:19202   */\n      swap1\n      pop\n        /* \"#utility.yul\":19247:19248   */\n      0x01\n        /* \"#utility.yul\":19241:19245   */\n      dup3\n        /* \"#utility.yul\":19237:19249   */\n      and\n        /* \"#utility.yul\":19268:19286   */\n      dup1\n        /* \"#utility.yul\":19258:19339   */\n      tag_718\n      jumpi\n        /* \"#utility.yul\":19324:19328   */\n      0x7f\n        /* \"#utility.yul\":19316:19322   */\n      dup3\n        /* \"#utility.yul\":19312:19329   */\n      and\n        /* \"#utility.yul\":19302:19329   */\n      swap2\n      pop\n        /* \"#utility.yul\":19258:19339   */\n    tag_718:\n        /* \"#utility.yul\":19386:19388   */\n      0x20\n        /* \"#utility.yul\":19378:19384   */\n      dup3\n        /* \"#utility.yul\":19375:19389   */\n      lt\n        /* \"#utility.yul\":19355:19373   */\n      dup2\n        /* \"#utility.yul\":19352:19390   */\n      sub\n        /* \"#utility.yul\":19349:19433   */\n      tag_719\n      jumpi\n        /* \"#utility.yul\":19405:19423   */\n      tag_720\n      tag_449\n      jump\t// in\n    tag_720:\n        /* \"#utility.yul\":19349:19433   */\n    tag_719:\n        /* \"#utility.yul\":19170:19439   */\n      pop\n        /* \"#utility.yul\":19119:19439   */\n      swap2\n      swap1\n      pop\n      jump\t// out\n        /* \"#utility.yul\":19445:19592   */\n    tag_450:\n        /* \"#utility.yul\":19546:19557   */\n      0x00\n        /* \"#utility.yul\":19583:19586   */\n      dup2\n        /* \"#utility.yul\":19568:19586   */\n      swap1\n      pop\n        /* \"#utility.yul\":19445:19592   */\n      swap3\n      swap2\n      pop\n      pop\n      jump\t// out\n        /* \"#utility.yul\":19620:19947   */\n    tag_451:\n        /* \"#utility.yul\":19734:19737   */\n      0x00\n        /* \"#utility.yul\":19755:19843   */\n      tag_723\n        /* \"#utility.yul\":19836:19842   */\n      dup4\n        /* \"#utility.yul\":19831:19834   */\n      dup6\n        /* \"#utility.yul\":19755:19843   */\n      tag_450\n      jump\t// in\n    tag_723:\n        /* \"#utility.yul\":19748:19843   */\n      swap4\n      pop\n        /* \"#utility.yul\":19853:19909   */\n      tag_724\n        /* \"#utility.yul\":19902:19908   */\n      dup4\n        /* \"#utility.yul\":19897:19900   */\n      dup6\n        /* \"#utility.yul\":19890:19895   */\n      dup5\n        /* \"#utility.yul\":19853:19909   */\n      tag_422\n      jump\t// in\n    tag_724:\n        /* \"#utility.yul\":19934:19940   */\n      dup3\n        /* \"#utility.yul\":19929:19932   */\n      dup5\n        /* \"#utility.yul\":19925:19941   */\n      add\n        /* \"#utility.yul\":19918:19941   */\n      swap1\n      pop\n        /* \"#utility.yul\":19620:19947   */\n      swap4\n      swap3\n      pop\n      pop\n      pop\n      jump\t// out\n        /* \"#utility.yul\":19953:20244   */\n    tag_186:\n        /* \"#utility.yul\":20093:20096   */\n      0x00\n        /* \"#utility.yul\":20115:20218   */\n      tag_726\n        /* \"#utility.yul\":20214:20217   */\n      dup3\n        /* \"#utility.yul\":20205:20211   */\n      dup5\n        /* \"#utility.yul\":20197:20203   */\n      dup7\n        /* \"#utility.yul\":20115:20218   */\n      tag_451\n      jump\t// in\n    tag_726:\n        /* \"#utility.yul\":20108:20218   */\n      swap2\n      pop\n        /* \"#utility.yul\":20235:20238   */\n      dup2\n        /* \"#utility.yul\":20228:20238   */\n      swap1\n      pop\n        /* \"#utility.yul\":19953:20244   */\n      swap4\n      swap3\n      pop\n      pop\n      pop\n      jump\t// out\n        /* \"#utility.yul\":20250:20475   */\n    tag_452:\n        /* \"#utility.yul\":20390:20424   */\n      0x4c7a4170703a20696e76616c696420736f757263652073656e64696e6720636f\n        /* \"#utility.yul\":20386:20387   */\n      0x00\n        /* \"#utility.yul\":20378:20384   */\n      dup3\n        /* \"#utility.yul\":20374:20388   */\n      add\n        /* \"#utility.yul\":20367:20425   */\n      mstore\n        /* \"#utility.yul\":20459:20467   */\n      0x6e74726163740000000000000000000000000000000000000000000000000000\n        /* \"#utility.yul\":20454:20456   */\n      0x20\n        /* \"#utility.yul\":20446:20452   */\n      dup3\n        /* \"#utility.yul\":20442:20457   */\n      add\n        /* \"#utility.yul\":20435:20468   */\n      mstore\n        /* \"#utility.yul\":20250:20475   */\n      pop\n      jump\t// out\n        /* \"#utility.yul\":20481:20847   */\n    tag_453:\n        /* \"#utility.yul\":20623:20626   */\n      0x00\n        /* \"#utility.yul\":20644:20711   */\n      tag_729\n        /* \"#utility.yul\":20708:20710   */\n      0x26\n        /* \"#utility.yul\":20703:20706   */\n      dup4\n        /* \"#utility.yul\":20644:20711   */\n      tag_435\n      jump\t// in\n    tag_729:\n        /* \"#utility.yul\":20637:20711   */\n      swap2\n      pop\n        /* \"#utility.yul\":20720:20813   */\n      tag_730\n        /* \"#utility.yul\":20809:20812   */\n      dup3\n        /* \"#utility.yul\":20720:20813   */\n      tag_452\n      jump\t// in\n    tag_730:\n        /* \"#utility.yul\":20838:20840   */\n      0x40\n        /* \"#utility.yul\":20833:20836   */\n      dup3\n        /* \"#utility.yul\":20829:20841   */\n      add\n        /* \"#utility.yul\":20822:20841   */\n      swap1\n      pop\n        /* \"#utility.yul\":20481:20847   */\n      swap2\n      swap1\n      pop\n      jump\t// out\n        /* \"#utility.yul\":20853:21272   */\n    tag_189:\n        /* \"#utility.yul\":21019:21023   */\n      0x00\n        /* \"#utility.yul\":21057:21059   */\n      0x20\n        /* \"#utility.yul\":21046:21055   */\n      dup3\n        /* \"#utility.yul\":21042:21060   */\n      add\n        /* \"#utility.yul\":21034:21060   */\n      swap1\n      pop\n        /* \"#utility.yul\":21106:21115   */\n      dup2\n        /* \"#utility.yul\":21100:21104   */\n      dup2\n        /* \"#utility.yul\":21096:21116   */\n      sub\n        /* \"#utility.yul\":21092:21093   */\n      0x00\n        /* \"#utility.yul\":21081:21090   */\n      dup4\n        /* \"#utility.yul\":21077:21094   */\n      add\n        /* \"#utility.yul\":21070:21117   */\n      mstore\n        /* \"#utility.yul\":21134:21265   */\n      tag_732\n        /* \"#utility.yul\":21260:21264   */\n      dup2\n        /* \"#utility.yul\":21134:21265   */\n      tag_453\n      jump\t// in\n    tag_732:\n        /* \"#utility.yul\":21126:21265   */\n      swap1\n      pop\n        /* \"#utility.yul\":20853:21272   */\n      swap2\n      swap1\n      pop\n      jump\t// out\n        /* \"#utility.yul\":21278:21393   */\n    tag_454:\n        /* \"#utility.yul\":21363:21386   */\n      tag_734\n        /* \"#utility.yul\":21380:21385   */\n      dup2\n        /* \"#utility.yul\":21363:21386   */\n      tag_401\n      jump\t// in\n    tag_734:\n        /* \"#utility.yul\":21358:21361   */\n      dup3\n        /* \"#utility.yul\":21351:21387   */\n      mstore\n        /* \"#utility.yul\":21278:21393   */\n      pop\n      pop\n      jump\t// out\n        /* \"#utility.yul\":21399:21617   */\n    tag_197:\n        /* \"#utility.yul\":21490:21494   */\n      0x00\n        /* \"#utility.yul\":21528:21530   */\n      0x20\n        /* \"#utility.yul\":21517:21526   */\n      dup3\n        /* \"#utility.yul\":21513:21531   */\n      add\n        /* \"#utility.yul\":21505:21531   */\n      swap1\n      pop\n        /* \"#utility.yul\":21541:21610   */\n      tag_736\n        /* \"#utility.yul\":21607:21608   */\n      0x00\n        /* \"#utility.yul\":21596:21605   */\n      dup4\n        /* \"#utility.yul\":21592:21609   */\n      add\n        /* \"#utility.yul\":21583:21589   */\n      dup5\n        /* \"#utility.yul\":21541:21610   */\n      tag_454\n      jump\t// in\n    tag_736:\n        /* \"#utility.yul\":21399:21617   */\n      swap3\n      swap2\n      pop\n      pop\n      jump\t// out\n        /* \"#utility.yul\":21645:21959   */\n    tag_455:\n        /* \"#utility.yul\":21741:21744   */\n      0x00\n        /* \"#utility.yul\":21762:21832   */\n      tag_738\n        /* \"#utility.yul\":21825:21831   */\n      dup4\n        /* \"#utility.yul\":21820:21823   */\n      dup6\n        /* \"#utility.yul\":21762:21832   */\n      tag_439\n      jump\t// in\n    tag_738:\n        /* \"#utility.yul\":21755:21832   */\n      swap4\n      pop\n        /* \"#utility.yul\":21842:21898   */\n      tag_739\n        /* \"#utility.yul\":21891:21897   */\n      dup4\n        /* \"#utility.yul\":21886:21889   */\n      dup6\n        /* \"#utility.yul\":21879:21884   */\n      dup5\n        /* \"#utility.yul\":21842:21898   */\n      tag_422\n      jump\t// in\n    tag_739:\n        /* \"#utility.yul\":21923:21952   */\n      tag_740\n        /* \"#utility.yul\":21945:21951   */\n      dup4\n        /* \"#utility.yul\":21923:21952   */\n      tag_418\n      jump\t// in\n    tag_740:\n        /* \"#utility.yul\":21918:21921   */\n      dup5\n        /* \"#utility.yul\":21914:21953   */\n      add\n        /* \"#utility.yul\":21907:21953   */\n      swap1\n      pop\n        /* \"#utility.yul\":21645:21959   */\n      swap4\n      swap3\n      pop\n      pop\n      pop\n      jump\t// out\n        /* \"#utility.yul\":21965:22400   */\n    tag_222:\n        /* \"#utility.yul\":22112:22116   */\n      0x00\n        /* \"#utility.yul\":22150:22152   */\n      0x40\n        /* \"#utility.yul\":22139:22148   */\n      dup3\n        /* \"#utility.yul\":22135:22153   */\n      add\n        /* \"#utility.yul\":22127:22153   */\n      swap1\n      pop\n        /* \"#utility.yul\":22163:22232   */\n      tag_742\n        /* \"#utility.yul\":22229:22230   */\n      0x00\n        /* \"#utility.yul\":22218:22227   */\n      dup4\n        /* \"#utility.yul\":22214:22231   */\n      add\n        /* \"#utility.yul\":22205:22211   */\n      dup7\n        /* \"#utility.yul\":22163:22232   */\n      tag_454\n      jump\t// in\n    tag_742:\n        /* \"#utility.yul\":22279:22288   */\n      dup2\n        /* \"#utility.yul\":22273:22277   */\n      dup2\n        /* \"#utility.yul\":22269:22289   */\n      sub\n        /* \"#utility.yul\":22264:22266   */\n      0x20\n        /* \"#utility.yul\":22253:22262   */\n      dup4\n        /* \"#utility.yul\":22249:22267   */\n      add\n        /* \"#utility.yul\":22242:22290   */\n      mstore\n        /* \"#utility.yul\":22307:22393   */\n      tag_743\n        /* \"#utility.yul\":22388:22392   */\n      dup2\n        /* \"#utility.yul\":22379:22385   */\n      dup5\n        /* \"#utility.yul\":22371:22377   */\n      dup7\n        /* \"#utility.yul\":22307:22393   */\n      tag_455\n      jump\t// in\n    tag_743:\n        /* \"#utility.yul\":22299:22393   */\n      swap1\n      pop\n        /* \"#utility.yul\":21965:22400   */\n      swap5\n      swap4\n      pop\n      pop\n      pop\n      pop\n      jump\t// out\n        /* \"#utility.yul\":22406:22500   */\n    tag_456:\n        /* \"#utility.yul\":22439:22447   */\n      0x00\n        /* \"#utility.yul\":22487:22492   */\n      dup2\n        /* \"#utility.yul\":22483:22485   */\n      0x60\n        /* \"#utility.yul\":22479:22493   */\n      shl\n        /* \"#utility.yul\":22458:22493   */\n      swap1\n      pop\n        /* \"#utility.yul\":22406:22500   */\n      swap2\n      swap1\n      pop\n      jump\t// out\n        /* \"#utility.yul\":22506:22600   */\n    tag_457:\n        /* \"#utility.yul\":22545:22552   */\n      0x00\n        /* \"#utility.yul\":22574:22594   */\n      tag_746\n        /* \"#utility.yul\":22588:22593   */\n      dup3\n        /* \"#utility.yul\":22574:22594   */\n      tag_456\n      jump\t// in\n    tag_746:\n        /* \"#utility.yul\":22563:22594   */\n      swap1\n      pop\n        /* \"#utility.yul\":22506:22600   */\n      swap2\n      swap1\n      pop\n      jump\t// out\n        /* \"#utility.yul\":22606:22706   */\n    tag_458:\n        /* \"#utility.yul\":22645:22652   */\n      0x00\n        /* \"#utility.yul\":22674:22700   */\n      tag_748\n        /* \"#utility.yul\":22694:22699   */\n      dup3\n        /* \"#utility.yul\":22674:22700   */\n      tag_457\n      jump\t// in\n    tag_748:\n        /* \"#utility.yul\":22663:22700   */\n      swap1\n      pop\n        /* \"#utility.yul\":22606:22706   */\n      swap2\n      swap1\n      pop\n      jump\t// out\n        /* \"#utility.yul\":22712:22869   */\n    tag_459:\n        /* \"#utility.yul\":22817:22862   */\n      tag_750\n        /* \"#utility.yul\":22837:22861   */\n      tag_751\n        /* \"#utility.yul\":22855:22860   */\n      dup3\n        /* \"#utility.yul\":22837:22861   */\n      tag_428\n      jump\t// in\n    tag_751:\n        /* \"#utility.yul\":22817:22862   */\n      tag_458\n      jump\t// in\n    tag_750:\n        /* \"#utility.yul\":22812:22815   */\n      dup3\n        /* \"#utility.yul\":22805:22863   */\n      mstore\n        /* \"#utility.yul\":22712:22869   */\n      pop\n      pop\n      jump\t// out\n        /* \"#utility.yul\":22875:23272   */\n    tag_230:\n        /* \"#utility.yul\":23015:23018   */\n      0x00\n        /* \"#utility.yul\":23030:23105   */\n      tag_753\n        /* \"#utility.yul\":23101:23104   */\n      dup3\n        /* \"#utility.yul\":23092:23098   */\n      dup6\n        /* \"#utility.yul\":23030:23105   */\n      tag_459\n      jump\t// in\n    tag_753:\n        /* \"#utility.yul\":23130:23132   */\n      0x14\n        /* \"#utility.yul\":23125:23128   */\n      dup3\n        /* \"#utility.yul\":23121:23133   */\n      add\n        /* \"#utility.yul\":23114:23133   */\n      swap2\n      pop\n        /* \"#utility.yul\":23143:23218   */\n      tag_754\n        /* \"#utility.yul\":23214:23217   */\n      dup3\n        /* \"#utility.yul\":23205:23211   */\n      dup5\n        /* \"#utility.yul\":23143:23218   */\n      tag_459\n      jump\t// in\n    tag_754:\n        /* \"#utility.yul\":23243:23245   */\n      0x14\n        /* \"#utility.yul\":23238:23241   */\n      dup3\n        /* \"#utility.yul\":23234:23246   */\n      add\n        /* \"#utility.yul\":23227:23246   */\n      swap2\n      pop\n        /* \"#utility.yul\":23263:23266   */\n      dup2\n        /* \"#utility.yul\":23256:23266   */\n      swap1\n      pop\n        /* \"#utility.yul\":22875:23272   */\n      swap4\n      swap3\n      pop\n      pop\n      pop\n      jump\t// out\n        /* \"#utility.yul\":23278:23418   */\n    tag_460:\n        /* \"#utility.yul\":23326:23330   */\n      0x00\n        /* \"#utility.yul\":23349:23352   */\n      dup2\n        /* \"#utility.yul\":23341:23352   */\n      swap1\n      pop\n        /* \"#utility.yul\":23372:23375   */\n      dup2\n        /* \"#utility.yul\":23369:23370   */\n      0x00\n        /* \"#utility.yul\":23362:23376   */\n      mstore\n        /* \"#utility.yul\":23406:23410   */\n      0x20\n        /* \"#utility.yul\":23403:23404   */\n      0x00\n        /* \"#utility.yul\":23393:23411   */\n      keccak256\n        /* \"#utility.yul\":23385:23411   */\n      swap1\n      pop\n        /* \"#utility.yul\":23278:23418   */\n      swap2\n      swap1\n      pop\n      jump\t// out\n        /* \"#utility.yul\":23424:23517   */\n    tag_461:\n        /* \"#utility.yul\":23461:23467   */\n      0x00\n        /* \"#utility.yul\":23508:23510   */\n      0x20\n        /* \"#utility.yul\":23503:23505   */\n      0x1f\n        /* \"#utility.yul\":23496:23501   */\n      dup4\n        /* \"#utility.yul\":23492:23506   */\n      add\n        /* \"#utility.yul\":23488:23511   */\n      div\n        /* \"#utility.yul\":23478:23511   */\n      swap1\n      pop\n        /* \"#utility.yul\":23424:23517   */\n      swap2\n      swap1\n      pop\n      jump\t// out\n        /* \"#utility.yul\":23523:23630   */\n    tag_462:\n        /* \"#utility.yul\":23567:23575   */\n      0x00\n        /* \"#utility.yul\":23617:23622   */\n      dup3\n        /* \"#utility.yul\":23611:23615   */\n      dup3\n        /* \"#utility.yul\":23607:23623   */\n      shl\n        /* \"#utility.yul\":23586:23623   */\n      swap1\n      pop\n        /* \"#utility.yul\":23523:23630   */\n      swap3\n      swap2\n      pop\n      pop\n      jump\t// out\n        /* \"#utility.yul\":23636:24029   */\n    tag_463:\n        /* \"#utility.yul\":23705:23711   */\n      0x00\n        /* \"#utility.yul\":23755:23756   */\n      0x08\n        /* \"#utility.yul\":23743:23753   */\n      dup4\n        /* \"#utility.yul\":23739:23757   */\n      mul\n        /* \"#utility.yul\":23778:23875   */\n      tag_759\n        /* \"#utility.yul\":23808:23874   */\n      0xffffffffffffffffffffffffffffffffffffffffffffffffffffffffffffffff\n        /* \"#utility.yul\":23797:23806   */\n      dup3\n        /* \"#utility.yul\":23778:23875   */\n      tag_462\n      jump\t// in\n    tag_759:\n        /* \"#utility.yul\":23896:23935   */\n      tag_760\n        /* \"#utility.yul\":23926:23934   */\n      dup7\n        /* \"#utility.yul\":23915:23924   */\n      dup4\n        /* \"#utility.yul\":23896:23935   */\n      tag_462\n      jump\t// in\n    tag_760:\n        /* \"#utility.yul\":23884:23935   */\n      swap6\n      pop\n        /* \"#utility.yul\":23968:23972   */\n      dup1\n        /* \"#utility.yul\":23964:23973   */\n      not\n        /* \"#utility.yul\":23957:23962   */\n      dup5\n        /* \"#utility.yul\":23953:23974   */\n      and\n        /* \"#utility.yul\":23944:23974   */\n      swap4\n      pop\n        /* \"#utility.yul\":24017:24021   */\n      dup1\n        /* \"#utility.yul\":24007:24015   */\n      dup7\n        /* \"#utility.yul\":24003:24022   */\n      and\n        /* \"#utility.yul\":23996:24001   */\n      dup5\n        /* \"#utility.yul\":23993:24023   */\n      or\n        /* \"#utility.yul\":23983:24023   */\n      swap3\n      pop\n        /* \"#utility.yul\":23712:24029   */\n      pop\n      pop\n        /* \"#utility.yul\":23636:24029   */\n      swap4\n      swap3\n      pop\n      pop\n      pop\n      jump\t// out\n        /* \"#utility.yul\":24035:24177   */\n    tag_464:\n        /* \"#utility.yul\":24085:24094   */\n      0x00\n        /* \"#utility.yul\":24118:24171   */\n      tag_762\n        /* \"#utility.yul\":24136:24170   */\n      tag_763\n        /* \"#utility.yul\":24145:24169   */\n      tag_764\n        /* \"#utility.yul\":24163:24168   */\n      dup5\n        /* \"#utility.yul\":24145:24169   */\n      tag_411\n      jump\t// in\n    tag_764:\n        /* \"#utility.yul\":24136:24170   */\n      tag_442\n      jump\t// in\n    tag_763:\n        /* \"#utility.yul\":24118:24171   */\n      tag_411\n      jump\t// in\n    tag_762:\n        /* \"#utility.yul\":24105:24171   */\n      swap1\n      pop\n        /* \"#utility.yul\":24035:24177   */\n      swap2\n      swap1\n      pop\n      jump\t// out\n        /* \"#utility.yul\":24183:24258   */\n    tag_465:\n        /* \"#utility.yul\":24226:24229   */\n      0x00\n        /* \"#utility.yul\":24247:24252   */\n      dup2\n        /* \"#utility.yul\":24240:24252   */\n      swap1\n      pop\n        /* \"#utility.yul\":24183:24258   */\n      swap2\n      swap1\n      pop\n      jump\t// out\n        /* \"#utility.yul\":24264:24533   */\n    tag_466:\n        /* \"#utility.yul\":24374:24413   */\n      tag_767\n        /* \"#utility.yul\":24405:24412   */\n      dup4\n        /* \"#utility.yul\":24374:24413   */\n      tag_464\n      jump\t// in\n    tag_767:\n        /* \"#utility.yul\":24435:24526   */\n      tag_768\n        /* \"#utility.yul\":24484:24525   */\n      tag_769\n        /* \"#utility.yul\":24508:24524   */\n      dup3\n        /* \"#utility.yul\":24484:24525   */\n      tag_465\n      jump\t// in\n    tag_769:\n        /* \"#utility.yul\":24476:24482   */\n      dup5\n        /* \"#utility.yul\":24469:24473   */\n      dup5\n        /* \"#utility.yul\":24463:24474   */\n      sload\n        /* \"#utility.yul\":24435:24526   */\n      tag_463\n      jump\t// in\n    tag_768:\n        /* \"#utility.yul\":24429:24433   */\n      dup3\n        /* \"#utility.yul\":24422:24527   */\n      sstore\n        /* \"#utility.yul\":24340:24533   */\n      pop\n        /* \"#utility.yul\":24264:24533   */\n      pop\n      pop\n      pop\n      jump\t// out\n        /* \"#utility.yul\":24539:24612   */\n    tag_467:\n        /* \"#utility.yul\":24584:24587   */\n      0x00\n        /* \"#utility.yul\":24539:24612   */\n      swap1\n      jump\t// out\n        /* \"#utility.yul\":24618:24807   */\n    tag_468:\n        /* \"#utility.yul\":24695:24727   */\n      tag_772\n      tag_467\n      jump\t// in\n    tag_772:\n        /* \"#utility.yul\":24736:24801   */\n      tag_773\n        /* \"#utility.yul\":24794:24800   */\n      dup2\n        /* \"#utility.yul\":24786:24792   */\n      dup5\n        /* \"#utility.yul\":24780:24784   */\n      dup5\n        /* \"#utility.yul\":24736:24801   */\n      tag_466\n      jump\t// in\n    tag_773:\n        /* \"#utility.yul\":24671:24807   */\n      pop\n        /* \"#utility.yul\":24618:24807   */\n      pop\n      pop\n      jump\t// out\n        /* \"#utility.yul\":24813:24999   */\n    tag_469:\n        /* \"#utility.yul\":24873:24993   */\n    tag_775:\n        /* \"#utility.yul\":24890:24893   */\n      dup2\n        /* \"#utility.yul\":24883:24888   */\n      dup2\n        /* \"#utility.yul\":24880:24894   */\n      lt\n        /* \"#utility.yul\":24873:24993   */\n      iszero\n      tag_777\n      jumpi\n        /* \"#utility.yul\":24944:24983   */\n      tag_778\n        /* \"#utility.yul\":24981:24982   */\n      0x00\n        /* \"#utility.yul\":24974:24979   */\n      dup3\n        /* \"#utility.yul\":24944:24983   */\n      tag_468\n      jump\t// in\n    tag_778:\n        /* \"#utility.yul\":24917:24918   */\n      0x01\n        /* \"#utility.yul\":24910:24915   */\n      dup2\n        /* \"#utility.yul\":24906:24919   */\n      add\n        /* \"#utility.yul\":24897:24919   */\n      swap1\n      pop\n        /* \"#utility.yul\":24873:24993   */\n      jump(tag_775)\n    tag_777:\n        /* \"#utility.yul\":24813:24999   */\n      pop\n      pop\n      jump\t// out\n        /* \"#utility.yul\":25005:25546   */\n    tag_470:\n        /* \"#utility.yul\":25105:25107   */\n      0x1f\n        /* \"#utility.yul\":25100:25103   */\n      dup3\n        /* \"#utility.yul\":25097:25108   */\n      gt\n        /* \"#utility.yul\":25094:25539   */\n      iszero\n      tag_780\n      jumpi\n        /* \"#utility.yul\":25139:25176   */\n      tag_781\n        /* \"#utility.yul\":25170:25175   */\n      dup2\n        /* \"#utility.yul\":25139:25176   */\n      tag_460\n      jump\t// in\n    tag_781:\n        /* \"#utility.yul\":25222:25251   */\n      tag_782\n        /* \"#utility.yul\":25240:25250   */\n      dup5\n        /* \"#utility.yul\":25222:25251   */\n      tag_461\n      jump\t// in\n    tag_782:\n        /* \"#utility.yul\":25212:25220   */\n      dup2\n        /* \"#utility.yul\":25208:25252   */\n      add\n        /* \"#utility.yul\":25405:25407   */\n      0x20\n        /* \"#utility.yul\":25393:25403   */\n      dup6\n        /* \"#utility.yul\":25390:25408   */\n      lt\n        /* \"#utility.yul\":25387:25436   */\n      iszero\n      tag_783\n      jumpi\n        /* \"#utility.yul\":25426:25434   */\n      dup2\n        /* \"#utility.yul\":25411:25434   */\n      swap1\n      pop\n        /* \"#utility.yul\":25387:25436   */\n    tag_783:\n        /* \"#utility.yul\":25449:25529   */\n      tag_784\n        /* \"#utility.yul\":25505:25527   */\n      tag_785\n        /* \"#utility.yul\":25523:25526   */\n      dup6\n        /* \"#utility.yul\":25505:25527   */\n      tag_461\n      jump\t// in\n    tag_785:\n        /* \"#utility.yul\":25495:25503   */\n      dup4\n        /* \"#utility.yul\":25491:25528   */\n      add\n        /* \"#utility.yul\":25478:25489   */\n      dup3\n        /* \"#utility.yul\":25449:25529   */\n      tag_469\n      jump\t// in\n    tag_784:\n        /* \"#utility.yul\":25109:25539   */\n      pop\n      pop\n        /* \"#utility.yul\":25094:25539   */\n    tag_780:\n        /* \"#utility.yul\":25005:25546   */\n      pop\n      pop\n      pop\n      jump\t// out\n        /* \"#utility.yul\":25552:25669   */\n    tag_471:\n        /* \"#utility.yul\":25606:25614   */\n      0x00\n        /* \"#utility.yul\":25656:25661   */\n      dup3\n        /* \"#utility.yul\":25650:25654   */\n      dup3\n        /* \"#utility.yul\":25646:25662   */\n      shr\n        /* \"#utility.yul\":25625:25662   */\n      swap1\n      pop\n        /* \"#utility.yul\":25552:25669   */\n      swap3\n      swap2\n      pop\n      pop\n      jump\t// out\n        /* \"#utility.yul\":25675:25844   */\n    tag_472:\n        /* \"#utility.yul\":25719:25725   */\n      0x00\n        /* \"#utility.yul\":25752:25803   */\n      tag_788\n        /* \"#utility.yul\":25800:25801   */\n      0x00\n        /* \"#utility.yul\":25796:25802   */\n      not\n        /* \"#utility.yul\":25788:25793   */\n      dup5\n        /* \"#utility.yul\":25785:25786   */\n      0x08\n        /* \"#utility.yul\":25781:25794   */\n      mul\n        /* \"#utility.yul\":25752:25803   */\n      tag_471\n      jump\t// in\n    tag_788:\n        /* \"#utility.yul\":25748:25804   */\n      not\n        /* \"#utility.yul\":25833:25837   */\n      dup1\n        /* \"#utility.yul\":25827:25831   */\n      dup4\n        /* \"#utility.yul\":25823:25838   */\n      and\n        /* \"#utility.yul\":25813:25838   */\n      swap2\n      pop\n        /* \"#utility.yul\":25726:25844   */\n      pop\n        /* \"#utility.yul\":25675:25844   */\n      swap3\n      swap2\n      pop\n      pop\n      jump\t// out\n        /* \"#utility.yul\":25849:26144   */\n    tag_473:\n        /* \"#utility.yul\":25925:25929   */\n      0x00\n        /* \"#utility.yul\":26071:26100   */\n      tag_790\n        /* \"#utility.yul\":26096:26099   */\n      dup4\n        /* \"#utility.yul\":26090:26094   */\n      dup4\n        /* \"#utility.yul\":26071:26100   */\n      tag_472\n      jump\t// in\n    tag_790:\n        /* \"#utility.yul\":26063:26100   */\n      swap2\n      pop\n        /* \"#utility.yul\":26133:26136   */\n      dup3\n        /* \"#utility.yul\":26130:26131   */\n      0x02\n        /* \"#utility.yul\":26126:26137   */\n      mul\n        /* \"#utility.yul\":26120:26124   */\n      dup3\n        /* \"#utility.yul\":26117:26138   */\n      or\n        /* \"#utility.yul\":26109:26138   */\n      swap1\n      pop\n        /* \"#utility.yul\":25849:26144   */\n      swap3\n      swap2\n      pop\n      pop\n      jump\t// out\n        /* \"#utility.yul\":26149:27539   */\n    tag_232:\n        /* \"#utility.yul\":26264:26300   */\n      tag_792\n        /* \"#utility.yul\":26296:26299   */\n      dup3\n        /* \"#utility.yul\":26264:26300   */\n      tag_438\n      jump\t// in\n    tag_792:\n        /* \"#utility.yul\":26365:26383   */\n      0xffffffffffffffff\n        /* \"#utility.yul\":26357:26363   */\n      dup2\n        /* \"#utility.yul\":26354:26384   */\n      gt\n        /* \"#utility.yul\":26351:26407   */\n      iszero\n      tag_793\n      jumpi\n        /* \"#utility.yul\":26387:26405   */\n      tag_794\n      tag_385\n      jump\t// in\n    tag_794:\n        /* \"#utility.yul\":26351:26407   */\n    tag_793:\n        /* \"#utility.yul\":26431:26469   */\n      tag_795\n        /* \"#utility.yul\":26463:26467   */\n      dup3\n        /* \"#utility.yul\":26457:26468   */\n      sload\n        /* \"#utility.yul\":26431:26469   */\n      tag_178\n      jump\t// in\n    tag_795:\n        /* \"#utility.yul\":26516:26582   */\n      tag_796\n        /* \"#utility.yul\":26575:26581   */\n      dup3\n        /* \"#utility.yul\":26567:26573   */\n      dup3\n        /* \"#utility.yul\":26561:26565   */\n      dup6\n        /* \"#utility.yul\":26516:26582   */\n      tag_470\n      jump\t// in\n    tag_796:\n        /* \"#utility.yul\":26609:26610   */\n      0x00\n        /* \"#utility.yul\":26633:26637   */\n      0x20\n        /* \"#utility.yul\":26620:26637   */\n      swap1\n      pop\n        /* \"#utility.yul\":26665:26667   */\n      0x1f\n        /* \"#utility.yul\":26657:26663   */\n      dup4\n        /* \"#utility.yul\":26654:26668   */\n      gt\n        /* \"#utility.yul\":26682:26683   */\n      0x01\n        /* \"#utility.yul\":26677:27294   */\n      dup2\n      eq\n      tag_798\n      jumpi\n        /* \"#utility.yul\":27338:27339   */\n      0x00\n        /* \"#utility.yul\":27355:27361   */\n      dup5\n        /* \"#utility.yul\":27352:27429   */\n      iszero\n      tag_799\n      jumpi\n        /* \"#utility.yul\":27404:27413   */\n      dup3\n        /* \"#utility.yul\":27399:27402   */\n      dup8\n        /* \"#utility.yul\":27395:27414   */\n      add\n        /* \"#utility.yul\":27389:27415   */\n      mload\n        /* \"#utility.yul\":27380:27415   */\n      swap1\n      pop\n        /* \"#utility.yul\":27352:27429   */\n    tag_799:\n        /* \"#utility.yul\":27455:27522   */\n      tag_800\n        /* \"#utility.yul\":27515:27521   */\n      dup6\n        /* \"#utility.yul\":27508:27513   */\n      dup3\n        /* \"#utility.yul\":27455:27522   */\n      tag_473\n      jump\t// in\n    tag_800:\n        /* \"#utility.yul\":27449:27453   */\n      dup7\n        /* \"#utility.yul\":27442:27523   */\n      sstore\n        /* \"#utility.yul\":27311:27533   */\n      pop\n        /* \"#utility.yul\":26647:27533   */\n      jump(tag_797)\n        /* \"#utility.yul\":26677:27294   */\n    tag_798:\n        /* \"#utility.yul\":26729:26733   */\n      0x1f\n        /* \"#utility.yul\":26725:26734   */\n      not\n        /* \"#utility.yul\":26717:26723   */\n      dup5\n        /* \"#utility.yul\":26713:26735   */\n      and\n        /* \"#utility.yul\":26763:26799   */\n      tag_801\n        /* \"#utility.yul\":26794:26798   */\n      dup7\n        /* \"#utility.yul\":26763:26799   */\n      tag_460\n      jump\t// in\n    tag_801:\n        /* \"#utility.yul\":26821:26822   */\n      0x00\n        /* \"#utility.yul\":26835:27043   */\n    tag_802:\n        /* \"#utility.yul\":26849:26856   */\n      dup3\n        /* \"#utility.yul\":26846:26847   */\n      dup2\n        /* \"#utility.yul\":26843:26857   */\n      lt\n        /* \"#utility.yul\":26835:27043   */\n      iszero\n      tag_804\n      jumpi\n        /* \"#utility.yul\":26928:26937   */\n      dup5\n        /* \"#utility.yul\":26923:26926   */\n      dup10\n        /* \"#utility.yul\":26919:26938   */\n      add\n        /* \"#utility.yul\":26913:26939   */\n      mload\n        /* \"#utility.yul\":26905:26911   */\n      dup3\n        /* \"#utility.yul\":26898:26940   */\n      sstore\n        /* \"#utility.yul\":26979:26980   */\n      0x01\n        /* \"#utility.yul\":26971:26977   */\n      dup3\n        /* \"#utility.yul\":26967:26981   */\n      add\n        /* \"#utility.yul\":26957:26981   */\n      swap2\n      pop\n        /* \"#utility.yul\":27026:27028   */\n      0x20\n        /* \"#utility.yul\":27015:27024   */\n      dup6\n        /* \"#utility.yul\":27011:27029   */\n      add\n        /* \"#utility.yul\":26998:27029   */\n      swap5\n      pop\n        /* \"#utility.yul\":26872:26876   */\n      0x20\n        /* \"#utility.yul\":26869:26870   */\n      dup2\n        /* \"#utility.yul\":26865:26877   */\n      add\n        /* \"#utility.yul\":26860:26877   */\n      swap1\n      pop\n        /* \"#utility.yul\":26835:27043   */\n      jump(tag_802)\n    tag_804:\n        /* \"#utility.yul\":27071:27077   */\n      dup7\n        /* \"#utility.yul\":27062:27069   */\n      dup4\n        /* \"#utility.yul\":27059:27078   */\n      lt\n        /* \"#utility.yul\":27056:27235   */\n      iszero\n      tag_805\n      jumpi\n        /* \"#utility.yul\":27129:27138   */\n      dup5\n        /* \"#utility.yul\":27124:27127   */\n      dup10\n        /* \"#utility.yul\":27120:27139   */\n      add\n        /* \"#utility.yul\":27114:27140   */\n      mload\n        /* \"#utility.yul\":27172:27220   */\n      tag_806\n        /* \"#utility.yul\":27214:27218   */\n      0x1f\n        /* \"#utility.yul\":27206:27212   */\n      dup10\n        /* \"#utility.yul\":27202:27219   */\n      and\n        /* \"#utility.yul\":27191:27200   */\n      dup3\n        /* \"#utility.yul\":27172:27220   */\n      tag_472\n      jump\t// in\n    tag_806:\n        /* \"#utility.yul\":27164:27170   */\n      dup4\n        /* \"#utility.yul\":27157:27221   */\n      sstore\n        /* \"#utility.yul\":27079:27235   */\n      pop\n        /* \"#utility.yul\":27056:27235   */\n    tag_805:\n        /* \"#utility.yul\":27281:27282   */\n      0x01\n        /* \"#utility.yul\":27277:27278   */\n      0x02\n        /* \"#utility.yul\":27269:27275   */\n      dup9\n        /* \"#utility.yul\":27265:27279   */\n      mul\n        /* \"#utility.yul\":27261:27283   */\n      add\n        /* \"#utility.yul\":27255:27259   */\n      dup9\n        /* \"#utility.yul\":27248:27284   */\n      sstore\n        /* \"#utility.yul\":26684:27294   */\n      pop\n      pop\n      pop\n        /* \"#utility.yul\":26647:27533   */\n    tag_797:\n      pop\n        /* \"#utility.yul\":26239:27539   */\n      pop\n      pop\n      pop\n        /* \"#utility.yul\":26149:27539   */\n      pop\n      pop\n      jump\t// out\n        /* \"#utility.yul\":27545:27770   */\n    tag_474:\n        /* \"#utility.yul\":27685:27719   */\n      0x4e6f6e626c6f636b696e674c7a4170703a2063616c6c6572206d757374206265\n        /* \"#utility.yul\":27681:27682   */\n      0x00\n        /* \"#utility.yul\":27673:27679   */\n      dup3\n        /* \"#utility.yul\":27669:27683   */\n      add\n        /* \"#utility.yul\":27662:27720   */\n      mstore\n        /* \"#utility.yul\":27754:27762   */\n      0x204c7a4170700000000000000000000000000000000000000000000000000000\n        /* \"#utility.yul\":27749:27751   */\n      0x20\n        /* \"#utility.yul\":27741:27747   */\n      dup3\n        /* \"#utility.yul\":27737:27752   */\n      add\n        /* \"#utility.yul\":27730:27763   */\n      mstore\n        /* \"#utility.yul\":27545:27770   */\n      pop\n      jump\t// out\n        /* \"#utility.yul\":27776:28142   */\n    tag_475:\n        /* \"#utility.yul\":27918:27921   */\n      0x00\n        /* \"#utility.yul\":27939:28006   */\n      tag_809\n        /* \"#utility.yul\":28003:28005   */\n      0x26\n        /* \"#utility.yul\":27998:28001   */\n      dup4\n        /* \"#utility.yul\":27939:28006   */\n      tag_435\n      jump\t// in\n    tag_809:\n        /* \"#utility.yul\":27932:28006   */\n      swap2\n      pop\n        /* \"#utility.yul\":28015:28108   */\n      tag_810\n        /* \"#utility.yul\":28104:28107   */\n      dup3\n        /* \"#utility.yul\":28015:28108   */\n      tag_474\n      jump\t// in\n    tag_810:\n        /* \"#utility.yul\":28133:28135   */\n      0x40\n        /* \"#utility.yul\":28128:28131   */\n      dup3\n        /* \"#utility.yul\":28124:28136   */\n      add\n        /* \"#utility.yul\":28117:28136   */\n      swap1\n      pop\n        /* \"#utility.yul\":27776:28142   */\n      swap2\n      swap1\n      pop\n      jump\t// out\n        /* \"#utility.yul\":28148:28567   */\n    tag_241:\n        /* \"#utility.yul\":28314:28318   */\n      0x00\n        /* \"#utility.yul\":28352:28354   */\n      0x20\n        /* \"#utility.yul\":28341:28350   */\n      dup3\n        /* \"#utility.yul\":28337:28355   */\n      add\n        /* \"#utility.yul\":28329:28355   */\n      swap1\n      pop\n        /* \"#utility.yul\":28401:28410   */\n      dup2\n        /* \"#utility.yul\":28395:28399   */\n      dup2\n        /* \"#utility.yul\":28391:28411   */\n      sub\n        /* \"#utility.yul\":28387:28388   */\n      0x00\n        /* \"#utility.yul\":28376:28385   */\n      dup4\n        /* \"#utility.yul\":28372:28389   */\n      add\n        /* \"#utility.yul\":28365:28412   */\n      mstore\n        /* \"#utility.yul\":28429:28560   */\n      tag_812\n        /* \"#utility.yul\":28555:28559   */\n      dup2\n        /* \"#utility.yul\":28429:28560   */\n      tag_475\n      jump\t// in\n    tag_812:\n        /* \"#utility.yul\":28421:28560   */\n      swap1\n      pop\n        /* \"#utility.yul\":28148:28567   */\n      swap2\n      swap1\n      pop\n      jump\t// out\n        /* \"#utility.yul\":28573:28752   */\n    tag_476:\n        /* \"#utility.yul\":28713:28744   */\n      0x4c7a4170703a206e6f20747275737465642070617468207265636f7264000000\n        /* \"#utility.yul\":28709:28710   */\n      0x00\n        /* \"#utility.yul\":28701:28707   */\n      dup3\n        /* \"#utility.yul\":28697:28711   */\n      add\n        /* \"#utility.yul\":28690:28745   */\n      mstore\n        /* \"#utility.yul\":28573:28752   */\n      pop\n      jump\t// out\n        /* \"#utility.yul\":28758:29124   */\n    tag_477:\n        /* \"#utility.yul\":28900:28903   */\n      0x00\n        /* \"#utility.yul\":28921:28988   */\n      tag_815\n        /* \"#utility.yul\":28985:28987   */\n      0x1d\n        /* \"#utility.yul\":28980:28983   */\n      dup4\n        /* \"#utility.yul\":28921:28988   */\n      tag_435\n      jump\t// in\n    tag_815:\n        /* \"#utility.yul\":28914:28988   */\n      swap2\n      pop\n        /* \"#utility.yul\":28997:29090   */\n      tag_816\n        /* \"#utility.yul\":29086:29089   */\n      dup3\n        /* \"#utility.yul\":28997:29090   */\n      tag_476\n      jump\t// in\n    tag_816:\n        /* \"#utility.yul\":29115:29117   */\n      0x20\n        /* \"#utility.yul\":29110:29113   */\n      dup3\n        /* \"#utility.yul\":29106:29118   */\n      add\n        /* \"#utility.yul\":29099:29118   */\n      swap1\n      pop\n        /* \"#utility.yul\":28758:29124   */\n      swap2\n      swap1\n      pop\n      jump\t// out\n        /* \"#utility.yul\":29130:29549   */\n    tag_268:\n        /* \"#utility.yul\":29296:29300   */\n      0x00\n        /* \"#utility.yul\":29334:29336   */\n      0x20\n        /* \"#utility.yul\":29323:29332   */\n      dup3\n        /* \"#utility.yul\":29319:29337   */\n      add\n        /* \"#utility.yul\":29311:29337   */\n      swap1\n      pop\n        /* \"#utility.yul\":29383:29392   */\n      dup2\n        /* \"#utility.yul\":29377:29381   */\n      dup2\n        /* \"#utility.yul\":29373:29393   */\n      sub\n        /* \"#utility.yul\":29369:29370   */\n      0x00\n        /* \"#utility.yul\":29358:29367   */\n      dup4\n        /* \"#utility.yul\":29354:29371   */\n      add\n        /* \"#utility.yul\":29347:29394   */\n      mstore\n        /* \"#utility.yul\":29411:29542   */\n      tag_818\n        /* \"#utility.yul\":29537:29541   */\n      dup2\n        /* \"#utility.yul\":29411:29542   */\n      tag_477\n      jump\t// in\n    tag_818:\n        /* \"#utility.yul\":29403:29542   */\n      swap1\n      pop\n        /* \"#utility.yul\":29130:29549   */\n      swap2\n      swap1\n      pop\n      jump\t// out\n        /* \"#utility.yul\":29555:29735   */\n    tag_478:\n        /* \"#utility.yul\":29603:29680   */\n      0x4e487b7100000000000000000000000000000000000000000000000000000000\n        /* \"#utility.yul\":29600:29601   */\n      0x00\n        /* \"#utility.yul\":29593:29681   */\n      mstore\n        /* \"#utility.yul\":29700:29704   */\n      0x11\n        /* \"#utility.yul\":29697:29698   */\n      0x04\n        /* \"#utility.yul\":29690:29705   */\n      mstore\n        /* \"#utility.yul\":29724:29728   */\n      0x24\n        /* \"#utility.yul\":29721:29722   */\n      0x00\n        /* \"#utility.yul\":29714:29729   */\n      revert\n        /* \"#utility.yul\":29741:29935   */\n    tag_271:\n        /* \"#utility.yul\":29781:29785   */\n      0x00\n        /* \"#utility.yul\":29801:29821   */\n      tag_821\n        /* \"#utility.yul\":29819:29820   */\n      dup3\n        /* \"#utility.yul\":29801:29821   */\n      tag_411\n      jump\t// in\n    tag_821:\n        /* \"#utility.yul\":29796:29821   */\n      swap2\n      pop\n        /* \"#utility.yul\":29835:29855   */\n      tag_822\n        /* \"#utility.yul\":29853:29854   */\n      dup4\n        /* \"#utility.yul\":29835:29855   */\n      tag_411\n      jump\t// in\n    tag_822:\n        /* \"#utility.yul\":29830:29855   */\n      swap3\n      pop\n        /* \"#utility.yul\":29879:29880   */\n      dup3\n        /* \"#utility.yul\":29876:29877   */\n      dup3\n        /* \"#utility.yul\":29872:29881   */\n      sub\n        /* \"#utility.yul\":29864:29881   */\n      swap1\n      pop\n        /* \"#utility.yul\":29903:29904   */\n      dup2\n        /* \"#utility.yul\":29897:29901   */\n      dup2\n        /* \"#utility.yul\":29894:29905   */\n      gt\n        /* \"#utility.yul\":29891:29928   */\n      iszero\n      tag_823\n      jumpi\n        /* \"#utility.yul\":29908:29926   */\n      tag_824\n      tag_478\n      jump\t// in\n    tag_824:\n        /* \"#utility.yul\":29891:29928   */\n    tag_823:\n        /* \"#utility.yul\":29741:29935   */\n      swap3\n      swap2\n      pop\n      pop\n      jump\t// out\n        /* \"#utility.yul\":29941:30373   */\n    tag_277:\n        /* \"#utility.yul\":30109:30112   */\n      0x00\n        /* \"#utility.yul\":30131:30234   */\n      tag_826\n        /* \"#utility.yul\":30230:30233   */\n      dup3\n        /* \"#utility.yul\":30221:30227   */\n      dup6\n        /* \"#utility.yul\":30213:30219   */\n      dup8\n        /* \"#utility.yul\":30131:30234   */\n      tag_451\n      jump\t// in\n    tag_826:\n        /* \"#utility.yul\":30124:30234   */\n      swap2\n      pop\n        /* \"#utility.yul\":30244:30319   */\n      tag_827\n        /* \"#utility.yul\":30315:30318   */\n      dup3\n        /* \"#utility.yul\":30306:30312   */\n      dup5\n        /* \"#utility.yul\":30244:30319   */\n      tag_459\n      jump\t// in\n    tag_827:\n        /* \"#utility.yul\":30344:30346   */\n      0x14\n        /* \"#utility.yul\":30339:30342   */\n      dup3\n        /* \"#utility.yul\":30335:30347   */\n      add\n        /* \"#utility.yul\":30328:30347   */\n      swap2\n      pop\n        /* \"#utility.yul\":30364:30367   */\n      dup2\n        /* \"#utility.yul\":30357:30367   */\n      swap1\n      pop\n        /* \"#utility.yul\":29941:30373   */\n      swap5\n      swap4\n      pop\n      pop\n      pop\n      pop\n      jump\t// out\n        /* \"#utility.yul\":30379:31031   */\n    tag_288:\n        /* \"#utility.yul\":30580:30584   */\n      0x00\n        /* \"#utility.yul\":30618:30621   */\n      0x80\n        /* \"#utility.yul\":30607:30616   */\n      dup3\n        /* \"#utility.yul\":30603:30622   */\n      add\n        /* \"#utility.yul\":30595:30622   */\n      swap1\n      pop\n        /* \"#utility.yul\":30632:30701   */\n      tag_829\n        /* \"#utility.yul\":30698:30699   */\n      0x00\n        /* \"#utility.yul\":30687:30696   */\n      dup4\n        /* \"#utility.yul\":30683:30700   */\n      add\n        /* \"#utility.yul\":30674:30680   */\n      dup9\n        /* \"#utility.yul\":30632:30701   */\n      tag_454\n      jump\t// in\n    tag_829:\n        /* \"#utility.yul\":30711:30781   */\n      tag_830\n        /* \"#utility.yul\":30777:30779   */\n      0x20\n        /* \"#utility.yul\":30766:30775   */\n      dup4\n        /* \"#utility.yul\":30762:30780   */\n      add\n        /* \"#utility.yul\":30753:30759   */\n      dup8\n        /* \"#utility.yul\":30711:30781   */\n      tag_454\n      jump\t// in\n    tag_830:\n        /* \"#utility.yul\":30791:30863   */\n      tag_831\n        /* \"#utility.yul\":30859:30861   */\n      0x40\n        /* \"#utility.yul\":30848:30857   */\n      dup4\n        /* \"#utility.yul\":30844:30862   */\n      add\n        /* \"#utility.yul\":30835:30841   */\n      dup7\n        /* \"#utility.yul\":30791:30863   */\n      tag_416\n      jump\t// in\n    tag_831:\n        /* \"#utility.yul\":30910:30919   */\n      dup2\n        /* \"#utility.yul\":30904:30908   */\n      dup2\n        /* \"#utility.yul\":30900:30920   */\n      sub\n        /* \"#utility.yul\":30895:30897   */\n      0x60\n        /* \"#utility.yul\":30884:30893   */\n      dup4\n        /* \"#utility.yul\":30880:30898   */\n      add\n        /* \"#utility.yul\":30873:30921   */\n      mstore\n        /* \"#utility.yul\":30938:31024   */\n      tag_832\n        /* \"#utility.yul\":31019:31023   */\n      dup2\n        /* \"#utility.yul\":31010:31016   */\n      dup5\n        /* \"#utility.yul\":31002:31008   */\n      dup7\n        /* \"#utility.yul\":30938:31024   */\n      tag_455\n      jump\t// in\n    tag_832:\n        /* \"#utility.yul\":30930:31024   */\n      swap1\n      pop\n        /* \"#utility.yul\":30379:31031   */\n      swap7\n      swap6\n      pop\n      pop\n      pop\n      pop\n      pop\n      pop\n      jump\t// out\n        /* \"#utility.yul\":31037:31259   */\n    tag_479:\n        /* \"#utility.yul\":31177:31211   */\n      0x4e6f6e626c6f636b696e674c7a4170703a206e6f2073746f726564206d657373\n        /* \"#utility.yul\":31173:31174   */\n      0x00\n        /* \"#utility.yul\":31165:31171   */\n      dup3\n        /* \"#utility.yul\":31161:31175   */\n      add\n        /* \"#utility.yul\":31154:31212   */\n      mstore\n        /* \"#utility.yul\":31246:31251   */\n      0x6167650000000000000000000000000000000000000000000000000000000000\n        /* \"#utility.yul\":31241:31243   */\n      0x20\n        /* \"#utility.yul\":31233:31239   */\n      dup3\n        /* \"#utility.yul\":31229:31244   */\n      add\n        /* \"#utility.yul\":31222:31252   */\n      mstore\n        /* \"#utility.yul\":31037:31259   */\n      pop\n      jump\t// out\n        /* \"#utility.yul\":31265:31631   */\n    tag_480:\n        /* \"#utility.yul\":31407:31410   */\n      0x00\n        /* \"#utility.yul\":31428:31495   */\n      tag_835\n        /* \"#utility.yul\":31492:31494   */\n      0x23\n        /* \"#utility.yul\":31487:31490   */\n      dup4\n        /* \"#utility.yul\":31428:31495   */\n      tag_435\n      jump\t// in\n    tag_835:\n        /* \"#utility.yul\":31421:31495   */\n      swap2\n      pop\n        /* \"#utility.yul\":31504:31597   */\n      tag_836\n        /* \"#utility.yul\":31593:31596   */\n      dup3\n        /* \"#utility.yul\":31504:31597   */\n      tag_479\n      jump\t// in\n    tag_836:\n        /* \"#utility.yul\":31622:31624   */\n      0x40\n        /* \"#utility.yul\":31617:31620   */\n      dup3\n        /* \"#utility.yul\":31613:31625   */\n      add\n        /* \"#utility.yul\":31606:31625   */\n      swap1\n      pop\n        /* \"#utility.yul\":31265:31631   */\n      swap2\n      swap1\n      pop\n      jump\t// out\n        /* \"#utility.yul\":31637:32056   */\n    tag_296:\n        /* \"#utility.yul\":31803:31807   */\n      0x00\n        /* \"#utility.yul\":31841:31843   */\n      0x20\n        /* \"#utility.yul\":31830:31839   */\n      dup3\n        /* \"#utility.yul\":31826:31844   */\n      add\n        /* \"#utility.yul\":31818:31844   */\n      swap1\n      pop\n        /* \"#utility.yul\":31890:31899   */\n      dup2\n        /* \"#utility.yul\":31884:31888   */\n      dup2\n        /* \"#utility.yul\":31880:31900   */\n      sub\n        /* \"#utility.yul\":31876:31877   */\n      0x00\n        /* \"#utility.yul\":31865:31874   */\n      dup4\n        /* \"#utility.yul\":31861:31878   */\n      add\n        /* \"#utility.yul\":31854:31901   */\n      mstore\n        /* \"#utility.yul\":31918:32049   */\n      tag_838\n        /* \"#utility.yul\":32044:32048   */\n      dup2\n        /* \"#utility.yul\":31918:32049   */\n      tag_480\n      jump\t// in\n    tag_838:\n        /* \"#utility.yul\":31910:32049   */\n      swap1\n      pop\n        /* \"#utility.yul\":31637:32056   */\n      swap2\n      swap1\n      pop\n      jump\t// out\n        /* \"#utility.yul\":32062:32282   */\n    tag_481:\n        /* \"#utility.yul\":32202:32236   */\n      0x4e6f6e626c6f636b696e674c7a4170703a20696e76616c6964207061796c6f61\n        /* \"#utility.yul\":32198:32199   */\n      0x00\n        /* \"#utility.yul\":32190:32196   */\n      dup3\n        /* \"#utility.yul\":32186:32200   */\n      add\n        /* \"#utility.yul\":32179:32237   */\n      mstore\n        /* \"#utility.yul\":32271:32274   */\n      0x6400000000000000000000000000000000000000000000000000000000000000\n        /* \"#utility.yul\":32266:32268   */\n      0x20\n        /* \"#utility.yul\":32258:32264   */\n      dup3\n        /* \"#utility.yul\":32254:32269   */\n      add\n        /* \"#utility.yul\":32247:32275   */\n      mstore\n        /* \"#utility.yul\":32062:32282   */\n      pop\n      jump\t// out\n        /* \"#utility.yul\":32288:32654   */\n    tag_482:\n        /* \"#utility.yul\":32430:32433   */\n      0x00\n        /* \"#utility.yul\":32451:32518   */\n      tag_841\n        /* \"#utility.yul\":32515:32517   */\n      0x21\n        /* \"#utility.yul\":32510:32513   */\n      dup4\n        /* \"#utility.yul\":32451:32518   */\n      tag_435\n      jump\t// in\n    tag_841:\n        /* \"#utility.yul\":32444:32518   */\n      swap2\n      pop\n        /* \"#utility.yul\":32527:32620   */\n      tag_842\n        /* \"#utility.yul\":32616:32619   */\n      dup3\n        /* \"#utility.yul\":32527:32620   */\n      tag_481\n      jump\t// in\n    tag_842:\n        /* \"#utility.yul\":32645:32647   */\n      0x40\n        /* \"#utility.yul\":32640:32643   */\n      dup3\n        /* \"#utility.yul\":32636:32648   */\n      add\n        /* \"#utility.yul\":32629:32648   */\n      swap1\n      pop\n        /* \"#utility.yul\":32288:32654   */\n      swap2\n      swap1\n      pop\n      jump\t// out\n        /* \"#utility.yul\":32660:33079   */\n    tag_300:\n        /* \"#utility.yul\":32826:32830   */\n      0x00\n        /* \"#utility.yul\":32864:32866   */\n      0x20\n        /* \"#utility.yul\":32853:32862   */\n      dup3\n        /* \"#utility.yul\":32849:32867   */\n      add\n        /* \"#utility.yul\":32841:32867   */\n      swap1\n      pop\n        /* \"#utility.yul\":32913:32922   */\n      dup2\n        /* \"#utility.yul\":32907:32911   */\n      dup2\n        /* \"#utility.yul\":32903:32923   */\n      sub\n        /* \"#utility.yul\":32899:32900   */\n      0x00\n        /* \"#utility.yul\":32888:32897   */\n      dup4\n        /* \"#utility.yul\":32884:32901   */\n      add\n        /* \"#utility.yul\":32877:32924   */\n      mstore\n        /* \"#utility.yul\":32941:33072   */\n      tag_844\n        /* \"#utility.yul\":33067:33071   */\n      dup2\n        /* \"#utility.yul\":32941:33072   */\n      tag_482\n      jump\t// in\n    tag_844:\n        /* \"#utility.yul\":32933:33072   */\n      swap1\n      pop\n        /* \"#utility.yul\":32660:33079   */\n      swap2\n      swap1\n      pop\n      jump\t// out\n        /* \"#utility.yul\":33085:33200   */\n    tag_483:\n        /* \"#utility.yul\":33170:33193   */\n      tag_846\n        /* \"#utility.yul\":33187:33192   */\n      dup2\n        /* \"#utility.yul\":33170:33193   */\n      tag_408\n      jump\t// in\n    tag_846:\n        /* \"#utility.yul\":33165:33168   */\n      dup3\n        /* \"#utility.yul\":33158:33194   */\n      mstore\n        /* \"#utility.yul\":33085:33200   */\n      pop\n      pop\n      jump\t// out\n        /* \"#utility.yul\":33206:33858   */\n    tag_304:\n        /* \"#utility.yul\":33407:33411   */\n      0x00\n        /* \"#utility.yul\":33445:33448   */\n      0x80\n        /* \"#utility.yul\":33434:33443   */\n      dup3\n        /* \"#utility.yul\":33430:33449   */\n      add\n        /* \"#utility.yul\":33422:33449   */\n      swap1\n      pop\n        /* \"#utility.yul\":33459:33528   */\n      tag_848\n        /* \"#utility.yul\":33525:33526   */\n      0x00\n        /* \"#utility.yul\":33514:33523   */\n      dup4\n        /* \"#utility.yul\":33510:33527   */\n      add\n        /* \"#utility.yul\":33501:33507   */\n      dup9\n        /* \"#utility.yul\":33459:33528   */\n      tag_454\n      jump\t// in\n    tag_848:\n        /* \"#utility.yul\":33575:33584   */\n      dup2\n        /* \"#utility.yul\":33569:33573   */\n      dup2\n        /* \"#utility.yul\":33565:33585   */\n      sub\n        /* \"#utility.yul\":33560:33562   */\n      0x20\n        /* \"#utility.yul\":33549:33558   */\n      dup4\n        /* \"#utility.yul\":33545:33563   */\n      add\n        /* \"#utility.yul\":33538:33586   */\n      mstore\n        /* \"#utility.yul\":33603:33689   */\n      tag_849\n        /* \"#utility.yul\":33684:33688   */\n      dup2\n        /* \"#utility.yul\":33675:33681   */\n      dup7\n        /* \"#utility.yul\":33667:33673   */\n      dup9\n        /* \"#utility.yul\":33603:33689   */\n      tag_455\n      jump\t// in\n    tag_849:\n        /* \"#utility.yul\":33595:33689   */\n      swap1\n      pop\n        /* \"#utility.yul\":33699:33769   */\n      tag_850\n        /* \"#utility.yul\":33765:33767   */\n      0x40\n        /* \"#utility.yul\":33754:33763   */\n      dup4\n        /* \"#utility.yul\":33750:33768   */\n      add\n        /* \"#utility.yul\":33741:33747   */\n      dup6\n        /* \"#utility.yul\":33699:33769   */\n      tag_483\n      jump\t// in\n    tag_850:\n        /* \"#utility.yul\":33779:33851   */\n      tag_851\n        /* \"#utility.yul\":33847:33849   */\n      0x60\n        /* \"#utility.yul\":33836:33845   */\n      dup4\n        /* \"#utility.yul\":33832:33850   */\n      add\n        /* \"#utility.yul\":33823:33829   */\n      dup5\n        /* \"#utility.yul\":33779:33851   */\n      tag_426\n      jump\t// in\n    tag_851:\n        /* \"#utility.yul\":33206:33858   */\n      swap7\n      swap6\n      pop\n      pop\n      pop\n      pop\n      pop\n      pop\n      jump\t// out\n        /* \"#utility.yul\":33864:34298   */\n    tag_309:\n        /* \"#utility.yul\":34009:34013   */\n      0x00\n        /* \"#utility.yul\":34047:34049   */\n      0x60\n        /* \"#utility.yul\":34036:34045   */\n      dup3\n        /* \"#utility.yul\":34032:34050   */\n      add\n        /* \"#utility.yul\":34024:34050   */\n      swap1\n      pop\n        /* \"#utility.yul\":34060:34129   */\n      tag_853\n        /* \"#utility.yul\":34126:34127   */\n      0x00\n        /* \"#utility.yul\":34115:34124   */\n      dup4\n        /* \"#utility.yul\":34111:34128   */\n      add\n        /* \"#utility.yul\":34102:34108   */\n      dup7\n        /* \"#utility.yul\":34060:34129   */\n      tag_454\n      jump\t// in\n    tag_853:\n        /* \"#utility.yul\":34139:34209   */\n      tag_854\n        /* \"#utility.yul\":34205:34207   */\n      0x20\n        /* \"#utility.yul\":34194:34203   */\n      dup4\n        /* \"#utility.yul\":34190:34208   */\n      add\n        /* \"#utility.yul\":34181:34187   */\n      dup6\n        /* \"#utility.yul\":34139:34209   */\n      tag_454\n      jump\t// in\n    tag_854:\n        /* \"#utility.yul\":34219:34291   */\n      tag_855\n        /* \"#utility.yul\":34287:34289   */\n      0x40\n        /* \"#utility.yul\":34276:34285   */\n      dup4\n        /* \"#utility.yul\":34272:34290   */\n      add\n        /* \"#utility.yul\":34263:34269   */\n      dup5\n        /* \"#utility.yul\":34219:34291   */\n      tag_416\n      jump\t// in\n    tag_855:\n        /* \"#utility.yul\":33864:34298   */\n      swap5\n      swap4\n      pop\n      pop\n      pop\n      pop\n      jump\t// out\n        /* \"#utility.yul\":34304:34400   */\n    tag_484:\n        /* \"#utility.yul\":34362:34368   */\n      0x00\n        /* \"#utility.yul\":34390:34393   */\n      dup3\n        /* \"#utility.yul\":34380:34393   */\n      swap1\n      pop\n        /* \"#utility.yul\":34304:34400   */\n      swap3\n      swap2\n      pop\n      pop\n      jump\t// out\n        /* \"#utility.yul\":34406:35804   */\n    tag_314:\n        /* \"#utility.yul\":34528:34571   */\n      tag_858\n        /* \"#utility.yul\":34567:34570   */\n      dup4\n        /* \"#utility.yul\":34562:34565   */\n      dup4\n        /* \"#utility.yul\":34528:34571   */\n      tag_484\n      jump\t// in\n    tag_858:\n        /* \"#utility.yul\":34636:34654   */\n      0xffffffffffffffff\n        /* \"#utility.yul\":34628:34634   */\n      dup2\n        /* \"#utility.yul\":34625:34655   */\n      gt\n        /* \"#utility.yul\":34622:34678   */\n      iszero\n      tag_859\n      jumpi\n        /* \"#utility.yul\":34658:34676   */\n      tag_860\n      tag_385\n      jump\t// in\n    tag_860:\n        /* \"#utility.yul\":34622:34678   */\n    tag_859:\n        /* \"#utility.yul\":34702:34740   */\n      tag_861\n        /* \"#utility.yul\":34734:34738   */\n      dup3\n        /* \"#utility.yul\":34728:34739   */\n      sload\n        /* \"#utility.yul\":34702:34740   */\n      tag_178\n      jump\t// in\n    tag_861:\n        /* \"#utility.yul\":34787:34853   */\n      tag_862\n        /* \"#utility.yul\":34846:34852   */\n      dup3\n        /* \"#utility.yul\":34838:34844   */\n      dup3\n        /* \"#utility.yul\":34832:34836   */\n      dup6\n        /* \"#utility.yul\":34787:34853   */\n      tag_470\n      jump\t// in\n    tag_862:\n        /* \"#utility.yul\":34880:34881   */\n      0x00\n        /* \"#utility.yul\":34909:34911   */\n      0x1f\n        /* \"#utility.yul\":34901:34907   */\n      dup4\n        /* \"#utility.yul\":34898:34912   */\n      gt\n        /* \"#utility.yul\":34926:34927   */\n      0x01\n        /* \"#utility.yul\":34921:35552   */\n      dup2\n      eq\n      tag_864\n      jumpi\n        /* \"#utility.yul\":35596:35597   */\n      0x00\n        /* \"#utility.yul\":35613:35619   */\n      dup5\n        /* \"#utility.yul\":35610:35694   */\n      iszero\n      tag_865\n      jumpi\n        /* \"#utility.yul\":35669:35678   */\n      dup3\n        /* \"#utility.yul\":35664:35667   */\n      dup8\n        /* \"#utility.yul\":35660:35679   */\n      add\n        /* \"#utility.yul\":35647:35680   */\n      calldataload\n        /* \"#utility.yul\":35638:35680   */\n      swap1\n      pop\n        /* \"#utility.yul\":35610:35694   */\n    tag_865:\n        /* \"#utility.yul\":35720:35787   */\n      tag_866\n        /* \"#utility.yul\":35780:35786   */\n      dup6\n        /* \"#utility.yul\":35773:35778   */\n      dup3\n        /* \"#utility.yul\":35720:35787   */\n      tag_473\n      jump\t// in\n    tag_866:\n        /* \"#utility.yul\":35714:35718   */\n      dup7\n        /* \"#utility.yul\":35707:35788   */\n      sstore\n        /* \"#utility.yul\":35569:35798   */\n      pop\n        /* \"#utility.yul\":34891:35798   */\n      jump(tag_863)\n        /* \"#utility.yul\":34921:35552   */\n    tag_864:\n        /* \"#utility.yul\":34973:34977   */\n      0x1f\n        /* \"#utility.yul\":34969:34978   */\n      not\n        /* \"#utility.yul\":34961:34967   */\n      dup5\n        /* \"#utility.yul\":34957:34979   */\n      and\n        /* \"#utility.yul\":35007:35043   */\n      tag_867\n        /* \"#utility.yul\":35038:35042   */\n      dup7\n        /* \"#utility.yul\":35007:35043   */\n      tag_460\n      jump\t// in\n    tag_867:\n        /* \"#utility.yul\":35065:35066   */\n      0x00\n        /* \"#utility.yul\":35079:35294   */\n    tag_868:\n        /* \"#utility.yul\":35093:35100   */\n      dup3\n        /* \"#utility.yul\":35090:35091   */\n      dup2\n        /* \"#utility.yul\":35087:35101   */\n      lt\n        /* \"#utility.yul\":35079:35294   */\n      iszero\n      tag_870\n      jumpi\n        /* \"#utility.yul\":35179:35188   */\n      dup5\n        /* \"#utility.yul\":35174:35177   */\n      dup10\n        /* \"#utility.yul\":35170:35189   */\n      add\n        /* \"#utility.yul\":35157:35190   */\n      calldataload\n        /* \"#utility.yul\":35149:35155   */\n      dup3\n        /* \"#utility.yul\":35142:35191   */\n      sstore\n        /* \"#utility.yul\":35230:35231   */\n      0x01\n        /* \"#utility.yul\":35222:35228   */\n      dup3\n        /* \"#utility.yul\":35218:35232   */\n      add\n        /* \"#utility.yul\":35208:35232   */\n      swap2\n      pop\n        /* \"#utility.yul\":35277:35279   */\n      0x20\n        /* \"#utility.yul\":35266:35275   */\n      dup6\n        /* \"#utility.yul\":35262:35280   */\n      add\n        /* \"#utility.yul\":35249:35280   */\n      swap5\n      pop\n        /* \"#utility.yul\":35116:35120   */\n      0x20\n        /* \"#utility.yul\":35113:35114   */\n      dup2\n        /* \"#utility.yul\":35109:35121   */\n      add\n        /* \"#utility.yul\":35104:35121   */\n      swap1\n      pop\n        /* \"#utility.yul\":35079:35294   */\n      jump(tag_868)\n    tag_870:\n        /* \"#utility.yul\":35322:35328   */\n      dup7\n        /* \"#utility.yul\":35313:35320   */\n      dup4\n        /* \"#utility.yul\":35310:35329   */\n      lt\n        /* \"#utility.yul\":35307:35493   */\n      iszero\n      tag_871\n      jumpi\n        /* \"#utility.yul\":35387:35396   */\n      dup5\n        /* \"#utility.yul\":35382:35385   */\n      dup10\n        /* \"#utility.yul\":35378:35397   */\n      add\n        /* \"#utility.yul\":35365:35398   */\n      calldataload\n        /* \"#utility.yul\":35430:35478   */\n      tag_872\n        /* \"#utility.yul\":35472:35476   */\n      0x1f\n        /* \"#utility.yul\":35464:35470   */\n      dup10\n        /* \"#utility.yul\":35460:35477   */\n      and\n        /* \"#utility.yul\":35449:35458   */\n      dup3\n        /* \"#utility.yul\":35430:35478   */\n      tag_472\n      jump\t// in\n    tag_872:\n        /* \"#utility.yul\":35422:35428   */\n      dup4\n        /* \"#utility.yul\":35415:35479   */\n      sstore\n        /* \"#utility.yul\":35330:35493   */\n      pop\n        /* \"#utility.yul\":35307:35493   */\n    tag_871:\n        /* \"#utility.yul\":35539:35540   */\n      0x01\n        /* \"#utility.yul\":35535:35536   */\n      0x02\n        /* \"#utility.yul\":35527:35533   */\n      dup9\n        /* \"#utility.yul\":35523:35537   */\n      mul\n        /* \"#utility.yul\":35519:35541   */\n      add\n        /* \"#utility.yul\":35513:35517   */\n      dup9\n        /* \"#utility.yul\":35506:35542   */\n      sstore\n        /* \"#utility.yul\":34928:35552   */\n      pop\n      pop\n      pop\n        /* \"#utility.yul\":34891:35798   */\n    tag_863:\n      pop\n        /* \"#utility.yul\":34503:35804   */\n      pop\n      pop\n      pop\n        /* \"#utility.yul\":34406:35804   */\n      pop\n      pop\n      pop\n      jump\t// out\n        /* \"#utility.yul\":35810:36035   */\n    tag_485:\n        /* \"#utility.yul\":35950:35984   */\n      0x4f776e61626c653a206e6577206f776e657220697320746865207a65726f2061\n        /* \"#utility.yul\":35946:35947   */\n      0x00\n        /* \"#utility.yul\":35938:35944   */\n      dup3\n        /* \"#utility.yul\":35934:35948   */\n      add\n        /* \"#utility.yul\":35927:35985   */\n      mstore\n        /* \"#utility.yul\":36019:36027   */\n      0x6464726573730000000000000000000000000000000000000000000000000000\n        /* \"#utility.yul\":36014:36016   */\n      0x20\n        /* \"#utility.yul\":36006:36012   */\n      dup3\n        /* \"#utility.yul\":36002:36017   */\n      add\n        /* \"#utility.yul\":35995:36028   */\n      mstore\n        /* \"#utility.yul\":35810:36035   */\n      pop\n      jump\t// out\n        /* \"#utility.yul\":36041:36407   */\n    tag_486:\n        /* \"#utility.yul\":36183:36186   */\n      0x00\n        /* \"#utility.yul\":36204:36271   */\n      tag_875\n        /* \"#utility.yul\":36268:36270   */\n      0x26\n        /* \"#utility.yul\":36263:36266   */\n      dup4\n        /* \"#utility.yul\":36204:36271   */\n      tag_435\n      jump\t// in\n    tag_875:\n        /* \"#utility.yul\":36197:36271   */\n      swap2\n      pop\n        /* \"#utility.yul\":36280:36373   */\n      tag_876\n        /* \"#utility.yul\":36369:36372   */\n      dup3\n        /* \"#utility.yul\":36280:36373   */\n      tag_485\n      jump\t// in\n    tag_876:\n        /* \"#utility.yul\":36398:36400   */\n      0x40\n        /* \"#utility.yul\":36393:36396   */\n      dup3\n        /* \"#utility.yul\":36389:36401   */\n      add\n        /* \"#utility.yul\":36382:36401   */\n      swap1\n      pop\n        /* \"#utility.yul\":36041:36407   */\n      swap2\n      swap1\n      pop\n      jump\t// out\n        /* \"#utility.yul\":36413:36832   */\n    tag_321:\n        /* \"#utility.yul\":36579:36583   */\n      0x00\n        /* \"#utility.yul\":36617:36619   */\n      0x20\n        /* \"#utility.yul\":36606:36615   */\n      dup3\n        /* \"#utility.yul\":36602:36620   */\n      add\n        /* \"#utility.yul\":36594:36620   */\n      swap1\n      pop\n        /* \"#utility.yul\":36666:36675   */\n      dup2\n        /* \"#utility.yul\":36660:36664   */\n      dup2\n        /* \"#utility.yul\":36656:36676   */\n      sub\n        /* \"#utility.yul\":36652:36653   */\n      0x00\n        /* \"#utility.yul\":36641:36650   */\n      dup4\n        /* \"#utility.yul\":36637:36654   */\n      add\n        /* \"#utility.yul\":36630:36677   */\n      mstore\n        /* \"#utility.yul\":36694:36825   */\n      tag_878\n        /* \"#utility.yul\":36820:36824   */\n      dup2\n        /* \"#utility.yul\":36694:36825   */\n      tag_486\n      jump\t// in\n    tag_878:\n        /* \"#utility.yul\":36686:36825   */\n      swap1\n      pop\n        /* \"#utility.yul\":36413:36832   */\n      swap2\n      swap1\n      pop\n      jump\t// out\n        /* \"#utility.yul\":36838:37383   */\n    tag_325:\n        /* \"#utility.yul\":37011:37015   */\n      0x00\n        /* \"#utility.yul\":37049:37052   */\n      0x80\n        /* \"#utility.yul\":37038:37047   */\n      dup3\n        /* \"#utility.yul\":37034:37053   */\n      add\n        /* \"#utility.yul\":37026:37053   */\n      swap1\n      pop\n        /* \"#utility.yul\":37063:37132   */\n      tag_880\n        /* \"#utility.yul\":37129:37130   */\n      0x00\n        /* \"#utility.yul\":37118:37127   */\n      dup4\n        /* \"#utility.yul\":37114:37131   */\n      add\n        /* \"#utility.yul\":37105:37111   */\n      dup8\n        /* \"#utility.yul\":37063:37132   */\n      tag_454\n      jump\t// in\n    tag_880:\n        /* \"#utility.yul\":37142:37212   */\n      tag_881\n        /* \"#utility.yul\":37208:37210   */\n      0x20\n        /* \"#utility.yul\":37197:37206   */\n      dup4\n        /* \"#utility.yul\":37193:37211   */\n      add\n        /* \"#utility.yul\":37184:37190   */\n      dup7\n        /* \"#utility.yul\":37142:37212   */\n      tag_454\n      jump\t// in\n    tag_881:\n        /* \"#utility.yul\":37222:37294   */\n      tag_882\n        /* \"#utility.yul\":37290:37292   */\n      0x40\n        /* \"#utility.yul\":37279:37288   */\n      dup4\n        /* \"#utility.yul\":37275:37293   */\n      add\n        /* \"#utility.yul\":37266:37272   */\n      dup6\n        /* \"#utility.yul\":37222:37294   */\n      tag_441\n      jump\t// in\n    tag_882:\n        /* \"#utility.yul\":37304:37376   */\n      tag_883\n        /* \"#utility.yul\":37372:37374   */\n      0x60\n        /* \"#utility.yul\":37361:37370   */\n      dup4\n        /* \"#utility.yul\":37357:37375   */\n      add\n        /* \"#utility.yul\":37348:37354   */\n      dup5\n        /* \"#utility.yul\":37304:37376   */\n      tag_416\n      jump\t// in\n    tag_883:\n        /* \"#utility.yul\":36838:37383   */\n      swap6\n      swap5\n      pop\n      pop\n      pop\n      pop\n      pop\n      jump\t// out\n        /* \"#utility.yul\":37389:37821   */\n    tag_487:\n        /* \"#utility.yul\":37477:37482   */\n      0x00\n        /* \"#utility.yul\":37502:37567   */\n      tag_885\n        /* \"#utility.yul\":37518:37566   */\n      tag_886\n        /* \"#utility.yul\":37559:37565   */\n      dup5\n        /* \"#utility.yul\":37518:37566   */\n      tag_421\n      jump\t// in\n    tag_886:\n        /* \"#utility.yul\":37502:37567   */\n      tag_420\n      jump\t// in\n    tag_885:\n        /* \"#utility.yul\":37493:37567   */\n      swap1\n      pop\n        /* \"#utility.yul\":37590:37596   */\n      dup3\n        /* \"#utility.yul\":37583:37588   */\n      dup2\n        /* \"#utility.yul\":37576:37597   */\n      mstore\n        /* \"#utility.yul\":37628:37632   */\n      0x20\n        /* \"#utility.yul\":37621:37626   */\n      dup2\n        /* \"#utility.yul\":37617:37633   */\n      add\n        /* \"#utility.yul\":37666:37669   */\n      dup5\n        /* \"#utility.yul\":37657:37663   */\n      dup5\n        /* \"#utility.yul\":37652:37655   */\n      dup5\n        /* \"#utility.yul\":37648:37664   */\n      add\n        /* \"#utility.yul\":37645:37670   */\n      gt\n        /* \"#utility.yul\":37642:37754   */\n      iszero\n      tag_887\n      jumpi\n        /* \"#utility.yul\":37673:37752   */\n      tag_888\n      tag_417\n      jump\t// in\n    tag_888:\n        /* \"#utility.yul\":37642:37754   */\n    tag_887:\n        /* \"#utility.yul\":37763:37815   */\n      tag_889\n        /* \"#utility.yul\":37808:37814   */\n      dup5\n        /* \"#utility.yul\":37803:37806   */\n      dup3\n        /* \"#utility.yul\":37798:37801   */\n      dup6\n        /* \"#utility.yul\":37763:37815   */\n      tag_436\n      jump\t// in\n    tag_889:\n        /* \"#utility.yul\":37483:37821   */\n      pop\n        /* \"#utility.yul\":37389:37821   */\n      swap4\n      swap3\n      pop\n      pop\n      pop\n      jump\t// out\n        /* \"#utility.yul\":37840:38193   */\n    tag_488:\n        /* \"#utility.yul\":37906:37911   */\n      0x00\n        /* \"#utility.yul\":37955:37958   */\n      dup3\n        /* \"#utility.yul\":37948:37952   */\n      0x1f\n        /* \"#utility.yul\":37940:37946   */\n      dup4\n        /* \"#utility.yul\":37936:37953   */\n      add\n        /* \"#utility.yul\":37932:37959   */\n      slt\n        /* \"#utility.yul\":37922:38044   */\n      tag_891\n      jumpi\n        /* \"#utility.yul\":37963:38042   */\n      tag_892\n      tag_404\n      jump\t// in\n    tag_892:\n        /* \"#utility.yul\":37922:38044   */\n    tag_891:\n        /* \"#utility.yul\":38073:38079   */\n      dup2\n        /* \"#utility.yul\":38067:38080   */\n      mload\n        /* \"#utility.yul\":38098:38187   */\n      tag_893\n        /* \"#utility.yul\":38183:38186   */\n      dup5\n        /* \"#utility.yul\":38175:38181   */\n      dup3\n        /* \"#utility.yul\":38168:38172   */\n      0x20\n        /* \"#utility.yul\":38160:38166   */\n      dup7\n        /* \"#utility.yul\":38156:38173   */\n      add\n        /* \"#utility.yul\":38098:38187   */\n      tag_487\n      jump\t// in\n    tag_893:\n        /* \"#utility.yul\":38089:38187   */\n      swap2\n      pop\n        /* \"#utility.yul\":37912:38193   */\n      pop\n        /* \"#utility.yul\":37840:38193   */\n      swap3\n      swap2\n      pop\n      pop\n      jump\t// out\n        /* \"#utility.yul\":38199:38721   */\n    tag_329:\n        /* \"#utility.yul\":38278:38284   */\n      0x00\n        /* \"#utility.yul\":38327:38329   */\n      0x20\n        /* \"#utility.yul\":38315:38324   */\n      dup3\n        /* \"#utility.yul\":38306:38313   */\n      dup5\n        /* \"#utility.yul\":38302:38325   */\n      sub\n        /* \"#utility.yul\":38298:38330   */\n      slt\n        /* \"#utility.yul\":38295:38414   */\n      iszero\n      tag_895\n      jumpi\n        /* \"#utility.yul\":38333:38412   */\n      tag_896\n      tag_399\n      jump\t// in\n    tag_896:\n        /* \"#utility.yul\":38295:38414   */\n    tag_895:\n        /* \"#utility.yul\":38474:38475   */\n      0x00\n        /* \"#utility.yul\":38463:38472   */\n      dup3\n        /* \"#utility.yul\":38459:38476   */\n      add\n        /* \"#utility.yul\":38453:38477   */\n      mload\n        /* \"#utility.yul\":38504:38522   */\n      0xffffffffffffffff\n        /* \"#utility.yul\":38496:38502   */\n      dup2\n        /* \"#utility.yul\":38493:38523   */\n      gt\n        /* \"#utility.yul\":38490:38607   */\n      iszero\n      tag_897\n      jumpi\n        /* \"#utility.yul\":38526:38605   */\n      tag_898\n      tag_400\n      jump\t// in\n    tag_898:\n        /* \"#utility.yul\":38490:38607   */\n    tag_897:\n        /* \"#utility.yul\":38631:38704   */\n      tag_899\n        /* \"#utility.yul\":38696:38703   */\n      dup5\n        /* \"#utility.yul\":38687:38693   */\n      dup3\n        /* \"#utility.yul\":38676:38685   */\n      dup6\n        /* \"#utility.yul\":38672:38694   */\n      add\n        /* \"#utility.yul\":38631:38704   */\n      tag_488\n      jump\t// in\n    tag_899:\n        /* \"#utility.yul\":38621:38704   */\n      swap2\n      pop\n        /* \"#utility.yul\":38424:38714   */\n      pop\n        /* \"#utility.yul\":38199:38721   */\n      swap3\n      swap2\n      pop\n      pop\n      jump\t// out\n        /* \"#utility.yul\":38727:39446   */\n    tag_334:\n        /* \"#utility.yul\":38936:38940   */\n      0x00\n        /* \"#utility.yul\":38974:38977   */\n      0x80\n        /* \"#utility.yul\":38963:38972   */\n      dup3\n        /* \"#utility.yul\":38959:38978   */\n      add\n        /* \"#utility.yul\":38951:38978   */\n      swap1\n      pop\n        /* \"#utility.yul\":38988:39057   */\n      tag_901\n        /* \"#utility.yul\":39054:39055   */\n      0x00\n        /* \"#utility.yul\":39043:39052   */\n      dup4\n        /* \"#utility.yul\":39039:39056   */\n      add\n        /* \"#utility.yul\":39030:39036   */\n      dup8\n        /* \"#utility.yul\":38988:39057   */\n      tag_454\n      jump\t// in\n    tag_901:\n        /* \"#utility.yul\":39104:39113   */\n      dup2\n        /* \"#utility.yul\":39098:39102   */\n      dup2\n        /* \"#utility.yul\":39094:39114   */\n      sub\n        /* \"#utility.yul\":39089:39091   */\n      0x20\n        /* \"#utility.yul\":39078:39087   */\n      dup4\n        /* \"#utility.yul\":39074:39092   */\n      add\n        /* \"#utility.yul\":39067:39115   */\n      mstore\n        /* \"#utility.yul\":39132:39208   */\n      tag_902\n        /* \"#utility.yul\":39203:39207   */\n      dup2\n        /* \"#utility.yul\":39194:39200   */\n      dup7\n        /* \"#utility.yul\":39132:39208   */\n      tag_440\n      jump\t// in\n    tag_902:\n        /* \"#utility.yul\":39124:39208   */\n      swap1\n      pop\n        /* \"#utility.yul\":39218:39288   */\n      tag_903\n        /* \"#utility.yul\":39284:39286   */\n      0x40\n        /* \"#utility.yul\":39273:39282   */\n      dup4\n        /* \"#utility.yul\":39269:39287   */\n      add\n        /* \"#utility.yul\":39260:39266   */\n      dup6\n        /* \"#utility.yul\":39218:39288   */\n      tag_483\n      jump\t// in\n    tag_903:\n        /* \"#utility.yul\":39335:39344   */\n      dup2\n        /* \"#utility.yul\":39329:39333   */\n      dup2\n        /* \"#utility.yul\":39325:39345   */\n      sub\n        /* \"#utility.yul\":39320:39322   */\n      0x60\n        /* \"#utility.yul\":39309:39318   */\n      dup4\n        /* \"#utility.yul\":39305:39323   */\n      add\n        /* \"#utility.yul\":39298:39346   */\n      mstore\n        /* \"#utility.yul\":39363:39439   */\n      tag_904\n        /* \"#utility.yul\":39434:39438   */\n      dup2\n        /* \"#utility.yul\":39425:39431   */\n      dup5\n        /* \"#utility.yul\":39363:39439   */\n      tag_440\n      jump\t// in\n    tag_904:\n        /* \"#utility.yul\":39355:39439   */\n      swap1\n      pop\n        /* \"#utility.yul\":38727:39446   */\n      swap6\n      swap5\n      pop\n      pop\n      pop\n      pop\n      pop\n      jump\t// out\n        /* \"#utility.yul\":39452:39634   */\n    tag_489:\n        /* \"#utility.yul\":39592:39626   */\n      0x4f776e61626c653a2063616c6c6572206973206e6f7420746865206f776e6572\n        /* \"#utility.yul\":39588:39589   */\n      0x00\n        /* \"#utility.yul\":39580:39586   */\n      dup3\n        /* \"#utility.yul\":39576:39590   */\n      add\n        /* \"#utility.yul\":39569:39627   */\n      mstore\n        /* \"#utility.yul\":39452:39634   */\n      pop\n      jump\t// out\n        /* \"#utility.yul\":39640:40006   */\n    tag_490:\n        /* \"#utility.yul\":39782:39785   */\n      0x00\n        /* \"#utility.yul\":39803:39870   */\n      tag_907\n        /* \"#utility.yul\":39867:39869   */\n      0x20\n        /* \"#utility.yul\":39862:39865   */\n      dup4\n        /* \"#utility.yul\":39803:39870   */\n      tag_435\n      jump\t// in\n    tag_907:\n        /* \"#utility.yul\":39796:39870   */\n      swap2\n      pop\n        /* \"#utility.yul\":39879:39972   */\n      tag_908\n        /* \"#utility.yul\":39968:39971   */\n      dup3\n        /* \"#utility.yul\":39879:39972   */\n      tag_489\n      jump\t// in\n    tag_908:\n        /* \"#utility.yul\":39997:39999   */\n      0x20\n        /* \"#utility.yul\":39992:39995   */\n      dup3\n        /* \"#utility.yul\":39988:40000   */\n      add\n        /* \"#utility.yul\":39981:40000   */\n      swap1\n      pop\n        /* \"#utility.yul\":39640:40006   */\n      swap2\n      swap1\n      pop\n      jump\t// out\n        /* \"#utility.yul\":40012:40431   */\n    tag_344:\n        /* \"#utility.yul\":40178:40182   */\n      0x00\n        /* \"#utility.yul\":40216:40218   */\n      0x20\n        /* \"#utility.yul\":40205:40214   */\n      dup3\n        /* \"#utility.yul\":40201:40219   */\n      add\n        /* \"#utility.yul\":40193:40219   */\n      swap1\n      pop\n        /* \"#utility.yul\":40265:40274   */\n      dup2\n        /* \"#utility.yul\":40259:40263   */\n      dup2\n        /* \"#utility.yul\":40255:40275   */\n      sub\n        /* \"#utility.yul\":40251:40252   */\n      0x00\n        /* \"#utility.yul\":40240:40249   */\n      dup4\n        /* \"#utility.yul\":40236:40253   */\n      add\n        /* \"#utility.yul\":40229:40276   */\n      mstore\n        /* \"#utility.yul\":40293:40424   */\n      tag_910\n        /* \"#utility.yul\":40419:40423   */\n      dup2\n        /* \"#utility.yul\":40293:40424   */\n      tag_490\n      jump\t// in\n    tag_910:\n        /* \"#utility.yul\":40285:40424   */\n      swap1\n      pop\n        /* \"#utility.yul\":40012:40431   */\n      swap2\n      swap1\n      pop\n      jump\t// out\n        /* \"#utility.yul\":40437:40672   */\n    tag_491:\n        /* \"#utility.yul\":40577:40611   */\n      0x4c7a4170703a2064657374696e6174696f6e20636861696e206973206e6f7420\n        /* \"#utility.yul\":40573:40574   */\n      0x00\n        /* \"#utility.yul\":40565:40571   */\n      dup3\n        /* \"#utility.yul\":40561:40575   */\n      add\n        /* \"#utility.yul\":40554:40612   */\n      mstore\n        /* \"#utility.yul\":40646:40664   */\n      0x61207472757374656420736f7572636500000000000000000000000000000000\n        /* \"#utility.yul\":40641:40643   */\n      0x20\n        /* \"#utility.yul\":40633:40639   */\n      dup3\n        /* \"#utility.yul\":40629:40644   */\n      add\n        /* \"#utility.yul\":40622:40665   */\n      mstore\n        /* \"#utility.yul\":40437:40672   */\n      pop\n      jump\t// out\n        /* \"#utility.yul\":40678:41044   */\n    tag_492:\n        /* \"#utility.yul\":40820:40823   */\n      0x00\n        /* \"#utility.yul\":40841:40908   */\n      tag_913\n        /* \"#utility.yul\":40905:40907   */\n      0x30\n        /* \"#utility.yul\":40900:40903   */\n      dup4\n        /* \"#utility.yul\":40841:40908   */\n      tag_435\n      jump\t// in\n    tag_913:\n        /* \"#utility.yul\":40834:40908   */\n      swap2\n      pop\n        /* \"#utility.yul\":40917:41010   */\n      tag_914\n        /* \"#utility.yul\":41006:41009   */\n      dup3\n        /* \"#utility.yul\":40917:41010   */\n      tag_491\n      jump\t// in\n    tag_914:\n        /* \"#utility.yul\":41035:41037   */\n      0x40\n        /* \"#utility.yul\":41030:41033   */\n      dup3\n        /* \"#utility.yul\":41026:41038   */\n      add\n        /* \"#utility.yul\":41019:41038   */\n      swap1\n      pop\n        /* \"#utility.yul\":40678:41044   */\n      swap2\n      swap1\n      pop\n      jump\t// out\n        /* \"#utility.yul\":41050:41469   */\n    tag_353:\n        /* \"#utility.yul\":41216:41220   */\n      0x00\n        /* \"#utility.yul\":41254:41256   */\n      0x20\n        /* \"#utility.yul\":41243:41252   */\n      dup3\n        /* \"#utility.yul\":41239:41257   */\n      add\n        /* \"#utility.yul\":41231:41257   */\n      swap1\n      pop\n        /* \"#utility.yul\":41303:41312   */\n      dup2\n        /* \"#utility.yul\":41297:41301   */\n      dup2\n        /* \"#utility.yul\":41293:41313   */\n      sub\n        /* \"#utility.yul\":41289:41290   */\n      0x00\n        /* \"#utility.yul\":41278:41287   */\n      dup4\n        /* \"#utility.yul\":41274:41291   */\n      add\n        /* \"#utility.yul\":41267:41314   */\n      mstore\n        /* \"#utility.yul\":41331:41462   */\n      tag_916\n        /* \"#utility.yul\":41457:41461   */\n      dup2\n        /* \"#utility.yul\":41331:41462   */\n      tag_492\n      jump\t// in\n    tag_916:\n        /* \"#utility.yul\":41323:41462   */\n      swap1\n      pop\n        /* \"#utility.yul\":41050:41469   */\n      swap2\n      swap1\n      pop\n      jump\t// out\n        /* \"#utility.yul\":41475:41579   */\n    tag_493:\n        /* \"#utility.yul\":41520:41527   */\n      0x00\n        /* \"#utility.yul\":41549:41573   */\n      tag_918\n        /* \"#utility.yul\":41567:41572   */\n      dup3\n        /* \"#utility.yul\":41549:41573   */\n      tag_427\n      jump\t// in\n    tag_918:\n        /* \"#utility.yul\":41538:41573   */\n      swap1\n      pop\n        /* \"#utility.yul\":41475:41579   */\n      swap2\n      swap1\n      pop\n      jump\t// out\n        /* \"#utility.yul\":41585:41727   */\n    tag_494:\n        /* \"#utility.yul\":41688:41720   */\n      tag_920\n        /* \"#utility.yul\":41714:41719   */\n      dup2\n        /* \"#utility.yul\":41688:41720   */\n      tag_493\n      jump\t// in\n    tag_920:\n        /* \"#utility.yul\":41683:41686   */\n      dup3\n        /* \"#utility.yul\":41676:41721   */\n      mstore\n        /* \"#utility.yul\":41585:41727   */\n      pop\n      pop\n      jump\t// out\n        /* \"#utility.yul\":41733:42797   */\n    tag_357:\n        /* \"#utility.yul\":42034:42038   */\n      0x00\n        /* \"#utility.yul\":42072:42075   */\n      0xc0\n        /* \"#utility.yul\":42061:42070   */\n      dup3\n        /* \"#utility.yul\":42057:42076   */\n      add\n        /* \"#utility.yul\":42049:42076   */\n      swap1\n      pop\n        /* \"#utility.yul\":42086:42155   */\n      tag_922\n        /* \"#utility.yul\":42152:42153   */\n      0x00\n        /* \"#utility.yul\":42141:42150   */\n      dup4\n        /* \"#utility.yul\":42137:42154   */\n      add\n        /* \"#utility.yul\":42128:42134   */\n      dup10\n        /* \"#utility.yul\":42086:42155   */\n      tag_454\n      jump\t// in\n    tag_922:\n        /* \"#utility.yul\":42202:42211   */\n      dup2\n        /* \"#utility.yul\":42196:42200   */\n      dup2\n        /* \"#utility.yul\":42192:42212   */\n      sub\n        /* \"#utility.yul\":42187:42189   */\n      0x20\n        /* \"#utility.yul\":42176:42185   */\n      dup4\n        /* \"#utility.yul\":42172:42190   */\n      add\n        /* \"#utility.yul\":42165:42213   */\n      mstore\n        /* \"#utility.yul\":42230:42306   */\n      tag_923\n        /* \"#utility.yul\":42301:42305   */\n      dup2\n        /* \"#utility.yul\":42292:42298   */\n      dup9\n        /* \"#utility.yul\":42230:42306   */\n      tag_440\n      jump\t// in\n    tag_923:\n        /* \"#utility.yul\":42222:42306   */\n      swap1\n      pop\n        /* \"#utility.yul\":42353:42362   */\n      dup2\n        /* \"#utility.yul\":42347:42351   */\n      dup2\n        /* \"#utility.yul\":42343:42363   */\n      sub\n        /* \"#utility.yul\":42338:42340   */\n      0x40\n        /* \"#utility.yul\":42327:42336   */\n      dup4\n        /* \"#utility.yul\":42323:42341   */\n      add\n        /* \"#utility.yul\":42316:42364   */\n      mstore\n        /* \"#utility.yul\":42381:42457   */\n      tag_924\n        /* \"#utility.yul\":42452:42456   */\n      dup2\n        /* \"#utility.yul\":42443:42449   */\n      dup8\n        /* \"#utility.yul\":42381:42457   */\n      tag_440\n      jump\t// in\n    tag_924:\n        /* \"#utility.yul\":42373:42457   */\n      swap1\n      pop\n        /* \"#utility.yul\":42467:42555   */\n      tag_925\n        /* \"#utility.yul\":42551:42553   */\n      0x60\n        /* \"#utility.yul\":42540:42549   */\n      dup4\n        /* \"#utility.yul\":42536:42554   */\n      add\n        /* \"#utility.yul\":42527:42533   */\n      dup7\n        /* \"#utility.yul\":42467:42555   */\n      tag_494\n      jump\t// in\n    tag_925:\n        /* \"#utility.yul\":42565:42638   */\n      tag_926\n        /* \"#utility.yul\":42633:42636   */\n      0x80\n        /* \"#utility.yul\":42622:42631   */\n      dup4\n        /* \"#utility.yul\":42618:42637   */\n      add\n        /* \"#utility.yul\":42609:42615   */\n      dup6\n        /* \"#utility.yul\":42565:42638   */\n      tag_441\n      jump\t// in\n    tag_926:\n        /* \"#utility.yul\":42686:42695   */\n      dup2\n        /* \"#utility.yul\":42680:42684   */\n      dup2\n        /* \"#utility.yul\":42676:42696   */\n      sub\n        /* \"#utility.yul\":42670:42673   */\n      0xa0\n        /* \"#utility.yul\":42659:42668   */\n      dup4\n        /* \"#utility.yul\":42655:42674   */\n      add\n        /* \"#utility.yul\":42648:42697   */\n      mstore\n        /* \"#utility.yul\":42714:42790   */\n      tag_927\n        /* \"#utility.yul\":42785:42789   */\n      dup2\n        /* \"#utility.yul\":42776:42782   */\n      dup5\n        /* \"#utility.yul\":42714:42790   */\n      tag_440\n      jump\t// in\n    tag_927:\n        /* \"#utility.yul\":42706:42790   */\n      swap1\n      pop\n        /* \"#utility.yul\":41733:42797   */\n      swap8\n      swap7\n      pop\n      pop\n      pop\n      pop\n      pop\n      pop\n      pop\n      jump\t// out\n        /* \"#utility.yul\":42803:43237   */\n    tag_495:\n        /* \"#utility.yul\":42892:42897   */\n      0x00\n        /* \"#utility.yul\":42917:42983   */\n      tag_929\n        /* \"#utility.yul\":42933:42982   */\n      tag_930\n        /* \"#utility.yul\":42975:42981   */\n      dup5\n        /* \"#utility.yul\":42933:42982   */\n      tag_431\n      jump\t// in\n    tag_930:\n        /* \"#utility.yul\":42917:42983   */\n      tag_420\n      jump\t// in\n    tag_929:\n        /* \"#utility.yul\":42908:42983   */\n      swap1\n      pop\n        /* \"#utility.yul\":43006:43012   */\n      dup3\n        /* \"#utility.yul\":42999:43004   */\n      dup2\n        /* \"#utility.yul\":42992:43013   */\n      mstore\n        /* \"#utility.yul\":43044:43048   */\n      0x20\n        /* \"#utility.yul\":43037:43042   */\n      dup2\n        /* \"#utility.yul\":43033:43049   */\n      add\n        /* \"#utility.yul\":43082:43085   */\n      dup5\n        /* \"#utility.yul\":43073:43079   */\n      dup5\n        /* \"#utility.yul\":43068:43071   */\n      dup5\n        /* \"#utility.yul\":43064:43080   */\n      add\n        /* \"#utility.yul\":43061:43086   */\n      gt\n        /* \"#utility.yul\":43058:43170   */\n      iszero\n      tag_931\n      jumpi\n        /* \"#utility.yul\":43089:43168   */\n      tag_932\n      tag_417\n      jump\t// in\n    tag_932:\n        /* \"#utility.yul\":43058:43170   */\n    tag_931:\n        /* \"#utility.yul\":43179:43231   */\n      tag_933\n        /* \"#utility.yul\":43224:43230   */\n      dup5\n        /* \"#utility.yul\":43219:43222   */\n      dup3\n        /* \"#utility.yul\":43214:43217   */\n      dup6\n        /* \"#utility.yul\":43179:43231   */\n      tag_436\n      jump\t// in\n    tag_933:\n        /* \"#utility.yul\":42898:43237   */\n      pop\n        /* \"#utility.yul\":42803:43237   */\n      swap4\n      swap3\n      pop\n      pop\n      pop\n      jump\t// out\n        /* \"#utility.yul\":43257:43612   */\n    tag_496:\n        /* \"#utility.yul\":43324:43329   */\n      0x00\n        /* \"#utility.yul\":43373:43376   */\n      dup3\n        /* \"#utility.yul\":43366:43370   */\n      0x1f\n        /* \"#utility.yul\":43358:43364   */\n      dup4\n        /* \"#utility.yul\":43354:43371   */\n      add\n        /* \"#utility.yul\":43350:43377   */\n      slt\n        /* \"#utility.yul\":43340:43462   */\n      tag_935\n      jumpi\n        /* \"#utility.yul\":43381:43460   */\n      tag_936\n      tag_404\n      jump\t// in\n    tag_936:\n        /* \"#utility.yul\":43340:43462   */\n    tag_935:\n        /* \"#utility.yul\":43491:43497   */\n      dup2\n        /* \"#utility.yul\":43485:43498   */\n      mload\n        /* \"#utility.yul\":43516:43606   */\n      tag_937\n        /* \"#utility.yul\":43602:43605   */\n      dup5\n        /* \"#utility.yul\":43594:43600   */\n      dup3\n        /* \"#utility.yul\":43587:43591   */\n      0x20\n        /* \"#utility.yul\":43579:43585   */\n      dup7\n        /* \"#utility.yul\":43575:43592   */\n      add\n        /* \"#utility.yul\":43516:43606   */\n      tag_495\n      jump\t// in\n    tag_937:\n        /* \"#utility.yul\":43507:43606   */\n      swap2\n      pop\n        /* \"#utility.yul\":43330:43612   */\n      pop\n        /* \"#utility.yul\":43257:43612   */\n      swap3\n      swap2\n      pop\n      pop\n      jump\t// out\n        /* \"#utility.yul\":43618:44142   */\n    tag_363:\n        /* \"#utility.yul\":43698:43704   */\n      0x00\n        /* \"#utility.yul\":43747:43749   */\n      0x20\n        /* \"#utility.yul\":43735:43744   */\n      dup3\n        /* \"#utility.yul\":43726:43733   */\n      dup5\n        /* \"#utility.yul\":43722:43745   */\n      sub\n        /* \"#utility.yul\":43718:43750   */\n      slt\n        /* \"#utility.yul\":43715:43834   */\n      iszero\n      tag_939\n      jumpi\n        /* \"#utility.yul\":43753:43832   */\n      tag_940\n      tag_399\n      jump\t// in\n    tag_940:\n        /* \"#utility.yul\":43715:43834   */\n    tag_939:\n        /* \"#utility.yul\":43894:43895   */\n      0x00\n        /* \"#utility.yul\":43883:43892   */\n      dup3\n        /* \"#utility.yul\":43879:43896   */\n      add\n        /* \"#utility.yul\":43873:43897   */\n      mload\n        /* \"#utility.yul\":43924:43942   */\n      0xffffffffffffffff\n        /* \"#utility.yul\":43916:43922   */\n      dup2\n        /* \"#utility.yul\":43913:43943   */\n      gt\n        /* \"#utility.yul\":43910:44027   */\n      iszero\n      tag_941\n      jumpi\n        /* \"#utility.yul\":43946:44025   */\n      tag_942\n      tag_400\n      jump\t// in\n    tag_942:\n        /* \"#utility.yul\":43910:44027   */\n    tag_941:\n        /* \"#utility.yul\":44051:44125   */\n      tag_943\n        /* \"#utility.yul\":44117:44124   */\n      dup5\n        /* \"#utility.yul\":44108:44114   */\n      dup3\n        /* \"#utility.yul\":44097:44106   */\n      dup6\n        /* \"#utility.yul\":44093:44115   */\n      add\n        /* \"#utility.yul\":44051:44125   */\n      tag_496\n      jump\t// in\n    tag_943:\n        /* \"#utility.yul\":44041:44125   */\n      swap2\n      pop\n        /* \"#utility.yul\":43844:44135   */\n      pop\n        /* \"#utility.yul\":43618:44142   */\n      swap3\n      swap2\n      pop\n      pop\n      jump\t// out\n        /* \"#utility.yul\":44148:44289   */\n    tag_497:\n        /* \"#utility.yul\":44197:44201   */\n      0x00\n        /* \"#utility.yul\":44220:44223   */\n      dup2\n        /* \"#utility.yul\":44212:44223   */\n      swap1\n      pop\n        /* \"#utility.yul\":44243:44246   */\n      dup2\n        /* \"#utility.yul\":44240:44241   */\n      0x00\n        /* \"#utility.yul\":44233:44247   */\n      mstore\n        /* \"#utility.yul\":44277:44281   */\n      0x20\n        /* \"#utility.yul\":44274:44275   */\n      0x00\n        /* \"#utility.yul\":44264:44282   */\n      keccak256\n        /* \"#utility.yul\":44256:44282   */\n      swap1\n      pop\n        /* \"#utility.yul\":44148:44289   */\n      swap2\n      swap1\n      pop\n      jump\t// out\n        /* \"#utility.yul\":44295:44838   */\n    tag_498:\n        /* \"#utility.yul\":44396:44398   */\n      0x1f\n        /* \"#utility.yul\":44391:44394   */\n      dup3\n        /* \"#utility.yul\":44388:44399   */\n      gt\n        /* \"#utility.yul\":44385:44831   */\n      iszero\n      tag_946\n      jumpi\n        /* \"#utility.yul\":44430:44468   */\n      tag_947\n        /* \"#utility.yul\":44462:44467   */\n      dup2\n        /* \"#utility.yul\":44430:44468   */\n      tag_497\n      jump\t// in\n    tag_947:\n        /* \"#utility.yul\":44514:44543   */\n      tag_948\n        /* \"#utility.yul\":44532:44542   */\n      dup5\n        /* \"#utility.yul\":44514:44543   */\n      tag_461\n      jump\t// in\n    tag_948:\n        /* \"#utility.yul\":44504:44512   */\n      dup2\n        /* \"#utility.yul\":44500:44544   */\n      add\n        /* \"#utility.yul\":44697:44699   */\n      0x20\n        /* \"#utility.yul\":44685:44695   */\n      dup6\n        /* \"#utility.yul\":44682:44700   */\n      lt\n        /* \"#utility.yul\":44679:44728   */\n      iszero\n      tag_949\n      jumpi\n        /* \"#utility.yul\":44718:44726   */\n      dup2\n        /* \"#utility.yul\":44703:44726   */\n      swap1\n      pop\n        /* \"#utility.yul\":44679:44728   */\n    tag_949:\n        /* \"#utility.yul\":44741:44821   */\n      tag_950\n        /* \"#utility.yul\":44797:44819   */\n      tag_951\n        /* \"#utility.yul\":44815:44818   */\n      dup6\n        /* \"#utility.yul\":44797:44819   */\n      tag_461\n      jump\t// in\n    tag_951:\n        /* \"#utility.yul\":44787:44795   */\n      dup4\n        /* \"#utility.yul\":44783:44820   */\n      add\n        /* \"#utility.yul\":44770:44781   */\n      dup3\n        /* \"#utility.yul\":44741:44821   */\n      tag_469\n      jump\t// in\n    tag_950:\n        /* \"#utility.yul\":44400:44831   */\n      pop\n      pop\n        /* \"#utility.yul\":44385:44831   */\n    tag_946:\n        /* \"#utility.yul\":44295:44838   */\n      pop\n      pop\n      pop\n      jump\t// out\n        /* \"#utility.yul\":44844:46239   */\n    tag_365:\n        /* \"#utility.yul\":44961:44998   */\n      tag_953\n        /* \"#utility.yul\":44994:44997   */\n      dup3\n        /* \"#utility.yul\":44961:44998   */\n      tag_434\n      jump\t// in\n    tag_953:\n        /* \"#utility.yul\":45063:45081   */\n      0xffffffffffffffff\n        /* \"#utility.yul\":45055:45061   */\n      dup2\n        /* \"#utility.yul\":45052:45082   */\n      gt\n        /* \"#utility.yul\":45049:45105   */\n      iszero\n      tag_954\n      jumpi\n        /* \"#utility.yul\":45085:45103   */\n      tag_955\n      tag_385\n      jump\t// in\n    tag_955:\n        /* \"#utility.yul\":45049:45105   */\n    tag_954:\n        /* \"#utility.yul\":45129:45167   */\n      tag_956\n        /* \"#utility.yul\":45161:45165   */\n      dup3\n        /* \"#utility.yul\":45155:45166   */\n      sload\n        /* \"#utility.yul\":45129:45167   */\n      tag_178\n      jump\t// in\n    tag_956:\n        /* \"#utility.yul\":45214:45281   */\n      tag_957\n        /* \"#utility.yul\":45274:45280   */\n      dup3\n        /* \"#utility.yul\":45266:45272   */\n      dup3\n        /* \"#utility.yul\":45260:45264   */\n      dup6\n        /* \"#utility.yul\":45214:45281   */\n      tag_498\n      jump\t// in\n    tag_957:\n        /* \"#utility.yul\":45308:45309   */\n      0x00\n        /* \"#utility.yul\":45332:45336   */\n      0x20\n        /* \"#utility.yul\":45319:45336   */\n      swap1\n      pop\n        /* \"#utility.yul\":45364:45366   */\n      0x1f\n        /* \"#utility.yul\":45356:45362   */\n      dup4\n        /* \"#utility.yul\":45353:45367   */\n      gt\n        /* \"#utility.yul\":45381:45382   */\n      0x01\n        /* \"#utility.yul\":45376:45994   */\n      dup2\n      eq\n      tag_959\n      jumpi\n        /* \"#utility.yul\":46038:46039   */\n      0x00\n        /* \"#utility.yul\":46055:46061   */\n      dup5\n        /* \"#utility.yul\":46052:46129   */\n      iszero\n      tag_960\n      jumpi\n        /* \"#utility.yul\":46104:46113   */\n      dup3\n        /* \"#utility.yul\":46099:46102   */\n      dup8\n        /* \"#utility.yul\":46095:46114   */\n      add\n        /* \"#utility.yul\":46089:46115   */\n      mload\n        /* \"#utility.yul\":46080:46115   */\n      swap1\n      pop\n        /* \"#utility.yul\":46052:46129   */\n    tag_960:\n        /* \"#utility.yul\":46155:46222   */\n      tag_961\n        /* \"#utility.yul\":46215:46221   */\n      dup6\n        /* \"#utility.yul\":46208:46213   */\n      dup3\n        /* \"#utility.yul\":46155:46222   */\n      tag_473\n      jump\t// in\n    tag_961:\n        /* \"#utility.yul\":46149:46153   */\n      dup7\n        /* \"#utility.yul\":46142:46223   */\n      sstore\n        /* \"#utility.yul\":46011:46233   */\n      pop\n        /* \"#utility.yul\":45346:46233   */\n      jump(tag_958)\n        /* \"#utility.yul\":45376:45994   */\n    tag_959:\n        /* \"#utility.yul\":45428:45432   */\n      0x1f\n        /* \"#utility.yul\":45424:45433   */\n      not\n        /* \"#utility.yul\":45416:45422   */\n      dup5\n        /* \"#utility.yul\":45412:45434   */\n      and\n        /* \"#utility.yul\":45462:45499   */\n      tag_962\n        /* \"#utility.yul\":45494:45498   */\n      dup7\n        /* \"#utility.yul\":45462:45499   */\n      tag_497\n      jump\t// in\n    tag_962:\n        /* \"#utility.yul\":45521:45522   */\n      0x00\n        /* \"#utility.yul\":45535:45743   */\n    tag_963:\n        /* \"#utility.yul\":45549:45556   */\n      dup3\n        /* \"#utility.yul\":45546:45547   */\n      dup2\n        /* \"#utility.yul\":45543:45557   */\n      lt\n        /* \"#utility.yul\":45535:45743   */\n      iszero\n      tag_965\n      jumpi\n        /* \"#utility.yul\":45628:45637   */\n      dup5\n        /* \"#utility.yul\":45623:45626   */\n      dup10\n        /* \"#utility.yul\":45619:45638   */\n      add\n        /* \"#utility.yul\":45613:45639   */\n      mload\n        /* \"#utility.yul\":45605:45611   */\n      dup3\n        /* \"#utility.yul\":45598:45640   */\n      sstore\n        /* \"#utility.yul\":45679:45680   */\n      0x01\n        /* \"#utility.yul\":45671:45677   */\n      dup3\n        /* \"#utility.yul\":45667:45681   */\n      add\n        /* \"#utility.yul\":45657:45681   */\n      swap2\n      pop\n        /* \"#utility.yul\":45726:45728   */\n      0x20\n        /* \"#utility.yul\":45715:45724   */\n      dup6\n        /* \"#utility.yul\":45711:45729   */\n      add\n        /* \"#utility.yul\":45698:45729   */\n      swap5\n      pop\n        /* \"#utility.yul\":45572:45576   */\n      0x20\n        /* \"#utility.yul\":45569:45570   */\n      dup2\n        /* \"#utility.yul\":45565:45577   */\n      add\n        /* \"#utility.yul\":45560:45577   */\n      swap1\n      pop\n        /* \"#utility.yul\":45535:45743   */\n      jump(tag_963)\n    tag_965:\n        /* \"#utility.yul\":45771:45777   */\n      dup7\n        /* \"#utility.yul\":45762:45769   */\n      dup4\n        /* \"#utility.yul\":45759:45778   */\n      lt\n        /* \"#utility.yul\":45756:45935   */\n      iszero\n      tag_966\n      jumpi\n        /* \"#utility.yul\":45829:45838   */\n      dup5\n        /* \"#utility.yul\":45824:45827   */\n      dup10\n        /* \"#utility.yul\":45820:45839   */\n      add\n        /* \"#utility.yul\":45814:45840   */\n      mload\n        /* \"#utility.yul\":45872:45920   */\n      tag_967\n        /* \"#utility.yul\":45914:45918   */\n      0x1f\n        /* \"#utility.yul\":45906:45912   */\n      dup10\n        /* \"#utility.yul\":45902:45919   */\n      and\n        /* \"#utility.yul\":45891:45900   */\n      dup3\n        /* \"#utility.yul\":45872:45920   */\n      tag_472\n      jump\t// in\n    tag_967:\n        /* \"#utility.yul\":45864:45870   */\n      dup4\n        /* \"#utility.yul\":45857:45921   */\n      sstore\n        /* \"#utility.yul\":45779:45935   */\n      pop\n        /* \"#utility.yul\":45756:45935   */\n    tag_966:\n        /* \"#utility.yul\":45981:45982   */\n      0x01\n        /* \"#utility.yul\":45977:45978   */\n      0x02\n        /* \"#utility.yul\":45969:45975   */\n      dup9\n        /* \"#utility.yul\":45965:45979   */\n      mul\n        /* \"#utility.yul\":45961:45983   */\n      add\n        /* \"#utility.yul\":45955:45959   */\n      dup9\n        /* \"#utility.yul\":45948:45984   */\n      sstore\n        /* \"#utility.yul\":45383:45994   */\n      pop\n      pop\n      pop\n        /* \"#utility.yul\":45346:46233   */\n    tag_958:\n      pop\n        /* \"#utility.yul\":44936:46239   */\n      pop\n      pop\n      pop\n        /* \"#utility.yul\":44844:46239   */\n      pop\n      pop\n      jump\t// out\n        /* \"#utility.yul\":46245:46436   */\n    tag_369:\n        /* \"#utility.yul\":46285:46288   */\n      0x00\n        /* \"#utility.yul\":46304:46324   */\n      tag_969\n        /* \"#utility.yul\":46322:46323   */\n      dup3\n        /* \"#utility.yul\":46304:46324   */\n      tag_411\n      jump\t// in\n    tag_969:\n        /* \"#utility.yul\":46299:46324   */\n      swap2\n      pop\n        /* \"#utility.yul\":46338:46358   */\n      tag_970\n        /* \"#utility.yul\":46356:46357   */\n      dup4\n        /* \"#utility.yul\":46338:46358   */\n      tag_411\n      jump\t// in\n    tag_970:\n        /* \"#utility.yul\":46333:46358   */\n      swap3\n      pop\n        /* \"#utility.yul\":46381:46382   */\n      dup3\n        /* \"#utility.yul\":46378:46379   */\n      dup3\n        /* \"#utility.yul\":46374:46383   */\n      add\n        /* \"#utility.yul\":46367:46383   */\n      swap1\n      pop\n        /* \"#utility.yul\":46402:46405   */\n      dup1\n        /* \"#utility.yul\":46399:46400   */\n      dup3\n        /* \"#utility.yul\":46396:46406   */\n      gt\n        /* \"#utility.yul\":46393:46429   */\n      iszero\n      tag_971\n      jumpi\n        /* \"#utility.yul\":46409:46427   */\n      tag_972\n      tag_478\n      jump\t// in\n    tag_972:\n        /* \"#utility.yul\":46393:46429   */\n    tag_971:\n        /* \"#utility.yul\":46245:46436   */\n      swap3\n      swap2\n      pop\n      pop\n      jump\t// out\n        /* \"#utility.yul\":46442:46606   */\n    tag_499:\n        /* \"#utility.yul\":46582:46598   */\n      0x736c6963655f6f766572666c6f77000000000000000000000000000000000000\n        /* \"#utility.yul\":46578:46579   */\n      0x00\n        /* \"#utility.yul\":46570:46576   */\n      dup3\n        /* \"#utility.yul\":46566:46580   */\n      add\n        /* \"#utility.yul\":46559:46599   */\n      mstore\n        /* \"#utility.yul\":46442:46606   */\n      pop\n      jump\t// out\n        /* \"#utility.yul\":46612:46978   */\n    tag_500:\n        /* \"#utility.yul\":46754:46757   */\n      0x00\n        /* \"#utility.yul\":46775:46842   */\n      tag_975\n        /* \"#utility.yul\":46839:46841   */\n      0x0e\n        /* \"#utility.yul\":46834:46837   */\n      dup4\n        /* \"#utility.yul\":46775:46842   */\n      tag_435\n      jump\t// in\n    tag_975:\n        /* \"#utility.yul\":46768:46842   */\n      swap2\n      pop\n        /* \"#utility.yul\":46851:46944   */\n      tag_976\n        /* \"#utility.yul\":46940:46943   */\n      dup3\n        /* \"#utility.yul\":46851:46944   */\n      tag_499\n      jump\t// in\n    tag_976:\n        /* \"#utility.yul\":46969:46971   */\n      0x20\n        /* \"#utility.yul\":46964:46967   */\n      dup3\n        /* \"#utility.yul\":46960:46972   */\n      add\n        /* \"#utility.yul\":46953:46972   */\n      swap1\n      pop\n        /* \"#utility.yul\":46612:46978   */\n      swap2\n      swap1\n      pop\n      jump\t// out\n        /* \"#utility.yul\":46984:47403   */\n    tag_372:\n        /* \"#utility.yul\":47150:47154   */\n      0x00\n        /* \"#utility.yul\":47188:47190   */\n      0x20\n        /* \"#utility.yul\":47177:47186   */\n      dup3\n        /* \"#utility.yul\":47173:47191   */\n      add\n        /* \"#utility.yul\":47165:47191   */\n      swap1\n      pop\n        /* \"#utility.yul\":47237:47246   */\n      dup2\n        /* \"#utility.yul\":47231:47235   */\n      dup2\n        /* \"#utility.yul\":47227:47247   */\n      sub\n        /* \"#utility.yul\":47223:47224   */\n      0x00\n        /* \"#utility.yul\":47212:47221   */\n      dup4\n        /* \"#utility.yul\":47208:47225   */\n      add\n        /* \"#utility.yul\":47201:47248   */\n      mstore\n        /* \"#utility.yul\":47265:47396   */\n      tag_978\n        /* \"#utility.yul\":47391:47395   */\n      dup2\n        /* \"#utility.yul\":47265:47396   */\n      tag_500\n      jump\t// in\n    tag_978:\n        /* \"#utility.yul\":47257:47396   */\n      swap1\n      pop\n        /* \"#utility.yul\":46984:47403   */\n      swap2\n      swap1\n      pop\n      jump\t// out\n        /* \"#utility.yul\":47409:47576   */\n    tag_501:\n        /* \"#utility.yul\":47549:47568   */\n      0x736c6963655f6f75744f66426f756e6473000000000000000000000000000000\n        /* \"#utility.yul\":47545:47546   */\n      0x00\n        /* \"#utility.yul\":47537:47543   */\n      dup3\n        /* \"#utility.yul\":47533:47547   */\n      add\n        /* \"#utility.yul\":47526:47569   */\n      mstore\n        /* \"#utility.yul\":47409:47576   */\n      pop\n      jump\t// out\n        /* \"#utility.yul\":47582:47948   */\n    tag_502:\n        /* \"#utility.yul\":47724:47727   */\n      0x00\n        /* \"#utility.yul\":47745:47812   */\n      tag_981\n        /* \"#utility.yul\":47809:47811   */\n      0x11\n        /* \"#utility.yul\":47804:47807   */\n      dup4\n        /* \"#utility.yul\":47745:47812   */\n      tag_435\n      jump\t// in\n    tag_981:\n        /* \"#utility.yul\":47738:47812   */\n      swap2\n      pop\n        /* \"#utility.yul\":47821:47914   */\n      tag_982\n        /* \"#utility.yul\":47910:47913   */\n      dup3\n        /* \"#utility.yul\":47821:47914   */\n      tag_501\n      jump\t// in\n    tag_982:\n        /* \"#utility.yul\":47939:47941   */\n      0x20\n        /* \"#utility.yul\":47934:47937   */\n      dup3\n        /* \"#utility.yul\":47930:47942   */\n      add\n        /* \"#utility.yul\":47923:47942   */\n      swap1\n      pop\n        /* \"#utility.yul\":47582:47948   */\n      swap2\n      swap1\n      pop\n      jump\t// out\n        /* \"#utility.yul\":47954:48373   */\n    tag_376:\n        /* \"#utility.yul\":48120:48124   */\n      0x00\n        /* \"#utility.yul\":48158:48160   */\n      0x20\n        /* \"#utility.yul\":48147:48156   */\n      dup3\n        /* \"#utility.yul\":48143:48161   */\n      add\n        /* \"#utility.yul\":48135:48161   */\n      swap1\n      pop\n        /* \"#utility.yul\":48207:48216   */\n      dup2\n        /* \"#utility.yul\":48201:48205   */\n      dup2\n        /* \"#utility.yul\":48197:48217   */\n      sub\n        /* \"#utility.yul\":48193:48194   */\n      0x00\n        /* \"#utility.yul\":48182:48191   */\n      dup4\n        /* \"#utility.yul\":48178:48195   */\n      add\n        /* \"#utility.yul\":48171:48218   */\n      mstore\n        /* \"#utility.yul\":48235:48366   */\n      tag_984\n        /* \"#utility.yul\":48361:48365   */\n      dup2\n        /* \"#utility.yul\":48235:48366   */\n      tag_502\n      jump\t// in\n    tag_984:\n        /* \"#utility.yul\":48227:48366   */\n      swap1\n      pop\n        /* \"#utility.yul\":47954:48373   */\n      swap2\n      swap1\n      pop\n      jump\t// out\n        /* \"#utility.yul\":48379:48765   */\n    tag_503:\n        /* \"#utility.yul\":48483:48486   */\n      0x00\n        /* \"#utility.yul\":48511:48549   */\n      tag_986\n        /* \"#utility.yul\":48543:48548   */\n      dup3\n        /* \"#utility.yul\":48511:48549   */\n      tag_438\n      jump\t// in\n    tag_986:\n        /* \"#utility.yul\":48565:48653   */\n      tag_987\n        /* \"#utility.yul\":48646:48652   */\n      dup2\n        /* \"#utility.yul\":48641:48644   */\n      dup6\n        /* \"#utility.yul\":48565:48653   */\n      tag_450\n      jump\t// in\n    tag_987:\n        /* \"#utility.yul\":48558:48653   */\n      swap4\n      pop\n        /* \"#utility.yul\":48662:48727   */\n      tag_988\n        /* \"#utility.yul\":48720:48726   */\n      dup2\n        /* \"#utility.yul\":48715:48718   */\n      dup6\n        /* \"#utility.yul\":48708:48712   */\n      0x20\n        /* \"#utility.yul\":48701:48706   */\n      dup7\n        /* \"#utility.yul\":48697:48713   */\n      add\n        /* \"#utility.yul\":48662:48727   */\n      tag_436\n      jump\t// in\n    tag_988:\n        /* \"#utility.yul\":48752:48758   */\n      dup1\n        /* \"#utility.yul\":48747:48750   */\n      dup5\n        /* \"#utility.yul\":48743:48759   */\n      add\n        /* \"#utility.yul\":48736:48759   */\n      swap2\n      pop\n        /* \"#utility.yul\":48487:48765   */\n      pop\n        /* \"#utility.yul\":48379:48765   */\n      swap3\n      swap2\n      pop\n      pop\n      jump\t// out\n        /* \"#utility.yul\":48771:49042   */\n    tag_390:\n        /* \"#utility.yul\":48901:48904   */\n      0x00\n        /* \"#utility.yul\":48923:49016   */\n      tag_990\n        /* \"#utility.yul\":49012:49015   */\n      dup3\n        /* \"#utility.yul\":49003:49009   */\n      dup5\n        /* \"#utility.yul\":48923:49016   */\n      tag_503\n      jump\t// in\n    tag_990:\n        /* \"#utility.yul\":48916:49016   */\n      swap2\n      pop\n        /* \"#utility.yul\":49033:49036   */\n      dup2\n        /* \"#utility.yul\":49026:49036   */\n      swap1\n      pop\n        /* \"#utility.yul\":48771:49042   */\n      swap3\n      swap2\n      pop\n      pop\n      jump\t// out\n        /* \"#utility.yul\":49048:49965   */\n    tag_392:\n        /* \"#utility.yul\":49303:49307   */\n      0x00\n        /* \"#utility.yul\":49341:49344   */\n      0xa0\n        /* \"#utility.yul\":49330:49339   */\n      dup3\n        /* \"#utility.yul\":49326:49345   */\n      add\n        /* \"#utility.yul\":49318:49345   */\n      swap1\n      pop\n        /* \"#utility.yul\":49355:49424   */\n      tag_992\n        /* \"#utility.yul\":49421:49422   */\n      0x00\n        /* \"#utility.yul\":49410:49419   */\n      dup4\n        /* \"#utility.yul\":49406:49423   */\n      add\n        /* \"#utility.yul\":49397:49403   */\n      dup9\n        /* \"#utility.yul\":49355:49424   */\n      tag_454\n      jump\t// in\n    tag_992:\n        /* \"#utility.yul\":49471:49480   */\n      dup2\n        /* \"#utility.yul\":49465:49469   */\n      dup2\n        /* \"#utility.yul\":49461:49481   */\n      sub\n        /* \"#utility.yul\":49456:49458   */\n      0x20\n        /* \"#utility.yul\":49445:49454   */\n      dup4\n        /* \"#utility.yul\":49441:49459   */\n      add\n        /* \"#utility.yul\":49434:49482   */\n      mstore\n        /* \"#utility.yul\":49499:49575   */\n      tag_993\n        /* \"#utility.yul\":49570:49574   */\n      dup2\n        /* \"#utility.yul\":49561:49567   */\n      dup8\n        /* \"#utility.yul\":49499:49575   */\n      tag_440\n      jump\t// in\n    tag_993:\n        /* \"#utility.yul\":49491:49575   */\n      swap1\n      pop\n        /* \"#utility.yul\":49585:49655   */\n      tag_994\n        /* \"#utility.yul\":49651:49653   */\n      0x40\n        /* \"#utility.yul\":49640:49649   */\n      dup4\n        /* \"#utility.yul\":49636:49654   */\n      add\n        /* \"#utility.yul\":49627:49633   */\n      dup7\n        /* \"#utility.yul\":49585:49655   */\n      tag_483\n      jump\t// in\n    tag_994:\n        /* \"#utility.yul\":49702:49711   */\n      dup2\n        /* \"#utility.yul\":49696:49700   */\n      dup2\n        /* \"#utility.yul\":49692:49712   */\n      sub\n        /* \"#utility.yul\":49687:49689   */\n      0x60\n        /* \"#utility.yul\":49676:49685   */\n      dup4\n        /* \"#utility.yul\":49672:49690   */\n      add\n        /* \"#utility.yul\":49665:49713   */\n      mstore\n        /* \"#utility.yul\":49730:49806   */\n      tag_995\n        /* \"#utility.yul\":49801:49805   */\n      dup2\n        /* \"#utility.yul\":49792:49798   */\n      dup6\n        /* \"#utility.yul\":49730:49806   */\n      tag_440\n      jump\t// in\n    tag_995:\n        /* \"#utility.yul\":49722:49806   */\n      swap1\n      pop\n        /* \"#utility.yul\":49854:49863   */\n      dup2\n        /* \"#utility.yul\":49848:49852   */\n      dup2\n        /* \"#utility.yul\":49844:49864   */\n      sub\n        /* \"#utility.yul\":49838:49841   */\n      0x80\n        /* \"#utility.yul\":49827:49836   */\n      dup4\n        /* \"#utility.yul\":49823:49842   */\n      add\n        /* \"#utility.yul\":49816:49865   */\n      mstore\n        /* \"#utility.yul\":49882:49958   */\n      tag_996\n        /* \"#utility.yul\":49953:49957   */\n      dup2\n        /* \"#utility.yul\":49944:49950   */\n      dup5\n        /* \"#utility.yul\":49882:49958   */\n      tag_440\n      jump\t// in\n    tag_996:\n        /* \"#utility.yul\":49874:49958   */\n      swap1\n      pop\n        /* \"#utility.yul\":49048:49965   */\n      swap7\n      swap6\n      pop\n      pop\n      pop\n      pop\n      pop\n      pop\n      jump\t// out\n        /* \"#utility.yul\":49971:50153   */\n    tag_504:\n        /* \"#utility.yul\":50111:50145   */\n      0x4c7a4170703a207061796c6f61642073697a6520697320746f6f206c61726765\n        /* \"#utility.yul\":50107:50108   */\n      0x00\n        /* \"#utility.yul\":50099:50105   */\n      dup3\n        /* \"#utility.yul\":50095:50109   */\n      add\n        /* \"#utility.yul\":50088:50146   */\n      mstore\n        /* \"#utility.yul\":49971:50153   */\n      pop\n      jump\t// out\n        /* \"#utility.yul\":50159:50525   */\n    tag_505:\n        /* \"#utility.yul\":50301:50304   */\n      0x00\n        /* \"#utility.yul\":50322:50389   */\n      tag_999\n        /* \"#utility.yul\":50386:50388   */\n      0x20\n        /* \"#utility.yul\":50381:50384   */\n      dup4\n        /* \"#utility.yul\":50322:50389   */\n      tag_435\n      jump\t// in\n    tag_999:\n        /* \"#utility.yul\":50315:50389   */\n      swap2\n      pop\n        /* \"#utility.yul\":50398:50491   */\n      tag_1000\n        /* \"#utility.yul\":50487:50490   */\n      dup3\n        /* \"#utility.yul\":50398:50491   */\n      tag_504\n      jump\t// in\n    tag_1000:\n        /* \"#utility.yul\":50516:50518   */\n      0x20\n        /* \"#utility.yul\":50511:50514   */\n      dup3\n        /* \"#utility.yul\":50507:50519   */\n      add\n        /* \"#utility.yul\":50500:50519   */\n      swap1\n      pop\n        /* \"#utility.yul\":50159:50525   */\n      swap2\n      swap1\n      pop\n      jump\t// out\n        /* \"#utility.yul\":50531:50950   */\n    tag_397:\n        /* \"#utility.yul\":50697:50701   */\n      0x00\n        /* \"#utility.yul\":50735:50737   */\n      0x20\n        /* \"#utility.yul\":50724:50733   */\n      dup3\n        /* \"#utility.yul\":50720:50738   */\n      add\n        /* \"#utility.yul\":50712:50738   */\n      swap1\n      pop\n        /* \"#utility.yul\":50784:50793   */\n      dup2\n        /* \"#utility.yul\":50778:50782   */\n      dup2\n        /* \"#utility.yul\":50774:50794   */\n      sub\n        /* \"#utility.yul\":50770:50771   */\n      0x00\n        /* \"#utility.yul\":50759:50768   */\n      dup4\n        /* \"#utility.yul\":50755:50772   */\n      add\n        /* \"#utility.yul\":50748:50795   */\n      mstore\n        /* \"#utility.yul\":50812:50943   */\n      tag_1002\n        /* \"#utility.yul\":50938:50942   */\n      dup2\n        /* \"#utility.yul\":50812:50943   */\n      tag_505\n      jump\t// in\n    tag_1002:\n        /* \"#utility.yul\":50804:50943   */\n      swap1\n      pop\n        /* \"#utility.yul\":50531:50950   */\n      swap2\n      swap1\n      pop\n      jump\t// out\n\n    auxdata: 0xa2646970667358221220820dfca7c8a83e0f024ab324d13fbdc687345548641ff202573afa449bab6a3a64736f6c63430008130033\n}\n",
				"bytecode": {
					"linkReferences": {},
					"object": "60a06040526040518060400160405280601481526020017f4e6f7468696e6720726563656976656420796574000000000000000000000000815250600690816200004a9190620004f3565b503480156200005857600080fd5b5060405162003f4d38038062003f4d83398181016040528101906200007e919062000644565b8080620000a062000094620001ad60201b60201c565b620001b560201b60201c565b8073ffffffffffffffffffffffffffffffffffffffff1660808173ffffffffffffffffffffffffffffffffffffffff1681525050505073f69186dfba60ddb133e91e9a4b5673624293d8f873ffffffffffffffffffffffffffffffffffffffff168173ffffffffffffffffffffffffffffffffffffffff16036200013e576127a9600760006101000a81548161ffff021916908361ffff1602179055505b73bfd2135bffbb0b5378b56643c2df8a87552bfa2373ffffffffffffffffffffffffffffffffffffffff168173ffffffffffffffffffffffffffffffffffffffff1603620001a65761277d600760006101000a81548161ffff021916908361ffff1602179055505b5062000676565b600033905090565b60008060009054906101000a900473ffffffffffffffffffffffffffffffffffffffff169050816000806101000a81548173ffffffffffffffffffffffffffffffffffffffff021916908373ffffffffffffffffffffffffffffffffffffffff1602179055508173ffffffffffffffffffffffffffffffffffffffff168173ffffffffffffffffffffffffffffffffffffffff167f8be0079c531659141344cd1fd0a4f28419497f9722a3daafe3b4186f6b6457e060405160405180910390a35050565b600081519050919050565b7f4e487b7100000000000000000000000000000000000000000000000000000000600052604160045260246000fd5b7f4e487b7100000000000000000000000000000000000000000000000000000000600052602260045260246000fd5b60006002820490506001821680620002fb57607f821691505b602082108103620003115762000310620002b3565b5b50919050565b60008190508160005260206000209050919050565b60006020601f8301049050919050565b600082821b905092915050565b6000600883026200037b7fffffffffffffffffffffffffffffffffffffffffffffffffffffffffffffffff826200033c565b6200038786836200033c565b95508019841693508086168417925050509392505050565b6000819050919050565b6000819050919050565b6000620003d4620003ce620003c8846200039f565b620003a9565b6200039f565b9050919050565b6000819050919050565b620003f083620003b3565b62000408620003ff82620003db565b84845462000349565b825550505050565b600090565b6200041f62000410565b6200042c818484620003e5565b505050565b5b8181101562000454576200044860008262000415565b60018101905062000432565b5050565b601f821115620004a3576200046d8162000317565b62000478846200032c565b8101602085101562000488578190505b620004a062000497856200032c565b83018262000431565b50505b505050565b600082821c905092915050565b6000620004c860001984600802620004a8565b1980831691505092915050565b6000620004e38383620004b5565b9150826002028217905092915050565b620004fe8262000279565b67ffffffffffffffff8111156200051a576200051962000284565b5b620005268254620002e2565b6200053382828562000458565b600060209050601f8311600181146200056b576000841562000556578287015190505b620005628582620004d5565b865550620005d2565b601f1984166200057b8662000317565b60005b82811015620005a5578489015182556001820191506020850194506020810190506200057e565b86831015620005c55784890151620005c1601f891682620004b5565b8355505b6001600288020188555050505b505050505050565b600080fd5b600073ffffffffffffffffffffffffffffffffffffffff82169050919050565b60006200060c82620005df565b9050919050565b6200061e81620005ff565b81146200062a57600080fd5b50565b6000815190506200063e8162000613565b92915050565b6000602082840312156200065d576200065c620005da565b5b60006200066d848285016200062d565b91505092915050565b60805161388a620006c3600039600081816106a301528181610901015281816109c301528181610b4501528181611150015281816112050152818161165b0152611952015261388a6000f3fe6080604052600436106101b65760003560e01c80638cfd8f5c116100ec578063c44618341161008a578063df2a5b3b11610064578063df2a5b3b146105e9578063eb8d72b714610612578063f2fde38b1461063b578063f5ecbdbc14610664576101b6565b8063c446183414610579578063cbed8b9c146105a4578063d1deba1f146105cd576101b6565b80639f38369a116100c65780639f38369a146104bf578063a6c3d165146104fc578063b353aaa714610525578063baf3292d14610550576101b6565b80638cfd8f5c1461042c5780638da5cb5b14610469578063950c8a7414610494576101b6565b80635b8c41e61161015957806366ad5c8a1161013357806366ad5c8a14610384578063715018a6146103ad57806373d4a13a146103c45780637533d788146103ef576101b6565b80635b8c41e6146103025780635cdf16491461033f57806366792ba114610368576101b6565b806310ddb1371161019557806310ddb137146102365780633d8b38f61461025f5780633f1f4fa41461029c57806342d65a8d146102d9576101b6565b80621d3567146101bb57806307e0db17146101e45780630df374831461020d575b600080fd5b3480156101c757600080fd5b506101e260048036038101906101dd9190611ea9565b6106a1565b005b3480156101f057600080fd5b5061020b60048036038101906102069190611f50565b6108f7565b005b34801561021957600080fd5b50610234600480360381019061022f9190611fb3565b61098d565b005b34801561024257600080fd5b5061025d60048036038101906102589190611f50565b6109b9565b005b34801561026b57600080fd5b5061028660048036038101906102819190611ff3565b610a4f565b604051610293919061206e565b60405180910390f35b3480156102a857600080fd5b506102c360048036038101906102be9190611f50565b610b23565b6040516102d09190612098565b60405180910390f35b3480156102e557600080fd5b5061030060048036038101906102fb9190611ff3565b610b3b565b005b34801561030e57600080fd5b50610329600480360381019061032491906121f4565b610bd7565b604051610336919061227c565b60405180910390f35b34801561034b57600080fd5b50610366600480360381019061036191906122f5565b610c1f565b005b610382600480360381019061037d91906123c3565b610c84565b005b34801561039057600080fd5b506103ab60048036038101906103a69190611ea9565b610cda565b005b3480156103b957600080fd5b506103c2610deb565b005b3480156103d057600080fd5b506103d9610dff565b6040516103e6919061248b565b60405180910390f35b3480156103fb57600080fd5b5061041660048036038101906104119190611f50565b610e8d565b6040516104239190612502565b60405180910390f35b34801561043857600080fd5b50610453600480360381019061044e9190612524565b610f2d565b6040516104609190612098565b60405180910390f35b34801561047557600080fd5b5061047e610f52565b60405161048b9190612573565b60405180910390f35b3480156104a057600080fd5b506104a9610f7b565b6040516104b69190612573565b60405180910390f35b3480156104cb57600080fd5b506104e660048036038101906104e19190611f50565b610fa1565b6040516104f39190612502565b60405180910390f35b34801561050857600080fd5b50610523600480360381019061051e9190611ff3565b6110ba565b005b34801561053157600080fd5b5061053a61114e565b60405161054791906125ed565b60405180910390f35b34801561055c57600080fd5b50610577600480360381019061057291906122f5565b611172565b005b34801561058557600080fd5b5061058e6111f5565b60405161059b9190612098565b60405180910390f35b3480156105b057600080fd5b506105cb60048036038101906105c69190612608565b6111fb565b005b6105e760048036038101906105e29190611ea9565b61129d565b005b3480156105f557600080fd5b50610610600480360381019061060b9190612690565b6114e0565b005b34801561061e57600080fd5b5061063960048036038101906106349190611ff3565b611561565b005b34801561064757600080fd5b50610662600480360381019061065d91906122f5565b6115d4565b005b34801561067057600080fd5b5061068b600480360381019061068691906126e3565b611657565b6040516106989190612502565b60405180910390f35b7f000000000000000000000000000000000000000000000000000000000000000073ffffffffffffffffffffffffffffffffffffffff166106e0611708565b73ffffffffffffffffffffffffffffffffffffffff1614610736576040517f08c379a000000000000000000000000000000000000000000000000000000000815260040161072d90612796565b60405180910390fd5b6000600160008861ffff1661ffff168152602001908152602001600020805461075e906127e5565b80601f016020809104026020016040519081016040528092919081815260200182805461078a906127e5565b80156107d75780601f106107ac576101008083540402835291602001916107d7565b820191906000526020600020905b8154815290600101906020018083116107ba57829003601f168201915b505050505090508051868690501480156107f2575060008151115b801561081b575080805190602001208686604051610811929190612846565b6040518091039020145b61085a576040517f08c379a0000000000000000000000000000000000000000000000000000000008152600401610851906128d1565b60405180910390fd5b6108ee8787878080601f016020809104026020016040519081016040528093929190818152602001838380828437600081840152601f19601f820116905080830192505050505050508686868080601f016020809104026020016040519081016040528093929190818152602001838380828437600081840152601f19601f82011690508083019250505050505050611710565b50505050505050565b6108ff6117db565b7f000000000000000000000000000000000000000000000000000000000000000073ffffffffffffffffffffffffffffffffffffffff166307e0db17826040518263ffffffff1660e01b81526004016109589190612900565b600060405180830381600087803b15801561097257600080fd5b505af1158015610986573d6000803e3d6000fd5b5050505050565b6109956117db565b80600360008461ffff1661ffff168152602001908152602001600020819055505050565b6109c16117db565b7f000000000000000000000000000000000000000000000000000000000000000073ffffffffffffffffffffffffffffffffffffffff166310ddb137826040518263ffffffff1660e01b8152600401610a1a9190612900565b600060405180830381600087803b158015610a3457600080fd5b505af1158015610a48573d6000803e3d6000fd5b5050505050565b600080600160008661ffff1661ffff1681526020019081526020016000208054610a78906127e5565b80601f0160208091040260200160405190810160405280929190818152602001828054610aa4906127e5565b8015610af15780601f10610ac657610100808354040283529160200191610af1565b820191906000526020600020905b815481529060010190602001808311610ad457829003601f168201915b505050505090508383604051610b08929190612846565b60405180910390208180519060200120149150509392505050565b60036020528060005260406000206000915090505481565b610b436117db565b7f000000000000000000000000000000000000000000000000000000000000000073ffffffffffffffffffffffffffffffffffffffff166342d65a8d8484846040518463ffffffff1660e01b8152600401610ba093929190612948565b600060405180830381600087803b158015610bba57600080fd5b505af1158015610bce573d6000803e3d6000fd5b50505050505050565b60056020528260005260406000208280516020810182018051848252602083016020850120818352809550505050505060205280600052604060002060009250925050505481565b610c276117db565b8030604051602001610c3a9291906129c2565b60405160208183030381529060405260016000600760009054906101000a900461ffff1661ffff1661ffff1681526020019081526020016000209081610c809190612b90565b5050565b600081604051602001610c97919061248b565b6040516020818303038152906040529050610cd6600760009054906101000a900461ffff16823360006040518060200160405280600081525034611859565b5050565b3073ffffffffffffffffffffffffffffffffffffffff16610cf9611708565b73ffffffffffffffffffffffffffffffffffffffff1614610d4f576040517f08c379a0000000000000000000000000000000000000000000000000000000008152600401610d4690612cd4565b60405180910390fd5b610de38686868080601f016020809104026020016040519081016040528093929190818152602001838380828437600081840152601f19601f820116905080830192505050505050508585858080601f016020809104026020016040519081016040528093929190818152602001838380828437600081840152601f19601f820116905080830192505050505050506119ef565b505050505050565b610df36117db565b610dfd6000611a18565b565b60068054610e0c906127e5565b80601f0160208091040260200160405190810160405280929190818152602001828054610e38906127e5565b8015610e855780601f10610e5a57610100808354040283529160200191610e85565b820191906000526020600020905b815481529060010190602001808311610e6857829003601f168201915b505050505081565b60016020528060005260406000206000915090508054610eac906127e5565b80601f0160208091040260200160405190810160405280929190818152602001828054610ed8906127e5565b8015610f255780601f10610efa57610100808354040283529160200191610f25565b820191906000526020600020905b815481529060010190602001808311610f0857829003601f168201915b505050505081565b6002602052816000526040600020602052806000526040600020600091509150505481565b60008060009054906101000a900473ffffffffffffffffffffffffffffffffffffffff16905090565b600460009054906101000a900473ffffffffffffffffffffffffffffffffffffffff1681565b60606000600160008461ffff1661ffff1681526020019081526020016000208054610fcb906127e5565b80601f0160208091040260200160405190810160405280929190818152602001828054610ff7906127e5565b80156110445780601f1061101957610100808354040283529160200191611044565b820191906000526020600020905b81548152906001019060200180831161102757829003601f168201915b50505050509050600081510361108f576040517f08c379a000000000000000000000000000000000000000000000000000000000815260040161108690612d40565b60405180910390fd5b6110b26000601483516110a29190612d8f565b83611adc9092919063ffffffff16565b915050919050565b6110c26117db565b8181306040516020016110d793929190612dc3565b604051602081830303815290604052600160008561ffff1661ffff168152602001908152602001600020908161110d9190612b90565b507f8c0400cfe2d1199b1a725c78960bcc2a344d869b80590d0f2bd005db15a572ce83838360405161114193929190612948565b60405180910390a1505050565b7f000000000000000000000000000000000000000000000000000000000000000081565b61117a6117db565b80600460006101000a81548173ffffffffffffffffffffffffffffffffffffffff021916908373ffffffffffffffffffffffffffffffffffffffff1602179055507f5db758e995a17ec1ad84bdef7e8c3293a0bd6179bcce400dff5d4c3d87db726b816040516111ea9190612573565b60405180910390a150565b61271081565b6112036117db565b7f000000000000000000000000000000000000000000000000000000000000000073ffffffffffffffffffffffffffffffffffffffff1663cbed8b9c86868686866040518663ffffffff1660e01b8152600401611264959493929190612ded565b600060405180830381600087803b15801561127e57600080fd5b505af1158015611292573d6000803e3d6000fd5b505050505050505050565b6000600560008861ffff1661ffff16815260200190815260200160002086866040516112ca929190612846565b908152602001604051809103902060008567ffffffffffffffff1667ffffffffffffffff1681526020019081526020016000205490506000801b8103611345576040517f08c379a000000000000000000000000000000000000000000000000000000000815260040161133c90612ead565b60405180910390fd5b808383604051611356929190612846565b60405180910390201461139e576040517f08c379a000000000000000000000000000000000000000000000000000000000815260040161139590612f3f565b60405180910390fd5b6000801b600560008961ffff1661ffff16815260200190815260200160002087876040516113cd929190612846565b908152602001604051809103902060008667ffffffffffffffff1667ffffffffffffffff168152602001908152602001600020819055506114988787878080601f016020809104026020016040519081016040528093929190818152602001838380828437600081840152601f19601f820116905080830192505050505050508686868080601f016020809104026020016040519081016040528093929190818152602001838380828437600081840152601f19601f820116905080830192505050505050506119ef565b7fc264d91f3adc5588250e1551f547752ca0cfa8f6b530d243b9f9f4cab10ea8e587878787856040516114cf959493929190612f6e565b60405180910390a150505050505050565b6114e86117db565b80600260008561ffff1661ffff16815260200190815260200160002060008461ffff1661ffff168152602001908152602001600020819055507f9d5c7c0b934da8fefa9c7760c98383778a12dfbfc0c3b3106518f43fb9508ac083838360405161155493929190612fbc565b60405180910390a1505050565b6115696117db565b8181600160008661ffff1661ffff1681526020019081526020016000209182611593929190612ffe565b507ffa41487ad5d6728f0b19276fa1eddc16558578f5109fc39d2dc33c3230470dab8383836040516115c793929190612948565b60405180910390a1505050565b6115dc6117db565b600073ffffffffffffffffffffffffffffffffffffffff168173ffffffffffffffffffffffffffffffffffffffff160361164b576040517f08c379a000000000000000000000000000000000000000000000000000000000815260040161164290613140565b60405180910390fd5b61165481611a18565b50565b60607f000000000000000000000000000000000000000000000000000000000000000073ffffffffffffffffffffffffffffffffffffffff1663f5ecbdbc868630866040518563ffffffff1660e01b81526004016116b89493929190613160565b600060405180830381865afa1580156116d5573d6000803e3d6000fd5b505050506040513d6000823e3d601f19601f820116820180604052508101906116fe9190613215565b9050949350505050565b600033905090565b6000806117bc5a60966366ad5c8a60e01b89898989604051602401611738949392919061325e565b604051602081830303815290604052907bffffffffffffffffffffffffffffffffffffffffffffffffffffffff19166020820180517bffffffffffffffffffffffffffffffffffffffffffffffffffffffff83818316178352505050503073ffffffffffffffffffffffffffffffffffffffff16611bfa909392919063ffffffff16565b91509150816117d3576117d28686868685611c92565b5b505050505050565b6117e3611708565b73ffffffffffffffffffffffffffffffffffffffff16611801610f52565b73ffffffffffffffffffffffffffffffffffffffff1614611857576040517f08c379a000000000000000000000000000000000000000000000000000000000815260040161184e906132fd565b60405180910390fd5b565b6000600160008861ffff1661ffff1681526020019081526020016000208054611881906127e5565b80601f01602080910402602001604051908101604052809291908181526020018280546118ad906127e5565b80156118fa5780601f106118cf576101008083540402835291602001916118fa565b820191906000526020600020905b8154815290600101906020018083116118dd57829003601f168201915b505050505090506000815103611945576040517f08c379a000000000000000000000000000000000000000000000000000000000815260040161193c9061338f565b60405180910390fd5b611950878751611d40565b7f000000000000000000000000000000000000000000000000000000000000000073ffffffffffffffffffffffffffffffffffffffff1663c58031008389848a8a8a8a6040518863ffffffff1660e01b81526004016119b4969594939291906133d0565b6000604051808303818588803b1580156119cd57600080fd5b505af11580156119e1573d6000803e3d6000fd5b505050505050505050505050565b80806020019051810190611a0391906134b6565b60069081611a11919061355a565b5050505050565b60008060009054906101000a900473ffffffffffffffffffffffffffffffffffffffff169050816000806101000a81548173ffffffffffffffffffffffffffffffffffffffff021916908373ffffffffffffffffffffffffffffffffffffffff1602179055508173ffffffffffffffffffffffffffffffffffffffff168173ffffffffffffffffffffffffffffffffffffffff167f8be0079c531659141344cd1fd0a4f28419497f9722a3daafe3b4186f6b6457e060405160405180910390a35050565b606081601f83611aec919061362c565b1015611b2d576040517f08c379a0000000000000000000000000000000000000000000000000000000008152600401611b24906136ac565b60405180910390fd5b8183611b39919061362c565b84511015611b7c576040517f08c379a0000000000000000000000000000000000000000000000000000000008152600401611b7390613718565b60405180910390fd5b6060821560008114611b9d5760405191506000825260208201604052611bee565b6040519150601f8416801560200281840101858101878315602002848b0101015b81831015611bdb5780518352602083019250602081019050611bbe565b50868552601f19601f8301166040525050505b50809150509392505050565b6000606060008060008661ffff1667ffffffffffffffff811115611c2157611c206120c9565b5b6040519080825280601f01601f191660200182016040528015611c535781602001600182028036833780820191505090505b50905060008087516020890160008d8df191503d925086831115611c75578692505b828152826000602083013e81819450945050505094509492505050565b8180519060200120600560008761ffff1661ffff16815260200190815260200160002085604051611cc39190613769565b908152602001604051809103902060008567ffffffffffffffff1667ffffffffffffffff168152602001908152602001600020819055507fe183f33de2837795525b4792ca4cd60535bd77c53b7e7030060bfcf5734d6b0c8585858585604051611d31959493929190613780565b60405180910390a15050505050565b6000600360008461ffff1661ffff16815260200190815260200160002054905060008103611d6e5761271090505b80821115611db1576040517f08c379a0000000000000000000000000000000000000000000000000000000008152600401611da890613834565b60405180910390fd5b505050565b6000604051905090565b600080fd5b600080fd5b600061ffff82169050919050565b611de181611dca565b8114611dec57600080fd5b50565b600081359050611dfe81611dd8565b92915050565b600080fd5b600080fd5b600080fd5b60008083601f840112611e2957611e28611e04565b5b8235905067ffffffffffffffff811115611e4657611e45611e09565b5b602083019150836001820283011115611e6257611e61611e0e565b5b9250929050565b600067ffffffffffffffff82169050919050565b611e8681611e69565b8114611e9157600080fd5b50565b600081359050611ea381611e7d565b92915050565b60008060008060008060808789031215611ec657611ec5611dc0565b5b6000611ed489828a01611def565b965050602087013567ffffffffffffffff811115611ef557611ef4611dc5565b5b611f0189828a01611e13565b95509550506040611f1489828a01611e94565b935050606087013567ffffffffffffffff811115611f3557611f34611dc5565b5b611f4189828a01611e13565b92509250509295509295509295565b600060208284031215611f6657611f65611dc0565b5b6000611f7484828501611def565b91505092915050565b6000819050919050565b611f9081611f7d565b8114611f9b57600080fd5b50565b600081359050611fad81611f87565b92915050565b60008060408385031215611fca57611fc9611dc0565b5b6000611fd885828601611def565b9250506020611fe985828601611f9e565b9150509250929050565b60008060006040848603121561200c5761200b611dc0565b5b600061201a86828701611def565b935050602084013567ffffffffffffffff81111561203b5761203a611dc5565b5b61204786828701611e13565b92509250509250925092565b60008115159050919050565b61206881612053565b82525050565b6000602082019050612083600083018461205f565b92915050565b61209281611f7d565b82525050565b60006020820190506120ad6000830184612089565b92915050565b600080fd5b6000601f19601f8301169050919050565b7f4e487b7100000000000000000000000000000000000000000000000000000000600052604160045260246000fd5b612101826120b8565b810181811067ffffffffffffffff821117156121205761211f6120c9565b5b80604052505050565b6000612133611db6565b905061213f82826120f8565b919050565b600067ffffffffffffffff82111561215f5761215e6120c9565b5b612168826120b8565b9050602081019050919050565b82818337600083830152505050565b600061219761219284612144565b612129565b9050828152602081018484840111156121b3576121b26120b3565b5b6121be848285612175565b509392505050565b600082601f8301126121db576121da611e04565b5b81356121eb848260208601612184565b91505092915050565b60008060006060848603121561220d5761220c611dc0565b5b600061221b86828701611def565b935050602084013567ffffffffffffffff81111561223c5761223b611dc5565b5b612248868287016121c6565b925050604061225986828701611e94565b9150509250925092565b6000819050919050565b61227681612263565b82525050565b6000602082019050612291600083018461226d565b92915050565b600073ffffffffffffffffffffffffffffffffffffffff82169050919050565b60006122c282612297565b9050919050565b6122d2816122b7565b81146122dd57600080fd5b50565b6000813590506122ef816122c9565b92915050565b60006020828403121561230b5761230a611dc0565b5b6000612319848285016122e0565b91505092915050565b600067ffffffffffffffff82111561233d5761233c6120c9565b5b612346826120b8565b9050602081019050919050565b600061236661236184612322565b612129565b905082815260208101848484011115612382576123816120b3565b5b61238d848285612175565b509392505050565b600082601f8301126123aa576123a9611e04565b5b81356123ba848260208601612353565b91505092915050565b6000602082840312156123d9576123d8611dc0565b5b600082013567ffffffffffffffff8111156123f7576123f6611dc5565b5b61240384828501612395565b91505092915050565b600081519050919050565b600082825260208201905092915050565b60005b8381101561244657808201518184015260208101905061242b565b60008484015250505050565b600061245d8261240c565b6124678185612417565b9350612477818560208601612428565b612480816120b8565b840191505092915050565b600060208201905081810360008301526124a58184612452565b905092915050565b600081519050919050565b600082825260208201905092915050565b60006124d4826124ad565b6124de81856124b8565b93506124ee818560208601612428565b6124f7816120b8565b840191505092915050565b6000602082019050818103600083015261251c81846124c9565b905092915050565b6000806040838503121561253b5761253a611dc0565b5b600061254985828601611def565b925050602061255a85828601611def565b9150509250929050565b61256d816122b7565b82525050565b60006020820190506125886000830184612564565b92915050565b6000819050919050565b60006125b36125ae6125a984612297565b61258e565b612297565b9050919050565b60006125c582612598565b9050919050565b60006125d7826125ba565b9050919050565b6125e7816125cc565b82525050565b600060208201905061260260008301846125de565b92915050565b60008060008060006080868803121561262457612623611dc0565b5b600061263288828901611def565b955050602061264388828901611def565b945050604061265488828901611f9e565b935050606086013567ffffffffffffffff81111561267557612674611dc5565b5b61268188828901611e13565b92509250509295509295909350565b6000806000606084860312156126a9576126a8611dc0565b5b60006126b786828701611def565b93505060206126c886828701611def565b92505060406126d986828701611f9e565b9150509250925092565b600080600080608085870312156126fd576126fc611dc0565b5b600061270b87828801611def565b945050602061271c87828801611def565b935050604061272d878288016122e0565b925050606061273e87828801611f9e565b91505092959194509250565b7f4c7a4170703a20696e76616c696420656e64706f696e742063616c6c65720000600082015250565b6000612780601e83612417565b915061278b8261274a565b602082019050919050565b600060208201905081810360008301526127af81612773565b9050919050565b7f4e487b7100000000000000000000000000000000000000000000000000000000600052602260045260246000fd5b600060028204905060018216806127fd57607f821691505b6020821081036128105761280f6127b6565b5b50919050565b600081905092915050565b600061282d8385612816565b935061283a838584612175565b82840190509392505050565b6000612853828486612821565b91508190509392505050565b7f4c7a4170703a20696e76616c696420736f757263652073656e64696e6720636f60008201527f6e74726163740000000000000000000000000000000000000000000000000000602082015250565b60006128bb602683612417565b91506128c68261285f565b604082019050919050565b600060208201905081810360008301526128ea816128ae565b9050919050565b6128fa81611dca565b82525050565b600060208201905061291560008301846128f1565b92915050565b600061292783856124b8565b9350612934838584612175565b61293d836120b8565b840190509392505050565b600060408201905061295d60008301866128f1565b818103602083015261297081848661291b565b9050949350505050565b60008160601b9050919050565b60006129928261297a565b9050919050565b60006129a482612987565b9050919050565b6129bc6129b7826122b7565b612999565b82525050565b60006129ce82856129ab565b6014820191506129de82846129ab565b6014820191508190509392505050565b60008190508160005260206000209050919050565b60006020601f8301049050919050565b600082821b905092915050565b600060088302612a507fffffffffffffffffffffffffffffffffffffffffffffffffffffffffffffffff82612a13565b612a5a8683612a13565b95508019841693508086168417925050509392505050565b6000612a8d612a88612a8384611f7d565b61258e565b611f7d565b9050919050565b6000819050919050565b612aa783612a72565b612abb612ab382612a94565b848454612a20565b825550505050565b600090565b612ad0612ac3565b612adb818484612a9e565b505050565b5b81811015612aff57612af4600082612ac8565b600181019050612ae1565b5050565b601f821115612b4457612b15816129ee565b612b1e84612a03565b81016020851015612b2d578190505b612b41612b3985612a03565b830182612ae0565b50505b505050565b600082821c905092915050565b6000612b6760001984600802612b49565b1980831691505092915050565b6000612b808383612b56565b9150826002028217905092915050565b612b99826124ad565b67ffffffffffffffff811115612bb257612bb16120c9565b5b612bbc82546127e5565b612bc7828285612b03565b600060209050601f831160018114612bfa5760008415612be8578287015190505b612bf28582612b74565b865550612c5a565b601f198416612c08866129ee565b60005b82811015612c3057848901518255600182019150602085019450602081019050612c0b565b86831015612c4d5784890151612c49601f891682612b56565b8355505b6001600288020188555050505b505050505050565b7f4e6f6e626c6f636b696e674c7a4170703a2063616c6c6572206d75737420626560008201527f204c7a4170700000000000000000000000000000000000000000000000000000602082015250565b6000612cbe602683612417565b9150612cc982612c62565b604082019050919050565b60006020820190508181036000830152612ced81612cb1565b9050919050565b7f4c7a4170703a206e6f20747275737465642070617468207265636f7264000000600082015250565b6000612d2a601d83612417565b9150612d3582612cf4565b602082019050919050565b60006020820190508181036000830152612d5981612d1d565b9050919050565b7f4e487b7100000000000000000000000000000000000000000000000000000000600052601160045260246000fd5b6000612d9a82611f7d565b9150612da583611f7d565b9250828203905081811115612dbd57612dbc612d60565b5b92915050565b6000612dd0828587612821565b9150612ddc82846129ab565b601482019150819050949350505050565b6000608082019050612e0260008301886128f1565b612e0f60208301876128f1565b612e1c6040830186612089565b8181036060830152612e2f81848661291b565b90509695505050505050565b7f4e6f6e626c6f636b696e674c7a4170703a206e6f2073746f726564206d65737360008201527f6167650000000000000000000000000000000000000000000000000000000000602082015250565b6000612e97602383612417565b9150612ea282612e3b565b604082019050919050565b60006020820190508181036000830152612ec681612e8a565b9050919050565b7f4e6f6e626c6f636b696e674c7a4170703a20696e76616c6964207061796c6f6160008201527f6400000000000000000000000000000000000000000000000000000000000000602082015250565b6000612f29602183612417565b9150612f3482612ecd565b604082019050919050565b60006020820190508181036000830152612f5881612f1c565b9050919050565b612f6881611e69565b82525050565b6000608082019050612f8360008301886128f1565b8181036020830152612f9681868861291b565b9050612fa56040830185612f5f565b612fb2606083018461226d565b9695505050505050565b6000606082019050612fd160008301866128f1565b612fde60208301856128f1565b612feb6040830184612089565b949350505050565b600082905092915050565b6130088383612ff3565b67ffffffffffffffff811115613021576130206120c9565b5b61302b82546127e5565b613036828285612b03565b6000601f8311600181146130655760008415613053578287013590505b61305d8582612b74565b8655506130c5565b601f198416613073866129ee565b60005b8281101561309b57848901358255600182019150602085019450602081019050613076565b868310156130b857848901356130b4601f891682612b56565b8355505b6001600288020188555050505b50505050505050565b7f4f776e61626c653a206e6577206f776e657220697320746865207a65726f206160008201527f6464726573730000000000000000000000000000000000000000000000000000602082015250565b600061312a602683612417565b9150613135826130ce565b604082019050919050565b600060208201905081810360008301526131598161311d565b9050919050565b600060808201905061317560008301876128f1565b61318260208301866128f1565b61318f6040830185612564565b61319c6060830184612089565b95945050505050565b60006131b86131b384612144565b612129565b9050828152602081018484840111156131d4576131d36120b3565b5b6131df848285612428565b509392505050565b600082601f8301126131fc576131fb611e04565b5b815161320c8482602086016131a5565b91505092915050565b60006020828403121561322b5761322a611dc0565b5b600082015167ffffffffffffffff81111561324957613248611dc5565b5b613255848285016131e7565b91505092915050565b600060808201905061327360008301876128f1565b818103602083015261328581866124c9565b90506132946040830185612f5f565b81810360608301526132a681846124c9565b905095945050505050565b7f4f776e61626c653a2063616c6c6572206973206e6f7420746865206f776e6572600082015250565b60006132e7602083612417565b91506132f2826132b1565b602082019050919050565b60006020820190508181036000830152613316816132da565b9050919050565b7f4c7a4170703a2064657374696e6174696f6e20636861696e206973206e6f742060008201527f61207472757374656420736f7572636500000000000000000000000000000000602082015250565b6000613379603083612417565b91506133848261331d565b604082019050919050565b600060208201905081810360008301526133a88161336c565b9050919050565b60006133ba82612297565b9050919050565b6133ca816133af565b82525050565b600060c0820190506133e560008301896128f1565b81810360208301526133f781886124c9565b9050818103604083015261340b81876124c9565b905061341a60608301866133c1565b6134276080830185612564565b81810360a083015261343981846124c9565b9050979650505050505050565b600061345961345484612322565b612129565b905082815260208101848484011115613475576134746120b3565b5b613480848285612428565b509392505050565b600082601f83011261349d5761349c611e04565b5b81516134ad848260208601613446565b91505092915050565b6000602082840312156134cc576134cb611dc0565b5b600082015167ffffffffffffffff8111156134ea576134e9611dc5565b5b6134f684828501613488565b91505092915050565b60008190508160005260206000209050919050565b601f82111561355557613526816134ff565b61352f84612a03565b8101602085101561353e578190505b61355261354a85612a03565b830182612ae0565b50505b505050565b6135638261240c565b67ffffffffffffffff81111561357c5761357b6120c9565b5b61358682546127e5565b613591828285613514565b600060209050601f8311600181146135c457600084156135b2578287015190505b6135bc8582612b74565b865550613624565b601f1984166135d2866134ff565b60005b828110156135fa578489015182556001820191506020850194506020810190506135d5565b868310156136175784890151613613601f891682612b56565b8355505b6001600288020188555050505b505050505050565b600061363782611f7d565b915061364283611f7d565b925082820190508082111561365a57613659612d60565b5b92915050565b7f736c6963655f6f766572666c6f77000000000000000000000000000000000000600082015250565b6000613696600e83612417565b91506136a182613660565b602082019050919050565b600060208201905081810360008301526136c581613689565b9050919050565b7f736c6963655f6f75744f66426f756e6473000000000000000000000000000000600082015250565b6000613702601183612417565b915061370d826136cc565b602082019050919050565b60006020820190508181036000830152613731816136f5565b9050919050565b6000613743826124ad565b61374d8185612816565b935061375d818560208601612428565b80840191505092915050565b60006137758284613738565b915081905092915050565b600060a08201905061379560008301886128f1565b81810360208301526137a781876124c9565b90506137b66040830186612f5f565b81810360608301526137c881856124c9565b905081810360808301526137dc81846124c9565b90509695505050505050565b7f4c7a4170703a207061796c6f61642073697a6520697320746f6f206c61726765600082015250565b600061381e602083612417565b9150613829826137e8565b602082019050919050565b6000602082019050818103600083015261384d81613811565b905091905056fea2646970667358221220820dfca7c8a83e0f024ab324d13fbdc687345548641ff202573afa449bab6a3a64736f6c63430008130033",
					"opcodes": "PUSH1 0xA0 PUSH1 0x40 MSTORE PUSH1 0x40 MLOAD DUP1 PUSH1 0x40 ADD PUSH1 0x40 MSTORE DUP1 PUSH1 0x14 DUP2 MSTORE PUSH1 0x20 ADD PUSH32 0x4E6F7468696E6720726563656976656420796574000000000000000000000000 DUP2 MSTORE POP PUSH1 0x6 SWAP1 DUP2 PUSH3 0x4A SWAP2 SWAP1 PUSH3 0x4F3 JUMP JUMPDEST POP CALLVALUE DUP1 ISZERO PUSH3 0x58 JUMPI PUSH1 0x0 DUP1 REVERT JUMPDEST POP PUSH1 0x40 MLOAD PUSH3 0x3F4D CODESIZE SUB DUP1 PUSH3 0x3F4D DUP4 CODECOPY DUP2 DUP2 ADD PUSH1 0x40 MSTORE DUP2 ADD SWAP1 PUSH3 0x7E SWAP2 SWAP1 PUSH3 0x644 JUMP JUMPDEST DUP1 DUP1 PUSH3 0xA0 PUSH3 0x94 PUSH3 0x1AD PUSH1 0x20 SHL PUSH1 0x20 SHR JUMP JUMPDEST PUSH3 0x1B5 PUSH1 0x20 SHL PUSH1 0x20 SHR JUMP JUMPDEST DUP1 PUSH20 0xFFFFFFFFFFFFFFFFFFFFFFFFFFFFFFFFFFFFFFFF AND PUSH1 0x80 DUP2 PUSH20 0xFFFFFFFFFFFFFFFFFFFFFFFFFFFFFFFFFFFFFFFF AND DUP2 MSTORE POP POP POP POP PUSH20 0xF69186DFBA60DDB133E91E9A4B5673624293D8F8 PUSH20 0xFFFFFFFFFFFFFFFFFFFFFFFFFFFFFFFFFFFFFFFF AND DUP2 PUSH20 0xFFFFFFFFFFFFFFFFFFFFFFFFFFFFFFFFFFFFFFFF AND SUB PUSH3 0x13E JUMPI PUSH2 0x27A9 PUSH1 0x7 PUSH1 0x0 PUSH2 0x100 EXP DUP2 SLOAD DUP2 PUSH2 0xFFFF MUL NOT AND SWAP1 DUP4 PUSH2 0xFFFF AND MUL OR SWAP1 SSTORE POP JUMPDEST PUSH20 0xBFD2135BFFBB0B5378B56643C2DF8A87552BFA23 PUSH20 0xFFFFFFFFFFFFFFFFFFFFFFFFFFFFFFFFFFFFFFFF AND DUP2 PUSH20 0xFFFFFFFFFFFFFFFFFFFFFFFFFFFFFFFFFFFFFFFF AND SUB PUSH3 0x1A6 JUMPI PUSH2 0x277D PUSH1 0x7 PUSH1 0x0 PUSH2 0x100 EXP DUP2 SLOAD DUP2 PUSH2 0xFFFF MUL NOT AND SWAP1 DUP4 PUSH2 0xFFFF AND MUL OR SWAP1 SSTORE POP JUMPDEST POP PUSH3 0x676 JUMP JUMPDEST PUSH1 0x0 CALLER SWAP1 POP SWAP1 JUMP JUMPDEST PUSH1 0x0 DUP1 PUSH1 0x0 SWAP1 SLOAD SWAP1 PUSH2 0x100 EXP SWAP1 DIV PUSH20 0xFFFFFFFFFFFFFFFFFFFFFFFFFFFFFFFFFFFFFFFF AND SWAP1 POP DUP2 PUSH1 0x0 DUP1 PUSH2 0x100 EXP DUP2 SLOAD DUP2 PUSH20 0xFFFFFFFFFFFFFFFFFFFFFFFFFFFFFFFFFFFFFFFF MUL NOT AND SWAP1 DUP4 PUSH20 0xFFFFFFFFFFFFFFFFFFFFFFFFFFFFFFFFFFFFFFFF AND MUL OR SWAP1 SSTORE POP DUP2 PUSH20 0xFFFFFFFFFFFFFFFFFFFFFFFFFFFFFFFFFFFFFFFF AND DUP2 PUSH20 0xFFFFFFFFFFFFFFFFFFFFFFFFFFFFFFFFFFFFFFFF AND PUSH32 0x8BE0079C531659141344CD1FD0A4F28419497F9722A3DAAFE3B4186F6B6457E0 PUSH1 0x40 MLOAD PUSH1 0x40 MLOAD DUP1 SWAP2 SUB SWAP1 LOG3 POP POP JUMP JUMPDEST PUSH1 0x0 DUP2 MLOAD SWAP1 POP SWAP2 SWAP1 POP JUMP JUMPDEST PUSH32 0x4E487B7100000000000000000000000000000000000000000000000000000000 PUSH1 0x0 MSTORE PUSH1 0x41 PUSH1 0x4 MSTORE PUSH1 0x24 PUSH1 0x0 REVERT JUMPDEST PUSH32 0x4E487B7100000000000000000000000000000000000000000000000000000000 PUSH1 0x0 MSTORE PUSH1 0x22 PUSH1 0x4 MSTORE PUSH1 0x24 PUSH1 0x0 REVERT JUMPDEST PUSH1 0x0 PUSH1 0x2 DUP3 DIV SWAP1 POP PUSH1 0x1 DUP3 AND DUP1 PUSH3 0x2FB JUMPI PUSH1 0x7F DUP3 AND SWAP2 POP JUMPDEST PUSH1 0x20 DUP3 LT DUP2 SUB PUSH3 0x311 JUMPI PUSH3 0x310 PUSH3 0x2B3 JUMP JUMPDEST JUMPDEST POP SWAP2 SWAP1 POP JUMP JUMPDEST PUSH1 0x0 DUP2 SWAP1 POP DUP2 PUSH1 0x0 MSTORE PUSH1 0x20 PUSH1 0x0 KECCAK256 SWAP1 POP SWAP2 SWAP1 POP JUMP JUMPDEST PUSH1 0x0 PUSH1 0x20 PUSH1 0x1F DUP4 ADD DIV SWAP1 POP SWAP2 SWAP1 POP JUMP JUMPDEST PUSH1 0x0 DUP3 DUP3 SHL SWAP1 POP SWAP3 SWAP2 POP POP JUMP JUMPDEST PUSH1 0x0 PUSH1 0x8 DUP4 MUL PUSH3 0x37B PUSH32 0xFFFFFFFFFFFFFFFFFFFFFFFFFFFFFFFFFFFFFFFFFFFFFFFFFFFFFFFFFFFFFFFF DUP3 PUSH3 0x33C JUMP JUMPDEST PUSH3 0x387 DUP7 DUP4 PUSH3 0x33C JUMP JUMPDEST SWAP6 POP DUP1 NOT DUP5 AND SWAP4 POP DUP1 DUP7 AND DUP5 OR SWAP3 POP POP POP SWAP4 SWAP3 POP POP POP JUMP JUMPDEST PUSH1 0x0 DUP2 SWAP1 POP SWAP2 SWAP1 POP JUMP JUMPDEST PUSH1 0x0 DUP2 SWAP1 POP SWAP2 SWAP1 POP JUMP JUMPDEST PUSH1 0x0 PUSH3 0x3D4 PUSH3 0x3CE PUSH3 0x3C8 DUP5 PUSH3 0x39F JUMP JUMPDEST PUSH3 0x3A9 JUMP JUMPDEST PUSH3 0x39F JUMP JUMPDEST SWAP1 POP SWAP2 SWAP1 POP JUMP JUMPDEST PUSH1 0x0 DUP2 SWAP1 POP SWAP2 SWAP1 POP JUMP JUMPDEST PUSH3 0x3F0 DUP4 PUSH3 0x3B3 JUMP JUMPDEST PUSH3 0x408 PUSH3 0x3FF DUP3 PUSH3 0x3DB JUMP JUMPDEST DUP5 DUP5 SLOAD PUSH3 0x349 JUMP JUMPDEST DUP3 SSTORE POP POP POP POP JUMP JUMPDEST PUSH1 0x0 SWAP1 JUMP JUMPDEST PUSH3 0x41F PUSH3 0x410 JUMP JUMPDEST PUSH3 0x42C DUP2 DUP5 DUP5 PUSH3 0x3E5 JUMP JUMPDEST POP POP POP JUMP JUMPDEST JUMPDEST DUP2 DUP2 LT ISZERO PUSH3 0x454 JUMPI PUSH3 0x448 PUSH1 0x0 DUP3 PUSH3 0x415 JUMP JUMPDEST PUSH1 0x1 DUP2 ADD SWAP1 POP PUSH3 0x432 JUMP JUMPDEST POP POP JUMP JUMPDEST PUSH1 0x1F DUP3 GT ISZERO PUSH3 0x4A3 JUMPI PUSH3 0x46D DUP2 PUSH3 0x317 JUMP JUMPDEST PUSH3 0x478 DUP5 PUSH3 0x32C JUMP JUMPDEST DUP2 ADD PUSH1 0x20 DUP6 LT ISZERO PUSH3 0x488 JUMPI DUP2 SWAP1 POP JUMPDEST PUSH3 0x4A0 PUSH3 0x497 DUP6 PUSH3 0x32C JUMP JUMPDEST DUP4 ADD DUP3 PUSH3 0x431 JUMP JUMPDEST POP POP JUMPDEST POP POP POP JUMP JUMPDEST PUSH1 0x0 DUP3 DUP3 SHR SWAP1 POP SWAP3 SWAP2 POP POP JUMP JUMPDEST PUSH1 0x0 PUSH3 0x4C8 PUSH1 0x0 NOT DUP5 PUSH1 0x8 MUL PUSH3 0x4A8 JUMP JUMPDEST NOT DUP1 DUP4 AND SWAP2 POP POP SWAP3 SWAP2 POP POP JUMP JUMPDEST PUSH1 0x0 PUSH3 0x4E3 DUP4 DUP4 PUSH3 0x4B5 JUMP JUMPDEST SWAP2 POP DUP3 PUSH1 0x2 MUL DUP3 OR SWAP1 POP SWAP3 SWAP2 POP POP JUMP JUMPDEST PUSH3 0x4FE DUP3 PUSH3 0x279 JUMP JUMPDEST PUSH8 0xFFFFFFFFFFFFFFFF DUP2 GT ISZERO PUSH3 0x51A JUMPI PUSH3 0x519 PUSH3 0x284 JUMP JUMPDEST JUMPDEST PUSH3 0x526 DUP3 SLOAD PUSH3 0x2E2 JUMP JUMPDEST PUSH3 0x533 DUP3 DUP3 DUP6 PUSH3 0x458 JUMP JUMPDEST PUSH1 0x0 PUSH1 0x20 SWAP1 POP PUSH1 0x1F DUP4 GT PUSH1 0x1 DUP2 EQ PUSH3 0x56B JUMPI PUSH1 0x0 DUP5 ISZERO PUSH3 0x556 JUMPI DUP3 DUP8 ADD MLOAD SWAP1 POP JUMPDEST PUSH3 0x562 DUP6 DUP3 PUSH3 0x4D5 JUMP JUMPDEST DUP7 SSTORE POP PUSH3 0x5D2 JUMP JUMPDEST PUSH1 0x1F NOT DUP5 AND PUSH3 0x57B DUP7 PUSH3 0x317 JUMP JUMPDEST PUSH1 0x0 JUMPDEST DUP3 DUP2 LT ISZERO PUSH3 0x5A5 JUMPI DUP5 DUP10 ADD MLOAD DUP3 SSTORE PUSH1 0x1 DUP3 ADD SWAP2 POP PUSH1 0x20 DUP6 ADD SWAP5 POP PUSH1 0x20 DUP2 ADD SWAP1 POP PUSH3 0x57E JUMP JUMPDEST DUP7 DUP4 LT ISZERO PUSH3 0x5C5 JUMPI DUP5 DUP10 ADD MLOAD PUSH3 0x5C1 PUSH1 0x1F DUP10 AND DUP3 PUSH3 0x4B5 JUMP JUMPDEST DUP4 SSTORE POP JUMPDEST PUSH1 0x1 PUSH1 0x2 DUP9 MUL ADD DUP9 SSTORE POP POP POP JUMPDEST POP POP POP POP POP POP JUMP JUMPDEST PUSH1 0x0 DUP1 REVERT JUMPDEST PUSH1 0x0 PUSH20 0xFFFFFFFFFFFFFFFFFFFFFFFFFFFFFFFFFFFFFFFF DUP3 AND SWAP1 POP SWAP2 SWAP1 POP JUMP JUMPDEST PUSH1 0x0 PUSH3 0x60C DUP3 PUSH3 0x5DF JUMP JUMPDEST SWAP1 POP SWAP2 SWAP1 POP JUMP JUMPDEST PUSH3 0x61E DUP2 PUSH3 0x5FF JUMP JUMPDEST DUP2 EQ PUSH3 0x62A JUMPI PUSH1 0x0 DUP1 REVERT JUMPDEST POP JUMP JUMPDEST PUSH1 0x0 DUP2 MLOAD SWAP1 POP PUSH3 0x63E DUP2 PUSH3 0x613 JUMP JUMPDEST SWAP3 SWAP2 POP POP JUMP JUMPDEST PUSH1 0x0 PUSH1 0x20 DUP3 DUP5 SUB SLT ISZERO PUSH3 0x65D JUMPI PUSH3 0x65C PUSH3 0x5DA JUMP JUMPDEST JUMPDEST PUSH1 0x0 PUSH3 0x66D DUP5 DUP3 DUP6 ADD PUSH3 0x62D JUMP JUMPDEST SWAP2 POP POP SWAP3 SWAP2 POP POP JUMP JUMPDEST PUSH1 0x80 MLOAD PUSH2 0x388A PUSH3 0x6C3 PUSH1 0x0 CODECOPY PUSH1 0x0 DUP2 DUP2 PUSH2 0x6A3 ADD MSTORE DUP2 DUP2 PUSH2 0x901 ADD MSTORE DUP2 DUP2 PUSH2 0x9C3 ADD MSTORE DUP2 DUP2 PUSH2 0xB45 ADD MSTORE DUP2 DUP2 PUSH2 0x1150 ADD MSTORE DUP2 DUP2 PUSH2 0x1205 ADD MSTORE DUP2 DUP2 PUSH2 0x165B ADD MSTORE PUSH2 0x1952 ADD MSTORE PUSH2 0x388A PUSH1 0x0 RETURN INVALID PUSH1 0x80 PUSH1 0x40 MSTORE PUSH1 0x4 CALLDATASIZE LT PUSH2 0x1B6 JUMPI PUSH1 0x0 CALLDATALOAD PUSH1 0xE0 SHR DUP1 PUSH4 0x8CFD8F5C GT PUSH2 0xEC JUMPI DUP1 PUSH4 0xC4461834 GT PUSH2 0x8A JUMPI DUP1 PUSH4 0xDF2A5B3B GT PUSH2 0x64 JUMPI DUP1 PUSH4 0xDF2A5B3B EQ PUSH2 0x5E9 JUMPI DUP1 PUSH4 0xEB8D72B7 EQ PUSH2 0x612 JUMPI DUP1 PUSH4 0xF2FDE38B EQ PUSH2 0x63B JUMPI DUP1 PUSH4 0xF5ECBDBC EQ PUSH2 0x664 JUMPI PUSH2 0x1B6 JUMP JUMPDEST DUP1 PUSH4 0xC4461834 EQ PUSH2 0x579 JUMPI DUP1 PUSH4 0xCBED8B9C EQ PUSH2 0x5A4 JUMPI DUP1 PUSH4 0xD1DEBA1F EQ PUSH2 0x5CD JUMPI PUSH2 0x1B6 JUMP JUMPDEST DUP1 PUSH4 0x9F38369A GT PUSH2 0xC6 JUMPI DUP1 PUSH4 0x9F38369A EQ PUSH2 0x4BF JUMPI DUP1 PUSH4 0xA6C3D165 EQ PUSH2 0x4FC JUMPI DUP1 PUSH4 0xB353AAA7 EQ PUSH2 0x525 JUMPI DUP1 PUSH4 0xBAF3292D EQ PUSH2 0x550 JUMPI PUSH2 0x1B6 JUMP JUMPDEST DUP1 PUSH4 0x8CFD8F5C EQ PUSH2 0x42C JUMPI DUP1 PUSH4 0x8DA5CB5B EQ PUSH2 0x469 JUMPI DUP1 PUSH4 0x950C8A74 EQ PUSH2 0x494 JUMPI PUSH2 0x1B6 JUMP JUMPDEST DUP1 PUSH4 0x5B8C41E6 GT PUSH2 0x159 JUMPI DUP1 PUSH4 0x66AD5C8A GT PUSH2 0x133 JUMPI DUP1 PUSH4 0x66AD5C8A EQ PUSH2 0x384 JUMPI DUP1 PUSH4 0x715018A6 EQ PUSH2 0x3AD JUMPI DUP1 PUSH4 0x73D4A13A EQ PUSH2 0x3C4 JUMPI DUP1 PUSH4 0x7533D788 EQ PUSH2 0x3EF JUMPI PUSH2 0x1B6 JUMP JUMPDEST DUP1 PUSH4 0x5B8C41E6 EQ PUSH2 0x302 JUMPI DUP1 PUSH4 0x5CDF1649 EQ PUSH2 0x33F JUMPI DUP1 PUSH4 0x66792BA1 EQ PUSH2 0x368 JUMPI PUSH2 0x1B6 JUMP JUMPDEST DUP1 PUSH4 0x10DDB137 GT PUSH2 0x195 JUMPI DUP1 PUSH4 0x10DDB137 EQ PUSH2 0x236 JUMPI DUP1 PUSH4 0x3D8B38F6 EQ PUSH2 0x25F JUMPI DUP1 PUSH4 0x3F1F4FA4 EQ PUSH2 0x29C JUMPI DUP1 PUSH4 0x42D65A8D EQ PUSH2 0x2D9 JUMPI PUSH2 0x1B6 JUMP JUMPDEST DUP1 PUSH3 0x1D3567 EQ PUSH2 0x1BB JUMPI DUP1 PUSH4 0x7E0DB17 EQ PUSH2 0x1E4 JUMPI DUP1 PUSH4 0xDF37483 EQ PUSH2 0x20D JUMPI JUMPDEST PUSH1 0x0 DUP1 REVERT JUMPDEST CALLVALUE DUP1 ISZERO PUSH2 0x1C7 JUMPI PUSH1 0x0 DUP1 REVERT JUMPDEST POP PUSH2 0x1E2 PUSH1 0x4 DUP1 CALLDATASIZE SUB DUP2 ADD SWAP1 PUSH2 0x1DD SWAP2 SWAP1 PUSH2 0x1EA9 JUMP JUMPDEST PUSH2 0x6A1 JUMP JUMPDEST STOP JUMPDEST CALLVALUE DUP1 ISZERO PUSH2 0x1F0 JUMPI PUSH1 0x0 DUP1 REVERT JUMPDEST POP PUSH2 0x20B PUSH1 0x4 DUP1 CALLDATASIZE SUB DUP2 ADD SWAP1 PUSH2 0x206 SWAP2 SWAP1 PUSH2 0x1F50 JUMP JUMPDEST PUSH2 0x8F7 JUMP JUMPDEST STOP JUMPDEST CALLVALUE DUP1 ISZERO PUSH2 0x219 JUMPI PUSH1 0x0 DUP1 REVERT JUMPDEST POP PUSH2 0x234 PUSH1 0x4 DUP1 CALLDATASIZE SUB DUP2 ADD SWAP1 PUSH2 0x22F SWAP2 SWAP1 PUSH2 0x1FB3 JUMP JUMPDEST PUSH2 0x98D JUMP JUMPDEST STOP JUMPDEST CALLVALUE DUP1 ISZERO PUSH2 0x242 JUMPI PUSH1 0x0 DUP1 REVERT JUMPDEST POP PUSH2 0x25D PUSH1 0x4 DUP1 CALLDATASIZE SUB DUP2 ADD SWAP1 PUSH2 0x258 SWAP2 SWAP1 PUSH2 0x1F50 JUMP JUMPDEST PUSH2 0x9B9 JUMP JUMPDEST STOP JUMPDEST CALLVALUE DUP1 ISZERO PUSH2 0x26B JUMPI PUSH1 0x0 DUP1 REVERT JUMPDEST POP PUSH2 0x286 PUSH1 0x4 DUP1 CALLDATASIZE SUB DUP2 ADD SWAP1 PUSH2 0x281 SWAP2 SWAP1 PUSH2 0x1FF3 JUMP JUMPDEST PUSH2 0xA4F JUMP JUMPDEST PUSH1 0x40 MLOAD PUSH2 0x293 SWAP2 SWAP1 PUSH2 0x206E JUMP JUMPDEST PUSH1 0x40 MLOAD DUP1 SWAP2 SUB SWAP1 RETURN JUMPDEST CALLVALUE DUP1 ISZERO PUSH2 0x2A8 JUMPI PUSH1 0x0 DUP1 REVERT JUMPDEST POP PUSH2 0x2C3 PUSH1 0x4 DUP1 CALLDATASIZE SUB DUP2 ADD SWAP1 PUSH2 0x2BE SWAP2 SWAP1 PUSH2 0x1F50 JUMP JUMPDEST PUSH2 0xB23 JUMP JUMPDEST PUSH1 0x40 MLOAD PUSH2 0x2D0 SWAP2 SWAP1 PUSH2 0x2098 JUMP JUMPDEST PUSH1 0x40 MLOAD DUP1 SWAP2 SUB SWAP1 RETURN JUMPDEST CALLVALUE DUP1 ISZERO PUSH2 0x2E5 JUMPI PUSH1 0x0 DUP1 REVERT JUMPDEST POP PUSH2 0x300 PUSH1 0x4 DUP1 CALLDATASIZE SUB DUP2 ADD SWAP1 PUSH2 0x2FB SWAP2 SWAP1 PUSH2 0x1FF3 JUMP JUMPDEST PUSH2 0xB3B JUMP JUMPDEST STOP JUMPDEST CALLVALUE DUP1 ISZERO PUSH2 0x30E JUMPI PUSH1 0x0 DUP1 REVERT JUMPDEST POP PUSH2 0x329 PUSH1 0x4 DUP1 CALLDATASIZE SUB DUP2 ADD SWAP1 PUSH2 0x324 SWAP2 SWAP1 PUSH2 0x21F4 JUMP JUMPDEST PUSH2 0xBD7 JUMP JUMPDEST PUSH1 0x40 MLOAD PUSH2 0x336 SWAP2 SWAP1 PUSH2 0x227C JUMP JUMPDEST PUSH1 0x40 MLOAD DUP1 SWAP2 SUB SWAP1 RETURN JUMPDEST CALLVALUE DUP1 ISZERO PUSH2 0x34B JUMPI PUSH1 0x0 DUP1 REVERT JUMPDEST POP PUSH2 0x366 PUSH1 0x4 DUP1 CALLDATASIZE SUB DUP2 ADD SWAP1 PUSH2 0x361 SWAP2 SWAP1 PUSH2 0x22F5 JUMP JUMPDEST PUSH2 0xC1F JUMP JUMPDEST STOP JUMPDEST PUSH2 0x382 PUSH1 0x4 DUP1 CALLDATASIZE SUB DUP2 ADD SWAP1 PUSH2 0x37D SWAP2 SWAP1 PUSH2 0x23C3 JUMP JUMPDEST PUSH2 0xC84 JUMP JUMPDEST STOP JUMPDEST CALLVALUE DUP1 ISZERO PUSH2 0x390 JUMPI PUSH1 0x0 DUP1 REVERT JUMPDEST POP PUSH2 0x3AB PUSH1 0x4 DUP1 CALLDATASIZE SUB DUP2 ADD SWAP1 PUSH2 0x3A6 SWAP2 SWAP1 PUSH2 0x1EA9 JUMP JUMPDEST PUSH2 0xCDA JUMP JUMPDEST STOP JUMPDEST CALLVALUE DUP1 ISZERO PUSH2 0x3B9 JUMPI PUSH1 0x0 DUP1 REVERT JUMPDEST POP PUSH2 0x3C2 PUSH2 0xDEB JUMP JUMPDEST STOP JUMPDEST CALLVALUE DUP1 ISZERO PUSH2 0x3D0 JUMPI PUSH1 0x0 DUP1 REVERT JUMPDEST POP PUSH2 0x3D9 PUSH2 0xDFF JUMP JUMPDEST PUSH1 0x40 MLOAD PUSH2 0x3E6 SWAP2 SWAP1 PUSH2 0x248B JUMP JUMPDEST PUSH1 0x40 MLOAD DUP1 SWAP2 SUB SWAP1 RETURN JUMPDEST CALLVALUE DUP1 ISZERO PUSH2 0x3FB JUMPI PUSH1 0x0 DUP1 REVERT JUMPDEST POP PUSH2 0x416 PUSH1 0x4 DUP1 CALLDATASIZE SUB DUP2 ADD SWAP1 PUSH2 0x411 SWAP2 SWAP1 PUSH2 0x1F50 JUMP JUMPDEST PUSH2 0xE8D JUMP JUMPDEST PUSH1 0x40 MLOAD PUSH2 0x423 SWAP2 SWAP1 PUSH2 0x2502 JUMP JUMPDEST PUSH1 0x40 MLOAD DUP1 SWAP2 SUB SWAP1 RETURN JUMPDEST CALLVALUE DUP1 ISZERO PUSH2 0x438 JUMPI PUSH1 0x0 DUP1 REVERT JUMPDEST POP PUSH2 0x453 PUSH1 0x4 DUP1 CALLDATASIZE SUB DUP2 ADD SWAP1 PUSH2 0x44E SWAP2 SWAP1 PUSH2 0x2524 JUMP JUMPDEST PUSH2 0xF2D JUMP JUMPDEST PUSH1 0x40 MLOAD PUSH2 0x460 SWAP2 SWAP1 PUSH2 0x2098 JUMP JUMPDEST PUSH1 0x40 MLOAD DUP1 SWAP2 SUB SWAP1 RETURN JUMPDEST CALLVALUE DUP1 ISZERO PUSH2 0x475 JUMPI PUSH1 0x0 DUP1 REVERT JUMPDEST POP PUSH2 0x47E PUSH2 0xF52 JUMP JUMPDEST PUSH1 0x40 MLOAD PUSH2 0x48B SWAP2 SWAP1 PUSH2 0x2573 JUMP JUMPDEST PUSH1 0x40 MLOAD DUP1 SWAP2 SUB SWAP1 RETURN JUMPDEST CALLVALUE DUP1 ISZERO PUSH2 0x4A0 JUMPI PUSH1 0x0 DUP1 REVERT JUMPDEST POP PUSH2 0x4A9 PUSH2 0xF7B JUMP JUMPDEST PUSH1 0x40 MLOAD PUSH2 0x4B6 SWAP2 SWAP1 PUSH2 0x2573 JUMP JUMPDEST PUSH1 0x40 MLOAD DUP1 SWAP2 SUB SWAP1 RETURN JUMPDEST CALLVALUE DUP1 ISZERO PUSH2 0x4CB JUMPI PUSH1 0x0 DUP1 REVERT JUMPDEST POP PUSH2 0x4E6 PUSH1 0x4 DUP1 CALLDATASIZE SUB DUP2 ADD SWAP1 PUSH2 0x4E1 SWAP2 SWAP1 PUSH2 0x1F50 JUMP JUMPDEST PUSH2 0xFA1 JUMP JUMPDEST PUSH1 0x40 MLOAD PUSH2 0x4F3 SWAP2 SWAP1 PUSH2 0x2502 JUMP JUMPDEST PUSH1 0x40 MLOAD DUP1 SWAP2 SUB SWAP1 RETURN JUMPDEST CALLVALUE DUP1 ISZERO PUSH2 0x508 JUMPI PUSH1 0x0 DUP1 REVERT JUMPDEST POP PUSH2 0x523 PUSH1 0x4 DUP1 CALLDATASIZE SUB DUP2 ADD SWAP1 PUSH2 0x51E SWAP2 SWAP1 PUSH2 0x1FF3 JUMP JUMPDEST PUSH2 0x10BA JUMP JUMPDEST STOP JUMPDEST CALLVALUE DUP1 ISZERO PUSH2 0x531 JUMPI PUSH1 0x0 DUP1 REVERT JUMPDEST POP PUSH2 0x53A PUSH2 0x114E JUMP JUMPDEST PUSH1 0x40 MLOAD PUSH2 0x547 SWAP2 SWAP1 PUSH2 0x25ED JUMP JUMPDEST PUSH1 0x40 MLOAD DUP1 SWAP2 SUB SWAP1 RETURN JUMPDEST CALLVALUE DUP1 ISZERO PUSH2 0x55C JUMPI PUSH1 0x0 DUP1 REVERT JUMPDEST POP PUSH2 0x577 PUSH1 0x4 DUP1 CALLDATASIZE SUB DUP2 ADD SWAP1 PUSH2 0x572 SWAP2 SWAP1 PUSH2 0x22F5 JUMP JUMPDEST PUSH2 0x1172 JUMP JUMPDEST STOP JUMPDEST CALLVALUE DUP1 ISZERO PUSH2 0x585 JUMPI PUSH1 0x0 DUP1 REVERT JUMPDEST POP PUSH2 0x58E PUSH2 0x11F5 JUMP JUMPDEST PUSH1 0x40 MLOAD PUSH2 0x59B SWAP2 SWAP1 PUSH2 0x2098 JUMP JUMPDEST PUSH1 0x40 MLOAD DUP1 SWAP2 SUB SWAP1 RETURN JUMPDEST CALLVALUE DUP1 ISZERO PUSH2 0x5B0 JUMPI PUSH1 0x0 DUP1 REVERT JUMPDEST POP PUSH2 0x5CB PUSH1 0x4 DUP1 CALLDATASIZE SUB DUP2 ADD SWAP1 PUSH2 0x5C6 SWAP2 SWAP1 PUSH2 0x2608 JUMP JUMPDEST PUSH2 0x11FB JUMP JUMPDEST STOP JUMPDEST PUSH2 0x5E7 PUSH1 0x4 DUP1 CALLDATASIZE SUB DUP2 ADD SWAP1 PUSH2 0x5E2 SWAP2 SWAP1 PUSH2 0x1EA9 JUMP JUMPDEST PUSH2 0x129D JUMP JUMPDEST STOP JUMPDEST CALLVALUE DUP1 ISZERO PUSH2 0x5F5 JUMPI PUSH1 0x0 DUP1 REVERT JUMPDEST POP PUSH2 0x610 PUSH1 0x4 DUP1 CALLDATASIZE SUB DUP2 ADD SWAP1 PUSH2 0x60B SWAP2 SWAP1 PUSH2 0x2690 JUMP JUMPDEST PUSH2 0x14E0 JUMP JUMPDEST STOP JUMPDEST CALLVALUE DUP1 ISZERO PUSH2 0x61E JUMPI PUSH1 0x0 DUP1 REVERT JUMPDEST POP PUSH2 0x639 PUSH1 0x4 DUP1 CALLDATASIZE SUB DUP2 ADD SWAP1 PUSH2 0x634 SWAP2 SWAP1 PUSH2 0x1FF3 JUMP JUMPDEST PUSH2 0x1561 JUMP JUMPDEST STOP JUMPDEST CALLVALUE DUP1 ISZERO PUSH2 0x647 JUMPI PUSH1 0x0 DUP1 REVERT JUMPDEST POP PUSH2 0x662 PUSH1 0x4 DUP1 CALLDATASIZE SUB DUP2 ADD SWAP1 PUSH2 0x65D SWAP2 SWAP1 PUSH2 0x22F5 JUMP JUMPDEST PUSH2 0x15D4 JUMP JUMPDEST STOP JUMPDEST CALLVALUE DUP1 ISZERO PUSH2 0x670 JUMPI PUSH1 0x0 DUP1 REVERT JUMPDEST POP PUSH2 0x68B PUSH1 0x4 DUP1 CALLDATASIZE SUB DUP2 ADD SWAP1 PUSH2 0x686 SWAP2 SWAP1 PUSH2 0x26E3 JUMP JUMPDEST PUSH2 0x1657 JUMP JUMPDEST PUSH1 0x40 MLOAD PUSH2 0x698 SWAP2 SWAP1 PUSH2 0x2502 JUMP JUMPDEST PUSH1 0x40 MLOAD DUP1 SWAP2 SUB SWAP1 RETURN JUMPDEST PUSH32 0x0 PUSH20 0xFFFFFFFFFFFFFFFFFFFFFFFFFFFFFFFFFFFFFFFF AND PUSH2 0x6E0 PUSH2 0x1708 JUMP JUMPDEST PUSH20 0xFFFFFFFFFFFFFFFFFFFFFFFFFFFFFFFFFFFFFFFF AND EQ PUSH2 0x736 JUMPI PUSH1 0x40 MLOAD PUSH32 0x8C379A000000000000000000000000000000000000000000000000000000000 DUP2 MSTORE PUSH1 0x4 ADD PUSH2 0x72D SWAP1 PUSH2 0x2796 JUMP JUMPDEST PUSH1 0x40 MLOAD DUP1 SWAP2 SUB SWAP1 REVERT JUMPDEST PUSH1 0x0 PUSH1 0x1 PUSH1 0x0 DUP9 PUSH2 0xFFFF AND PUSH2 0xFFFF AND DUP2 MSTORE PUSH1 0x20 ADD SWAP1 DUP2 MSTORE PUSH1 0x20 ADD PUSH1 0x0 KECCAK256 DUP1 SLOAD PUSH2 0x75E SWAP1 PUSH2 0x27E5 JUMP JUMPDEST DUP1 PUSH1 0x1F ADD PUSH1 0x20 DUP1 SWAP2 DIV MUL PUSH1 0x20 ADD PUSH1 0x40 MLOAD SWAP1 DUP2 ADD PUSH1 0x40 MSTORE DUP1 SWAP3 SWAP2 SWAP1 DUP2 DUP2 MSTORE PUSH1 0x20 ADD DUP3 DUP1 SLOAD PUSH2 0x78A SWAP1 PUSH2 0x27E5 JUMP JUMPDEST DUP1 ISZERO PUSH2 0x7D7 JUMPI DUP1 PUSH1 0x1F LT PUSH2 0x7AC JUMPI PUSH2 0x100 DUP1 DUP4 SLOAD DIV MUL DUP4 MSTORE SWAP2 PUSH1 0x20 ADD SWAP2 PUSH2 0x7D7 JUMP JUMPDEST DUP3 ADD SWAP2 SWAP1 PUSH1 0x0 MSTORE PUSH1 0x20 PUSH1 0x0 KECCAK256 SWAP1 JUMPDEST DUP2 SLOAD DUP2 MSTORE SWAP1 PUSH1 0x1 ADD SWAP1 PUSH1 0x20 ADD DUP1 DUP4 GT PUSH2 0x7BA JUMPI DUP3 SWAP1 SUB PUSH1 0x1F AND DUP3 ADD SWAP2 JUMPDEST POP POP POP POP POP SWAP1 POP DUP1 MLOAD DUP7 DUP7 SWAP1 POP EQ DUP1 ISZERO PUSH2 0x7F2 JUMPI POP PUSH1 0x0 DUP2 MLOAD GT JUMPDEST DUP1 ISZERO PUSH2 0x81B JUMPI POP DUP1 DUP1 MLOAD SWAP1 PUSH1 0x20 ADD KECCAK256 DUP7 DUP7 PUSH1 0x40 MLOAD PUSH2 0x811 SWAP3 SWAP2 SWAP1 PUSH2 0x2846 JUMP JUMPDEST PUSH1 0x40 MLOAD DUP1 SWAP2 SUB SWAP1 KECCAK256 EQ JUMPDEST PUSH2 0x85A JUMPI PUSH1 0x40 MLOAD PUSH32 0x8C379A000000000000000000000000000000000000000000000000000000000 DUP2 MSTORE PUSH1 0x4 ADD PUSH2 0x851 SWAP1 PUSH2 0x28D1 JUMP JUMPDEST PUSH1 0x40 MLOAD DUP1 SWAP2 SUB SWAP1 REVERT JUMPDEST PUSH2 0x8EE DUP8 DUP8 DUP8 DUP1 DUP1 PUSH1 0x1F ADD PUSH1 0x20 DUP1 SWAP2 DIV MUL PUSH1 0x20 ADD PUSH1 0x40 MLOAD SWAP1 DUP2 ADD PUSH1 0x40 MSTORE DUP1 SWAP4 SWAP3 SWAP2 SWAP1 DUP2 DUP2 MSTORE PUSH1 0x20 ADD DUP4 DUP4 DUP1 DUP3 DUP5 CALLDATACOPY PUSH1 0x0 DUP2 DUP5 ADD MSTORE PUSH1 0x1F NOT PUSH1 0x1F DUP3 ADD AND SWAP1 POP DUP1 DUP4 ADD SWAP3 POP POP POP POP POP POP POP DUP7 DUP7 DUP7 DUP1 DUP1 PUSH1 0x1F ADD PUSH1 0x20 DUP1 SWAP2 DIV MUL PUSH1 0x20 ADD PUSH1 0x40 MLOAD SWAP1 DUP2 ADD PUSH1 0x40 MSTORE DUP1 SWAP4 SWAP3 SWAP2 SWAP1 DUP2 DUP2 MSTORE PUSH1 0x20 ADD DUP4 DUP4 DUP1 DUP3 DUP5 CALLDATACOPY PUSH1 0x0 DUP2 DUP5 ADD MSTORE PUSH1 0x1F NOT PUSH1 0x1F DUP3 ADD AND SWAP1 POP DUP1 DUP4 ADD SWAP3 POP POP POP POP POP POP POP PUSH2 0x1710 JUMP JUMPDEST POP POP POP POP POP POP POP JUMP JUMPDEST PUSH2 0x8FF PUSH2 0x17DB JUMP JUMPDEST PUSH32 0x0 PUSH20 0xFFFFFFFFFFFFFFFFFFFFFFFFFFFFFFFFFFFFFFFF AND PUSH4 0x7E0DB17 DUP3 PUSH1 0x40 MLOAD DUP3 PUSH4 0xFFFFFFFF AND PUSH1 0xE0 SHL DUP2 MSTORE PUSH1 0x4 ADD PUSH2 0x958 SWAP2 SWAP1 PUSH2 0x2900 JUMP JUMPDEST PUSH1 0x0 PUSH1 0x40 MLOAD DUP1 DUP4 SUB DUP2 PUSH1 0x0 DUP8 DUP1 EXTCODESIZE ISZERO DUP1 ISZERO PUSH2 0x972 JUMPI PUSH1 0x0 DUP1 REVERT JUMPDEST POP GAS CALL ISZERO DUP1 ISZERO PUSH2 0x986 JUMPI RETURNDATASIZE PUSH1 0x0 DUP1 RETURNDATACOPY RETURNDATASIZE PUSH1 0x0 REVERT JUMPDEST POP POP POP POP POP JUMP JUMPDEST PUSH2 0x995 PUSH2 0x17DB JUMP JUMPDEST DUP1 PUSH1 0x3 PUSH1 0x0 DUP5 PUSH2 0xFFFF AND PUSH2 0xFFFF AND DUP2 MSTORE PUSH1 0x20 ADD SWAP1 DUP2 MSTORE PUSH1 0x20 ADD PUSH1 0x0 KECCAK256 DUP2 SWAP1 SSTORE POP POP POP JUMP JUMPDEST PUSH2 0x9C1 PUSH2 0x17DB JUMP JUMPDEST PUSH32 0x0 PUSH20 0xFFFFFFFFFFFFFFFFFFFFFFFFFFFFFFFFFFFFFFFF AND PUSH4 0x10DDB137 DUP3 PUSH1 0x40 MLOAD DUP3 PUSH4 0xFFFFFFFF AND PUSH1 0xE0 SHL DUP2 MSTORE PUSH1 0x4 ADD PUSH2 0xA1A SWAP2 SWAP1 PUSH2 0x2900 JUMP JUMPDEST PUSH1 0x0 PUSH1 0x40 MLOAD DUP1 DUP4 SUB DUP2 PUSH1 0x0 DUP8 DUP1 EXTCODESIZE ISZERO DUP1 ISZERO PUSH2 0xA34 JUMPI PUSH1 0x0 DUP1 REVERT JUMPDEST POP GAS CALL ISZERO DUP1 ISZERO PUSH2 0xA48 JUMPI RETURNDATASIZE PUSH1 0x0 DUP1 RETURNDATACOPY RETURNDATASIZE PUSH1 0x0 REVERT JUMPDEST POP POP POP POP POP JUMP JUMPDEST PUSH1 0x0 DUP1 PUSH1 0x1 PUSH1 0x0 DUP7 PUSH2 0xFFFF AND PUSH2 0xFFFF AND DUP2 MSTORE PUSH1 0x20 ADD SWAP1 DUP2 MSTORE PUSH1 0x20 ADD PUSH1 0x0 KECCAK256 DUP1 SLOAD PUSH2 0xA78 SWAP1 PUSH2 0x27E5 JUMP JUMPDEST DUP1 PUSH1 0x1F ADD PUSH1 0x20 DUP1 SWAP2 DIV MUL PUSH1 0x20 ADD PUSH1 0x40 MLOAD SWAP1 DUP2 ADD PUSH1 0x40 MSTORE DUP1 SWAP3 SWAP2 SWAP1 DUP2 DUP2 MSTORE PUSH1 0x20 ADD DUP3 DUP1 SLOAD PUSH2 0xAA4 SWAP1 PUSH2 0x27E5 JUMP JUMPDEST DUP1 ISZERO PUSH2 0xAF1 JUMPI DUP1 PUSH1 0x1F LT PUSH2 0xAC6 JUMPI PUSH2 0x100 DUP1 DUP4 SLOAD DIV MUL DUP4 MSTORE SWAP2 PUSH1 0x20 ADD SWAP2 PUSH2 0xAF1 JUMP JUMPDEST DUP3 ADD SWAP2 SWAP1 PUSH1 0x0 MSTORE PUSH1 0x20 PUSH1 0x0 KECCAK256 SWAP1 JUMPDEST DUP2 SLOAD DUP2 MSTORE SWAP1 PUSH1 0x1 ADD SWAP1 PUSH1 0x20 ADD DUP1 DUP4 GT PUSH2 0xAD4 JUMPI DUP3 SWAP1 SUB PUSH1 0x1F AND DUP3 ADD SWAP2 JUMPDEST POP POP POP POP POP SWAP1 POP DUP4 DUP4 PUSH1 0x40 MLOAD PUSH2 0xB08 SWAP3 SWAP2 SWAP1 PUSH2 0x2846 JUMP JUMPDEST PUSH1 0x40 MLOAD DUP1 SWAP2 SUB SWAP1 KECCAK256 DUP2 DUP1 MLOAD SWAP1 PUSH1 0x20 ADD KECCAK256 EQ SWAP2 POP POP SWAP4 SWAP3 POP POP POP JUMP JUMPDEST PUSH1 0x3 PUSH1 0x20 MSTORE DUP1 PUSH1 0x0 MSTORE PUSH1 0x40 PUSH1 0x0 KECCAK256 PUSH1 0x0 SWAP2 POP SWAP1 POP SLOAD DUP2 JUMP JUMPDEST PUSH2 0xB43 PUSH2 0x17DB JUMP JUMPDEST PUSH32 0x0 PUSH20 0xFFFFFFFFFFFFFFFFFFFFFFFFFFFFFFFFFFFFFFFF AND PUSH4 0x42D65A8D DUP5 DUP5 DUP5 PUSH1 0x40 MLOAD DUP5 PUSH4 0xFFFFFFFF AND PUSH1 0xE0 SHL DUP2 MSTORE PUSH1 0x4 ADD PUSH2 0xBA0 SWAP4 SWAP3 SWAP2 SWAP1 PUSH2 0x2948 JUMP JUMPDEST PUSH1 0x0 PUSH1 0x40 MLOAD DUP1 DUP4 SUB DUP2 PUSH1 0x0 DUP8 DUP1 EXTCODESIZE ISZERO DUP1 ISZERO PUSH2 0xBBA JUMPI PUSH1 0x0 DUP1 REVERT JUMPDEST POP GAS CALL ISZERO DUP1 ISZERO PUSH2 0xBCE JUMPI RETURNDATASIZE PUSH1 0x0 DUP1 RETURNDATACOPY RETURNDATASIZE PUSH1 0x0 REVERT JUMPDEST POP POP POP POP POP POP POP JUMP JUMPDEST PUSH1 0x5 PUSH1 0x20 MSTORE DUP3 PUSH1 0x0 MSTORE PUSH1 0x40 PUSH1 0x0 KECCAK256 DUP3 DUP1 MLOAD PUSH1 0x20 DUP2 ADD DUP3 ADD DUP1 MLOAD DUP5 DUP3 MSTORE PUSH1 0x20 DUP4 ADD PUSH1 0x20 DUP6 ADD KECCAK256 DUP2 DUP4 MSTORE DUP1 SWAP6 POP POP POP POP POP POP PUSH1 0x20 MSTORE DUP1 PUSH1 0x0 MSTORE PUSH1 0x40 PUSH1 0x0 KECCAK256 PUSH1 0x0 SWAP3 POP SWAP3 POP POP POP SLOAD DUP2 JUMP JUMPDEST PUSH2 0xC27 PUSH2 0x17DB JUMP JUMPDEST DUP1 ADDRESS PUSH1 0x40 MLOAD PUSH1 0x20 ADD PUSH2 0xC3A SWAP3 SWAP2 SWAP1 PUSH2 0x29C2 JUMP JUMPDEST PUSH1 0x40 MLOAD PUSH1 0x20 DUP2 DUP4 SUB SUB DUP2 MSTORE SWAP1 PUSH1 0x40 MSTORE PUSH1 0x1 PUSH1 0x0 PUSH1 0x7 PUSH1 0x0 SWAP1 SLOAD SWAP1 PUSH2 0x100 EXP SWAP1 DIV PUSH2 0xFFFF AND PUSH2 0xFFFF AND PUSH2 0xFFFF AND DUP2 MSTORE PUSH1 0x20 ADD SWAP1 DUP2 MSTORE PUSH1 0x20 ADD PUSH1 0x0 KECCAK256 SWAP1 DUP2 PUSH2 0xC80 SWAP2 SWAP1 PUSH2 0x2B90 JUMP JUMPDEST POP POP JUMP JUMPDEST PUSH1 0x0 DUP2 PUSH1 0x40 MLOAD PUSH1 0x20 ADD PUSH2 0xC97 SWAP2 SWAP1 PUSH2 0x248B JUMP JUMPDEST PUSH1 0x40 MLOAD PUSH1 0x20 DUP2 DUP4 SUB SUB DUP2 MSTORE SWAP1 PUSH1 0x40 MSTORE SWAP1 POP PUSH2 0xCD6 PUSH1 0x7 PUSH1 0x0 SWAP1 SLOAD SWAP1 PUSH2 0x100 EXP SWAP1 DIV PUSH2 0xFFFF AND DUP3 CALLER PUSH1 0x0 PUSH1 0x40 MLOAD DUP1 PUSH1 0x20 ADD PUSH1 0x40 MSTORE DUP1 PUSH1 0x0 DUP2 MSTORE POP CALLVALUE PUSH2 0x1859 JUMP JUMPDEST POP POP JUMP JUMPDEST ADDRESS PUSH20 0xFFFFFFFFFFFFFFFFFFFFFFFFFFFFFFFFFFFFFFFF AND PUSH2 0xCF9 PUSH2 0x1708 JUMP JUMPDEST PUSH20 0xFFFFFFFFFFFFFFFFFFFFFFFFFFFFFFFFFFFFFFFF AND EQ PUSH2 0xD4F JUMPI PUSH1 0x40 MLOAD PUSH32 0x8C379A000000000000000000000000000000000000000000000000000000000 DUP2 MSTORE PUSH1 0x4 ADD PUSH2 0xD46 SWAP1 PUSH2 0x2CD4 JUMP JUMPDEST PUSH1 0x40 MLOAD DUP1 SWAP2 SUB SWAP1 REVERT JUMPDEST PUSH2 0xDE3 DUP7 DUP7 DUP7 DUP1 DUP1 PUSH1 0x1F ADD PUSH1 0x20 DUP1 SWAP2 DIV MUL PUSH1 0x20 ADD PUSH1 0x40 MLOAD SWAP1 DUP2 ADD PUSH1 0x40 MSTORE DUP1 SWAP4 SWAP3 SWAP2 SWAP1 DUP2 DUP2 MSTORE PUSH1 0x20 ADD DUP4 DUP4 DUP1 DUP3 DUP5 CALLDATACOPY PUSH1 0x0 DUP2 DUP5 ADD MSTORE PUSH1 0x1F NOT PUSH1 0x1F DUP3 ADD AND SWAP1 POP DUP1 DUP4 ADD SWAP3 POP POP POP POP POP POP POP DUP6 DUP6 DUP6 DUP1 DUP1 PUSH1 0x1F ADD PUSH1 0x20 DUP1 SWAP2 DIV MUL PUSH1 0x20 ADD PUSH1 0x40 MLOAD SWAP1 DUP2 ADD PUSH1 0x40 MSTORE DUP1 SWAP4 SWAP3 SWAP2 SWAP1 DUP2 DUP2 MSTORE PUSH1 0x20 ADD DUP4 DUP4 DUP1 DUP3 DUP5 CALLDATACOPY PUSH1 0x0 DUP2 DUP5 ADD MSTORE PUSH1 0x1F NOT PUSH1 0x1F DUP3 ADD AND SWAP1 POP DUP1 DUP4 ADD SWAP3 POP POP POP POP POP POP POP PUSH2 0x19EF JUMP JUMPDEST POP POP POP POP POP POP JUMP JUMPDEST PUSH2 0xDF3 PUSH2 0x17DB JUMP JUMPDEST PUSH2 0xDFD PUSH1 0x0 PUSH2 0x1A18 JUMP JUMPDEST JUMP JUMPDEST PUSH1 0x6 DUP1 SLOAD PUSH2 0xE0C SWAP1 PUSH2 0x27E5 JUMP JUMPDEST DUP1 PUSH1 0x1F ADD PUSH1 0x20 DUP1 SWAP2 DIV MUL PUSH1 0x20 ADD PUSH1 0x40 MLOAD SWAP1 DUP2 ADD PUSH1 0x40 MSTORE DUP1 SWAP3 SWAP2 SWAP1 DUP2 DUP2 MSTORE PUSH1 0x20 ADD DUP3 DUP1 SLOAD PUSH2 0xE38 SWAP1 PUSH2 0x27E5 JUMP JUMPDEST DUP1 ISZERO PUSH2 0xE85 JUMPI DUP1 PUSH1 0x1F LT PUSH2 0xE5A JUMPI PUSH2 0x100 DUP1 DUP4 SLOAD DIV MUL DUP4 MSTORE SWAP2 PUSH1 0x20 ADD SWAP2 PUSH2 0xE85 JUMP JUMPDEST DUP3 ADD SWAP2 SWAP1 PUSH1 0x0 MSTORE PUSH1 0x20 PUSH1 0x0 KECCAK256 SWAP1 JUMPDEST DUP2 SLOAD DUP2 MSTORE SWAP1 PUSH1 0x1 ADD SWAP1 PUSH1 0x20 ADD DUP1 DUP4 GT PUSH2 0xE68 JUMPI DUP3 SWAP1 SUB PUSH1 0x1F AND DUP3 ADD SWAP2 JUMPDEST POP POP POP POP POP DUP2 JUMP JUMPDEST PUSH1 0x1 PUSH1 0x20 MSTORE DUP1 PUSH1 0x0 MSTORE PUSH1 0x40 PUSH1 0x0 KECCAK256 PUSH1 0x0 SWAP2 POP SWAP1 POP DUP1 SLOAD PUSH2 0xEAC SWAP1 PUSH2 0x27E5 JUMP JUMPDEST DUP1 PUSH1 0x1F ADD PUSH1 0x20 DUP1 SWAP2 DIV MUL PUSH1 0x20 ADD PUSH1 0x40 MLOAD SWAP1 DUP2 ADD PUSH1 0x40 MSTORE DUP1 SWAP3 SWAP2 SWAP1 DUP2 DUP2 MSTORE PUSH1 0x20 ADD DUP3 DUP1 SLOAD PUSH2 0xED8 SWAP1 PUSH2 0x27E5 JUMP JUMPDEST DUP1 ISZERO PUSH2 0xF25 JUMPI DUP1 PUSH1 0x1F LT PUSH2 0xEFA JUMPI PUSH2 0x100 DUP1 DUP4 SLOAD DIV MUL DUP4 MSTORE SWAP2 PUSH1 0x20 ADD SWAP2 PUSH2 0xF25 JUMP JUMPDEST DUP3 ADD SWAP2 SWAP1 PUSH1 0x0 MSTORE PUSH1 0x20 PUSH1 0x0 KECCAK256 SWAP1 JUMPDEST DUP2 SLOAD DUP2 MSTORE SWAP1 PUSH1 0x1 ADD SWAP1 PUSH1 0x20 ADD DUP1 DUP4 GT PUSH2 0xF08 JUMPI DUP3 SWAP1 SUB PUSH1 0x1F AND DUP3 ADD SWAP2 JUMPDEST POP POP POP POP POP DUP2 JUMP JUMPDEST PUSH1 0x2 PUSH1 0x20 MSTORE DUP2 PUSH1 0x0 MSTORE PUSH1 0x40 PUSH1 0x0 KECCAK256 PUSH1 0x20 MSTORE DUP1 PUSH1 0x0 MSTORE PUSH1 0x40 PUSH1 0x0 KECCAK256 PUSH1 0x0 SWAP2 POP SWAP2 POP POP SLOAD DUP2 JUMP JUMPDEST PUSH1 0x0 DUP1 PUSH1 0x0 SWAP1 SLOAD SWAP1 PUSH2 0x100 EXP SWAP1 DIV PUSH20 0xFFFFFFFFFFFFFFFFFFFFFFFFFFFFFFFFFFFFFFFF AND SWAP1 POP SWAP1 JUMP JUMPDEST PUSH1 0x4 PUSH1 0x0 SWAP1 SLOAD SWAP1 PUSH2 0x100 EXP SWAP1 DIV PUSH20 0xFFFFFFFFFFFFFFFFFFFFFFFFFFFFFFFFFFFFFFFF AND DUP2 JUMP JUMPDEST PUSH1 0x60 PUSH1 0x0 PUSH1 0x1 PUSH1 0x0 DUP5 PUSH2 0xFFFF AND PUSH2 0xFFFF AND DUP2 MSTORE PUSH1 0x20 ADD SWAP1 DUP2 MSTORE PUSH1 0x20 ADD PUSH1 0x0 KECCAK256 DUP1 SLOAD PUSH2 0xFCB SWAP1 PUSH2 0x27E5 JUMP JUMPDEST DUP1 PUSH1 0x1F ADD PUSH1 0x20 DUP1 SWAP2 DIV MUL PUSH1 0x20 ADD PUSH1 0x40 MLOAD SWAP1 DUP2 ADD PUSH1 0x40 MSTORE DUP1 SWAP3 SWAP2 SWAP1 DUP2 DUP2 MSTORE PUSH1 0x20 ADD DUP3 DUP1 SLOAD PUSH2 0xFF7 SWAP1 PUSH2 0x27E5 JUMP JUMPDEST DUP1 ISZERO PUSH2 0x1044 JUMPI DUP1 PUSH1 0x1F LT PUSH2 0x1019 JUMPI PUSH2 0x100 DUP1 DUP4 SLOAD DIV MUL DUP4 MSTORE SWAP2 PUSH1 0x20 ADD SWAP2 PUSH2 0x1044 JUMP JUMPDEST DUP3 ADD SWAP2 SWAP1 PUSH1 0x0 MSTORE PUSH1 0x20 PUSH1 0x0 KECCAK256 SWAP1 JUMPDEST DUP2 SLOAD DUP2 MSTORE SWAP1 PUSH1 0x1 ADD SWAP1 PUSH1 0x20 ADD DUP1 DUP4 GT PUSH2 0x1027 JUMPI DUP3 SWAP1 SUB PUSH1 0x1F AND DUP3 ADD SWAP2 JUMPDEST POP POP POP POP POP SWAP1 POP PUSH1 0x0 DUP2 MLOAD SUB PUSH2 0x108F JUMPI PUSH1 0x40 MLOAD PUSH32 0x8C379A000000000000000000000000000000000000000000000000000000000 DUP2 MSTORE PUSH1 0x4 ADD PUSH2 0x1086 SWAP1 PUSH2 0x2D40 JUMP JUMPDEST PUSH1 0x40 MLOAD DUP1 SWAP2 SUB SWAP1 REVERT JUMPDEST PUSH2 0x10B2 PUSH1 0x0 PUSH1 0x14 DUP4 MLOAD PUSH2 0x10A2 SWAP2 SWAP1 PUSH2 0x2D8F JUMP JUMPDEST DUP4 PUSH2 0x1ADC SWAP1 SWAP3 SWAP2 SWAP1 PUSH4 0xFFFFFFFF AND JUMP JUMPDEST SWAP2 POP POP SWAP2 SWAP1 POP JUMP JUMPDEST PUSH2 0x10C2 PUSH2 0x17DB JUMP JUMPDEST DUP2 DUP2 ADDRESS PUSH1 0x40 MLOAD PUSH1 0x20 ADD PUSH2 0x10D7 SWAP4 SWAP3 SWAP2 SWAP1 PUSH2 0x2DC3 JUMP JUMPDEST PUSH1 0x40 MLOAD PUSH1 0x20 DUP2 DUP4 SUB SUB DUP2 MSTORE SWAP1 PUSH1 0x40 MSTORE PUSH1 0x1 PUSH1 0x0 DUP6 PUSH2 0xFFFF AND PUSH2 0xFFFF AND DUP2 MSTORE PUSH1 0x20 ADD SWAP1 DUP2 MSTORE PUSH1 0x20 ADD PUSH1 0x0 KECCAK256 SWAP1 DUP2 PUSH2 0x110D SWAP2 SWAP1 PUSH2 0x2B90 JUMP JUMPDEST POP PUSH32 0x8C0400CFE2D1199B1A725C78960BCC2A344D869B80590D0F2BD005DB15A572CE DUP4 DUP4 DUP4 PUSH1 0x40 MLOAD PUSH2 0x1141 SWAP4 SWAP3 SWAP2 SWAP1 PUSH2 0x2948 JUMP JUMPDEST PUSH1 0x40 MLOAD DUP1 SWAP2 SUB SWAP1 LOG1 POP POP POP JUMP JUMPDEST PUSH32 0x0 DUP2 JUMP JUMPDEST PUSH2 0x117A PUSH2 0x17DB JUMP JUMPDEST DUP1 PUSH1 0x4 PUSH1 0x0 PUSH2 0x100 EXP DUP2 SLOAD DUP2 PUSH20 0xFFFFFFFFFFFFFFFFFFFFFFFFFFFFFFFFFFFFFFFF MUL NOT AND SWAP1 DUP4 PUSH20 0xFFFFFFFFFFFFFFFFFFFFFFFFFFFFFFFFFFFFFFFF AND MUL OR SWAP1 SSTORE POP PUSH32 0x5DB758E995A17EC1AD84BDEF7E8C3293A0BD6179BCCE400DFF5D4C3D87DB726B DUP2 PUSH1 0x40 MLOAD PUSH2 0x11EA SWAP2 SWAP1 PUSH2 0x2573 JUMP JUMPDEST PUSH1 0x40 MLOAD DUP1 SWAP2 SUB SWAP1 LOG1 POP JUMP JUMPDEST PUSH2 0x2710 DUP2 JUMP JUMPDEST PUSH2 0x1203 PUSH2 0x17DB JUMP JUMPDEST PUSH32 0x0 PUSH20 0xFFFFFFFFFFFFFFFFFFFFFFFFFFFFFFFFFFFFFFFF AND PUSH4 0xCBED8B9C DUP7 DUP7 DUP7 DUP7 DUP7 PUSH1 0x40 MLOAD DUP7 PUSH4 0xFFFFFFFF AND PUSH1 0xE0 SHL DUP2 MSTORE PUSH1 0x4 ADD PUSH2 0x1264 SWAP6 SWAP5 SWAP4 SWAP3 SWAP2 SWAP1 PUSH2 0x2DED JUMP JUMPDEST PUSH1 0x0 PUSH1 0x40 MLOAD DUP1 DUP4 SUB DUP2 PUSH1 0x0 DUP8 DUP1 EXTCODESIZE ISZERO DUP1 ISZERO PUSH2 0x127E JUMPI PUSH1 0x0 DUP1 REVERT JUMPDEST POP GAS CALL ISZERO DUP1 ISZERO PUSH2 0x1292 JUMPI RETURNDATASIZE PUSH1 0x0 DUP1 RETURNDATACOPY RETURNDATASIZE PUSH1 0x0 REVERT JUMPDEST POP POP POP POP POP POP POP POP POP JUMP JUMPDEST PUSH1 0x0 PUSH1 0x5 PUSH1 0x0 DUP9 PUSH2 0xFFFF AND PUSH2 0xFFFF AND DUP2 MSTORE PUSH1 0x20 ADD SWAP1 DUP2 MSTORE PUSH1 0x20 ADD PUSH1 0x0 KECCAK256 DUP7 DUP7 PUSH1 0x40 MLOAD PUSH2 0x12CA SWAP3 SWAP2 SWAP1 PUSH2 0x2846 JUMP JUMPDEST SWAP1 DUP2 MSTORE PUSH1 0x20 ADD PUSH1 0x40 MLOAD DUP1 SWAP2 SUB SWAP1 KECCAK256 PUSH1 0x0 DUP6 PUSH8 0xFFFFFFFFFFFFFFFF AND PUSH8 0xFFFFFFFFFFFFFFFF AND DUP2 MSTORE PUSH1 0x20 ADD SWAP1 DUP2 MSTORE PUSH1 0x20 ADD PUSH1 0x0 KECCAK256 SLOAD SWAP1 POP PUSH1 0x0 DUP1 SHL DUP2 SUB PUSH2 0x1345 JUMPI PUSH1 0x40 MLOAD PUSH32 0x8C379A000000000000000000000000000000000000000000000000000000000 DUP2 MSTORE PUSH1 0x4 ADD PUSH2 0x133C SWAP1 PUSH2 0x2EAD JUMP JUMPDEST PUSH1 0x40 MLOAD DUP1 SWAP2 SUB SWAP1 REVERT JUMPDEST DUP1 DUP4 DUP4 PUSH1 0x40 MLOAD PUSH2 0x1356 SWAP3 SWAP2 SWAP1 PUSH2 0x2846 JUMP JUMPDEST PUSH1 0x40 MLOAD DUP1 SWAP2 SUB SWAP1 KECCAK256 EQ PUSH2 0x139E JUMPI PUSH1 0x40 MLOAD PUSH32 0x8C379A000000000000000000000000000000000000000000000000000000000 DUP2 MSTORE PUSH1 0x4 ADD PUSH2 0x1395 SWAP1 PUSH2 0x2F3F JUMP JUMPDEST PUSH1 0x40 MLOAD DUP1 SWAP2 SUB SWAP1 REVERT JUMPDEST PUSH1 0x0 DUP1 SHL PUSH1 0x5 PUSH1 0x0 DUP10 PUSH2 0xFFFF AND PUSH2 0xFFFF AND DUP2 MSTORE PUSH1 0x20 ADD SWAP1 DUP2 MSTORE PUSH1 0x20 ADD PUSH1 0x0 KECCAK256 DUP8 DUP8 PUSH1 0x40 MLOAD PUSH2 0x13CD SWAP3 SWAP2 SWAP1 PUSH2 0x2846 JUMP JUMPDEST SWAP1 DUP2 MSTORE PUSH1 0x20 ADD PUSH1 0x40 MLOAD DUP1 SWAP2 SUB SWAP1 KECCAK256 PUSH1 0x0 DUP7 PUSH8 0xFFFFFFFFFFFFFFFF AND PUSH8 0xFFFFFFFFFFFFFFFF AND DUP2 MSTORE PUSH1 0x20 ADD SWAP1 DUP2 MSTORE PUSH1 0x20 ADD PUSH1 0x0 KECCAK256 DUP2 SWAP1 SSTORE POP PUSH2 0x1498 DUP8 DUP8 DUP8 DUP1 DUP1 PUSH1 0x1F ADD PUSH1 0x20 DUP1 SWAP2 DIV MUL PUSH1 0x20 ADD PUSH1 0x40 MLOAD SWAP1 DUP2 ADD PUSH1 0x40 MSTORE DUP1 SWAP4 SWAP3 SWAP2 SWAP1 DUP2 DUP2 MSTORE PUSH1 0x20 ADD DUP4 DUP4 DUP1 DUP3 DUP5 CALLDATACOPY PUSH1 0x0 DUP2 DUP5 ADD MSTORE PUSH1 0x1F NOT PUSH1 0x1F DUP3 ADD AND SWAP1 POP DUP1 DUP4 ADD SWAP3 POP POP POP POP POP POP POP DUP7 DUP7 DUP7 DUP1 DUP1 PUSH1 0x1F ADD PUSH1 0x20 DUP1 SWAP2 DIV MUL PUSH1 0x20 ADD PUSH1 0x40 MLOAD SWAP1 DUP2 ADD PUSH1 0x40 MSTORE DUP1 SWAP4 SWAP3 SWAP2 SWAP1 DUP2 DUP2 MSTORE PUSH1 0x20 ADD DUP4 DUP4 DUP1 DUP3 DUP5 CALLDATACOPY PUSH1 0x0 DUP2 DUP5 ADD MSTORE PUSH1 0x1F NOT PUSH1 0x1F DUP3 ADD AND SWAP1 POP DUP1 DUP4 ADD SWAP3 POP POP POP POP POP POP POP PUSH2 0x19EF JUMP JUMPDEST PUSH32 0xC264D91F3ADC5588250E1551F547752CA0CFA8F6B530D243B9F9F4CAB10EA8E5 DUP8 DUP8 DUP8 DUP8 DUP6 PUSH1 0x40 MLOAD PUSH2 0x14CF SWAP6 SWAP5 SWAP4 SWAP3 SWAP2 SWAP1 PUSH2 0x2F6E JUMP JUMPDEST PUSH1 0x40 MLOAD DUP1 SWAP2 SUB SWAP1 LOG1 POP POP POP POP POP POP POP JUMP JUMPDEST PUSH2 0x14E8 PUSH2 0x17DB JUMP JUMPDEST DUP1 PUSH1 0x2 PUSH1 0x0 DUP6 PUSH2 0xFFFF AND PUSH2 0xFFFF AND DUP2 MSTORE PUSH1 0x20 ADD SWAP1 DUP2 MSTORE PUSH1 0x20 ADD PUSH1 0x0 KECCAK256 PUSH1 0x0 DUP5 PUSH2 0xFFFF AND PUSH2 0xFFFF AND DUP2 MSTORE PUSH1 0x20 ADD SWAP1 DUP2 MSTORE PUSH1 0x20 ADD PUSH1 0x0 KECCAK256 DUP2 SWAP1 SSTORE POP PUSH32 0x9D5C7C0B934DA8FEFA9C7760C98383778A12DFBFC0C3B3106518F43FB9508AC0 DUP4 DUP4 DUP4 PUSH1 0x40 MLOAD PUSH2 0x1554 SWAP4 SWAP3 SWAP2 SWAP1 PUSH2 0x2FBC JUMP JUMPDEST PUSH1 0x40 MLOAD DUP1 SWAP2 SUB SWAP1 LOG1 POP POP POP JUMP JUMPDEST PUSH2 0x1569 PUSH2 0x17DB JUMP JUMPDEST DUP2 DUP2 PUSH1 0x1 PUSH1 0x0 DUP7 PUSH2 0xFFFF AND PUSH2 0xFFFF AND DUP2 MSTORE PUSH1 0x20 ADD SWAP1 DUP2 MSTORE PUSH1 0x20 ADD PUSH1 0x0 KECCAK256 SWAP2 DUP3 PUSH2 0x1593 SWAP3 SWAP2 SWAP1 PUSH2 0x2FFE JUMP JUMPDEST POP PUSH32 0xFA41487AD5D6728F0B19276FA1EDDC16558578F5109FC39D2DC33C3230470DAB DUP4 DUP4 DUP4 PUSH1 0x40 MLOAD PUSH2 0x15C7 SWAP4 SWAP3 SWAP2 SWAP1 PUSH2 0x2948 JUMP JUMPDEST PUSH1 0x40 MLOAD DUP1 SWAP2 SUB SWAP1 LOG1 POP POP POP JUMP JUMPDEST PUSH2 0x15DC PUSH2 0x17DB JUMP JUMPDEST PUSH1 0x0 PUSH20 0xFFFFFFFFFFFFFFFFFFFFFFFFFFFFFFFFFFFFFFFF AND DUP2 PUSH20 0xFFFFFFFFFFFFFFFFFFFFFFFFFFFFFFFFFFFFFFFF AND SUB PUSH2 0x164B JUMPI PUSH1 0x40 MLOAD PUSH32 0x8C379A000000000000000000000000000000000000000000000000000000000 DUP2 MSTORE PUSH1 0x4 ADD PUSH2 0x1642 SWAP1 PUSH2 0x3140 JUMP JUMPDEST PUSH1 0x40 MLOAD DUP1 SWAP2 SUB SWAP1 REVERT JUMPDEST PUSH2 0x1654 DUP2 PUSH2 0x1A18 JUMP JUMPDEST POP JUMP JUMPDEST PUSH1 0x60 PUSH32 0x0 PUSH20 0xFFFFFFFFFFFFFFFFFFFFFFFFFFFFFFFFFFFFFFFF AND PUSH4 0xF5ECBDBC DUP7 DUP7 ADDRESS DUP7 PUSH1 0x40 MLOAD DUP6 PUSH4 0xFFFFFFFF AND PUSH1 0xE0 SHL DUP2 MSTORE PUSH1 0x4 ADD PUSH2 0x16B8 SWAP5 SWAP4 SWAP3 SWAP2 SWAP1 PUSH2 0x3160 JUMP JUMPDEST PUSH1 0x0 PUSH1 0x40 MLOAD DUP1 DUP4 SUB DUP2 DUP7 GAS STATICCALL ISZERO DUP1 ISZERO PUSH2 0x16D5 JUMPI RETURNDATASIZE PUSH1 0x0 DUP1 RETURNDATACOPY RETURNDATASIZE PUSH1 0x0 REVERT JUMPDEST POP POP POP POP PUSH1 0x40 MLOAD RETURNDATASIZE PUSH1 0x0 DUP3 RETURNDATACOPY RETURNDATASIZE PUSH1 0x1F NOT PUSH1 0x1F DUP3 ADD AND DUP3 ADD DUP1 PUSH1 0x40 MSTORE POP DUP2 ADD SWAP1 PUSH2 0x16FE SWAP2 SWAP1 PUSH2 0x3215 JUMP JUMPDEST SWAP1 POP SWAP5 SWAP4 POP POP POP POP JUMP JUMPDEST PUSH1 0x0 CALLER SWAP1 POP SWAP1 JUMP JUMPDEST PUSH1 0x0 DUP1 PUSH2 0x17BC GAS PUSH1 0x96 PUSH4 0x66AD5C8A PUSH1 0xE0 SHL DUP10 DUP10 DUP10 DUP10 PUSH1 0x40 MLOAD PUSH1 0x24 ADD PUSH2 0x1738 SWAP5 SWAP4 SWAP3 SWAP2 SWAP1 PUSH2 0x325E JUMP JUMPDEST PUSH1 0x40 MLOAD PUSH1 0x20 DUP2 DUP4 SUB SUB DUP2 MSTORE SWAP1 PUSH1 0x40 MSTORE SWAP1 PUSH28 0xFFFFFFFFFFFFFFFFFFFFFFFFFFFFFFFFFFFFFFFFFFFFFFFFFFFFFFFF NOT AND PUSH1 0x20 DUP3 ADD DUP1 MLOAD PUSH28 0xFFFFFFFFFFFFFFFFFFFFFFFFFFFFFFFFFFFFFFFFFFFFFFFFFFFFFFFF DUP4 DUP2 DUP4 AND OR DUP4 MSTORE POP POP POP POP ADDRESS PUSH20 0xFFFFFFFFFFFFFFFFFFFFFFFFFFFFFFFFFFFFFFFF AND PUSH2 0x1BFA SWAP1 SWAP4 SWAP3 SWAP2 SWAP1 PUSH4 0xFFFFFFFF AND JUMP JUMPDEST SWAP2 POP SWAP2 POP DUP2 PUSH2 0x17D3 JUMPI PUSH2 0x17D2 DUP7 DUP7 DUP7 DUP7 DUP6 PUSH2 0x1C92 JUMP JUMPDEST JUMPDEST POP POP POP POP POP POP JUMP JUMPDEST PUSH2 0x17E3 PUSH2 0x1708 JUMP JUMPDEST PUSH20 0xFFFFFFFFFFFFFFFFFFFFFFFFFFFFFFFFFFFFFFFF AND PUSH2 0x1801 PUSH2 0xF52 JUMP JUMPDEST PUSH20 0xFFFFFFFFFFFFFFFFFFFFFFFFFFFFFFFFFFFFFFFF AND EQ PUSH2 0x1857 JUMPI PUSH1 0x40 MLOAD PUSH32 0x8C379A000000000000000000000000000000000000000000000000000000000 DUP2 MSTORE PUSH1 0x4 ADD PUSH2 0x184E SWAP1 PUSH2 0x32FD JUMP JUMPDEST PUSH1 0x40 MLOAD DUP1 SWAP2 SUB SWAP1 REVERT JUMPDEST JUMP JUMPDEST PUSH1 0x0 PUSH1 0x1 PUSH1 0x0 DUP9 PUSH2 0xFFFF AND PUSH2 0xFFFF AND DUP2 MSTORE PUSH1 0x20 ADD SWAP1 DUP2 MSTORE PUSH1 0x20 ADD PUSH1 0x0 KECCAK256 DUP1 SLOAD PUSH2 0x1881 SWAP1 PUSH2 0x27E5 JUMP JUMPDEST DUP1 PUSH1 0x1F ADD PUSH1 0x20 DUP1 SWAP2 DIV MUL PUSH1 0x20 ADD PUSH1 0x40 MLOAD SWAP1 DUP2 ADD PUSH1 0x40 MSTORE DUP1 SWAP3 SWAP2 SWAP1 DUP2 DUP2 MSTORE PUSH1 0x20 ADD DUP3 DUP1 SLOAD PUSH2 0x18AD SWAP1 PUSH2 0x27E5 JUMP JUMPDEST DUP1 ISZERO PUSH2 0x18FA JUMPI DUP1 PUSH1 0x1F LT PUSH2 0x18CF JUMPI PUSH2 0x100 DUP1 DUP4 SLOAD DIV MUL DUP4 MSTORE SWAP2 PUSH1 0x20 ADD SWAP2 PUSH2 0x18FA JUMP JUMPDEST DUP3 ADD SWAP2 SWAP1 PUSH1 0x0 MSTORE PUSH1 0x20 PUSH1 0x0 KECCAK256 SWAP1 JUMPDEST DUP2 SLOAD DUP2 MSTORE SWAP1 PUSH1 0x1 ADD SWAP1 PUSH1 0x20 ADD DUP1 DUP4 GT PUSH2 0x18DD JUMPI DUP3 SWAP1 SUB PUSH1 0x1F AND DUP3 ADD SWAP2 JUMPDEST POP POP POP POP POP SWAP1 POP PUSH1 0x0 DUP2 MLOAD SUB PUSH2 0x1945 JUMPI PUSH1 0x40 MLOAD PUSH32 0x8C379A000000000000000000000000000000000000000000000000000000000 DUP2 MSTORE PUSH1 0x4 ADD PUSH2 0x193C SWAP1 PUSH2 0x338F JUMP JUMPDEST PUSH1 0x40 MLOAD DUP1 SWAP2 SUB SWAP1 REVERT JUMPDEST PUSH2 0x1950 DUP8 DUP8 MLOAD PUSH2 0x1D40 JUMP JUMPDEST PUSH32 0x0 PUSH20 0xFFFFFFFFFFFFFFFFFFFFFFFFFFFFFFFFFFFFFFFF AND PUSH4 0xC5803100 DUP4 DUP10 DUP5 DUP11 DUP11 DUP11 DUP11 PUSH1 0x40 MLOAD DUP9 PUSH4 0xFFFFFFFF AND PUSH1 0xE0 SHL DUP2 MSTORE PUSH1 0x4 ADD PUSH2 0x19B4 SWAP7 SWAP6 SWAP5 SWAP4 SWAP3 SWAP2 SWAP1 PUSH2 0x33D0 JUMP JUMPDEST PUSH1 0x0 PUSH1 0x40 MLOAD DUP1 DUP4 SUB DUP2 DUP6 DUP9 DUP1 EXTCODESIZE ISZERO DUP1 ISZERO PUSH2 0x19CD JUMPI PUSH1 0x0 DUP1 REVERT JUMPDEST POP GAS CALL ISZERO DUP1 ISZERO PUSH2 0x19E1 JUMPI RETURNDATASIZE PUSH1 0x0 DUP1 RETURNDATACOPY RETURNDATASIZE PUSH1 0x0 REVERT JUMPDEST POP POP POP POP POP POP POP POP POP POP POP POP JUMP JUMPDEST DUP1 DUP1 PUSH1 0x20 ADD SWAP1 MLOAD DUP2 ADD SWAP1 PUSH2 0x1A03 SWAP2 SWAP1 PUSH2 0x34B6 JUMP JUMPDEST PUSH1 0x6 SWAP1 DUP2 PUSH2 0x1A11 SWAP2 SWAP1 PUSH2 0x355A JUMP JUMPDEST POP POP POP POP POP JUMP JUMPDEST PUSH1 0x0 DUP1 PUSH1 0x0 SWAP1 SLOAD SWAP1 PUSH2 0x100 EXP SWAP1 DIV PUSH20 0xFFFFFFFFFFFFFFFFFFFFFFFFFFFFFFFFFFFFFFFF AND SWAP1 POP DUP2 PUSH1 0x0 DUP1 PUSH2 0x100 EXP DUP2 SLOAD DUP2 PUSH20 0xFFFFFFFFFFFFFFFFFFFFFFFFFFFFFFFFFFFFFFFF MUL NOT AND SWAP1 DUP4 PUSH20 0xFFFFFFFFFFFFFFFFFFFFFFFFFFFFFFFFFFFFFFFF AND MUL OR SWAP1 SSTORE POP DUP2 PUSH20 0xFFFFFFFFFFFFFFFFFFFFFFFFFFFFFFFFFFFFFFFF AND DUP2 PUSH20 0xFFFFFFFFFFFFFFFFFFFFFFFFFFFFFFFFFFFFFFFF AND PUSH32 0x8BE0079C531659141344CD1FD0A4F28419497F9722A3DAAFE3B4186F6B6457E0 PUSH1 0x40 MLOAD PUSH1 0x40 MLOAD DUP1 SWAP2 SUB SWAP1 LOG3 POP POP JUMP JUMPDEST PUSH1 0x60 DUP2 PUSH1 0x1F DUP4 PUSH2 0x1AEC SWAP2 SWAP1 PUSH2 0x362C JUMP JUMPDEST LT ISZERO PUSH2 0x1B2D JUMPI PUSH1 0x40 MLOAD PUSH32 0x8C379A000000000000000000000000000000000000000000000000000000000 DUP2 MSTORE PUSH1 0x4 ADD PUSH2 0x1B24 SWAP1 PUSH2 0x36AC JUMP JUMPDEST PUSH1 0x40 MLOAD DUP1 SWAP2 SUB SWAP1 REVERT JUMPDEST DUP2 DUP4 PUSH2 0x1B39 SWAP2 SWAP1 PUSH2 0x362C JUMP JUMPDEST DUP5 MLOAD LT ISZERO PUSH2 0x1B7C JUMPI PUSH1 0x40 MLOAD PUSH32 0x8C379A000000000000000000000000000000000000000000000000000000000 DUP2 MSTORE PUSH1 0x4 ADD PUSH2 0x1B73 SWAP1 PUSH2 0x3718 JUMP JUMPDEST PUSH1 0x40 MLOAD DUP1 SWAP2 SUB SWAP1 REVERT JUMPDEST PUSH1 0x60 DUP3 ISZERO PUSH1 0x0 DUP2 EQ PUSH2 0x1B9D JUMPI PUSH1 0x40 MLOAD SWAP2 POP PUSH1 0x0 DUP3 MSTORE PUSH1 0x20 DUP3 ADD PUSH1 0x40 MSTORE PUSH2 0x1BEE JUMP JUMPDEST PUSH1 0x40 MLOAD SWAP2 POP PUSH1 0x1F DUP5 AND DUP1 ISZERO PUSH1 0x20 MUL DUP2 DUP5 ADD ADD DUP6 DUP2 ADD DUP8 DUP4 ISZERO PUSH1 0x20 MUL DUP5 DUP12 ADD ADD ADD JUMPDEST DUP2 DUP4 LT ISZERO PUSH2 0x1BDB JUMPI DUP1 MLOAD DUP4 MSTORE PUSH1 0x20 DUP4 ADD SWAP3 POP PUSH1 0x20 DUP2 ADD SWAP1 POP PUSH2 0x1BBE JUMP JUMPDEST POP DUP7 DUP6 MSTORE PUSH1 0x1F NOT PUSH1 0x1F DUP4 ADD AND PUSH1 0x40 MSTORE POP POP POP JUMPDEST POP DUP1 SWAP2 POP POP SWAP4 SWAP3 POP POP POP JUMP JUMPDEST PUSH1 0x0 PUSH1 0x60 PUSH1 0x0 DUP1 PUSH1 0x0 DUP7 PUSH2 0xFFFF AND PUSH8 0xFFFFFFFFFFFFFFFF DUP2 GT ISZERO PUSH2 0x1C21 JUMPI PUSH2 0x1C20 PUSH2 0x20C9 JUMP JUMPDEST JUMPDEST PUSH1 0x40 MLOAD SWAP1 DUP1 DUP3 MSTORE DUP1 PUSH1 0x1F ADD PUSH1 0x1F NOT AND PUSH1 0x20 ADD DUP3 ADD PUSH1 0x40 MSTORE DUP1 ISZERO PUSH2 0x1C53 JUMPI DUP2 PUSH1 0x20 ADD PUSH1 0x1 DUP3 MUL DUP1 CALLDATASIZE DUP4 CALLDATACOPY DUP1 DUP3 ADD SWAP2 POP POP SWAP1 POP JUMPDEST POP SWAP1 POP PUSH1 0x0 DUP1 DUP8 MLOAD PUSH1 0x20 DUP10 ADD PUSH1 0x0 DUP14 DUP14 CALL SWAP2 POP RETURNDATASIZE SWAP3 POP DUP7 DUP4 GT ISZERO PUSH2 0x1C75 JUMPI DUP7 SWAP3 POP JUMPDEST DUP3 DUP2 MSTORE DUP3 PUSH1 0x0 PUSH1 0x20 DUP4 ADD RETURNDATACOPY DUP2 DUP2 SWAP5 POP SWAP5 POP POP POP POP SWAP5 POP SWAP5 SWAP3 POP POP POP JUMP JUMPDEST DUP2 DUP1 MLOAD SWAP1 PUSH1 0x20 ADD KECCAK256 PUSH1 0x5 PUSH1 0x0 DUP8 PUSH2 0xFFFF AND PUSH2 0xFFFF AND DUP2 MSTORE PUSH1 0x20 ADD SWAP1 DUP2 MSTORE PUSH1 0x20 ADD PUSH1 0x0 KECCAK256 DUP6 PUSH1 0x40 MLOAD PUSH2 0x1CC3 SWAP2 SWAP1 PUSH2 0x3769 JUMP JUMPDEST SWAP1 DUP2 MSTORE PUSH1 0x20 ADD PUSH1 0x40 MLOAD DUP1 SWAP2 SUB SWAP1 KECCAK256 PUSH1 0x0 DUP6 PUSH8 0xFFFFFFFFFFFFFFFF AND PUSH8 0xFFFFFFFFFFFFFFFF AND DUP2 MSTORE PUSH1 0x20 ADD SWAP1 DUP2 MSTORE PUSH1 0x20 ADD PUSH1 0x0 KECCAK256 DUP2 SWAP1 SSTORE POP PUSH32 0xE183F33DE2837795525B4792CA4CD60535BD77C53B7E7030060BFCF5734D6B0C DUP6 DUP6 DUP6 DUP6 DUP6 PUSH1 0x40 MLOAD PUSH2 0x1D31 SWAP6 SWAP5 SWAP4 SWAP3 SWAP2 SWAP1 PUSH2 0x3780 JUMP JUMPDEST PUSH1 0x40 MLOAD DUP1 SWAP2 SUB SWAP1 LOG1 POP POP POP POP POP JUMP JUMPDEST PUSH1 0x0 PUSH1 0x3 PUSH1 0x0 DUP5 PUSH2 0xFFFF AND PUSH2 0xFFFF AND DUP2 MSTORE PUSH1 0x20 ADD SWAP1 DUP2 MSTORE PUSH1 0x20 ADD PUSH1 0x0 KECCAK256 SLOAD SWAP1 POP PUSH1 0x0 DUP2 SUB PUSH2 0x1D6E JUMPI PUSH2 0x2710 SWAP1 POP JUMPDEST DUP1 DUP3 GT ISZERO PUSH2 0x1DB1 JUMPI PUSH1 0x40 MLOAD PUSH32 0x8C379A000000000000000000000000000000000000000000000000000000000 DUP2 MSTORE PUSH1 0x4 ADD PUSH2 0x1DA8 SWAP1 PUSH2 0x3834 JUMP JUMPDEST PUSH1 0x40 MLOAD DUP1 SWAP2 SUB SWAP1 REVERT JUMPDEST POP POP POP JUMP JUMPDEST PUSH1 0x0 PUSH1 0x40 MLOAD SWAP1 POP SWAP1 JUMP JUMPDEST PUSH1 0x0 DUP1 REVERT JUMPDEST PUSH1 0x0 DUP1 REVERT JUMPDEST PUSH1 0x0 PUSH2 0xFFFF DUP3 AND SWAP1 POP SWAP2 SWAP1 POP JUMP JUMPDEST PUSH2 0x1DE1 DUP2 PUSH2 0x1DCA JUMP JUMPDEST DUP2 EQ PUSH2 0x1DEC JUMPI PUSH1 0x0 DUP1 REVERT JUMPDEST POP JUMP JUMPDEST PUSH1 0x0 DUP2 CALLDATALOAD SWAP1 POP PUSH2 0x1DFE DUP2 PUSH2 0x1DD8 JUMP JUMPDEST SWAP3 SWAP2 POP POP JUMP JUMPDEST PUSH1 0x0 DUP1 REVERT JUMPDEST PUSH1 0x0 DUP1 REVERT JUMPDEST PUSH1 0x0 DUP1 REVERT JUMPDEST PUSH1 0x0 DUP1 DUP4 PUSH1 0x1F DUP5 ADD SLT PUSH2 0x1E29 JUMPI PUSH2 0x1E28 PUSH2 0x1E04 JUMP JUMPDEST JUMPDEST DUP3 CALLDATALOAD SWAP1 POP PUSH8 0xFFFFFFFFFFFFFFFF DUP2 GT ISZERO PUSH2 0x1E46 JUMPI PUSH2 0x1E45 PUSH2 0x1E09 JUMP JUMPDEST JUMPDEST PUSH1 0x20 DUP4 ADD SWAP2 POP DUP4 PUSH1 0x1 DUP3 MUL DUP4 ADD GT ISZERO PUSH2 0x1E62 JUMPI PUSH2 0x1E61 PUSH2 0x1E0E JUMP JUMPDEST JUMPDEST SWAP3 POP SWAP3 SWAP1 POP JUMP JUMPDEST PUSH1 0x0 PUSH8 0xFFFFFFFFFFFFFFFF DUP3 AND SWAP1 POP SWAP2 SWAP1 POP JUMP JUMPDEST PUSH2 0x1E86 DUP2 PUSH2 0x1E69 JUMP JUMPDEST DUP2 EQ PUSH2 0x1E91 JUMPI PUSH1 0x0 DUP1 REVERT JUMPDEST POP JUMP JUMPDEST PUSH1 0x0 DUP2 CALLDATALOAD SWAP1 POP PUSH2 0x1EA3 DUP2 PUSH2 0x1E7D JUMP JUMPDEST SWAP3 SWAP2 POP POP JUMP JUMPDEST PUSH1 0x0 DUP1 PUSH1 0x0 DUP1 PUSH1 0x0 DUP1 PUSH1 0x80 DUP8 DUP10 SUB SLT ISZERO PUSH2 0x1EC6 JUMPI PUSH2 0x1EC5 PUSH2 0x1DC0 JUMP JUMPDEST JUMPDEST PUSH1 0x0 PUSH2 0x1ED4 DUP10 DUP3 DUP11 ADD PUSH2 0x1DEF JUMP JUMPDEST SWAP7 POP POP PUSH1 0x20 DUP8 ADD CALLDATALOAD PUSH8 0xFFFFFFFFFFFFFFFF DUP2 GT ISZERO PUSH2 0x1EF5 JUMPI PUSH2 0x1EF4 PUSH2 0x1DC5 JUMP JUMPDEST JUMPDEST PUSH2 0x1F01 DUP10 DUP3 DUP11 ADD PUSH2 0x1E13 JUMP JUMPDEST SWAP6 POP SWAP6 POP POP PUSH1 0x40 PUSH2 0x1F14 DUP10 DUP3 DUP11 ADD PUSH2 0x1E94 JUMP JUMPDEST SWAP4 POP POP PUSH1 0x60 DUP8 ADD CALLDATALOAD PUSH8 0xFFFFFFFFFFFFFFFF DUP2 GT ISZERO PUSH2 0x1F35 JUMPI PUSH2 0x1F34 PUSH2 0x1DC5 JUMP JUMPDEST JUMPDEST PUSH2 0x1F41 DUP10 DUP3 DUP11 ADD PUSH2 0x1E13 JUMP JUMPDEST SWAP3 POP SWAP3 POP POP SWAP3 SWAP6 POP SWAP3 SWAP6 POP SWAP3 SWAP6 JUMP JUMPDEST PUSH1 0x0 PUSH1 0x20 DUP3 DUP5 SUB SLT ISZERO PUSH2 0x1F66 JUMPI PUSH2 0x1F65 PUSH2 0x1DC0 JUMP JUMPDEST JUMPDEST PUSH1 0x0 PUSH2 0x1F74 DUP5 DUP3 DUP6 ADD PUSH2 0x1DEF JUMP JUMPDEST SWAP2 POP POP SWAP3 SWAP2 POP POP JUMP JUMPDEST PUSH1 0x0 DUP2 SWAP1 POP SWAP2 SWAP1 POP JUMP JUMPDEST PUSH2 0x1F90 DUP2 PUSH2 0x1F7D JUMP JUMPDEST DUP2 EQ PUSH2 0x1F9B JUMPI PUSH1 0x0 DUP1 REVERT JUMPDEST POP JUMP JUMPDEST PUSH1 0x0 DUP2 CALLDATALOAD SWAP1 POP PUSH2 0x1FAD DUP2 PUSH2 0x1F87 JUMP JUMPDEST SWAP3 SWAP2 POP POP JUMP JUMPDEST PUSH1 0x0 DUP1 PUSH1 0x40 DUP4 DUP6 SUB SLT ISZERO PUSH2 0x1FCA JUMPI PUSH2 0x1FC9 PUSH2 0x1DC0 JUMP JUMPDEST JUMPDEST PUSH1 0x0 PUSH2 0x1FD8 DUP6 DUP3 DUP7 ADD PUSH2 0x1DEF JUMP JUMPDEST SWAP3 POP POP PUSH1 0x20 PUSH2 0x1FE9 DUP6 DUP3 DUP7 ADD PUSH2 0x1F9E JUMP JUMPDEST SWAP2 POP POP SWAP3 POP SWAP3 SWAP1 POP JUMP JUMPDEST PUSH1 0x0 DUP1 PUSH1 0x0 PUSH1 0x40 DUP5 DUP7 SUB SLT ISZERO PUSH2 0x200C JUMPI PUSH2 0x200B PUSH2 0x1DC0 JUMP JUMPDEST JUMPDEST PUSH1 0x0 PUSH2 0x201A DUP7 DUP3 DUP8 ADD PUSH2 0x1DEF JUMP JUMPDEST SWAP4 POP POP PUSH1 0x20 DUP5 ADD CALLDATALOAD PUSH8 0xFFFFFFFFFFFFFFFF DUP2 GT ISZERO PUSH2 0x203B JUMPI PUSH2 0x203A PUSH2 0x1DC5 JUMP JUMPDEST JUMPDEST PUSH2 0x2047 DUP7 DUP3 DUP8 ADD PUSH2 0x1E13 JUMP JUMPDEST SWAP3 POP SWAP3 POP POP SWAP3 POP SWAP3 POP SWAP3 JUMP JUMPDEST PUSH1 0x0 DUP2 ISZERO ISZERO SWAP1 POP SWAP2 SWAP1 POP JUMP JUMPDEST PUSH2 0x2068 DUP2 PUSH2 0x2053 JUMP JUMPDEST DUP3 MSTORE POP POP JUMP JUMPDEST PUSH1 0x0 PUSH1 0x20 DUP3 ADD SWAP1 POP PUSH2 0x2083 PUSH1 0x0 DUP4 ADD DUP5 PUSH2 0x205F JUMP JUMPDEST SWAP3 SWAP2 POP POP JUMP JUMPDEST PUSH2 0x2092 DUP2 PUSH2 0x1F7D JUMP JUMPDEST DUP3 MSTORE POP POP JUMP JUMPDEST PUSH1 0x0 PUSH1 0x20 DUP3 ADD SWAP1 POP PUSH2 0x20AD PUSH1 0x0 DUP4 ADD DUP5 PUSH2 0x2089 JUMP JUMPDEST SWAP3 SWAP2 POP POP JUMP JUMPDEST PUSH1 0x0 DUP1 REVERT JUMPDEST PUSH1 0x0 PUSH1 0x1F NOT PUSH1 0x1F DUP4 ADD AND SWAP1 POP SWAP2 SWAP1 POP JUMP JUMPDEST PUSH32 0x4E487B7100000000000000000000000000000000000000000000000000000000 PUSH1 0x0 MSTORE PUSH1 0x41 PUSH1 0x4 MSTORE PUSH1 0x24 PUSH1 0x0 REVERT JUMPDEST PUSH2 0x2101 DUP3 PUSH2 0x20B8 JUMP JUMPDEST DUP2 ADD DUP2 DUP2 LT PUSH8 0xFFFFFFFFFFFFFFFF DUP3 GT OR ISZERO PUSH2 0x2120 JUMPI PUSH2 0x211F PUSH2 0x20C9 JUMP JUMPDEST JUMPDEST DUP1 PUSH1 0x40 MSTORE POP POP POP JUMP JUMPDEST PUSH1 0x0 PUSH2 0x2133 PUSH2 0x1DB6 JUMP JUMPDEST SWAP1 POP PUSH2 0x213F DUP3 DUP3 PUSH2 0x20F8 JUMP JUMPDEST SWAP2 SWAP1 POP JUMP JUMPDEST PUSH1 0x0 PUSH8 0xFFFFFFFFFFFFFFFF DUP3 GT ISZERO PUSH2 0x215F JUMPI PUSH2 0x215E PUSH2 0x20C9 JUMP JUMPDEST JUMPDEST PUSH2 0x2168 DUP3 PUSH2 0x20B8 JUMP JUMPDEST SWAP1 POP PUSH1 0x20 DUP2 ADD SWAP1 POP SWAP2 SWAP1 POP JUMP JUMPDEST DUP3 DUP2 DUP4 CALLDATACOPY PUSH1 0x0 DUP4 DUP4 ADD MSTORE POP POP POP JUMP JUMPDEST PUSH1 0x0 PUSH2 0x2197 PUSH2 0x2192 DUP5 PUSH2 0x2144 JUMP JUMPDEST PUSH2 0x2129 JUMP JUMPDEST SWAP1 POP DUP3 DUP2 MSTORE PUSH1 0x20 DUP2 ADD DUP5 DUP5 DUP5 ADD GT ISZERO PUSH2 0x21B3 JUMPI PUSH2 0x21B2 PUSH2 0x20B3 JUMP JUMPDEST JUMPDEST PUSH2 0x21BE DUP5 DUP3 DUP6 PUSH2 0x2175 JUMP JUMPDEST POP SWAP4 SWAP3 POP POP POP JUMP JUMPDEST PUSH1 0x0 DUP3 PUSH1 0x1F DUP4 ADD SLT PUSH2 0x21DB JUMPI PUSH2 0x21DA PUSH2 0x1E04 JUMP JUMPDEST JUMPDEST DUP2 CALLDATALOAD PUSH2 0x21EB DUP5 DUP3 PUSH1 0x20 DUP7 ADD PUSH2 0x2184 JUMP JUMPDEST SWAP2 POP POP SWAP3 SWAP2 POP POP JUMP JUMPDEST PUSH1 0x0 DUP1 PUSH1 0x0 PUSH1 0x60 DUP5 DUP7 SUB SLT ISZERO PUSH2 0x220D JUMPI PUSH2 0x220C PUSH2 0x1DC0 JUMP JUMPDEST JUMPDEST PUSH1 0x0 PUSH2 0x221B DUP7 DUP3 DUP8 ADD PUSH2 0x1DEF JUMP JUMPDEST SWAP4 POP POP PUSH1 0x20 DUP5 ADD CALLDATALOAD PUSH8 0xFFFFFFFFFFFFFFFF DUP2 GT ISZERO PUSH2 0x223C JUMPI PUSH2 0x223B PUSH2 0x1DC5 JUMP JUMPDEST JUMPDEST PUSH2 0x2248 DUP7 DUP3 DUP8 ADD PUSH2 0x21C6 JUMP JUMPDEST SWAP3 POP POP PUSH1 0x40 PUSH2 0x2259 DUP7 DUP3 DUP8 ADD PUSH2 0x1E94 JUMP JUMPDEST SWAP2 POP POP SWAP3 POP SWAP3 POP SWAP3 JUMP JUMPDEST PUSH1 0x0 DUP2 SWAP1 POP SWAP2 SWAP1 POP JUMP JUMPDEST PUSH2 0x2276 DUP2 PUSH2 0x2263 JUMP JUMPDEST DUP3 MSTORE POP POP JUMP JUMPDEST PUSH1 0x0 PUSH1 0x20 DUP3 ADD SWAP1 POP PUSH2 0x2291 PUSH1 0x0 DUP4 ADD DUP5 PUSH2 0x226D JUMP JUMPDEST SWAP3 SWAP2 POP POP JUMP JUMPDEST PUSH1 0x0 PUSH20 0xFFFFFFFFFFFFFFFFFFFFFFFFFFFFFFFFFFFFFFFF DUP3 AND SWAP1 POP SWAP2 SWAP1 POP JUMP JUMPDEST PUSH1 0x0 PUSH2 0x22C2 DUP3 PUSH2 0x2297 JUMP JUMPDEST SWAP1 POP SWAP2 SWAP1 POP JUMP JUMPDEST PUSH2 0x22D2 DUP2 PUSH2 0x22B7 JUMP JUMPDEST DUP2 EQ PUSH2 0x22DD JUMPI PUSH1 0x0 DUP1 REVERT JUMPDEST POP JUMP JUMPDEST PUSH1 0x0 DUP2 CALLDATALOAD SWAP1 POP PUSH2 0x22EF DUP2 PUSH2 0x22C9 JUMP JUMPDEST SWAP3 SWAP2 POP POP JUMP JUMPDEST PUSH1 0x0 PUSH1 0x20 DUP3 DUP5 SUB SLT ISZERO PUSH2 0x230B JUMPI PUSH2 0x230A PUSH2 0x1DC0 JUMP JUMPDEST JUMPDEST PUSH1 0x0 PUSH2 0x2319 DUP5 DUP3 DUP6 ADD PUSH2 0x22E0 JUMP JUMPDEST SWAP2 POP POP SWAP3 SWAP2 POP POP JUMP JUMPDEST PUSH1 0x0 PUSH8 0xFFFFFFFFFFFFFFFF DUP3 GT ISZERO PUSH2 0x233D JUMPI PUSH2 0x233C PUSH2 0x20C9 JUMP JUMPDEST JUMPDEST PUSH2 0x2346 DUP3 PUSH2 0x20B8 JUMP JUMPDEST SWAP1 POP PUSH1 0x20 DUP2 ADD SWAP1 POP SWAP2 SWAP1 POP JUMP JUMPDEST PUSH1 0x0 PUSH2 0x2366 PUSH2 0x2361 DUP5 PUSH2 0x2322 JUMP JUMPDEST PUSH2 0x2129 JUMP JUMPDEST SWAP1 POP DUP3 DUP2 MSTORE PUSH1 0x20 DUP2 ADD DUP5 DUP5 DUP5 ADD GT ISZERO PUSH2 0x2382 JUMPI PUSH2 0x2381 PUSH2 0x20B3 JUMP JUMPDEST JUMPDEST PUSH2 0x238D DUP5 DUP3 DUP6 PUSH2 0x2175 JUMP JUMPDEST POP SWAP4 SWAP3 POP POP POP JUMP JUMPDEST PUSH1 0x0 DUP3 PUSH1 0x1F DUP4 ADD SLT PUSH2 0x23AA JUMPI PUSH2 0x23A9 PUSH2 0x1E04 JUMP JUMPDEST JUMPDEST DUP2 CALLDATALOAD PUSH2 0x23BA DUP5 DUP3 PUSH1 0x20 DUP7 ADD PUSH2 0x2353 JUMP JUMPDEST SWAP2 POP POP SWAP3 SWAP2 POP POP JUMP JUMPDEST PUSH1 0x0 PUSH1 0x20 DUP3 DUP5 SUB SLT ISZERO PUSH2 0x23D9 JUMPI PUSH2 0x23D8 PUSH2 0x1DC0 JUMP JUMPDEST JUMPDEST PUSH1 0x0 DUP3 ADD CALLDATALOAD PUSH8 0xFFFFFFFFFFFFFFFF DUP2 GT ISZERO PUSH2 0x23F7 JUMPI PUSH2 0x23F6 PUSH2 0x1DC5 JUMP JUMPDEST JUMPDEST PUSH2 0x2403 DUP5 DUP3 DUP6 ADD PUSH2 0x2395 JUMP JUMPDEST SWAP2 POP POP SWAP3 SWAP2 POP POP JUMP JUMPDEST PUSH1 0x0 DUP2 MLOAD SWAP1 POP SWAP2 SWAP1 POP JUMP JUMPDEST PUSH1 0x0 DUP3 DUP3 MSTORE PUSH1 0x20 DUP3 ADD SWAP1 POP SWAP3 SWAP2 POP POP JUMP JUMPDEST PUSH1 0x0 JUMPDEST DUP4 DUP2 LT ISZERO PUSH2 0x2446 JUMPI DUP1 DUP3 ADD MLOAD DUP2 DUP5 ADD MSTORE PUSH1 0x20 DUP2 ADD SWAP1 POP PUSH2 0x242B JUMP JUMPDEST PUSH1 0x0 DUP5 DUP5 ADD MSTORE POP POP POP POP JUMP JUMPDEST PUSH1 0x0 PUSH2 0x245D DUP3 PUSH2 0x240C JUMP JUMPDEST PUSH2 0x2467 DUP2 DUP6 PUSH2 0x2417 JUMP JUMPDEST SWAP4 POP PUSH2 0x2477 DUP2 DUP6 PUSH1 0x20 DUP7 ADD PUSH2 0x2428 JUMP JUMPDEST PUSH2 0x2480 DUP2 PUSH2 0x20B8 JUMP JUMPDEST DUP5 ADD SWAP2 POP POP SWAP3 SWAP2 POP POP JUMP JUMPDEST PUSH1 0x0 PUSH1 0x20 DUP3 ADD SWAP1 POP DUP2 DUP2 SUB PUSH1 0x0 DUP4 ADD MSTORE PUSH2 0x24A5 DUP2 DUP5 PUSH2 0x2452 JUMP JUMPDEST SWAP1 POP SWAP3 SWAP2 POP POP JUMP JUMPDEST PUSH1 0x0 DUP2 MLOAD SWAP1 POP SWAP2 SWAP1 POP JUMP JUMPDEST PUSH1 0x0 DUP3 DUP3 MSTORE PUSH1 0x20 DUP3 ADD SWAP1 POP SWAP3 SWAP2 POP POP JUMP JUMPDEST PUSH1 0x0 PUSH2 0x24D4 DUP3 PUSH2 0x24AD JUMP JUMPDEST PUSH2 0x24DE DUP2 DUP6 PUSH2 0x24B8 JUMP JUMPDEST SWAP4 POP PUSH2 0x24EE DUP2 DUP6 PUSH1 0x20 DUP7 ADD PUSH2 0x2428 JUMP JUMPDEST PUSH2 0x24F7 DUP2 PUSH2 0x20B8 JUMP JUMPDEST DUP5 ADD SWAP2 POP POP SWAP3 SWAP2 POP POP JUMP JUMPDEST PUSH1 0x0 PUSH1 0x20 DUP3 ADD SWAP1 POP DUP2 DUP2 SUB PUSH1 0x0 DUP4 ADD MSTORE PUSH2 0x251C DUP2 DUP5 PUSH2 0x24C9 JUMP JUMPDEST SWAP1 POP SWAP3 SWAP2 POP POP JUMP JUMPDEST PUSH1 0x0 DUP1 PUSH1 0x40 DUP4 DUP6 SUB SLT ISZERO PUSH2 0x253B JUMPI PUSH2 0x253A PUSH2 0x1DC0 JUMP JUMPDEST JUMPDEST PUSH1 0x0 PUSH2 0x2549 DUP6 DUP3 DUP7 ADD PUSH2 0x1DEF JUMP JUMPDEST SWAP3 POP POP PUSH1 0x20 PUSH2 0x255A DUP6 DUP3 DUP7 ADD PUSH2 0x1DEF JUMP JUMPDEST SWAP2 POP POP SWAP3 POP SWAP3 SWAP1 POP JUMP JUMPDEST PUSH2 0x256D DUP2 PUSH2 0x22B7 JUMP JUMPDEST DUP3 MSTORE POP POP JUMP JUMPDEST PUSH1 0x0 PUSH1 0x20 DUP3 ADD SWAP1 POP PUSH2 0x2588 PUSH1 0x0 DUP4 ADD DUP5 PUSH2 0x2564 JUMP JUMPDEST SWAP3 SWAP2 POP POP JUMP JUMPDEST PUSH1 0x0 DUP2 SWAP1 POP SWAP2 SWAP1 POP JUMP JUMPDEST PUSH1 0x0 PUSH2 0x25B3 PUSH2 0x25AE PUSH2 0x25A9 DUP5 PUSH2 0x2297 JUMP JUMPDEST PUSH2 0x258E JUMP JUMPDEST PUSH2 0x2297 JUMP JUMPDEST SWAP1 POP SWAP2 SWAP1 POP JUMP JUMPDEST PUSH1 0x0 PUSH2 0x25C5 DUP3 PUSH2 0x2598 JUMP JUMPDEST SWAP1 POP SWAP2 SWAP1 POP JUMP JUMPDEST PUSH1 0x0 PUSH2 0x25D7 DUP3 PUSH2 0x25BA JUMP JUMPDEST SWAP1 POP SWAP2 SWAP1 POP JUMP JUMPDEST PUSH2 0x25E7 DUP2 PUSH2 0x25CC JUMP JUMPDEST DUP3 MSTORE POP POP JUMP JUMPDEST PUSH1 0x0 PUSH1 0x20 DUP3 ADD SWAP1 POP PUSH2 0x2602 PUSH1 0x0 DUP4 ADD DUP5 PUSH2 0x25DE JUMP JUMPDEST SWAP3 SWAP2 POP POP JUMP JUMPDEST PUSH1 0x0 DUP1 PUSH1 0x0 DUP1 PUSH1 0x0 PUSH1 0x80 DUP7 DUP9 SUB SLT ISZERO PUSH2 0x2624 JUMPI PUSH2 0x2623 PUSH2 0x1DC0 JUMP JUMPDEST JUMPDEST PUSH1 0x0 PUSH2 0x2632 DUP9 DUP3 DUP10 ADD PUSH2 0x1DEF JUMP JUMPDEST SWAP6 POP POP PUSH1 0x20 PUSH2 0x2643 DUP9 DUP3 DUP10 ADD PUSH2 0x1DEF JUMP JUMPDEST SWAP5 POP POP PUSH1 0x40 PUSH2 0x2654 DUP9 DUP3 DUP10 ADD PUSH2 0x1F9E JUMP JUMPDEST SWAP4 POP POP PUSH1 0x60 DUP7 ADD CALLDATALOAD PUSH8 0xFFFFFFFFFFFFFFFF DUP2 GT ISZERO PUSH2 0x2675 JUMPI PUSH2 0x2674 PUSH2 0x1DC5 JUMP JUMPDEST JUMPDEST PUSH2 0x2681 DUP9 DUP3 DUP10 ADD PUSH2 0x1E13 JUMP JUMPDEST SWAP3 POP SWAP3 POP POP SWAP3 SWAP6 POP SWAP3 SWAP6 SWAP1 SWAP4 POP JUMP JUMPDEST PUSH1 0x0 DUP1 PUSH1 0x0 PUSH1 0x60 DUP5 DUP7 SUB SLT ISZERO PUSH2 0x26A9 JUMPI PUSH2 0x26A8 PUSH2 0x1DC0 JUMP JUMPDEST JUMPDEST PUSH1 0x0 PUSH2 0x26B7 DUP7 DUP3 DUP8 ADD PUSH2 0x1DEF JUMP JUMPDEST SWAP4 POP POP PUSH1 0x20 PUSH2 0x26C8 DUP7 DUP3 DUP8 ADD PUSH2 0x1DEF JUMP JUMPDEST SWAP3 POP POP PUSH1 0x40 PUSH2 0x26D9 DUP7 DUP3 DUP8 ADD PUSH2 0x1F9E JUMP JUMPDEST SWAP2 POP POP SWAP3 POP SWAP3 POP SWAP3 JUMP JUMPDEST PUSH1 0x0 DUP1 PUSH1 0x0 DUP1 PUSH1 0x80 DUP6 DUP8 SUB SLT ISZERO PUSH2 0x26FD JUMPI PUSH2 0x26FC PUSH2 0x1DC0 JUMP JUMPDEST JUMPDEST PUSH1 0x0 PUSH2 0x270B DUP8 DUP3 DUP9 ADD PUSH2 0x1DEF JUMP JUMPDEST SWAP5 POP POP PUSH1 0x20 PUSH2 0x271C DUP8 DUP3 DUP9 ADD PUSH2 0x1DEF JUMP JUMPDEST SWAP4 POP POP PUSH1 0x40 PUSH2 0x272D DUP8 DUP3 DUP9 ADD PUSH2 0x22E0 JUMP JUMPDEST SWAP3 POP POP PUSH1 0x60 PUSH2 0x273E DUP8 DUP3 DUP9 ADD PUSH2 0x1F9E JUMP JUMPDEST SWAP2 POP POP SWAP3 SWAP6 SWAP2 SWAP5 POP SWAP3 POP JUMP JUMPDEST PUSH32 0x4C7A4170703A20696E76616C696420656E64706F696E742063616C6C65720000 PUSH1 0x0 DUP3 ADD MSTORE POP JUMP JUMPDEST PUSH1 0x0 PUSH2 0x2780 PUSH1 0x1E DUP4 PUSH2 0x2417 JUMP JUMPDEST SWAP2 POP PUSH2 0x278B DUP3 PUSH2 0x274A JUMP JUMPDEST PUSH1 0x20 DUP3 ADD SWAP1 POP SWAP2 SWAP1 POP JUMP JUMPDEST PUSH1 0x0 PUSH1 0x20 DUP3 ADD SWAP1 POP DUP2 DUP2 SUB PUSH1 0x0 DUP4 ADD MSTORE PUSH2 0x27AF DUP2 PUSH2 0x2773 JUMP JUMPDEST SWAP1 POP SWAP2 SWAP1 POP JUMP JUMPDEST PUSH32 0x4E487B7100000000000000000000000000000000000000000000000000000000 PUSH1 0x0 MSTORE PUSH1 0x22 PUSH1 0x4 MSTORE PUSH1 0x24 PUSH1 0x0 REVERT JUMPDEST PUSH1 0x0 PUSH1 0x2 DUP3 DIV SWAP1 POP PUSH1 0x1 DUP3 AND DUP1 PUSH2 0x27FD JUMPI PUSH1 0x7F DUP3 AND SWAP2 POP JUMPDEST PUSH1 0x20 DUP3 LT DUP2 SUB PUSH2 0x2810 JUMPI PUSH2 0x280F PUSH2 0x27B6 JUMP JUMPDEST JUMPDEST POP SWAP2 SWAP1 POP JUMP JUMPDEST PUSH1 0x0 DUP2 SWAP1 POP SWAP3 SWAP2 POP POP JUMP JUMPDEST PUSH1 0x0 PUSH2 0x282D DUP4 DUP6 PUSH2 0x2816 JUMP JUMPDEST SWAP4 POP PUSH2 0x283A DUP4 DUP6 DUP5 PUSH2 0x2175 JUMP JUMPDEST DUP3 DUP5 ADD SWAP1 POP SWAP4 SWAP3 POP POP POP JUMP JUMPDEST PUSH1 0x0 PUSH2 0x2853 DUP3 DUP5 DUP7 PUSH2 0x2821 JUMP JUMPDEST SWAP2 POP DUP2 SWAP1 POP SWAP4 SWAP3 POP POP POP JUMP JUMPDEST PUSH32 0x4C7A4170703A20696E76616C696420736F757263652073656E64696E6720636F PUSH1 0x0 DUP3 ADD MSTORE PUSH32 0x6E74726163740000000000000000000000000000000000000000000000000000 PUSH1 0x20 DUP3 ADD MSTORE POP JUMP JUMPDEST PUSH1 0x0 PUSH2 0x28BB PUSH1 0x26 DUP4 PUSH2 0x2417 JUMP JUMPDEST SWAP2 POP PUSH2 0x28C6 DUP3 PUSH2 0x285F JUMP JUMPDEST PUSH1 0x40 DUP3 ADD SWAP1 POP SWAP2 SWAP1 POP JUMP JUMPDEST PUSH1 0x0 PUSH1 0x20 DUP3 ADD SWAP1 POP DUP2 DUP2 SUB PUSH1 0x0 DUP4 ADD MSTORE PUSH2 0x28EA DUP2 PUSH2 0x28AE JUMP JUMPDEST SWAP1 POP SWAP2 SWAP1 POP JUMP JUMPDEST PUSH2 0x28FA DUP2 PUSH2 0x1DCA JUMP JUMPDEST DUP3 MSTORE POP POP JUMP JUMPDEST PUSH1 0x0 PUSH1 0x20 DUP3 ADD SWAP1 POP PUSH2 0x2915 PUSH1 0x0 DUP4 ADD DUP5 PUSH2 0x28F1 JUMP JUMPDEST SWAP3 SWAP2 POP POP JUMP JUMPDEST PUSH1 0x0 PUSH2 0x2927 DUP4 DUP6 PUSH2 0x24B8 JUMP JUMPDEST SWAP4 POP PUSH2 0x2934 DUP4 DUP6 DUP5 PUSH2 0x2175 JUMP JUMPDEST PUSH2 0x293D DUP4 PUSH2 0x20B8 JUMP JUMPDEST DUP5 ADD SWAP1 POP SWAP4 SWAP3 POP POP POP JUMP JUMPDEST PUSH1 0x0 PUSH1 0x40 DUP3 ADD SWAP1 POP PUSH2 0x295D PUSH1 0x0 DUP4 ADD DUP7 PUSH2 0x28F1 JUMP JUMPDEST DUP2 DUP2 SUB PUSH1 0x20 DUP4 ADD MSTORE PUSH2 0x2970 DUP2 DUP5 DUP7 PUSH2 0x291B JUMP JUMPDEST SWAP1 POP SWAP5 SWAP4 POP POP POP POP JUMP JUMPDEST PUSH1 0x0 DUP2 PUSH1 0x60 SHL SWAP1 POP SWAP2 SWAP1 POP JUMP JUMPDEST PUSH1 0x0 PUSH2 0x2992 DUP3 PUSH2 0x297A JUMP JUMPDEST SWAP1 POP SWAP2 SWAP1 POP JUMP JUMPDEST PUSH1 0x0 PUSH2 0x29A4 DUP3 PUSH2 0x2987 JUMP JUMPDEST SWAP1 POP SWAP2 SWAP1 POP JUMP JUMPDEST PUSH2 0x29BC PUSH2 0x29B7 DUP3 PUSH2 0x22B7 JUMP JUMPDEST PUSH2 0x2999 JUMP JUMPDEST DUP3 MSTORE POP POP JUMP JUMPDEST PUSH1 0x0 PUSH2 0x29CE DUP3 DUP6 PUSH2 0x29AB JUMP JUMPDEST PUSH1 0x14 DUP3 ADD SWAP2 POP PUSH2 0x29DE DUP3 DUP5 PUSH2 0x29AB JUMP JUMPDEST PUSH1 0x14 DUP3 ADD SWAP2 POP DUP2 SWAP1 POP SWAP4 SWAP3 POP POP POP JUMP JUMPDEST PUSH1 0x0 DUP2 SWAP1 POP DUP2 PUSH1 0x0 MSTORE PUSH1 0x20 PUSH1 0x0 KECCAK256 SWAP1 POP SWAP2 SWAP1 POP JUMP JUMPDEST PUSH1 0x0 PUSH1 0x20 PUSH1 0x1F DUP4 ADD DIV SWAP1 POP SWAP2 SWAP1 POP JUMP JUMPDEST PUSH1 0x0 DUP3 DUP3 SHL SWAP1 POP SWAP3 SWAP2 POP POP JUMP JUMPDEST PUSH1 0x0 PUSH1 0x8 DUP4 MUL PUSH2 0x2A50 PUSH32 0xFFFFFFFFFFFFFFFFFFFFFFFFFFFFFFFFFFFFFFFFFFFFFFFFFFFFFFFFFFFFFFFF DUP3 PUSH2 0x2A13 JUMP JUMPDEST PUSH2 0x2A5A DUP7 DUP4 PUSH2 0x2A13 JUMP JUMPDEST SWAP6 POP DUP1 NOT DUP5 AND SWAP4 POP DUP1 DUP7 AND DUP5 OR SWAP3 POP POP POP SWAP4 SWAP3 POP POP POP JUMP JUMPDEST PUSH1 0x0 PUSH2 0x2A8D PUSH2 0x2A88 PUSH2 0x2A83 DUP5 PUSH2 0x1F7D JUMP JUMPDEST PUSH2 0x258E JUMP JUMPDEST PUSH2 0x1F7D JUMP JUMPDEST SWAP1 POP SWAP2 SWAP1 POP JUMP JUMPDEST PUSH1 0x0 DUP2 SWAP1 POP SWAP2 SWAP1 POP JUMP JUMPDEST PUSH2 0x2AA7 DUP4 PUSH2 0x2A72 JUMP JUMPDEST PUSH2 0x2ABB PUSH2 0x2AB3 DUP3 PUSH2 0x2A94 JUMP JUMPDEST DUP5 DUP5 SLOAD PUSH2 0x2A20 JUMP JUMPDEST DUP3 SSTORE POP POP POP POP JUMP JUMPDEST PUSH1 0x0 SWAP1 JUMP JUMPDEST PUSH2 0x2AD0 PUSH2 0x2AC3 JUMP JUMPDEST PUSH2 0x2ADB DUP2 DUP5 DUP5 PUSH2 0x2A9E JUMP JUMPDEST POP POP POP JUMP JUMPDEST JUMPDEST DUP2 DUP2 LT ISZERO PUSH2 0x2AFF JUMPI PUSH2 0x2AF4 PUSH1 0x0 DUP3 PUSH2 0x2AC8 JUMP JUMPDEST PUSH1 0x1 DUP2 ADD SWAP1 POP PUSH2 0x2AE1 JUMP JUMPDEST POP POP JUMP JUMPDEST PUSH1 0x1F DUP3 GT ISZERO PUSH2 0x2B44 JUMPI PUSH2 0x2B15 DUP2 PUSH2 0x29EE JUMP JUMPDEST PUSH2 0x2B1E DUP5 PUSH2 0x2A03 JUMP JUMPDEST DUP2 ADD PUSH1 0x20 DUP6 LT ISZERO PUSH2 0x2B2D JUMPI DUP2 SWAP1 POP JUMPDEST PUSH2 0x2B41 PUSH2 0x2B39 DUP6 PUSH2 0x2A03 JUMP JUMPDEST DUP4 ADD DUP3 PUSH2 0x2AE0 JUMP JUMPDEST POP POP JUMPDEST POP POP POP JUMP JUMPDEST PUSH1 0x0 DUP3 DUP3 SHR SWAP1 POP SWAP3 SWAP2 POP POP JUMP JUMPDEST PUSH1 0x0 PUSH2 0x2B67 PUSH1 0x0 NOT DUP5 PUSH1 0x8 MUL PUSH2 0x2B49 JUMP JUMPDEST NOT DUP1 DUP4 AND SWAP2 POP POP SWAP3 SWAP2 POP POP JUMP JUMPDEST PUSH1 0x0 PUSH2 0x2B80 DUP4 DUP4 PUSH2 0x2B56 JUMP JUMPDEST SWAP2 POP DUP3 PUSH1 0x2 MUL DUP3 OR SWAP1 POP SWAP3 SWAP2 POP POP JUMP JUMPDEST PUSH2 0x2B99 DUP3 PUSH2 0x24AD JUMP JUMPDEST PUSH8 0xFFFFFFFFFFFFFFFF DUP2 GT ISZERO PUSH2 0x2BB2 JUMPI PUSH2 0x2BB1 PUSH2 0x20C9 JUMP JUMPDEST JUMPDEST PUSH2 0x2BBC DUP3 SLOAD PUSH2 0x27E5 JUMP JUMPDEST PUSH2 0x2BC7 DUP3 DUP3 DUP6 PUSH2 0x2B03 JUMP JUMPDEST PUSH1 0x0 PUSH1 0x20 SWAP1 POP PUSH1 0x1F DUP4 GT PUSH1 0x1 DUP2 EQ PUSH2 0x2BFA JUMPI PUSH1 0x0 DUP5 ISZERO PUSH2 0x2BE8 JUMPI DUP3 DUP8 ADD MLOAD SWAP1 POP JUMPDEST PUSH2 0x2BF2 DUP6 DUP3 PUSH2 0x2B74 JUMP JUMPDEST DUP7 SSTORE POP PUSH2 0x2C5A JUMP JUMPDEST PUSH1 0x1F NOT DUP5 AND PUSH2 0x2C08 DUP7 PUSH2 0x29EE JUMP JUMPDEST PUSH1 0x0 JUMPDEST DUP3 DUP2 LT ISZERO PUSH2 0x2C30 JUMPI DUP5 DUP10 ADD MLOAD DUP3 SSTORE PUSH1 0x1 DUP3 ADD SWAP2 POP PUSH1 0x20 DUP6 ADD SWAP5 POP PUSH1 0x20 DUP2 ADD SWAP1 POP PUSH2 0x2C0B JUMP JUMPDEST DUP7 DUP4 LT ISZERO PUSH2 0x2C4D JUMPI DUP5 DUP10 ADD MLOAD PUSH2 0x2C49 PUSH1 0x1F DUP10 AND DUP3 PUSH2 0x2B56 JUMP JUMPDEST DUP4 SSTORE POP JUMPDEST PUSH1 0x1 PUSH1 0x2 DUP9 MUL ADD DUP9 SSTORE POP POP POP JUMPDEST POP POP POP POP POP POP JUMP JUMPDEST PUSH32 0x4E6F6E626C6F636B696E674C7A4170703A2063616C6C6572206D757374206265 PUSH1 0x0 DUP3 ADD MSTORE PUSH32 0x204C7A4170700000000000000000000000000000000000000000000000000000 PUSH1 0x20 DUP3 ADD MSTORE POP JUMP JUMPDEST PUSH1 0x0 PUSH2 0x2CBE PUSH1 0x26 DUP4 PUSH2 0x2417 JUMP JUMPDEST SWAP2 POP PUSH2 0x2CC9 DUP3 PUSH2 0x2C62 JUMP JUMPDEST PUSH1 0x40 DUP3 ADD SWAP1 POP SWAP2 SWAP1 POP JUMP JUMPDEST PUSH1 0x0 PUSH1 0x20 DUP3 ADD SWAP1 POP DUP2 DUP2 SUB PUSH1 0x0 DUP4 ADD MSTORE PUSH2 0x2CED DUP2 PUSH2 0x2CB1 JUMP JUMPDEST SWAP1 POP SWAP2 SWAP1 POP JUMP JUMPDEST PUSH32 0x4C7A4170703A206E6F20747275737465642070617468207265636F7264000000 PUSH1 0x0 DUP3 ADD MSTORE POP JUMP JUMPDEST PUSH1 0x0 PUSH2 0x2D2A PUSH1 0x1D DUP4 PUSH2 0x2417 JUMP JUMPDEST SWAP2 POP PUSH2 0x2D35 DUP3 PUSH2 0x2CF4 JUMP JUMPDEST PUSH1 0x20 DUP3 ADD SWAP1 POP SWAP2 SWAP1 POP JUMP JUMPDEST PUSH1 0x0 PUSH1 0x20 DUP3 ADD SWAP1 POP DUP2 DUP2 SUB PUSH1 0x0 DUP4 ADD MSTORE PUSH2 0x2D59 DUP2 PUSH2 0x2D1D JUMP JUMPDEST SWAP1 POP SWAP2 SWAP1 POP JUMP JUMPDEST PUSH32 0x4E487B7100000000000000000000000000000000000000000000000000000000 PUSH1 0x0 MSTORE PUSH1 0x11 PUSH1 0x4 MSTORE PUSH1 0x24 PUSH1 0x0 REVERT JUMPDEST PUSH1 0x0 PUSH2 0x2D9A DUP3 PUSH2 0x1F7D JUMP JUMPDEST SWAP2 POP PUSH2 0x2DA5 DUP4 PUSH2 0x1F7D JUMP JUMPDEST SWAP3 POP DUP3 DUP3 SUB SWAP1 POP DUP2 DUP2 GT ISZERO PUSH2 0x2DBD JUMPI PUSH2 0x2DBC PUSH2 0x2D60 JUMP JUMPDEST JUMPDEST SWAP3 SWAP2 POP POP JUMP JUMPDEST PUSH1 0x0 PUSH2 0x2DD0 DUP3 DUP6 DUP8 PUSH2 0x2821 JUMP JUMPDEST SWAP2 POP PUSH2 0x2DDC DUP3 DUP5 PUSH2 0x29AB JUMP JUMPDEST PUSH1 0x14 DUP3 ADD SWAP2 POP DUP2 SWAP1 POP SWAP5 SWAP4 POP POP POP POP JUMP JUMPDEST PUSH1 0x0 PUSH1 0x80 DUP3 ADD SWAP1 POP PUSH2 0x2E02 PUSH1 0x0 DUP4 ADD DUP9 PUSH2 0x28F1 JUMP JUMPDEST PUSH2 0x2E0F PUSH1 0x20 DUP4 ADD DUP8 PUSH2 0x28F1 JUMP JUMPDEST PUSH2 0x2E1C PUSH1 0x40 DUP4 ADD DUP7 PUSH2 0x2089 JUMP JUMPDEST DUP2 DUP2 SUB PUSH1 0x60 DUP4 ADD MSTORE PUSH2 0x2E2F DUP2 DUP5 DUP7 PUSH2 0x291B JUMP JUMPDEST SWAP1 POP SWAP7 SWAP6 POP POP POP POP POP POP JUMP JUMPDEST PUSH32 0x4E6F6E626C6F636B696E674C7A4170703A206E6F2073746F726564206D657373 PUSH1 0x0 DUP3 ADD MSTORE PUSH32 0x6167650000000000000000000000000000000000000000000000000000000000 PUSH1 0x20 DUP3 ADD MSTORE POP JUMP JUMPDEST PUSH1 0x0 PUSH2 0x2E97 PUSH1 0x23 DUP4 PUSH2 0x2417 JUMP JUMPDEST SWAP2 POP PUSH2 0x2EA2 DUP3 PUSH2 0x2E3B JUMP JUMPDEST PUSH1 0x40 DUP3 ADD SWAP1 POP SWAP2 SWAP1 POP JUMP JUMPDEST PUSH1 0x0 PUSH1 0x20 DUP3 ADD SWAP1 POP DUP2 DUP2 SUB PUSH1 0x0 DUP4 ADD MSTORE PUSH2 0x2EC6 DUP2 PUSH2 0x2E8A JUMP JUMPDEST SWAP1 POP SWAP2 SWAP1 POP JUMP JUMPDEST PUSH32 0x4E6F6E626C6F636B696E674C7A4170703A20696E76616C6964207061796C6F61 PUSH1 0x0 DUP3 ADD MSTORE PUSH32 0x6400000000000000000000000000000000000000000000000000000000000000 PUSH1 0x20 DUP3 ADD MSTORE POP JUMP JUMPDEST PUSH1 0x0 PUSH2 0x2F29 PUSH1 0x21 DUP4 PUSH2 0x2417 JUMP JUMPDEST SWAP2 POP PUSH2 0x2F34 DUP3 PUSH2 0x2ECD JUMP JUMPDEST PUSH1 0x40 DUP3 ADD SWAP1 POP SWAP2 SWAP1 POP JUMP JUMPDEST PUSH1 0x0 PUSH1 0x20 DUP3 ADD SWAP1 POP DUP2 DUP2 SUB PUSH1 0x0 DUP4 ADD MSTORE PUSH2 0x2F58 DUP2 PUSH2 0x2F1C JUMP JUMPDEST SWAP1 POP SWAP2 SWAP1 POP JUMP JUMPDEST PUSH2 0x2F68 DUP2 PUSH2 0x1E69 JUMP JUMPDEST DUP3 MSTORE POP POP JUMP JUMPDEST PUSH1 0x0 PUSH1 0x80 DUP3 ADD SWAP1 POP PUSH2 0x2F83 PUSH1 0x0 DUP4 ADD DUP9 PUSH2 0x28F1 JUMP JUMPDEST DUP2 DUP2 SUB PUSH1 0x20 DUP4 ADD MSTORE PUSH2 0x2F96 DUP2 DUP7 DUP9 PUSH2 0x291B JUMP JUMPDEST SWAP1 POP PUSH2 0x2FA5 PUSH1 0x40 DUP4 ADD DUP6 PUSH2 0x2F5F JUMP JUMPDEST PUSH2 0x2FB2 PUSH1 0x60 DUP4 ADD DUP5 PUSH2 0x226D JUMP JUMPDEST SWAP7 SWAP6 POP POP POP POP POP POP JUMP JUMPDEST PUSH1 0x0 PUSH1 0x60 DUP3 ADD SWAP1 POP PUSH2 0x2FD1 PUSH1 0x0 DUP4 ADD DUP7 PUSH2 0x28F1 JUMP JUMPDEST PUSH2 0x2FDE PUSH1 0x20 DUP4 ADD DUP6 PUSH2 0x28F1 JUMP JUMPDEST PUSH2 0x2FEB PUSH1 0x40 DUP4 ADD DUP5 PUSH2 0x2089 JUMP JUMPDEST SWAP5 SWAP4 POP POP POP POP JUMP JUMPDEST PUSH1 0x0 DUP3 SWAP1 POP SWAP3 SWAP2 POP POP JUMP JUMPDEST PUSH2 0x3008 DUP4 DUP4 PUSH2 0x2FF3 JUMP JUMPDEST PUSH8 0xFFFFFFFFFFFFFFFF DUP2 GT ISZERO PUSH2 0x3021 JUMPI PUSH2 0x3020 PUSH2 0x20C9 JUMP JUMPDEST JUMPDEST PUSH2 0x302B DUP3 SLOAD PUSH2 0x27E5 JUMP JUMPDEST PUSH2 0x3036 DUP3 DUP3 DUP6 PUSH2 0x2B03 JUMP JUMPDEST PUSH1 0x0 PUSH1 0x1F DUP4 GT PUSH1 0x1 DUP2 EQ PUSH2 0x3065 JUMPI PUSH1 0x0 DUP5 ISZERO PUSH2 0x3053 JUMPI DUP3 DUP8 ADD CALLDATALOAD SWAP1 POP JUMPDEST PUSH2 0x305D DUP6 DUP3 PUSH2 0x2B74 JUMP JUMPDEST DUP7 SSTORE POP PUSH2 0x30C5 JUMP JUMPDEST PUSH1 0x1F NOT DUP5 AND PUSH2 0x3073 DUP7 PUSH2 0x29EE JUMP JUMPDEST PUSH1 0x0 JUMPDEST DUP3 DUP2 LT ISZERO PUSH2 0x309B JUMPI DUP5 DUP10 ADD CALLDATALOAD DUP3 SSTORE PUSH1 0x1 DUP3 ADD SWAP2 POP PUSH1 0x20 DUP6 ADD SWAP5 POP PUSH1 0x20 DUP2 ADD SWAP1 POP PUSH2 0x3076 JUMP JUMPDEST DUP7 DUP4 LT ISZERO PUSH2 0x30B8 JUMPI DUP5 DUP10 ADD CALLDATALOAD PUSH2 0x30B4 PUSH1 0x1F DUP10 AND DUP3 PUSH2 0x2B56 JUMP JUMPDEST DUP4 SSTORE POP JUMPDEST PUSH1 0x1 PUSH1 0x2 DUP9 MUL ADD DUP9 SSTORE POP POP POP JUMPDEST POP POP POP POP POP POP POP JUMP JUMPDEST PUSH32 0x4F776E61626C653A206E6577206F776E657220697320746865207A65726F2061 PUSH1 0x0 DUP3 ADD MSTORE PUSH32 0x6464726573730000000000000000000000000000000000000000000000000000 PUSH1 0x20 DUP3 ADD MSTORE POP JUMP JUMPDEST PUSH1 0x0 PUSH2 0x312A PUSH1 0x26 DUP4 PUSH2 0x2417 JUMP JUMPDEST SWAP2 POP PUSH2 0x3135 DUP3 PUSH2 0x30CE JUMP JUMPDEST PUSH1 0x40 DUP3 ADD SWAP1 POP SWAP2 SWAP1 POP JUMP JUMPDEST PUSH1 0x0 PUSH1 0x20 DUP3 ADD SWAP1 POP DUP2 DUP2 SUB PUSH1 0x0 DUP4 ADD MSTORE PUSH2 0x3159 DUP2 PUSH2 0x311D JUMP JUMPDEST SWAP1 POP SWAP2 SWAP1 POP JUMP JUMPDEST PUSH1 0x0 PUSH1 0x80 DUP3 ADD SWAP1 POP PUSH2 0x3175 PUSH1 0x0 DUP4 ADD DUP8 PUSH2 0x28F1 JUMP JUMPDEST PUSH2 0x3182 PUSH1 0x20 DUP4 ADD DUP7 PUSH2 0x28F1 JUMP JUMPDEST PUSH2 0x318F PUSH1 0x40 DUP4 ADD DUP6 PUSH2 0x2564 JUMP JUMPDEST PUSH2 0x319C PUSH1 0x60 DUP4 ADD DUP5 PUSH2 0x2089 JUMP JUMPDEST SWAP6 SWAP5 POP POP POP POP POP JUMP JUMPDEST PUSH1 0x0 PUSH2 0x31B8 PUSH2 0x31B3 DUP5 PUSH2 0x2144 JUMP JUMPDEST PUSH2 0x2129 JUMP JUMPDEST SWAP1 POP DUP3 DUP2 MSTORE PUSH1 0x20 DUP2 ADD DUP5 DUP5 DUP5 ADD GT ISZERO PUSH2 0x31D4 JUMPI PUSH2 0x31D3 PUSH2 0x20B3 JUMP JUMPDEST JUMPDEST PUSH2 0x31DF DUP5 DUP3 DUP6 PUSH2 0x2428 JUMP JUMPDEST POP SWAP4 SWAP3 POP POP POP JUMP JUMPDEST PUSH1 0x0 DUP3 PUSH1 0x1F DUP4 ADD SLT PUSH2 0x31FC JUMPI PUSH2 0x31FB PUSH2 0x1E04 JUMP JUMPDEST JUMPDEST DUP2 MLOAD PUSH2 0x320C DUP5 DUP3 PUSH1 0x20 DUP7 ADD PUSH2 0x31A5 JUMP JUMPDEST SWAP2 POP POP SWAP3 SWAP2 POP POP JUMP JUMPDEST PUSH1 0x0 PUSH1 0x20 DUP3 DUP5 SUB SLT ISZERO PUSH2 0x322B JUMPI PUSH2 0x322A PUSH2 0x1DC0 JUMP JUMPDEST JUMPDEST PUSH1 0x0 DUP3 ADD MLOAD PUSH8 0xFFFFFFFFFFFFFFFF DUP2 GT ISZERO PUSH2 0x3249 JUMPI PUSH2 0x3248 PUSH2 0x1DC5 JUMP JUMPDEST JUMPDEST PUSH2 0x3255 DUP5 DUP3 DUP6 ADD PUSH2 0x31E7 JUMP JUMPDEST SWAP2 POP POP SWAP3 SWAP2 POP POP JUMP JUMPDEST PUSH1 0x0 PUSH1 0x80 DUP3 ADD SWAP1 POP PUSH2 0x3273 PUSH1 0x0 DUP4 ADD DUP8 PUSH2 0x28F1 JUMP JUMPDEST DUP2 DUP2 SUB PUSH1 0x20 DUP4 ADD MSTORE PUSH2 0x3285 DUP2 DUP7 PUSH2 0x24C9 JUMP JUMPDEST SWAP1 POP PUSH2 0x3294 PUSH1 0x40 DUP4 ADD DUP6 PUSH2 0x2F5F JUMP JUMPDEST DUP2 DUP2 SUB PUSH1 0x60 DUP4 ADD MSTORE PUSH2 0x32A6 DUP2 DUP5 PUSH2 0x24C9 JUMP JUMPDEST SWAP1 POP SWAP6 SWAP5 POP POP POP POP POP JUMP JUMPDEST PUSH32 0x4F776E61626C653A2063616C6C6572206973206E6F7420746865206F776E6572 PUSH1 0x0 DUP3 ADD MSTORE POP JUMP JUMPDEST PUSH1 0x0 PUSH2 0x32E7 PUSH1 0x20 DUP4 PUSH2 0x2417 JUMP JUMPDEST SWAP2 POP PUSH2 0x32F2 DUP3 PUSH2 0x32B1 JUMP JUMPDEST PUSH1 0x20 DUP3 ADD SWAP1 POP SWAP2 SWAP1 POP JUMP JUMPDEST PUSH1 0x0 PUSH1 0x20 DUP3 ADD SWAP1 POP DUP2 DUP2 SUB PUSH1 0x0 DUP4 ADD MSTORE PUSH2 0x3316 DUP2 PUSH2 0x32DA JUMP JUMPDEST SWAP1 POP SWAP2 SWAP1 POP JUMP JUMPDEST PUSH32 0x4C7A4170703A2064657374696E6174696F6E20636861696E206973206E6F7420 PUSH1 0x0 DUP3 ADD MSTORE PUSH32 0x61207472757374656420736F7572636500000000000000000000000000000000 PUSH1 0x20 DUP3 ADD MSTORE POP JUMP JUMPDEST PUSH1 0x0 PUSH2 0x3379 PUSH1 0x30 DUP4 PUSH2 0x2417 JUMP JUMPDEST SWAP2 POP PUSH2 0x3384 DUP3 PUSH2 0x331D JUMP JUMPDEST PUSH1 0x40 DUP3 ADD SWAP1 POP SWAP2 SWAP1 POP JUMP JUMPDEST PUSH1 0x0 PUSH1 0x20 DUP3 ADD SWAP1 POP DUP2 DUP2 SUB PUSH1 0x0 DUP4 ADD MSTORE PUSH2 0x33A8 DUP2 PUSH2 0x336C JUMP JUMPDEST SWAP1 POP SWAP2 SWAP1 POP JUMP JUMPDEST PUSH1 0x0 PUSH2 0x33BA DUP3 PUSH2 0x2297 JUMP JUMPDEST SWAP1 POP SWAP2 SWAP1 POP JUMP JUMPDEST PUSH2 0x33CA DUP2 PUSH2 0x33AF JUMP JUMPDEST DUP3 MSTORE POP POP JUMP JUMPDEST PUSH1 0x0 PUSH1 0xC0 DUP3 ADD SWAP1 POP PUSH2 0x33E5 PUSH1 0x0 DUP4 ADD DUP10 PUSH2 0x28F1 JUMP JUMPDEST DUP2 DUP2 SUB PUSH1 0x20 DUP4 ADD MSTORE PUSH2 0x33F7 DUP2 DUP9 PUSH2 0x24C9 JUMP JUMPDEST SWAP1 POP DUP2 DUP2 SUB PUSH1 0x40 DUP4 ADD MSTORE PUSH2 0x340B DUP2 DUP8 PUSH2 0x24C9 JUMP JUMPDEST SWAP1 POP PUSH2 0x341A PUSH1 0x60 DUP4 ADD DUP7 PUSH2 0x33C1 JUMP JUMPDEST PUSH2 0x3427 PUSH1 0x80 DUP4 ADD DUP6 PUSH2 0x2564 JUMP JUMPDEST DUP2 DUP2 SUB PUSH1 0xA0 DUP4 ADD MSTORE PUSH2 0x3439 DUP2 DUP5 PUSH2 0x24C9 JUMP JUMPDEST SWAP1 POP SWAP8 SWAP7 POP POP POP POP POP POP POP JUMP JUMPDEST PUSH1 0x0 PUSH2 0x3459 PUSH2 0x3454 DUP5 PUSH2 0x2322 JUMP JUMPDEST PUSH2 0x2129 JUMP JUMPDEST SWAP1 POP DUP3 DUP2 MSTORE PUSH1 0x20 DUP2 ADD DUP5 DUP5 DUP5 ADD GT ISZERO PUSH2 0x3475 JUMPI PUSH2 0x3474 PUSH2 0x20B3 JUMP JUMPDEST JUMPDEST PUSH2 0x3480 DUP5 DUP3 DUP6 PUSH2 0x2428 JUMP JUMPDEST POP SWAP4 SWAP3 POP POP POP JUMP JUMPDEST PUSH1 0x0 DUP3 PUSH1 0x1F DUP4 ADD SLT PUSH2 0x349D JUMPI PUSH2 0x349C PUSH2 0x1E04 JUMP JUMPDEST JUMPDEST DUP2 MLOAD PUSH2 0x34AD DUP5 DUP3 PUSH1 0x20 DUP7 ADD PUSH2 0x3446 JUMP JUMPDEST SWAP2 POP POP SWAP3 SWAP2 POP POP JUMP JUMPDEST PUSH1 0x0 PUSH1 0x20 DUP3 DUP5 SUB SLT ISZERO PUSH2 0x34CC JUMPI PUSH2 0x34CB PUSH2 0x1DC0 JUMP JUMPDEST JUMPDEST PUSH1 0x0 DUP3 ADD MLOAD PUSH8 0xFFFFFFFFFFFFFFFF DUP2 GT ISZERO PUSH2 0x34EA JUMPI PUSH2 0x34E9 PUSH2 0x1DC5 JUMP JUMPDEST JUMPDEST PUSH2 0x34F6 DUP5 DUP3 DUP6 ADD PUSH2 0x3488 JUMP JUMPDEST SWAP2 POP POP SWAP3 SWAP2 POP POP JUMP JUMPDEST PUSH1 0x0 DUP2 SWAP1 POP DUP2 PUSH1 0x0 MSTORE PUSH1 0x20 PUSH1 0x0 KECCAK256 SWAP1 POP SWAP2 SWAP1 POP JUMP JUMPDEST PUSH1 0x1F DUP3 GT ISZERO PUSH2 0x3555 JUMPI PUSH2 0x3526 DUP2 PUSH2 0x34FF JUMP JUMPDEST PUSH2 0x352F DUP5 PUSH2 0x2A03 JUMP JUMPDEST DUP2 ADD PUSH1 0x20 DUP6 LT ISZERO PUSH2 0x353E JUMPI DUP2 SWAP1 POP JUMPDEST PUSH2 0x3552 PUSH2 0x354A DUP6 PUSH2 0x2A03 JUMP JUMPDEST DUP4 ADD DUP3 PUSH2 0x2AE0 JUMP JUMPDEST POP POP JUMPDEST POP POP POP JUMP JUMPDEST PUSH2 0x3563 DUP3 PUSH2 0x240C JUMP JUMPDEST PUSH8 0xFFFFFFFFFFFFFFFF DUP2 GT ISZERO PUSH2 0x357C JUMPI PUSH2 0x357B PUSH2 0x20C9 JUMP JUMPDEST JUMPDEST PUSH2 0x3586 DUP3 SLOAD PUSH2 0x27E5 JUMP JUMPDEST PUSH2 0x3591 DUP3 DUP3 DUP6 PUSH2 0x3514 JUMP JUMPDEST PUSH1 0x0 PUSH1 0x20 SWAP1 POP PUSH1 0x1F DUP4 GT PUSH1 0x1 DUP2 EQ PUSH2 0x35C4 JUMPI PUSH1 0x0 DUP5 ISZERO PUSH2 0x35B2 JUMPI DUP3 DUP8 ADD MLOAD SWAP1 POP JUMPDEST PUSH2 0x35BC DUP6 DUP3 PUSH2 0x2B74 JUMP JUMPDEST DUP7 SSTORE POP PUSH2 0x3624 JUMP JUMPDEST PUSH1 0x1F NOT DUP5 AND PUSH2 0x35D2 DUP7 PUSH2 0x34FF JUMP JUMPDEST PUSH1 0x0 JUMPDEST DUP3 DUP2 LT ISZERO PUSH2 0x35FA JUMPI DUP5 DUP10 ADD MLOAD DUP3 SSTORE PUSH1 0x1 DUP3 ADD SWAP2 POP PUSH1 0x20 DUP6 ADD SWAP5 POP PUSH1 0x20 DUP2 ADD SWAP1 POP PUSH2 0x35D5 JUMP JUMPDEST DUP7 DUP4 LT ISZERO PUSH2 0x3617 JUMPI DUP5 DUP10 ADD MLOAD PUSH2 0x3613 PUSH1 0x1F DUP10 AND DUP3 PUSH2 0x2B56 JUMP JUMPDEST DUP4 SSTORE POP JUMPDEST PUSH1 0x1 PUSH1 0x2 DUP9 MUL ADD DUP9 SSTORE POP POP POP JUMPDEST POP POP POP POP POP POP JUMP JUMPDEST PUSH1 0x0 PUSH2 0x3637 DUP3 PUSH2 0x1F7D JUMP JUMPDEST SWAP2 POP PUSH2 0x3642 DUP4 PUSH2 0x1F7D JUMP JUMPDEST SWAP3 POP DUP3 DUP3 ADD SWAP1 POP DUP1 DUP3 GT ISZERO PUSH2 0x365A JUMPI PUSH2 0x3659 PUSH2 0x2D60 JUMP JUMPDEST JUMPDEST SWAP3 SWAP2 POP POP JUMP JUMPDEST PUSH32 0x736C6963655F6F766572666C6F77000000000000000000000000000000000000 PUSH1 0x0 DUP3 ADD MSTORE POP JUMP JUMPDEST PUSH1 0x0 PUSH2 0x3696 PUSH1 0xE DUP4 PUSH2 0x2417 JUMP JUMPDEST SWAP2 POP PUSH2 0x36A1 DUP3 PUSH2 0x3660 JUMP JUMPDEST PUSH1 0x20 DUP3 ADD SWAP1 POP SWAP2 SWAP1 POP JUMP JUMPDEST PUSH1 0x0 PUSH1 0x20 DUP3 ADD SWAP1 POP DUP2 DUP2 SUB PUSH1 0x0 DUP4 ADD MSTORE PUSH2 0x36C5 DUP2 PUSH2 0x3689 JUMP JUMPDEST SWAP1 POP SWAP2 SWAP1 POP JUMP JUMPDEST PUSH32 0x736C6963655F6F75744F66426F756E6473000000000000000000000000000000 PUSH1 0x0 DUP3 ADD MSTORE POP JUMP JUMPDEST PUSH1 0x0 PUSH2 0x3702 PUSH1 0x11 DUP4 PUSH2 0x2417 JUMP JUMPDEST SWAP2 POP PUSH2 0x370D DUP3 PUSH2 0x36CC JUMP JUMPDEST PUSH1 0x20 DUP3 ADD SWAP1 POP SWAP2 SWAP1 POP JUMP JUMPDEST PUSH1 0x0 PUSH1 0x20 DUP3 ADD SWAP1 POP DUP2 DUP2 SUB PUSH1 0x0 DUP4 ADD MSTORE PUSH2 0x3731 DUP2 PUSH2 0x36F5 JUMP JUMPDEST SWAP1 POP SWAP2 SWAP1 POP JUMP JUMPDEST PUSH1 0x0 PUSH2 0x3743 DUP3 PUSH2 0x24AD JUMP JUMPDEST PUSH2 0x374D DUP2 DUP6 PUSH2 0x2816 JUMP JUMPDEST SWAP4 POP PUSH2 0x375D DUP2 DUP6 PUSH1 0x20 DUP7 ADD PUSH2 0x2428 JUMP JUMPDEST DUP1 DUP5 ADD SWAP2 POP POP SWAP3 SWAP2 POP POP JUMP JUMPDEST PUSH1 0x0 PUSH2 0x3775 DUP3 DUP5 PUSH2 0x3738 JUMP JUMPDEST SWAP2 POP DUP2 SWAP1 POP SWAP3 SWAP2 POP POP JUMP JUMPDEST PUSH1 0x0 PUSH1 0xA0 DUP3 ADD SWAP1 POP PUSH2 0x3795 PUSH1 0x0 DUP4 ADD DUP9 PUSH2 0x28F1 JUMP JUMPDEST DUP2 DUP2 SUB PUSH1 0x20 DUP4 ADD MSTORE PUSH2 0x37A7 DUP2 DUP8 PUSH2 0x24C9 JUMP JUMPDEST SWAP1 POP PUSH2 0x37B6 PUSH1 0x40 DUP4 ADD DUP7 PUSH2 0x2F5F JUMP JUMPDEST DUP2 DUP2 SUB PUSH1 0x60 DUP4 ADD MSTORE PUSH2 0x37C8 DUP2 DUP6 PUSH2 0x24C9 JUMP JUMPDEST SWAP1 POP DUP2 DUP2 SUB PUSH1 0x80 DUP4 ADD MSTORE PUSH2 0x37DC DUP2 DUP5 PUSH2 0x24C9 JUMP JUMPDEST SWAP1 POP SWAP7 SWAP6 POP POP POP POP POP POP JUMP JUMPDEST PUSH32 0x4C7A4170703A207061796C6F61642073697A6520697320746F6F206C61726765 PUSH1 0x0 DUP3 ADD MSTORE POP JUMP JUMPDEST PUSH1 0x0 PUSH2 0x381E PUSH1 0x20 DUP4 PUSH2 0x2417 JUMP JUMPDEST SWAP2 POP PUSH2 0x3829 DUP3 PUSH2 0x37E8 JUMP JUMPDEST PUSH1 0x20 DUP3 ADD SWAP1 POP SWAP2 SWAP1 POP JUMP JUMPDEST PUSH1 0x0 PUSH1 0x20 DUP3 ADD SWAP1 POP DUP2 DUP2 SUB PUSH1 0x0 DUP4 ADD MSTORE PUSH2 0x384D DUP2 PUSH2 0x3811 JUMP JUMPDEST SWAP1 POP SWAP2 SWAP1 POP JUMP INVALID LOG2 PUSH5 0x6970667358 0x22 SLT KECCAK256 DUP3 0xD 0xFC 0xA7 0xC8 0xA8 RETURNDATACOPY 0xF MUL 0x4A 0xB3 0x24 0xD1 EXTCODEHASH 0xBD 0xC6 DUP8 CALLVALUE SSTORE BASEFEE PUSH5 0x1FF202573A STATICCALL PREVRANDAO SWAP12 0xAB PUSH11 0x3A64736F6C634300081300 CALLER "
				},
				"gasEstimates": {
					"creation": {
						"codeDepositCost": "2894800",
						"executionCost": "infinite",
						"totalCost": "infinite"
					},
					"external": {
						"DEFAULT_PAYLOAD_SIZE_LIMIT()": "374",
						"data()": "infinite",
						"failedMessages(uint16,bytes,uint64)": "infinite",
						"forceResumeReceive(uint16,bytes)": "infinite",
						"getConfig(uint16,uint16,address,uint256)": "infinite",
						"getTrustedRemoteAddress(uint16)": "infinite",
						"isTrustedRemote(uint16,bytes)": "infinite",
						"lzEndpoint()": "infinite",
						"lzReceive(uint16,bytes,uint64,bytes)": "infinite",
						"minDstGasLookup(uint16,uint16)": "infinite",
						"nonblockingLzReceive(uint16,bytes,uint64,bytes)": "infinite",
						"owner()": "2590",
						"payloadSizeLimitLookup(uint16)": "2861",
						"precrime()": "2604",
						"renounceOwnership()": "30465",
						"retryMessage(uint16,bytes,uint64,bytes)": "infinite",
						"send(string)": "infinite",
						"setConfig(uint16,uint16,uint256,bytes)": "infinite",
						"setMinDstGas(uint16,uint16,uint256)": "infinite",
						"setPayloadSizeLimit(uint16,uint256)": "25144",
						"setPrecrime(address)": "infinite",
						"setReceiveVersion(uint16)": "infinite",
						"setSendVersion(uint16)": "infinite",
						"setTrustedRemote(uint16,bytes)": "infinite",
						"setTrustedRemoteAddress(uint16,bytes)": "infinite",
						"transferOwnership(address)": "30832",
						"trustAddress(address)": "infinite",
						"trustedRemoteLookup(uint16)": "infinite"
					},
					"internal": {
						"_nonblockingLzReceive(uint16,bytes memory,uint64,bytes memory)": "infinite"
					}
				},
				"methodIdentifiers": {
					"DEFAULT_PAYLOAD_SIZE_LIMIT()": "c4461834",
					"data()": "73d4a13a",
					"failedMessages(uint16,bytes,uint64)": "5b8c41e6",
					"forceResumeReceive(uint16,bytes)": "42d65a8d",
					"getConfig(uint16,uint16,address,uint256)": "f5ecbdbc",
					"getTrustedRemoteAddress(uint16)": "9f38369a",
					"isTrustedRemote(uint16,bytes)": "3d8b38f6",
					"lzEndpoint()": "b353aaa7",
					"lzReceive(uint16,bytes,uint64,bytes)": "001d3567",
					"minDstGasLookup(uint16,uint16)": "8cfd8f5c",
					"nonblockingLzReceive(uint16,bytes,uint64,bytes)": "66ad5c8a",
					"owner()": "8da5cb5b",
					"payloadSizeLimitLookup(uint16)": "3f1f4fa4",
					"precrime()": "950c8a74",
					"renounceOwnership()": "715018a6",
					"retryMessage(uint16,bytes,uint64,bytes)": "d1deba1f",
					"send(string)": "66792ba1",
					"setConfig(uint16,uint16,uint256,bytes)": "cbed8b9c",
					"setMinDstGas(uint16,uint16,uint256)": "df2a5b3b",
					"setPayloadSizeLimit(uint16,uint256)": "0df37483",
					"setPrecrime(address)": "baf3292d",
					"setReceiveVersion(uint16)": "10ddb137",
					"setSendVersion(uint16)": "07e0db17",
					"setTrustedRemote(uint16,bytes)": "eb8d72b7",
					"setTrustedRemoteAddress(uint16,bytes)": "a6c3d165",
					"transferOwnership(address)": "f2fde38b",
					"trustAddress(address)": "5cdf1649",
					"trustedRemoteLookup(uint16)": "7533d788"
				}
			},
			"storageLayout": {
				"storage": [
					{
						"astId": 1523,
						"contract": "contracts/examples/sldtdrn.sol:LayerZeroTest",
						"label": "_owner",
						"offset": 0,
						"slot": "0",
						"type": "t_address"
					},
					{
						"astId": 568,
						"contract": "contracts/examples/sldtdrn.sol:LayerZeroTest",
						"label": "trustedRemoteLookup",
						"offset": 0,
						"slot": "1",
						"type": "t_mapping(t_uint16,t_bytes_storage)"
					},
					{
						"astId": 574,
						"contract": "contracts/examples/sldtdrn.sol:LayerZeroTest",
						"label": "minDstGasLookup",
						"offset": 0,
						"slot": "2",
						"type": "t_mapping(t_uint16,t_mapping(t_uint16,t_uint256))"
					},
					{
						"astId": 578,
						"contract": "contracts/examples/sldtdrn.sol:LayerZeroTest",
						"label": "payloadSizeLimitLookup",
						"offset": 0,
						"slot": "3",
						"type": "t_mapping(t_uint16,t_uint256)"
					},
					{
						"astId": 580,
						"contract": "contracts/examples/sldtdrn.sol:LayerZeroTest",
						"label": "precrime",
						"offset": 0,
						"slot": "4",
						"type": "t_address"
					},
					{
						"astId": 1110,
						"contract": "contracts/examples/sldtdrn.sol:LayerZeroTest",
						"label": "failedMessages",
						"offset": 0,
						"slot": "5",
						"type": "t_mapping(t_uint16,t_mapping(t_bytes_memory_ptr,t_mapping(t_uint64,t_bytes32)))"
					},
					{
						"astId": 7,
						"contract": "contracts/examples/sldtdrn.sol:LayerZeroTest",
						"label": "data",
						"offset": 0,
						"slot": "6",
						"type": "t_string_storage"
					},
					{
						"astId": 9,
						"contract": "contracts/examples/sldtdrn.sol:LayerZeroTest",
						"label": "destChainId",
						"offset": 0,
						"slot": "7",
						"type": "t_uint16"
					}
				],
				"types": {
					"t_address": {
						"encoding": "inplace",
						"label": "address",
						"numberOfBytes": "20"
					},
					"t_bytes32": {
						"encoding": "inplace",
						"label": "bytes32",
						"numberOfBytes": "32"
					},
					"t_bytes_memory_ptr": {
						"encoding": "bytes",
						"label": "bytes",
						"numberOfBytes": "32"
					},
					"t_bytes_storage": {
						"encoding": "bytes",
						"label": "bytes",
						"numberOfBytes": "32"
					},
					"t_mapping(t_bytes_memory_ptr,t_mapping(t_uint64,t_bytes32))": {
						"encoding": "mapping",
						"key": "t_bytes_memory_ptr",
						"label": "mapping(bytes => mapping(uint64 => bytes32))",
						"numberOfBytes": "32",
						"value": "t_mapping(t_uint64,t_bytes32)"
					},
					"t_mapping(t_uint16,t_bytes_storage)": {
						"encoding": "mapping",
						"key": "t_uint16",
						"label": "mapping(uint16 => bytes)",
						"numberOfBytes": "32",
						"value": "t_bytes_storage"
					},
					"t_mapping(t_uint16,t_mapping(t_bytes_memory_ptr,t_mapping(t_uint64,t_bytes32)))": {
						"encoding": "mapping",
						"key": "t_uint16",
						"label": "mapping(uint16 => mapping(bytes => mapping(uint64 => bytes32)))",
						"numberOfBytes": "32",
						"value": "t_mapping(t_bytes_memory_ptr,t_mapping(t_uint64,t_bytes32))"
					},
					"t_mapping(t_uint16,t_mapping(t_uint16,t_uint256))": {
						"encoding": "mapping",
						"key": "t_uint16",
						"label": "mapping(uint16 => mapping(uint16 => uint256))",
						"numberOfBytes": "32",
						"value": "t_mapping(t_uint16,t_uint256)"
					},
					"t_mapping(t_uint16,t_uint256)": {
						"encoding": "mapping",
						"key": "t_uint16",
						"label": "mapping(uint16 => uint256)",
						"numberOfBytes": "32",
						"value": "t_uint256"
					},
					"t_mapping(t_uint64,t_bytes32)": {
						"encoding": "mapping",
						"key": "t_uint64",
						"label": "mapping(uint64 => bytes32)",
						"numberOfBytes": "32",
						"value": "t_bytes32"
					},
					"t_string_storage": {
						"encoding": "bytes",
						"label": "string",
						"numberOfBytes": "32"
					},
					"t_uint16": {
						"encoding": "inplace",
						"label": "uint16",
						"numberOfBytes": "2"
					},
					"t_uint256": {
						"encoding": "inplace",
						"label": "uint256",
						"numberOfBytes": "32"
					},
					"t_uint64": {
						"encoding": "inplace",
						"label": "uint64",
						"numberOfBytes": "8"
					}
				}
			},
			"userdoc": {
				"kind": "user",
				"methods": {},
				"version": 1
			}
		}
	}
}