{
	"data": {
		"bytecode": {
			"linkReferences": {},
			"object": "60a06040523480156200001157600080fd5b5060405162003b8f38038062003b8f83398181016040528101906200003791906200029c565b8080620000596200004d6200016660201b60201c565b6200016e60201b60201c565b8073ffffffffffffffffffffffffffffffffffffffff1660808173ffffffffffffffffffffffffffffffffffffffff1681525050505073f69186dfba60ddb133e91e9a4b5673624293d8f873ffffffffffffffffffffffffffffffffffffffff168173ffffffffffffffffffffffffffffffffffffffff1603620000f7576127a9600660006101000a81548161ffff021916908361ffff1602179055505b73ae92d5ad7583ad66e49a0c67bad18f6ba52dddc173ffffffffffffffffffffffffffffffffffffffff168173ffffffffffffffffffffffffffffffffffffffff16036200015f5761277d600660006101000a81548161ffff021916908361ffff1602179055505b50620002ce565b600033905090565b60008060009054906101000a900473ffffffffffffffffffffffffffffffffffffffff169050816000806101000a81548173ffffffffffffffffffffffffffffffffffffffff021916908373ffffffffffffffffffffffffffffffffffffffff1602179055508173ffffffffffffffffffffffffffffffffffffffff168173ffffffffffffffffffffffffffffffffffffffff167f8be0079c531659141344cd1fd0a4f28419497f9722a3daafe3b4186f6b6457e060405160405180910390a35050565b600080fd5b600073ffffffffffffffffffffffffffffffffffffffff82169050919050565b6000620002648262000237565b9050919050565b620002768162000257565b81146200028257600080fd5b50565b60008151905062000296816200026b565b92915050565b600060208284031215620002b557620002b462000232565b5b6000620002c58482850162000285565b91505092915050565b60805161386d62000322600039600081816107bf01528181610a1d01528181610aae01528181610b9601528181610d2c0152818161129001528181611345015281816117f70152611d69015261386d6000f3fe6080604052600436106101e65760003560e01c8063950c8a7411610102578063d1deba1f11610095578063eb8d72b711610064578063eb8d72b714610712578063f2fde38b1461073b578063f5ecbdbc14610764578063fa15ea43146107a1576101ed565b8063d1deba1f14610663578063d43cc84f1461067f578063df2a5b3b146106aa578063e5c5e9a3146106d3576101ed565b8063b353aaa7116100d1578063b353aaa7146105bb578063baf3292d146105e6578063c44618341461060f578063cbed8b9c1461063a576101ed565b8063950c8a74146104ed5780639f38369a14610518578063a6c3d16514610555578063a7586bab1461057e576101ed565b806342d65a8d1161017a578063715018a611610149578063715018a6146104315780637533d788146104485780638cfd8f5c146104855780638da5cb5b146104c2576101ed565b806342d65a8d146103795780635b8c41e6146103a25780636417c111146103df57806366ad5c8a14610408576101ed565b806310ddb137116101b657806310ddb137146102ab57806330c593f7146102d45780633d8b38f6146102ff5780633f1f4fa41461033c576101ed565b80621d3567146101f257806307e0db171461021b5780630bd856fa146102445780630df3748314610282576101ed565b366101ed57005b600080fd5b3480156101fe57600080fd5b50610219600480360381019061021491906121de565b6107bd565b005b34801561022757600080fd5b50610242600480360381019061023d9190612285565b610a13565b005b34801561025057600080fd5b5061026b600480360381019061026691906122ea565b610aa9565b6040516102799291906123aa565b60405180910390f35b34801561028e57600080fd5b506102a960048036038101906102a491906123ff565b610b60565b005b3480156102b757600080fd5b506102d260048036038101906102cd9190612285565b610b8c565b005b3480156102e057600080fd5b506102e9610c22565b6040516102f6919061244e565b60405180910390f35b34801561030b57600080fd5b5061032660048036038101906103219190612469565b610c36565b60405161033391906124d8565b60405180910390f35b34801561034857600080fd5b50610363600480360381019061035e9190612285565b610d0a565b60405161037091906124f3565b60405180910390f35b34801561038557600080fd5b506103a0600480360381019061039b9190612469565b610d22565b005b3480156103ae57600080fd5b506103c960048036038101906103c4919061264f565b610dbe565b6040516103d691906126d7565b60405180910390f35b3480156103eb57600080fd5b5061040660048036038101906104019190612750565b610e06565b005b34801561041457600080fd5b5061042f600480360381019061042a91906121de565b610e72565b005b34801561043d57600080fd5b50610446610f83565b005b34801561045457600080fd5b5061046f600480360381019061046a9190612285565b610f97565b60405161047c9190612805565b60405180910390f35b34801561049157600080fd5b506104ac60048036038101906104a79190612827565b611037565b6040516104b991906124f3565b60405180910390f35b3480156104ce57600080fd5b506104d761105c565b6040516104e49190612876565b60405180910390f35b3480156104f957600080fd5b50610502611085565b60405161050f9190612876565b60405180910390f35b34801561052457600080fd5b5061053f600480360381019061053a9190612285565b6110ab565b60405161054c9190612805565b60405180910390f35b34801561056157600080fd5b5061057c60048036038101906105779190612469565b6111c4565b005b34801561058a57600080fd5b506105a560048036038101906105a09190612891565b61125f565b6040516105b29190612805565b60405180910390f35b3480156105c757600080fd5b506105d061128e565b6040516105dd9190612943565b60405180910390f35b3480156105f257600080fd5b5061060d60048036038101906106089190612750565b6112b2565b005b34801561061b57600080fd5b50610624611335565b60405161063191906124f3565b60405180910390f35b34801561064657600080fd5b50610661600480360381019061065c919061295e565b61133b565b005b61067d600480360381019061067891906121de565b6113dd565b005b34801561068b57600080fd5b50610694611620565b6040516106a19190612876565b60405180910390f35b3480156106b657600080fd5b506106d160048036038101906106cc91906129e6565b611646565b005b3480156106df57600080fd5b506106fa60048036038101906106f59190612a39565b6116c7565b60405161070993929190612a82565b60405180910390f35b34801561071e57600080fd5b5061073960048036038101906107349190612469565b6116fd565b005b34801561074757600080fd5b50610762600480360381019061075d9190612750565b611770565b005b34801561077057600080fd5b5061078b60048036038101906107869190612ab9565b6117f3565b6040516107989190612805565b60405180910390f35b6107bb60048036038101906107b69190612891565b6118a4565b005b7f000000000000000000000000000000000000000000000000000000000000000073ffffffffffffffffffffffffffffffffffffffff166107fc6118e6565b73ffffffffffffffffffffffffffffffffffffffff1614610852576040517f08c379a000000000000000000000000000000000000000000000000000000000815260040161084990612b7d565b60405180910390fd5b6000600160008861ffff1661ffff168152602001908152602001600020805461087a90612bcc565b80601f01602080910402602001604051908101604052809291908181526020018280546108a690612bcc565b80156108f35780601f106108c8576101008083540402835291602001916108f3565b820191906000526020600020905b8154815290600101906020018083116108d657829003601f168201915b5050505050905080518686905014801561090e575060008151115b801561093757508080519060200120868660405161092d929190612c2d565b6040518091039020145b610976576040517f08c379a000000000000000000000000000000000000000000000000000000000815260040161096d90612cb8565b60405180910390fd5b610a0a8787878080601f016020809104026020016040519081016040528093929190818152602001838380828437600081840152601f19601f820116905080830192505050505050508686868080601f016020809104026020016040519081016040528093929190818152602001838380828437600081840152601f19601f820116905080830192505050505050506118ee565b50505050505050565b610a1b6119b9565b7f000000000000000000000000000000000000000000000000000000000000000073ffffffffffffffffffffffffffffffffffffffff166307e0db17826040518263ffffffff1660e01b8152600401610a74919061244e565b600060405180830381600087803b158015610a8e57600080fd5b505af1158015610aa2573d6000803e3d6000fd5b5050505050565b6000807f000000000000000000000000000000000000000000000000000000000000000073ffffffffffffffffffffffffffffffffffffffff166340a7bb10893089898c8a8a6040518863ffffffff1660e01b8152600401610b119796959493929190612d05565b6040805180830381865afa158015610b2d573d6000803e3d6000fd5b505050506040513d601f19601f82011682018060405250810190610b519190612d7f565b91509150965096945050505050565b610b686119b9565b80600360008461ffff1661ffff168152602001908152602001600020819055505050565b610b946119b9565b7f000000000000000000000000000000000000000000000000000000000000000073ffffffffffffffffffffffffffffffffffffffff166310ddb137826040518263ffffffff1660e01b8152600401610bed919061244e565b600060405180830381600087803b158015610c0757600080fd5b505af1158015610c1b573d6000803e3d6000fd5b5050505050565b600660009054906101000a900461ffff1681565b600080600160008661ffff1661ffff1681526020019081526020016000208054610c5f90612bcc565b80601f0160208091040260200160405190810160405280929190818152602001828054610c8b90612bcc565b8015610cd85780601f10610cad57610100808354040283529160200191610cd8565b820191906000526020600020905b815481529060010190602001808311610cbb57829003601f168201915b505050505090508383604051610cef929190612c2d565b60405180910390208180519060200120149150509392505050565b60036020528060005260406000206000915090505481565b610d2a6119b9565b7f000000000000000000000000000000000000000000000000000000000000000073ffffffffffffffffffffffffffffffffffffffff166342d65a8d8484846040518463ffffffff1660e01b8152600401610d8793929190612dbf565b600060405180830381600087803b158015610da157600080fd5b505af1158015610db5573d6000803e3d6000fd5b50505050505050565b60056020528260005260406000208280516020810182018051848252602083016020850120818352809550505050505060205280600052604060002060009250925050505481565b610e0e6119b9565b8030604051602001610e21929190612e39565b60405160208183030381529060405260016000600660009054906101000a900461ffff1661ffff1661ffff1681526020019081526020016000209080519060200190610e6e929190611fc2565b5050565b3073ffffffffffffffffffffffffffffffffffffffff16610e916118e6565b73ffffffffffffffffffffffffffffffffffffffff1614610ee7576040517f08c379a0000000000000000000000000000000000000000000000000000000008152600401610ede90612ed7565b60405180910390fd5b610f7b8686868080601f016020809104026020016040519081016040528093929190818152602001838380828437600081840152601f19601f820116905080830192505050505050508585858080601f016020809104026020016040519081016040528093929190818152602001838380828437600081840152601f19601f82011690508083019250505050505050611a37565b505050505050565b610f8b6119b9565b610f956000611a8e565b565b60016020528060005260406000206000915090508054610fb690612bcc565b80601f0160208091040260200160405190810160405280929190818152602001828054610fe290612bcc565b801561102f5780601f106110045761010080835404028352916020019161102f565b820191906000526020600020905b81548152906001019060200180831161101257829003601f168201915b505050505081565b6002602052816000526040600020602052806000526040600020600091509150505481565b60008060009054906101000a900473ffffffffffffffffffffffffffffffffffffffff16905090565b600460009054906101000a900473ffffffffffffffffffffffffffffffffffffffff1681565b60606000600160008461ffff1661ffff16815260200190815260200160002080546110d590612bcc565b80601f016020809104026020016040519081016040528092919081815260200182805461110190612bcc565b801561114e5780601f106111235761010080835404028352916020019161114e565b820191906000526020600020905b81548152906001019060200180831161113157829003601f168201915b505050505090506000815103611199576040517f08c379a000000000000000000000000000000000000000000000000000000000815260040161119090612f43565b60405180910390fd5b6111bc6000601483516111ac9190612f92565b83611b529092919063ffffffff16565b915050919050565b6111cc6119b9565b8181306040516020016111e193929190612fc6565b604051602081830303815290604052600160008561ffff1661ffff168152602001908152602001600020908051906020019061121e929190611fc2565b507f8c0400cfe2d1199b1a725c78960bcc2a344d869b80590d0f2bd005db15a572ce83838360405161125293929190612dbf565b60405180910390a1505050565b606083838360405160200161127693929190612a82565b60405160208183030381529060405290509392505050565b7f000000000000000000000000000000000000000000000000000000000000000081565b6112ba6119b9565b80600460006101000a81548173ffffffffffffffffffffffffffffffffffffffff021916908373ffffffffffffffffffffffffffffffffffffffff1602179055507f5db758e995a17ec1ad84bdef7e8c3293a0bd6179bcce400dff5d4c3d87db726b8160405161132a9190612876565b60405180910390a150565b61271081565b6113436119b9565b7f000000000000000000000000000000000000000000000000000000000000000073ffffffffffffffffffffffffffffffffffffffff1663cbed8b9c86868686866040518663ffffffff1660e01b81526004016113a4959493929190612ff0565b600060405180830381600087803b1580156113be57600080fd5b505af11580156113d2573d6000803e3d6000fd5b505050505050505050565b6000600560008861ffff1661ffff168152602001908152602001600020868660405161140a929190612c2d565b908152602001604051809103902060008567ffffffffffffffff1667ffffffffffffffff1681526020019081526020016000205490506000801b8103611485576040517f08c379a000000000000000000000000000000000000000000000000000000000815260040161147c906130b0565b60405180910390fd5b808383604051611496929190612c2d565b6040518091039020146114de576040517f08c379a00000000000000000000000000000000000000000000000000000000081526004016114d590613142565b60405180910390fd5b6000801b600560008961ffff1661ffff168152602001908152602001600020878760405161150d929190612c2d565b908152602001604051809103902060008667ffffffffffffffff1667ffffffffffffffff168152602001908152602001600020819055506115d88787878080601f016020809104026020016040519081016040528093929190818152602001838380828437600081840152601f19601f820116905080830192505050505050508686868080601f016020809104026020016040519081016040528093929190818152602001838380828437600081840152601f19601f82011690508083019250505050505050611a37565b7fc264d91f3adc5588250e1551f547752ca0cfa8f6b530d243b9f9f4cab10ea8e5878787878560405161160f959493929190613171565b60405180910390a150505050505050565b600660029054906101000a900473ffffffffffffffffffffffffffffffffffffffff1681565b61164e6119b9565b80600260008561ffff1661ffff16815260200190815260200160002060008461ffff1661ffff168152602001908152602001600020819055507f9d5c7c0b934da8fefa9c7760c98383778a12dfbfc0c3b3106518f43fb9508ac08383836040516116ba939291906131bf565b60405180910390a1505050565b600080600080600080868060200190518101906116e49190613234565b9250925092508282829550955095505050509193909250565b6117056119b9565b8181600160008661ffff1661ffff168152602001908152602001600020919061172f929190612048565b507ffa41487ad5d6728f0b19276fa1eddc16558578f5109fc39d2dc33c3230470dab83838360405161176393929190612dbf565b60405180910390a1505050565b6117786119b9565b600073ffffffffffffffffffffffffffffffffffffffff168173ffffffffffffffffffffffffffffffffffffffff16036117e7576040517f08c379a00000000000000000000000000000000000000000000000000000000081526004016117de906132f9565b60405180910390fd5b6117f081611a8e565b50565b60607f000000000000000000000000000000000000000000000000000000000000000073ffffffffffffffffffffffffffffffffffffffff1663f5ecbdbc868630866040518563ffffffff1660e01b81526004016118549493929190613319565b600060405180830381865afa158015611871573d6000803e3d6000fd5b505050506040513d6000823e3d601f19601f8201168201806040525081019061189a91906133ce565b9050949350505050565b60006118b184848461125f565b90506118e0600660009054906101000a900461ffff168233306040518060200160405280600081525034611c70565b50505050565b600033905090565b60008061199a5a60966366ad5c8a60e01b898989896040516024016119169493929190613417565b604051602081830303815290604052907bffffffffffffffffffffffffffffffffffffffffffffffffffffffff19166020820180517bffffffffffffffffffffffffffffffffffffffffffffffffffffffff83818316178352505050503073ffffffffffffffffffffffffffffffffffffffff16611e06909392919063ffffffff16565b91509150816119b1576119b08686868685611e9e565b5b505050505050565b6119c16118e6565b73ffffffffffffffffffffffffffffffffffffffff166119df61105c565b73ffffffffffffffffffffffffffffffffffffffff1614611a35576040517f08c379a0000000000000000000000000000000000000000000000000000000008152600401611a2c906134b6565b60405180910390fd5b565b6000611a42846116c7565b5050905080600660026101000a81548173ffffffffffffffffffffffffffffffffffffffff021916908373ffffffffffffffffffffffffffffffffffffffff1602179055505050505050565b60008060009054906101000a900473ffffffffffffffffffffffffffffffffffffffff169050816000806101000a81548173ffffffffffffffffffffffffffffffffffffffff021916908373ffffffffffffffffffffffffffffffffffffffff1602179055508173ffffffffffffffffffffffffffffffffffffffff168173ffffffffffffffffffffffffffffffffffffffff167f8be0079c531659141344cd1fd0a4f28419497f9722a3daafe3b4186f6b6457e060405160405180910390a35050565b606081601f83611b6291906134d6565b1015611ba3576040517f08c379a0000000000000000000000000000000000000000000000000000000008152600401611b9a90613578565b60405180910390fd5b8183611baf91906134d6565b84511015611bf2576040517f08c379a0000000000000000000000000000000000000000000000000000000008152600401611be9906135e4565b60405180910390fd5b6060821560008114611c135760405191506000825260208201604052611c64565b6040519150601f8416801560200281840101858101878315602002848b0101015b81831015611c515780518352602083019250602081019050611c34565b50868552601f19601f8301166040525050505b50809150509392505050565b6000600160008861ffff1661ffff1681526020019081526020016000208054611c9890612bcc565b80601f0160208091040260200160405190810160405280929190818152602001828054611cc490612bcc565b8015611d115780601f10611ce657610100808354040283529160200191611d11565b820191906000526020600020905b815481529060010190602001808311611cf457829003601f168201915b505050505090506000815103611d5c576040517f08c379a0000000000000000000000000000000000000000000000000000000008152600401611d5390613676565b60405180910390fd5b611d67878751611f4c565b7f000000000000000000000000000000000000000000000000000000000000000073ffffffffffffffffffffffffffffffffffffffff1663c58031008389848a8a8a8a6040518863ffffffff1660e01b8152600401611dcb969594939291906136a5565b6000604051808303818588803b158015611de457600080fd5b505af1158015611df8573d6000803e3d6000fd5b505050505050505050505050565b6000606060008060008661ffff1667ffffffffffffffff811115611e2d57611e2c612524565b5b6040519080825280601f01601f191660200182016040528015611e5f5781602001600182028036833780820191505090505b50905060008087516020890160008d8df191503d925086831115611e81578692505b828152826000602083013e81819450945050505094509492505050565b8180519060200120600560008761ffff1661ffff16815260200190815260200160002085604051611ecf919061374c565b908152602001604051809103902060008567ffffffffffffffff1667ffffffffffffffff168152602001908152602001600020819055507fe183f33de2837795525b4792ca4cd60535bd77c53b7e7030060bfcf5734d6b0c8585858585604051611f3d959493929190613763565b60405180910390a15050505050565b6000600360008461ffff1661ffff16815260200190815260200160002054905060008103611f7a5761271090505b80821115611fbd576040517f08c379a0000000000000000000000000000000000000000000000000000000008152600401611fb490613817565b60405180910390fd5b505050565b828054611fce90612bcc565b90600052602060002090601f016020900481019282611ff05760008555612037565b82601f1061200957805160ff1916838001178555612037565b82800160010185558215612037579182015b8281111561203657825182559160200191906001019061201b565b5b50905061204491906120ce565b5090565b82805461205490612bcc565b90600052602060002090601f01602090048101928261207657600085556120bd565b82601f1061208f57803560ff19168380011785556120bd565b828001600101855582156120bd579182015b828111156120bc5782358255916020019190600101906120a1565b5b5090506120ca91906120ce565b5090565b5b808211156120e75760008160009055506001016120cf565b5090565b6000604051905090565b600080fd5b600080fd5b600061ffff82169050919050565b612116816120ff565b811461212157600080fd5b50565b6000813590506121338161210d565b92915050565b600080fd5b600080fd5b600080fd5b60008083601f84011261215e5761215d612139565b5b8235905067ffffffffffffffff81111561217b5761217a61213e565b5b60208301915083600182028301111561219757612196612143565b5b9250929050565b600067ffffffffffffffff82169050919050565b6121bb8161219e565b81146121c657600080fd5b50565b6000813590506121d8816121b2565b92915050565b600080600080600080608087890312156121fb576121fa6120f5565b5b600061220989828a01612124565b965050602087013567ffffffffffffffff81111561222a576122296120fa565b5b61223689828a01612148565b9550955050604061224989828a016121c9565b935050606087013567ffffffffffffffff81111561226a576122696120fa565b5b61227689828a01612148565b92509250509295509295509295565b60006020828403121561229b5761229a6120f5565b5b60006122a984828501612124565b91505092915050565b60008115159050919050565b6122c7816122b2565b81146122d257600080fd5b50565b6000813590506122e4816122be565b92915050565b60008060008060008060808789031215612307576123066120f5565b5b600061231589828a01612124565b965050602061232689828a016122d5565b955050604087013567ffffffffffffffff811115612347576123466120fa565b5b61235389828a01612148565b9450945050606087013567ffffffffffffffff811115612376576123756120fa565b5b61238289828a01612148565b92509250509295509295509295565b6000819050919050565b6123a481612391565b82525050565b60006040820190506123bf600083018561239b565b6123cc602083018461239b565b9392505050565b6123dc81612391565b81146123e757600080fd5b50565b6000813590506123f9816123d3565b92915050565b60008060408385031215612416576124156120f5565b5b600061242485828601612124565b9250506020612435858286016123ea565b9150509250929050565b612448816120ff565b82525050565b6000602082019050612463600083018461243f565b92915050565b600080600060408486031215612482576124816120f5565b5b600061249086828701612124565b935050602084013567ffffffffffffffff8111156124b1576124b06120fa565b5b6124bd86828701612148565b92509250509250925092565b6124d2816122b2565b82525050565b60006020820190506124ed60008301846124c9565b92915050565b6000602082019050612508600083018461239b565b92915050565b600080fd5b6000601f19601f8301169050919050565b7f4e487b7100000000000000000000000000000000000000000000000000000000600052604160045260246000fd5b61255c82612513565b810181811067ffffffffffffffff8211171561257b5761257a612524565b5b80604052505050565b600061258e6120eb565b905061259a8282612553565b919050565b600067ffffffffffffffff8211156125ba576125b9612524565b5b6125c382612513565b9050602081019050919050565b82818337600083830152505050565b60006125f26125ed8461259f565b612584565b90508281526020810184848401111561260e5761260d61250e565b5b6126198482856125d0565b509392505050565b600082601f83011261263657612635612139565b5b81356126468482602086016125df565b91505092915050565b600080600060608486031215612668576126676120f5565b5b600061267686828701612124565b935050602084013567ffffffffffffffff811115612697576126966120fa565b5b6126a386828701612621565b92505060406126b4868287016121c9565b9150509250925092565b6000819050919050565b6126d1816126be565b82525050565b60006020820190506126ec60008301846126c8565b92915050565b600073ffffffffffffffffffffffffffffffffffffffff82169050919050565b600061271d826126f2565b9050919050565b61272d81612712565b811461273857600080fd5b50565b60008135905061274a81612724565b92915050565b600060208284031215612766576127656120f5565b5b60006127748482850161273b565b91505092915050565b600081519050919050565b600082825260208201905092915050565b60005b838110156127b757808201518184015260208101905061279c565b838111156127c6576000848401525b50505050565b60006127d78261277d565b6127e18185612788565b93506127f1818560208601612799565b6127fa81612513565b840191505092915050565b6000602082019050818103600083015261281f81846127cc565b905092915050565b6000806040838503121561283e5761283d6120f5565b5b600061284c85828601612124565b925050602061285d85828601612124565b9150509250929050565b61287081612712565b82525050565b600060208201905061288b6000830184612867565b92915050565b6000806000606084860312156128aa576128a96120f5565b5b60006128b88682870161273b565b93505060206128c98682870161273b565b92505060406128da868287016123ea565b9150509250925092565b6000819050919050565b60006129096129046128ff846126f2565b6128e4565b6126f2565b9050919050565b600061291b826128ee565b9050919050565b600061292d82612910565b9050919050565b61293d81612922565b82525050565b60006020820190506129586000830184612934565b92915050565b60008060008060006080868803121561297a576129796120f5565b5b600061298888828901612124565b955050602061299988828901612124565b94505060406129aa888289016123ea565b935050606086013567ffffffffffffffff8111156129cb576129ca6120fa565b5b6129d788828901612148565b92509250509295509295909350565b6000806000606084860312156129ff576129fe6120f5565b5b6000612a0d86828701612124565b9350506020612a1e86828701612124565b9250506040612a2f868287016123ea565b9150509250925092565b600060208284031215612a4f57612a4e6120f5565b5b600082013567ffffffffffffffff811115612a6d57612a6c6120fa565b5b612a7984828501612621565b91505092915050565b6000606082019050612a976000830186612867565b612aa46020830185612867565b612ab1604083018461239b565b949350505050565b60008060008060808587031215612ad357612ad26120f5565b5b6000612ae187828801612124565b9450506020612af287828801612124565b9350506040612b038782880161273b565b9250506060612b14878288016123ea565b91505092959194509250565b600082825260208201905092915050565b7f4c7a4170703a20696e76616c696420656e64706f696e742063616c6c65720000600082015250565b6000612b67601e83612b20565b9150612b7282612b31565b602082019050919050565b60006020820190508181036000830152612b9681612b5a565b9050919050565b7f4e487b7100000000000000000000000000000000000000000000000000000000600052602260045260246000fd5b60006002820490506001821680612be457607f821691505b602082108103612bf757612bf6612b9d565b5b50919050565b600081905092915050565b6000612c148385612bfd565b9350612c218385846125d0565b82840190509392505050565b6000612c3a828486612c08565b91508190509392505050565b7f4c7a4170703a20696e76616c696420736f757263652073656e64696e6720636f60008201527f6e74726163740000000000000000000000000000000000000000000000000000602082015250565b6000612ca2602683612b20565b9150612cad82612c46565b604082019050919050565b60006020820190508181036000830152612cd181612c95565b9050919050565b6000612ce48385612788565b9350612cf18385846125d0565b612cfa83612513565b840190509392505050565b600060a082019050612d1a600083018a61243f565b612d276020830189612867565b8181036040830152612d3a818789612cd8565b9050612d4960608301866124c9565b8181036080830152612d5c818486612cd8565b905098975050505050505050565b600081519050612d79816123d3565b92915050565b60008060408385031215612d9657612d956120f5565b5b6000612da485828601612d6a565b9250506020612db585828601612d6a565b9150509250929050565b6000604082019050612dd4600083018661243f565b8181036020830152612de7818486612cd8565b9050949350505050565b60008160601b9050919050565b6000612e0982612df1565b9050919050565b6000612e1b82612dfe565b9050919050565b612e33612e2e82612712565b612e10565b82525050565b6000612e458285612e22565b601482019150612e558284612e22565b6014820191508190509392505050565b7f4e6f6e626c6f636b696e674c7a4170703a2063616c6c6572206d75737420626560008201527f204c7a4170700000000000000000000000000000000000000000000000000000602082015250565b6000612ec1602683612b20565b9150612ecc82612e65565b604082019050919050565b60006020820190508181036000830152612ef081612eb4565b9050919050565b7f4c7a4170703a206e6f20747275737465642070617468207265636f7264000000600082015250565b6000612f2d601d83612b20565b9150612f3882612ef7565b602082019050919050565b60006020820190508181036000830152612f5c81612f20565b9050919050565b7f4e487b7100000000000000000000000000000000000000000000000000000000600052601160045260246000fd5b6000612f9d82612391565b9150612fa883612391565b925082821015612fbb57612fba612f63565b5b828203905092915050565b6000612fd3828587612c08565b9150612fdf8284612e22565b601482019150819050949350505050565b6000608082019050613005600083018861243f565b613012602083018761243f565b61301f604083018661239b565b8181036060830152613032818486612cd8565b90509695505050505050565b7f4e6f6e626c6f636b696e674c7a4170703a206e6f2073746f726564206d65737360008201527f6167650000000000000000000000000000000000000000000000000000000000602082015250565b600061309a602383612b20565b91506130a58261303e565b604082019050919050565b600060208201905081810360008301526130c98161308d565b9050919050565b7f4e6f6e626c6f636b696e674c7a4170703a20696e76616c6964207061796c6f6160008201527f6400000000000000000000000000000000000000000000000000000000000000602082015250565b600061312c602183612b20565b9150613137826130d0565b604082019050919050565b6000602082019050818103600083015261315b8161311f565b9050919050565b61316b8161219e565b82525050565b6000608082019050613186600083018861243f565b8181036020830152613199818688612cd8565b90506131a86040830185613162565b6131b560608301846126c8565b9695505050505050565b60006060820190506131d4600083018661243f565b6131e1602083018561243f565b6131ee604083018461239b565b949350505050565b6000613201826126f2565b9050919050565b613211816131f6565b811461321c57600080fd5b50565b60008151905061322e81613208565b92915050565b60008060006060848603121561324d5761324c6120f5565b5b600061325b8682870161321f565b935050602061326c8682870161321f565b925050604061327d86828701612d6a565b9150509250925092565b7f4f776e61626c653a206e6577206f776e657220697320746865207a65726f206160008201527f6464726573730000000000000000000000000000000000000000000000000000602082015250565b60006132e3602683612b20565b91506132ee82613287565b604082019050919050565b60006020820190508181036000830152613312816132d6565b9050919050565b600060808201905061332e600083018761243f565b61333b602083018661243f565b6133486040830185612867565b613355606083018461239b565b95945050505050565b600061337161336c8461259f565b612584565b90508281526020810184848401111561338d5761338c61250e565b5b613398848285612799565b509392505050565b600082601f8301126133b5576133b4612139565b5b81516133c584826020860161335e565b91505092915050565b6000602082840312156133e4576133e36120f5565b5b600082015167ffffffffffffffff811115613402576134016120fa565b5b61340e848285016133a0565b91505092915050565b600060808201905061342c600083018761243f565b818103602083015261343e81866127cc565b905061344d6040830185613162565b818103606083015261345f81846127cc565b905095945050505050565b7f4f776e61626c653a2063616c6c6572206973206e6f7420746865206f776e6572600082015250565b60006134a0602083612b20565b91506134ab8261346a565b602082019050919050565b600060208201905081810360008301526134cf81613493565b9050919050565b60006134e182612391565b91506134ec83612391565b9250827fffffffffffffffffffffffffffffffffffffffffffffffffffffffffffffffff0382111561352157613520612f63565b5b828201905092915050565b7f736c6963655f6f766572666c6f77000000000000000000000000000000000000600082015250565b6000613562600e83612b20565b915061356d8261352c565b602082019050919050565b6000602082019050818103600083015261359181613555565b9050919050565b7f736c6963655f6f75744f66426f756e6473000000000000000000000000000000600082015250565b60006135ce601183612b20565b91506135d982613598565b602082019050919050565b600060208201905081810360008301526135fd816135c1565b9050919050565b7f4c7a4170703a2064657374696e6174696f6e20636861696e206973206e6f742060008201527f61207472757374656420736f7572636500000000000000000000000000000000602082015250565b6000613660603083612b20565b915061366b82613604565b604082019050919050565b6000602082019050818103600083015261368f81613653565b9050919050565b61369f816131f6565b82525050565b600060c0820190506136ba600083018961243f565b81810360208301526136cc81886127cc565b905081810360408301526136e081876127cc565b90506136ef6060830186613696565b6136fc6080830185612867565b81810360a083015261370e81846127cc565b9050979650505050505050565b60006137268261277d565b6137308185612bfd565b9350613740818560208601612799565b80840191505092915050565b6000613758828461371b565b915081905092915050565b600060a082019050613778600083018861243f565b818103602083015261378a81876127cc565b90506137996040830186613162565b81810360608301526137ab81856127cc565b905081810360808301526137bf81846127cc565b90509695505050505050565b7f4c7a4170703a207061796c6f61642073697a6520697320746f6f206c61726765600082015250565b6000613801602083612b20565b915061380c826137cb565b602082019050919050565b60006020820190508181036000830152613830816137f4565b905091905056fea264697066735822122098a346206b05f6980e26d0162b65a8360b1b3117768945e2bfb6b9d7a12c7acc64736f6c634300080d0033",
			"opcodes": "PUSH1 0xA0 PUSH1 0x40 MSTORE CALLVALUE DUP1 ISZERO PUSH3 0x11 JUMPI PUSH1 0x0 DUP1 REVERT JUMPDEST POP PUSH1 0x40 MLOAD PUSH3 0x3B8F CODESIZE SUB DUP1 PUSH3 0x3B8F DUP4 CODECOPY DUP2 DUP2 ADD PUSH1 0x40 MSTORE DUP2 ADD SWAP1 PUSH3 0x37 SWAP2 SWAP1 PUSH3 0x29C JUMP JUMPDEST DUP1 DUP1 PUSH3 0x59 PUSH3 0x4D PUSH3 0x166 PUSH1 0x20 SHL PUSH1 0x20 SHR JUMP JUMPDEST PUSH3 0x16E PUSH1 0x20 SHL PUSH1 0x20 SHR JUMP JUMPDEST DUP1 PUSH20 0xFFFFFFFFFFFFFFFFFFFFFFFFFFFFFFFFFFFFFFFF AND PUSH1 0x80 DUP2 PUSH20 0xFFFFFFFFFFFFFFFFFFFFFFFFFFFFFFFFFFFFFFFF AND DUP2 MSTORE POP POP POP POP PUSH20 0xF69186DFBA60DDB133E91E9A4B5673624293D8F8 PUSH20 0xFFFFFFFFFFFFFFFFFFFFFFFFFFFFFFFFFFFFFFFF AND DUP2 PUSH20 0xFFFFFFFFFFFFFFFFFFFFFFFFFFFFFFFFFFFFFFFF AND SUB PUSH3 0xF7 JUMPI PUSH2 0x27A9 PUSH1 0x6 PUSH1 0x0 PUSH2 0x100 EXP DUP2 SLOAD DUP2 PUSH2 0xFFFF MUL NOT AND SWAP1 DUP4 PUSH2 0xFFFF AND MUL OR SWAP1 SSTORE POP JUMPDEST PUSH20 0xAE92D5AD7583AD66E49A0C67BAD18F6BA52DDDC1 PUSH20 0xFFFFFFFFFFFFFFFFFFFFFFFFFFFFFFFFFFFFFFFF AND DUP2 PUSH20 0xFFFFFFFFFFFFFFFFFFFFFFFFFFFFFFFFFFFFFFFF AND SUB PUSH3 0x15F JUMPI PUSH2 0x277D PUSH1 0x6 PUSH1 0x0 PUSH2 0x100 EXP DUP2 SLOAD DUP2 PUSH2 0xFFFF MUL NOT AND SWAP1 DUP4 PUSH2 0xFFFF AND MUL OR SWAP1 SSTORE POP JUMPDEST POP PUSH3 0x2CE JUMP JUMPDEST PUSH1 0x0 CALLER SWAP1 POP SWAP1 JUMP JUMPDEST PUSH1 0x0 DUP1 PUSH1 0x0 SWAP1 SLOAD SWAP1 PUSH2 0x100 EXP SWAP1 DIV PUSH20 0xFFFFFFFFFFFFFFFFFFFFFFFFFFFFFFFFFFFFFFFF AND SWAP1 POP DUP2 PUSH1 0x0 DUP1 PUSH2 0x100 EXP DUP2 SLOAD DUP2 PUSH20 0xFFFFFFFFFFFFFFFFFFFFFFFFFFFFFFFFFFFFFFFF MUL NOT AND SWAP1 DUP4 PUSH20 0xFFFFFFFFFFFFFFFFFFFFFFFFFFFFFFFFFFFFFFFF AND MUL OR SWAP1 SSTORE POP DUP2 PUSH20 0xFFFFFFFFFFFFFFFFFFFFFFFFFFFFFFFFFFFFFFFF AND DUP2 PUSH20 0xFFFFFFFFFFFFFFFFFFFFFFFFFFFFFFFFFFFFFFFF AND PUSH32 0x8BE0079C531659141344CD1FD0A4F28419497F9722A3DAAFE3B4186F6B6457E0 PUSH1 0x40 MLOAD PUSH1 0x40 MLOAD DUP1 SWAP2 SUB SWAP1 LOG3 POP POP JUMP JUMPDEST PUSH1 0x0 DUP1 REVERT JUMPDEST PUSH1 0x0 PUSH20 0xFFFFFFFFFFFFFFFFFFFFFFFFFFFFFFFFFFFFFFFF DUP3 AND SWAP1 POP SWAP2 SWAP1 POP JUMP JUMPDEST PUSH1 0x0 PUSH3 0x264 DUP3 PUSH3 0x237 JUMP JUMPDEST SWAP1 POP SWAP2 SWAP1 POP JUMP JUMPDEST PUSH3 0x276 DUP2 PUSH3 0x257 JUMP JUMPDEST DUP2 EQ PUSH3 0x282 JUMPI PUSH1 0x0 DUP1 REVERT JUMPDEST POP JUMP JUMPDEST PUSH1 0x0 DUP2 MLOAD SWAP1 POP PUSH3 0x296 DUP2 PUSH3 0x26B JUMP JUMPDEST SWAP3 SWAP2 POP POP JUMP JUMPDEST PUSH1 0x0 PUSH1 0x20 DUP3 DUP5 SUB SLT ISZERO PUSH3 0x2B5 JUMPI PUSH3 0x2B4 PUSH3 0x232 JUMP JUMPDEST JUMPDEST PUSH1 0x0 PUSH3 0x2C5 DUP5 DUP3 DUP6 ADD PUSH3 0x285 JUMP JUMPDEST SWAP2 POP POP SWAP3 SWAP2 POP POP JUMP JUMPDEST PUSH1 0x80 MLOAD PUSH2 0x386D PUSH3 0x322 PUSH1 0x0 CODECOPY PUSH1 0x0 DUP2 DUP2 PUSH2 0x7BF ADD MSTORE DUP2 DUP2 PUSH2 0xA1D ADD MSTORE DUP2 DUP2 PUSH2 0xAAE ADD MSTORE DUP2 DUP2 PUSH2 0xB96 ADD MSTORE DUP2 DUP2 PUSH2 0xD2C ADD MSTORE DUP2 DUP2 PUSH2 0x1290 ADD MSTORE DUP2 DUP2 PUSH2 0x1345 ADD MSTORE DUP2 DUP2 PUSH2 0x17F7 ADD MSTORE PUSH2 0x1D69 ADD MSTORE PUSH2 0x386D PUSH1 0x0 RETURN INVALID PUSH1 0x80 PUSH1 0x40 MSTORE PUSH1 0x4 CALLDATASIZE LT PUSH2 0x1E6 JUMPI PUSH1 0x0 CALLDATALOAD PUSH1 0xE0 SHR DUP1 PUSH4 0x950C8A74 GT PUSH2 0x102 JUMPI DUP1 PUSH4 0xD1DEBA1F GT PUSH2 0x95 JUMPI DUP1 PUSH4 0xEB8D72B7 GT PUSH2 0x64 JUMPI DUP1 PUSH4 0xEB8D72B7 EQ PUSH2 0x712 JUMPI DUP1 PUSH4 0xF2FDE38B EQ PUSH2 0x73B JUMPI DUP1 PUSH4 0xF5ECBDBC EQ PUSH2 0x764 JUMPI DUP1 PUSH4 0xFA15EA43 EQ PUSH2 0x7A1 JUMPI PUSH2 0x1ED JUMP JUMPDEST DUP1 PUSH4 0xD1DEBA1F EQ PUSH2 0x663 JUMPI DUP1 PUSH4 0xD43CC84F EQ PUSH2 0x67F JUMPI DUP1 PUSH4 0xDF2A5B3B EQ PUSH2 0x6AA JUMPI DUP1 PUSH4 0xE5C5E9A3 EQ PUSH2 0x6D3 JUMPI PUSH2 0x1ED JUMP JUMPDEST DUP1 PUSH4 0xB353AAA7 GT PUSH2 0xD1 JUMPI DUP1 PUSH4 0xB353AAA7 EQ PUSH2 0x5BB JUMPI DUP1 PUSH4 0xBAF3292D EQ PUSH2 0x5E6 JUMPI DUP1 PUSH4 0xC4461834 EQ PUSH2 0x60F JUMPI DUP1 PUSH4 0xCBED8B9C EQ PUSH2 0x63A JUMPI PUSH2 0x1ED JUMP JUMPDEST DUP1 PUSH4 0x950C8A74 EQ PUSH2 0x4ED JUMPI DUP1 PUSH4 0x9F38369A EQ PUSH2 0x518 JUMPI DUP1 PUSH4 0xA6C3D165 EQ PUSH2 0x555 JUMPI DUP1 PUSH4 0xA7586BAB EQ PUSH2 0x57E JUMPI PUSH2 0x1ED JUMP JUMPDEST DUP1 PUSH4 0x42D65A8D GT PUSH2 0x17A JUMPI DUP1 PUSH4 0x715018A6 GT PUSH2 0x149 JUMPI DUP1 PUSH4 0x715018A6 EQ PUSH2 0x431 JUMPI DUP1 PUSH4 0x7533D788 EQ PUSH2 0x448 JUMPI DUP1 PUSH4 0x8CFD8F5C EQ PUSH2 0x485 JUMPI DUP1 PUSH4 0x8DA5CB5B EQ PUSH2 0x4C2 JUMPI PUSH2 0x1ED JUMP JUMPDEST DUP1 PUSH4 0x42D65A8D EQ PUSH2 0x379 JUMPI DUP1 PUSH4 0x5B8C41E6 EQ PUSH2 0x3A2 JUMPI DUP1 PUSH4 0x6417C111 EQ PUSH2 0x3DF JUMPI DUP1 PUSH4 0x66AD5C8A EQ PUSH2 0x408 JUMPI PUSH2 0x1ED JUMP JUMPDEST DUP1 PUSH4 0x10DDB137 GT PUSH2 0x1B6 JUMPI DUP1 PUSH4 0x10DDB137 EQ PUSH2 0x2AB JUMPI DUP1 PUSH4 0x30C593F7 EQ PUSH2 0x2D4 JUMPI DUP1 PUSH4 0x3D8B38F6 EQ PUSH2 0x2FF JUMPI DUP1 PUSH4 0x3F1F4FA4 EQ PUSH2 0x33C JUMPI PUSH2 0x1ED JUMP JUMPDEST DUP1 PUSH3 0x1D3567 EQ PUSH2 0x1F2 JUMPI DUP1 PUSH4 0x7E0DB17 EQ PUSH2 0x21B JUMPI DUP1 PUSH4 0xBD856FA EQ PUSH2 0x244 JUMPI DUP1 PUSH4 0xDF37483 EQ PUSH2 0x282 JUMPI PUSH2 0x1ED JUMP JUMPDEST CALLDATASIZE PUSH2 0x1ED JUMPI STOP JUMPDEST PUSH1 0x0 DUP1 REVERT JUMPDEST CALLVALUE DUP1 ISZERO PUSH2 0x1FE JUMPI PUSH1 0x0 DUP1 REVERT JUMPDEST POP PUSH2 0x219 PUSH1 0x4 DUP1 CALLDATASIZE SUB DUP2 ADD SWAP1 PUSH2 0x214 SWAP2 SWAP1 PUSH2 0x21DE JUMP JUMPDEST PUSH2 0x7BD JUMP JUMPDEST STOP JUMPDEST CALLVALUE DUP1 ISZERO PUSH2 0x227 JUMPI PUSH1 0x0 DUP1 REVERT JUMPDEST POP PUSH2 0x242 PUSH1 0x4 DUP1 CALLDATASIZE SUB DUP2 ADD SWAP1 PUSH2 0x23D SWAP2 SWAP1 PUSH2 0x2285 JUMP JUMPDEST PUSH2 0xA13 JUMP JUMPDEST STOP JUMPDEST CALLVALUE DUP1 ISZERO PUSH2 0x250 JUMPI PUSH1 0x0 DUP1 REVERT JUMPDEST POP PUSH2 0x26B PUSH1 0x4 DUP1 CALLDATASIZE SUB DUP2 ADD SWAP1 PUSH2 0x266 SWAP2 SWAP1 PUSH2 0x22EA JUMP JUMPDEST PUSH2 0xAA9 JUMP JUMPDEST PUSH1 0x40 MLOAD PUSH2 0x279 SWAP3 SWAP2 SWAP1 PUSH2 0x23AA JUMP JUMPDEST PUSH1 0x40 MLOAD DUP1 SWAP2 SUB SWAP1 RETURN JUMPDEST CALLVALUE DUP1 ISZERO PUSH2 0x28E JUMPI PUSH1 0x0 DUP1 REVERT JUMPDEST POP PUSH2 0x2A9 PUSH1 0x4 DUP1 CALLDATASIZE SUB DUP2 ADD SWAP1 PUSH2 0x2A4 SWAP2 SWAP1 PUSH2 0x23FF JUMP JUMPDEST PUSH2 0xB60 JUMP JUMPDEST STOP JUMPDEST CALLVALUE DUP1 ISZERO PUSH2 0x2B7 JUMPI PUSH1 0x0 DUP1 REVERT JUMPDEST POP PUSH2 0x2D2 PUSH1 0x4 DUP1 CALLDATASIZE SUB DUP2 ADD SWAP1 PUSH2 0x2CD SWAP2 SWAP1 PUSH2 0x2285 JUMP JUMPDEST PUSH2 0xB8C JUMP JUMPDEST STOP JUMPDEST CALLVALUE DUP1 ISZERO PUSH2 0x2E0 JUMPI PUSH1 0x0 DUP1 REVERT JUMPDEST POP PUSH2 0x2E9 PUSH2 0xC22 JUMP JUMPDEST PUSH1 0x40 MLOAD PUSH2 0x2F6 SWAP2 SWAP1 PUSH2 0x244E JUMP JUMPDEST PUSH1 0x40 MLOAD DUP1 SWAP2 SUB SWAP1 RETURN JUMPDEST CALLVALUE DUP1 ISZERO PUSH2 0x30B JUMPI PUSH1 0x0 DUP1 REVERT JUMPDEST POP PUSH2 0x326 PUSH1 0x4 DUP1 CALLDATASIZE SUB DUP2 ADD SWAP1 PUSH2 0x321 SWAP2 SWAP1 PUSH2 0x2469 JUMP JUMPDEST PUSH2 0xC36 JUMP JUMPDEST PUSH1 0x40 MLOAD PUSH2 0x333 SWAP2 SWAP1 PUSH2 0x24D8 JUMP JUMPDEST PUSH1 0x40 MLOAD DUP1 SWAP2 SUB SWAP1 RETURN JUMPDEST CALLVALUE DUP1 ISZERO PUSH2 0x348 JUMPI PUSH1 0x0 DUP1 REVERT JUMPDEST POP PUSH2 0x363 PUSH1 0x4 DUP1 CALLDATASIZE SUB DUP2 ADD SWAP1 PUSH2 0x35E SWAP2 SWAP1 PUSH2 0x2285 JUMP JUMPDEST PUSH2 0xD0A JUMP JUMPDEST PUSH1 0x40 MLOAD PUSH2 0x370 SWAP2 SWAP1 PUSH2 0x24F3 JUMP JUMPDEST PUSH1 0x40 MLOAD DUP1 SWAP2 SUB SWAP1 RETURN JUMPDEST CALLVALUE DUP1 ISZERO PUSH2 0x385 JUMPI PUSH1 0x0 DUP1 REVERT JUMPDEST POP PUSH2 0x3A0 PUSH1 0x4 DUP1 CALLDATASIZE SUB DUP2 ADD SWAP1 PUSH2 0x39B SWAP2 SWAP1 PUSH2 0x2469 JUMP JUMPDEST PUSH2 0xD22 JUMP JUMPDEST STOP JUMPDEST CALLVALUE DUP1 ISZERO PUSH2 0x3AE JUMPI PUSH1 0x0 DUP1 REVERT JUMPDEST POP PUSH2 0x3C9 PUSH1 0x4 DUP1 CALLDATASIZE SUB DUP2 ADD SWAP1 PUSH2 0x3C4 SWAP2 SWAP1 PUSH2 0x264F JUMP JUMPDEST PUSH2 0xDBE JUMP JUMPDEST PUSH1 0x40 MLOAD PUSH2 0x3D6 SWAP2 SWAP1 PUSH2 0x26D7 JUMP JUMPDEST PUSH1 0x40 MLOAD DUP1 SWAP2 SUB SWAP1 RETURN JUMPDEST CALLVALUE DUP1 ISZERO PUSH2 0x3EB JUMPI PUSH1 0x0 DUP1 REVERT JUMPDEST POP PUSH2 0x406 PUSH1 0x4 DUP1 CALLDATASIZE SUB DUP2 ADD SWAP1 PUSH2 0x401 SWAP2 SWAP1 PUSH2 0x2750 JUMP JUMPDEST PUSH2 0xE06 JUMP JUMPDEST STOP JUMPDEST CALLVALUE DUP1 ISZERO PUSH2 0x414 JUMPI PUSH1 0x0 DUP1 REVERT JUMPDEST POP PUSH2 0x42F PUSH1 0x4 DUP1 CALLDATASIZE SUB DUP2 ADD SWAP1 PUSH2 0x42A SWAP2 SWAP1 PUSH2 0x21DE JUMP JUMPDEST PUSH2 0xE72 JUMP JUMPDEST STOP JUMPDEST CALLVALUE DUP1 ISZERO PUSH2 0x43D JUMPI PUSH1 0x0 DUP1 REVERT JUMPDEST POP PUSH2 0x446 PUSH2 0xF83 JUMP JUMPDEST STOP JUMPDEST CALLVALUE DUP1 ISZERO PUSH2 0x454 JUMPI PUSH1 0x0 DUP1 REVERT JUMPDEST POP PUSH2 0x46F PUSH1 0x4 DUP1 CALLDATASIZE SUB DUP2 ADD SWAP1 PUSH2 0x46A SWAP2 SWAP1 PUSH2 0x2285 JUMP JUMPDEST PUSH2 0xF97 JUMP JUMPDEST PUSH1 0x40 MLOAD PUSH2 0x47C SWAP2 SWAP1 PUSH2 0x2805 JUMP JUMPDEST PUSH1 0x40 MLOAD DUP1 SWAP2 SUB SWAP1 RETURN JUMPDEST CALLVALUE DUP1 ISZERO PUSH2 0x491 JUMPI PUSH1 0x0 DUP1 REVERT JUMPDEST POP PUSH2 0x4AC PUSH1 0x4 DUP1 CALLDATASIZE SUB DUP2 ADD SWAP1 PUSH2 0x4A7 SWAP2 SWAP1 PUSH2 0x2827 JUMP JUMPDEST PUSH2 0x1037 JUMP JUMPDEST PUSH1 0x40 MLOAD PUSH2 0x4B9 SWAP2 SWAP1 PUSH2 0x24F3 JUMP JUMPDEST PUSH1 0x40 MLOAD DUP1 SWAP2 SUB SWAP1 RETURN JUMPDEST CALLVALUE DUP1 ISZERO PUSH2 0x4CE JUMPI PUSH1 0x0 DUP1 REVERT JUMPDEST POP PUSH2 0x4D7 PUSH2 0x105C JUMP JUMPDEST PUSH1 0x40 MLOAD PUSH2 0x4E4 SWAP2 SWAP1 PUSH2 0x2876 JUMP JUMPDEST PUSH1 0x40 MLOAD DUP1 SWAP2 SUB SWAP1 RETURN JUMPDEST CALLVALUE DUP1 ISZERO PUSH2 0x4F9 JUMPI PUSH1 0x0 DUP1 REVERT JUMPDEST POP PUSH2 0x502 PUSH2 0x1085 JUMP JUMPDEST PUSH1 0x40 MLOAD PUSH2 0x50F SWAP2 SWAP1 PUSH2 0x2876 JUMP JUMPDEST PUSH1 0x40 MLOAD DUP1 SWAP2 SUB SWAP1 RETURN JUMPDEST CALLVALUE DUP1 ISZERO PUSH2 0x524 JUMPI PUSH1 0x0 DUP1 REVERT JUMPDEST POP PUSH2 0x53F PUSH1 0x4 DUP1 CALLDATASIZE SUB DUP2 ADD SWAP1 PUSH2 0x53A SWAP2 SWAP1 PUSH2 0x2285 JUMP JUMPDEST PUSH2 0x10AB JUMP JUMPDEST PUSH1 0x40 MLOAD PUSH2 0x54C SWAP2 SWAP1 PUSH2 0x2805 JUMP JUMPDEST PUSH1 0x40 MLOAD DUP1 SWAP2 SUB SWAP1 RETURN JUMPDEST CALLVALUE DUP1 ISZERO PUSH2 0x561 JUMPI PUSH1 0x0 DUP1 REVERT JUMPDEST POP PUSH2 0x57C PUSH1 0x4 DUP1 CALLDATASIZE SUB DUP2 ADD SWAP1 PUSH2 0x577 SWAP2 SWAP1 PUSH2 0x2469 JUMP JUMPDEST PUSH2 0x11C4 JUMP JUMPDEST STOP JUMPDEST CALLVALUE DUP1 ISZERO PUSH2 0x58A JUMPI PUSH1 0x0 DUP1 REVERT JUMPDEST POP PUSH2 0x5A5 PUSH1 0x4 DUP1 CALLDATASIZE SUB DUP2 ADD SWAP1 PUSH2 0x5A0 SWAP2 SWAP1 PUSH2 0x2891 JUMP JUMPDEST PUSH2 0x125F JUMP JUMPDEST PUSH1 0x40 MLOAD PUSH2 0x5B2 SWAP2 SWAP1 PUSH2 0x2805 JUMP JUMPDEST PUSH1 0x40 MLOAD DUP1 SWAP2 SUB SWAP1 RETURN JUMPDEST CALLVALUE DUP1 ISZERO PUSH2 0x5C7 JUMPI PUSH1 0x0 DUP1 REVERT JUMPDEST POP PUSH2 0x5D0 PUSH2 0x128E JUMP JUMPDEST PUSH1 0x40 MLOAD PUSH2 0x5DD SWAP2 SWAP1 PUSH2 0x2943 JUMP JUMPDEST PUSH1 0x40 MLOAD DUP1 SWAP2 SUB SWAP1 RETURN JUMPDEST CALLVALUE DUP1 ISZERO PUSH2 0x5F2 JUMPI PUSH1 0x0 DUP1 REVERT JUMPDEST POP PUSH2 0x60D PUSH1 0x4 DUP1 CALLDATASIZE SUB DUP2 ADD SWAP1 PUSH2 0x608 SWAP2 SWAP1 PUSH2 0x2750 JUMP JUMPDEST PUSH2 0x12B2 JUMP JUMPDEST STOP JUMPDEST CALLVALUE DUP1 ISZERO PUSH2 0x61B JUMPI PUSH1 0x0 DUP1 REVERT JUMPDEST POP PUSH2 0x624 PUSH2 0x1335 JUMP JUMPDEST PUSH1 0x40 MLOAD PUSH2 0x631 SWAP2 SWAP1 PUSH2 0x24F3 JUMP JUMPDEST PUSH1 0x40 MLOAD DUP1 SWAP2 SUB SWAP1 RETURN JUMPDEST CALLVALUE DUP1 ISZERO PUSH2 0x646 JUMPI PUSH1 0x0 DUP1 REVERT JUMPDEST POP PUSH2 0x661 PUSH1 0x4 DUP1 CALLDATASIZE SUB DUP2 ADD SWAP1 PUSH2 0x65C SWAP2 SWAP1 PUSH2 0x295E JUMP JUMPDEST PUSH2 0x133B JUMP JUMPDEST STOP JUMPDEST PUSH2 0x67D PUSH1 0x4 DUP1 CALLDATASIZE SUB DUP2 ADD SWAP1 PUSH2 0x678 SWAP2 SWAP1 PUSH2 0x21DE JUMP JUMPDEST PUSH2 0x13DD JUMP JUMPDEST STOP JUMPDEST CALLVALUE DUP1 ISZERO PUSH2 0x68B JUMPI PUSH1 0x0 DUP1 REVERT JUMPDEST POP PUSH2 0x694 PUSH2 0x1620 JUMP JUMPDEST PUSH1 0x40 MLOAD PUSH2 0x6A1 SWAP2 SWAP1 PUSH2 0x2876 JUMP JUMPDEST PUSH1 0x40 MLOAD DUP1 SWAP2 SUB SWAP1 RETURN JUMPDEST CALLVALUE DUP1 ISZERO PUSH2 0x6B6 JUMPI PUSH1 0x0 DUP1 REVERT JUMPDEST POP PUSH2 0x6D1 PUSH1 0x4 DUP1 CALLDATASIZE SUB DUP2 ADD SWAP1 PUSH2 0x6CC SWAP2 SWAP1 PUSH2 0x29E6 JUMP JUMPDEST PUSH2 0x1646 JUMP JUMPDEST STOP JUMPDEST CALLVALUE DUP1 ISZERO PUSH2 0x6DF JUMPI PUSH1 0x0 DUP1 REVERT JUMPDEST POP PUSH2 0x6FA PUSH1 0x4 DUP1 CALLDATASIZE SUB DUP2 ADD SWAP1 PUSH2 0x6F5 SWAP2 SWAP1 PUSH2 0x2A39 JUMP JUMPDEST PUSH2 0x16C7 JUMP JUMPDEST PUSH1 0x40 MLOAD PUSH2 0x709 SWAP4 SWAP3 SWAP2 SWAP1 PUSH2 0x2A82 JUMP JUMPDEST PUSH1 0x40 MLOAD DUP1 SWAP2 SUB SWAP1 RETURN JUMPDEST CALLVALUE DUP1 ISZERO PUSH2 0x71E JUMPI PUSH1 0x0 DUP1 REVERT JUMPDEST POP PUSH2 0x739 PUSH1 0x4 DUP1 CALLDATASIZE SUB DUP2 ADD SWAP1 PUSH2 0x734 SWAP2 SWAP1 PUSH2 0x2469 JUMP JUMPDEST PUSH2 0x16FD JUMP JUMPDEST STOP JUMPDEST CALLVALUE DUP1 ISZERO PUSH2 0x747 JUMPI PUSH1 0x0 DUP1 REVERT JUMPDEST POP PUSH2 0x762 PUSH1 0x4 DUP1 CALLDATASIZE SUB DUP2 ADD SWAP1 PUSH2 0x75D SWAP2 SWAP1 PUSH2 0x2750 JUMP JUMPDEST PUSH2 0x1770 JUMP JUMPDEST STOP JUMPDEST CALLVALUE DUP1 ISZERO PUSH2 0x770 JUMPI PUSH1 0x0 DUP1 REVERT JUMPDEST POP PUSH2 0x78B PUSH1 0x4 DUP1 CALLDATASIZE SUB DUP2 ADD SWAP1 PUSH2 0x786 SWAP2 SWAP1 PUSH2 0x2AB9 JUMP JUMPDEST PUSH2 0x17F3 JUMP JUMPDEST PUSH1 0x40 MLOAD PUSH2 0x798 SWAP2 SWAP1 PUSH2 0x2805 JUMP JUMPDEST PUSH1 0x40 MLOAD DUP1 SWAP2 SUB SWAP1 RETURN JUMPDEST PUSH2 0x7BB PUSH1 0x4 DUP1 CALLDATASIZE SUB DUP2 ADD SWAP1 PUSH2 0x7B6 SWAP2 SWAP1 PUSH2 0x2891 JUMP JUMPDEST PUSH2 0x18A4 JUMP JUMPDEST STOP JUMPDEST PUSH32 0x0 PUSH20 0xFFFFFFFFFFFFFFFFFFFFFFFFFFFFFFFFFFFFFFFF AND PUSH2 0x7FC PUSH2 0x18E6 JUMP JUMPDEST PUSH20 0xFFFFFFFFFFFFFFFFFFFFFFFFFFFFFFFFFFFFFFFF AND EQ PUSH2 0x852 JUMPI PUSH1 0x40 MLOAD PUSH32 0x8C379A000000000000000000000000000000000000000000000000000000000 DUP2 MSTORE PUSH1 0x4 ADD PUSH2 0x849 SWAP1 PUSH2 0x2B7D JUMP JUMPDEST PUSH1 0x40 MLOAD DUP1 SWAP2 SUB SWAP1 REVERT JUMPDEST PUSH1 0x0 PUSH1 0x1 PUSH1 0x0 DUP9 PUSH2 0xFFFF AND PUSH2 0xFFFF AND DUP2 MSTORE PUSH1 0x20 ADD SWAP1 DUP2 MSTORE PUSH1 0x20 ADD PUSH1 0x0 KECCAK256 DUP1 SLOAD PUSH2 0x87A SWAP1 PUSH2 0x2BCC JUMP JUMPDEST DUP1 PUSH1 0x1F ADD PUSH1 0x20 DUP1 SWAP2 DIV MUL PUSH1 0x20 ADD PUSH1 0x40 MLOAD SWAP1 DUP2 ADD PUSH1 0x40 MSTORE DUP1 SWAP3 SWAP2 SWAP1 DUP2 DUP2 MSTORE PUSH1 0x20 ADD DUP3 DUP1 SLOAD PUSH2 0x8A6 SWAP1 PUSH2 0x2BCC JUMP JUMPDEST DUP1 ISZERO PUSH2 0x8F3 JUMPI DUP1 PUSH1 0x1F LT PUSH2 0x8C8 JUMPI PUSH2 0x100 DUP1 DUP4 SLOAD DIV MUL DUP4 MSTORE SWAP2 PUSH1 0x20 ADD SWAP2 PUSH2 0x8F3 JUMP JUMPDEST DUP3 ADD SWAP2 SWAP1 PUSH1 0x0 MSTORE PUSH1 0x20 PUSH1 0x0 KECCAK256 SWAP1 JUMPDEST DUP2 SLOAD DUP2 MSTORE SWAP1 PUSH1 0x1 ADD SWAP1 PUSH1 0x20 ADD DUP1 DUP4 GT PUSH2 0x8D6 JUMPI DUP3 SWAP1 SUB PUSH1 0x1F AND DUP3 ADD SWAP2 JUMPDEST POP POP POP POP POP SWAP1 POP DUP1 MLOAD DUP7 DUP7 SWAP1 POP EQ DUP1 ISZERO PUSH2 0x90E JUMPI POP PUSH1 0x0 DUP2 MLOAD GT JUMPDEST DUP1 ISZERO PUSH2 0x937 JUMPI POP DUP1 DUP1 MLOAD SWAP1 PUSH1 0x20 ADD KECCAK256 DUP7 DUP7 PUSH1 0x40 MLOAD PUSH2 0x92D SWAP3 SWAP2 SWAP1 PUSH2 0x2C2D JUMP JUMPDEST PUSH1 0x40 MLOAD DUP1 SWAP2 SUB SWAP1 KECCAK256 EQ JUMPDEST PUSH2 0x976 JUMPI PUSH1 0x40 MLOAD PUSH32 0x8C379A000000000000000000000000000000000000000000000000000000000 DUP2 MSTORE PUSH1 0x4 ADD PUSH2 0x96D SWAP1 PUSH2 0x2CB8 JUMP JUMPDEST PUSH1 0x40 MLOAD DUP1 SWAP2 SUB SWAP1 REVERT JUMPDEST PUSH2 0xA0A DUP8 DUP8 DUP8 DUP1 DUP1 PUSH1 0x1F ADD PUSH1 0x20 DUP1 SWAP2 DIV MUL PUSH1 0x20 ADD PUSH1 0x40 MLOAD SWAP1 DUP2 ADD PUSH1 0x40 MSTORE DUP1 SWAP4 SWAP3 SWAP2 SWAP1 DUP2 DUP2 MSTORE PUSH1 0x20 ADD DUP4 DUP4 DUP1 DUP3 DUP5 CALLDATACOPY PUSH1 0x0 DUP2 DUP5 ADD MSTORE PUSH1 0x1F NOT PUSH1 0x1F DUP3 ADD AND SWAP1 POP DUP1 DUP4 ADD SWAP3 POP POP POP POP POP POP POP DUP7 DUP7 DUP7 DUP1 DUP1 PUSH1 0x1F ADD PUSH1 0x20 DUP1 SWAP2 DIV MUL PUSH1 0x20 ADD PUSH1 0x40 MLOAD SWAP1 DUP2 ADD PUSH1 0x40 MSTORE DUP1 SWAP4 SWAP3 SWAP2 SWAP1 DUP2 DUP2 MSTORE PUSH1 0x20 ADD DUP4 DUP4 DUP1 DUP3 DUP5 CALLDATACOPY PUSH1 0x0 DUP2 DUP5 ADD MSTORE PUSH1 0x1F NOT PUSH1 0x1F DUP3 ADD AND SWAP1 POP DUP1 DUP4 ADD SWAP3 POP POP POP POP POP POP POP PUSH2 0x18EE JUMP JUMPDEST POP POP POP POP POP POP POP JUMP JUMPDEST PUSH2 0xA1B PUSH2 0x19B9 JUMP JUMPDEST PUSH32 0x0 PUSH20 0xFFFFFFFFFFFFFFFFFFFFFFFFFFFFFFFFFFFFFFFF AND PUSH4 0x7E0DB17 DUP3 PUSH1 0x40 MLOAD DUP3 PUSH4 0xFFFFFFFF AND PUSH1 0xE0 SHL DUP2 MSTORE PUSH1 0x4 ADD PUSH2 0xA74 SWAP2 SWAP1 PUSH2 0x244E JUMP JUMPDEST PUSH1 0x0 PUSH1 0x40 MLOAD DUP1 DUP4 SUB DUP2 PUSH1 0x0 DUP8 DUP1 EXTCODESIZE ISZERO DUP1 ISZERO PUSH2 0xA8E JUMPI PUSH1 0x0 DUP1 REVERT JUMPDEST POP GAS CALL ISZERO DUP1 ISZERO PUSH2 0xAA2 JUMPI RETURNDATASIZE PUSH1 0x0 DUP1 RETURNDATACOPY RETURNDATASIZE PUSH1 0x0 REVERT JUMPDEST POP POP POP POP POP JUMP JUMPDEST PUSH1 0x0 DUP1 PUSH32 0x0 PUSH20 0xFFFFFFFFFFFFFFFFFFFFFFFFFFFFFFFFFFFFFFFF AND PUSH4 0x40A7BB10 DUP10 ADDRESS DUP10 DUP10 DUP13 DUP11 DUP11 PUSH1 0x40 MLOAD DUP9 PUSH4 0xFFFFFFFF AND PUSH1 0xE0 SHL DUP2 MSTORE PUSH1 0x4 ADD PUSH2 0xB11 SWAP8 SWAP7 SWAP6 SWAP5 SWAP4 SWAP3 SWAP2 SWAP1 PUSH2 0x2D05 JUMP JUMPDEST PUSH1 0x40 DUP1 MLOAD DUP1 DUP4 SUB DUP2 DUP7 GAS STATICCALL ISZERO DUP1 ISZERO PUSH2 0xB2D JUMPI RETURNDATASIZE PUSH1 0x0 DUP1 RETURNDATACOPY RETURNDATASIZE PUSH1 0x0 REVERT JUMPDEST POP POP POP POP PUSH1 0x40 MLOAD RETURNDATASIZE PUSH1 0x1F NOT PUSH1 0x1F DUP3 ADD AND DUP3 ADD DUP1 PUSH1 0x40 MSTORE POP DUP2 ADD SWAP1 PUSH2 0xB51 SWAP2 SWAP1 PUSH2 0x2D7F JUMP JUMPDEST SWAP2 POP SWAP2 POP SWAP7 POP SWAP7 SWAP5 POP POP POP POP POP JUMP JUMPDEST PUSH2 0xB68 PUSH2 0x19B9 JUMP JUMPDEST DUP1 PUSH1 0x3 PUSH1 0x0 DUP5 PUSH2 0xFFFF AND PUSH2 0xFFFF AND DUP2 MSTORE PUSH1 0x20 ADD SWAP1 DUP2 MSTORE PUSH1 0x20 ADD PUSH1 0x0 KECCAK256 DUP2 SWAP1 SSTORE POP POP POP JUMP JUMPDEST PUSH2 0xB94 PUSH2 0x19B9 JUMP JUMPDEST PUSH32 0x0 PUSH20 0xFFFFFFFFFFFFFFFFFFFFFFFFFFFFFFFFFFFFFFFF AND PUSH4 0x10DDB137 DUP3 PUSH1 0x40 MLOAD DUP3 PUSH4 0xFFFFFFFF AND PUSH1 0xE0 SHL DUP2 MSTORE PUSH1 0x4 ADD PUSH2 0xBED SWAP2 SWAP1 PUSH2 0x244E JUMP JUMPDEST PUSH1 0x0 PUSH1 0x40 MLOAD DUP1 DUP4 SUB DUP2 PUSH1 0x0 DUP8 DUP1 EXTCODESIZE ISZERO DUP1 ISZERO PUSH2 0xC07 JUMPI PUSH1 0x0 DUP1 REVERT JUMPDEST POP GAS CALL ISZERO DUP1 ISZERO PUSH2 0xC1B JUMPI RETURNDATASIZE PUSH1 0x0 DUP1 RETURNDATACOPY RETURNDATASIZE PUSH1 0x0 REVERT JUMPDEST POP POP POP POP POP JUMP JUMPDEST PUSH1 0x6 PUSH1 0x0 SWAP1 SLOAD SWAP1 PUSH2 0x100 EXP SWAP1 DIV PUSH2 0xFFFF AND DUP2 JUMP JUMPDEST PUSH1 0x0 DUP1 PUSH1 0x1 PUSH1 0x0 DUP7 PUSH2 0xFFFF AND PUSH2 0xFFFF AND DUP2 MSTORE PUSH1 0x20 ADD SWAP1 DUP2 MSTORE PUSH1 0x20 ADD PUSH1 0x0 KECCAK256 DUP1 SLOAD PUSH2 0xC5F SWAP1 PUSH2 0x2BCC JUMP JUMPDEST DUP1 PUSH1 0x1F ADD PUSH1 0x20 DUP1 SWAP2 DIV MUL PUSH1 0x20 ADD PUSH1 0x40 MLOAD SWAP1 DUP2 ADD PUSH1 0x40 MSTORE DUP1 SWAP3 SWAP2 SWAP1 DUP2 DUP2 MSTORE PUSH1 0x20 ADD DUP3 DUP1 SLOAD PUSH2 0xC8B SWAP1 PUSH2 0x2BCC JUMP JUMPDEST DUP1 ISZERO PUSH2 0xCD8 JUMPI DUP1 PUSH1 0x1F LT PUSH2 0xCAD JUMPI PUSH2 0x100 DUP1 DUP4 SLOAD DIV MUL DUP4 MSTORE SWAP2 PUSH1 0x20 ADD SWAP2 PUSH2 0xCD8 JUMP JUMPDEST DUP3 ADD SWAP2 SWAP1 PUSH1 0x0 MSTORE PUSH1 0x20 PUSH1 0x0 KECCAK256 SWAP1 JUMPDEST DUP2 SLOAD DUP2 MSTORE SWAP1 PUSH1 0x1 ADD SWAP1 PUSH1 0x20 ADD DUP1 DUP4 GT PUSH2 0xCBB JUMPI DUP3 SWAP1 SUB PUSH1 0x1F AND DUP3 ADD SWAP2 JUMPDEST POP POP POP POP POP SWAP1 POP DUP4 DUP4 PUSH1 0x40 MLOAD PUSH2 0xCEF SWAP3 SWAP2 SWAP1 PUSH2 0x2C2D JUMP JUMPDEST PUSH1 0x40 MLOAD DUP1 SWAP2 SUB SWAP1 KECCAK256 DUP2 DUP1 MLOAD SWAP1 PUSH1 0x20 ADD KECCAK256 EQ SWAP2 POP POP SWAP4 SWAP3 POP POP POP JUMP JUMPDEST PUSH1 0x3 PUSH1 0x20 MSTORE DUP1 PUSH1 0x0 MSTORE PUSH1 0x40 PUSH1 0x0 KECCAK256 PUSH1 0x0 SWAP2 POP SWAP1 POP SLOAD DUP2 JUMP JUMPDEST PUSH2 0xD2A PUSH2 0x19B9 JUMP JUMPDEST PUSH32 0x0 PUSH20 0xFFFFFFFFFFFFFFFFFFFFFFFFFFFFFFFFFFFFFFFF AND PUSH4 0x42D65A8D DUP5 DUP5 DUP5 PUSH1 0x40 MLOAD DUP5 PUSH4 0xFFFFFFFF AND PUSH1 0xE0 SHL DUP2 MSTORE PUSH1 0x4 ADD PUSH2 0xD87 SWAP4 SWAP3 SWAP2 SWAP1 PUSH2 0x2DBF JUMP JUMPDEST PUSH1 0x0 PUSH1 0x40 MLOAD DUP1 DUP4 SUB DUP2 PUSH1 0x0 DUP8 DUP1 EXTCODESIZE ISZERO DUP1 ISZERO PUSH2 0xDA1 JUMPI PUSH1 0x0 DUP1 REVERT JUMPDEST POP GAS CALL ISZERO DUP1 ISZERO PUSH2 0xDB5 JUMPI RETURNDATASIZE PUSH1 0x0 DUP1 RETURNDATACOPY RETURNDATASIZE PUSH1 0x0 REVERT JUMPDEST POP POP POP POP POP POP POP JUMP JUMPDEST PUSH1 0x5 PUSH1 0x20 MSTORE DUP3 PUSH1 0x0 MSTORE PUSH1 0x40 PUSH1 0x0 KECCAK256 DUP3 DUP1 MLOAD PUSH1 0x20 DUP2 ADD DUP3 ADD DUP1 MLOAD DUP5 DUP3 MSTORE PUSH1 0x20 DUP4 ADD PUSH1 0x20 DUP6 ADD KECCAK256 DUP2 DUP4 MSTORE DUP1 SWAP6 POP POP POP POP POP POP PUSH1 0x20 MSTORE DUP1 PUSH1 0x0 MSTORE PUSH1 0x40 PUSH1 0x0 KECCAK256 PUSH1 0x0 SWAP3 POP SWAP3 POP POP POP SLOAD DUP2 JUMP JUMPDEST PUSH2 0xE0E PUSH2 0x19B9 JUMP JUMPDEST DUP1 ADDRESS PUSH1 0x40 MLOAD PUSH1 0x20 ADD PUSH2 0xE21 SWAP3 SWAP2 SWAP1 PUSH2 0x2E39 JUMP JUMPDEST PUSH1 0x40 MLOAD PUSH1 0x20 DUP2 DUP4 SUB SUB DUP2 MSTORE SWAP1 PUSH1 0x40 MSTORE PUSH1 0x1 PUSH1 0x0 PUSH1 0x6 PUSH1 0x0 SWAP1 SLOAD SWAP1 PUSH2 0x100 EXP SWAP1 DIV PUSH2 0xFFFF AND PUSH2 0xFFFF AND PUSH2 0xFFFF AND DUP2 MSTORE PUSH1 0x20 ADD SWAP1 DUP2 MSTORE PUSH1 0x20 ADD PUSH1 0x0 KECCAK256 SWAP1 DUP1 MLOAD SWAP1 PUSH1 0x20 ADD SWAP1 PUSH2 0xE6E SWAP3 SWAP2 SWAP1 PUSH2 0x1FC2 JUMP JUMPDEST POP POP JUMP JUMPDEST ADDRESS PUSH20 0xFFFFFFFFFFFFFFFFFFFFFFFFFFFFFFFFFFFFFFFF AND PUSH2 0xE91 PUSH2 0x18E6 JUMP JUMPDEST PUSH20 0xFFFFFFFFFFFFFFFFFFFFFFFFFFFFFFFFFFFFFFFF AND EQ PUSH2 0xEE7 JUMPI PUSH1 0x40 MLOAD PUSH32 0x8C379A000000000000000000000000000000000000000000000000000000000 DUP2 MSTORE PUSH1 0x4 ADD PUSH2 0xEDE SWAP1 PUSH2 0x2ED7 JUMP JUMPDEST PUSH1 0x40 MLOAD DUP1 SWAP2 SUB SWAP1 REVERT JUMPDEST PUSH2 0xF7B DUP7 DUP7 DUP7 DUP1 DUP1 PUSH1 0x1F ADD PUSH1 0x20 DUP1 SWAP2 DIV MUL PUSH1 0x20 ADD PUSH1 0x40 MLOAD SWAP1 DUP2 ADD PUSH1 0x40 MSTORE DUP1 SWAP4 SWAP3 SWAP2 SWAP1 DUP2 DUP2 MSTORE PUSH1 0x20 ADD DUP4 DUP4 DUP1 DUP3 DUP5 CALLDATACOPY PUSH1 0x0 DUP2 DUP5 ADD MSTORE PUSH1 0x1F NOT PUSH1 0x1F DUP3 ADD AND SWAP1 POP DUP1 DUP4 ADD SWAP3 POP POP POP POP POP POP POP DUP6 DUP6 DUP6 DUP1 DUP1 PUSH1 0x1F ADD PUSH1 0x20 DUP1 SWAP2 DIV MUL PUSH1 0x20 ADD PUSH1 0x40 MLOAD SWAP1 DUP2 ADD PUSH1 0x40 MSTORE DUP1 SWAP4 SWAP3 SWAP2 SWAP1 DUP2 DUP2 MSTORE PUSH1 0x20 ADD DUP4 DUP4 DUP1 DUP3 DUP5 CALLDATACOPY PUSH1 0x0 DUP2 DUP5 ADD MSTORE PUSH1 0x1F NOT PUSH1 0x1F DUP3 ADD AND SWAP1 POP DUP1 DUP4 ADD SWAP3 POP POP POP POP POP POP POP PUSH2 0x1A37 JUMP JUMPDEST POP POP POP POP POP POP JUMP JUMPDEST PUSH2 0xF8B PUSH2 0x19B9 JUMP JUMPDEST PUSH2 0xF95 PUSH1 0x0 PUSH2 0x1A8E JUMP JUMPDEST JUMP JUMPDEST PUSH1 0x1 PUSH1 0x20 MSTORE DUP1 PUSH1 0x0 MSTORE PUSH1 0x40 PUSH1 0x0 KECCAK256 PUSH1 0x0 SWAP2 POP SWAP1 POP DUP1 SLOAD PUSH2 0xFB6 SWAP1 PUSH2 0x2BCC JUMP JUMPDEST DUP1 PUSH1 0x1F ADD PUSH1 0x20 DUP1 SWAP2 DIV MUL PUSH1 0x20 ADD PUSH1 0x40 MLOAD SWAP1 DUP2 ADD PUSH1 0x40 MSTORE DUP1 SWAP3 SWAP2 SWAP1 DUP2 DUP2 MSTORE PUSH1 0x20 ADD DUP3 DUP1 SLOAD PUSH2 0xFE2 SWAP1 PUSH2 0x2BCC JUMP JUMPDEST DUP1 ISZERO PUSH2 0x102F JUMPI DUP1 PUSH1 0x1F LT PUSH2 0x1004 JUMPI PUSH2 0x100 DUP1 DUP4 SLOAD DIV MUL DUP4 MSTORE SWAP2 PUSH1 0x20 ADD SWAP2 PUSH2 0x102F JUMP JUMPDEST DUP3 ADD SWAP2 SWAP1 PUSH1 0x0 MSTORE PUSH1 0x20 PUSH1 0x0 KECCAK256 SWAP1 JUMPDEST DUP2 SLOAD DUP2 MSTORE SWAP1 PUSH1 0x1 ADD SWAP1 PUSH1 0x20 ADD DUP1 DUP4 GT PUSH2 0x1012 JUMPI DUP3 SWAP1 SUB PUSH1 0x1F AND DUP3 ADD SWAP2 JUMPDEST POP POP POP POP POP DUP2 JUMP JUMPDEST PUSH1 0x2 PUSH1 0x20 MSTORE DUP2 PUSH1 0x0 MSTORE PUSH1 0x40 PUSH1 0x0 KECCAK256 PUSH1 0x20 MSTORE DUP1 PUSH1 0x0 MSTORE PUSH1 0x40 PUSH1 0x0 KECCAK256 PUSH1 0x0 SWAP2 POP SWAP2 POP POP SLOAD DUP2 JUMP JUMPDEST PUSH1 0x0 DUP1 PUSH1 0x0 SWAP1 SLOAD SWAP1 PUSH2 0x100 EXP SWAP1 DIV PUSH20 0xFFFFFFFFFFFFFFFFFFFFFFFFFFFFFFFFFFFFFFFF AND SWAP1 POP SWAP1 JUMP JUMPDEST PUSH1 0x4 PUSH1 0x0 SWAP1 SLOAD SWAP1 PUSH2 0x100 EXP SWAP1 DIV PUSH20 0xFFFFFFFFFFFFFFFFFFFFFFFFFFFFFFFFFFFFFFFF AND DUP2 JUMP JUMPDEST PUSH1 0x60 PUSH1 0x0 PUSH1 0x1 PUSH1 0x0 DUP5 PUSH2 0xFFFF AND PUSH2 0xFFFF AND DUP2 MSTORE PUSH1 0x20 ADD SWAP1 DUP2 MSTORE PUSH1 0x20 ADD PUSH1 0x0 KECCAK256 DUP1 SLOAD PUSH2 0x10D5 SWAP1 PUSH2 0x2BCC JUMP JUMPDEST DUP1 PUSH1 0x1F ADD PUSH1 0x20 DUP1 SWAP2 DIV MUL PUSH1 0x20 ADD PUSH1 0x40 MLOAD SWAP1 DUP2 ADD PUSH1 0x40 MSTORE DUP1 SWAP3 SWAP2 SWAP1 DUP2 DUP2 MSTORE PUSH1 0x20 ADD DUP3 DUP1 SLOAD PUSH2 0x1101 SWAP1 PUSH2 0x2BCC JUMP JUMPDEST DUP1 ISZERO PUSH2 0x114E JUMPI DUP1 PUSH1 0x1F LT PUSH2 0x1123 JUMPI PUSH2 0x100 DUP1 DUP4 SLOAD DIV MUL DUP4 MSTORE SWAP2 PUSH1 0x20 ADD SWAP2 PUSH2 0x114E JUMP JUMPDEST DUP3 ADD SWAP2 SWAP1 PUSH1 0x0 MSTORE PUSH1 0x20 PUSH1 0x0 KECCAK256 SWAP1 JUMPDEST DUP2 SLOAD DUP2 MSTORE SWAP1 PUSH1 0x1 ADD SWAP1 PUSH1 0x20 ADD DUP1 DUP4 GT PUSH2 0x1131 JUMPI DUP3 SWAP1 SUB PUSH1 0x1F AND DUP3 ADD SWAP2 JUMPDEST POP POP POP POP POP SWAP1 POP PUSH1 0x0 DUP2 MLOAD SUB PUSH2 0x1199 JUMPI PUSH1 0x40 MLOAD PUSH32 0x8C379A000000000000000000000000000000000000000000000000000000000 DUP2 MSTORE PUSH1 0x4 ADD PUSH2 0x1190 SWAP1 PUSH2 0x2F43 JUMP JUMPDEST PUSH1 0x40 MLOAD DUP1 SWAP2 SUB SWAP1 REVERT JUMPDEST PUSH2 0x11BC PUSH1 0x0 PUSH1 0x14 DUP4 MLOAD PUSH2 0x11AC SWAP2 SWAP1 PUSH2 0x2F92 JUMP JUMPDEST DUP4 PUSH2 0x1B52 SWAP1 SWAP3 SWAP2 SWAP1 PUSH4 0xFFFFFFFF AND JUMP JUMPDEST SWAP2 POP POP SWAP2 SWAP1 POP JUMP JUMPDEST PUSH2 0x11CC PUSH2 0x19B9 JUMP JUMPDEST DUP2 DUP2 ADDRESS PUSH1 0x40 MLOAD PUSH1 0x20 ADD PUSH2 0x11E1 SWAP4 SWAP3 SWAP2 SWAP1 PUSH2 0x2FC6 JUMP JUMPDEST PUSH1 0x40 MLOAD PUSH1 0x20 DUP2 DUP4 SUB SUB DUP2 MSTORE SWAP1 PUSH1 0x40 MSTORE PUSH1 0x1 PUSH1 0x0 DUP6 PUSH2 0xFFFF AND PUSH2 0xFFFF AND DUP2 MSTORE PUSH1 0x20 ADD SWAP1 DUP2 MSTORE PUSH1 0x20 ADD PUSH1 0x0 KECCAK256 SWAP1 DUP1 MLOAD SWAP1 PUSH1 0x20 ADD SWAP1 PUSH2 0x121E SWAP3 SWAP2 SWAP1 PUSH2 0x1FC2 JUMP JUMPDEST POP PUSH32 0x8C0400CFE2D1199B1A725C78960BCC2A344D869B80590D0F2BD005DB15A572CE DUP4 DUP4 DUP4 PUSH1 0x40 MLOAD PUSH2 0x1252 SWAP4 SWAP3 SWAP2 SWAP1 PUSH2 0x2DBF JUMP JUMPDEST PUSH1 0x40 MLOAD DUP1 SWAP2 SUB SWAP1 LOG1 POP POP POP JUMP JUMPDEST PUSH1 0x60 DUP4 DUP4 DUP4 PUSH1 0x40 MLOAD PUSH1 0x20 ADD PUSH2 0x1276 SWAP4 SWAP3 SWAP2 SWAP1 PUSH2 0x2A82 JUMP JUMPDEST PUSH1 0x40 MLOAD PUSH1 0x20 DUP2 DUP4 SUB SUB DUP2 MSTORE SWAP1 PUSH1 0x40 MSTORE SWAP1 POP SWAP4 SWAP3 POP POP POP JUMP JUMPDEST PUSH32 0x0 DUP2 JUMP JUMPDEST PUSH2 0x12BA PUSH2 0x19B9 JUMP JUMPDEST DUP1 PUSH1 0x4 PUSH1 0x0 PUSH2 0x100 EXP DUP2 SLOAD DUP2 PUSH20 0xFFFFFFFFFFFFFFFFFFFFFFFFFFFFFFFFFFFFFFFF MUL NOT AND SWAP1 DUP4 PUSH20 0xFFFFFFFFFFFFFFFFFFFFFFFFFFFFFFFFFFFFFFFF AND MUL OR SWAP1 SSTORE POP PUSH32 0x5DB758E995A17EC1AD84BDEF7E8C3293A0BD6179BCCE400DFF5D4C3D87DB726B DUP2 PUSH1 0x40 MLOAD PUSH2 0x132A SWAP2 SWAP1 PUSH2 0x2876 JUMP JUMPDEST PUSH1 0x40 MLOAD DUP1 SWAP2 SUB SWAP1 LOG1 POP JUMP JUMPDEST PUSH2 0x2710 DUP2 JUMP JUMPDEST PUSH2 0x1343 PUSH2 0x19B9 JUMP JUMPDEST PUSH32 0x0 PUSH20 0xFFFFFFFFFFFFFFFFFFFFFFFFFFFFFFFFFFFFFFFF AND PUSH4 0xCBED8B9C DUP7 DUP7 DUP7 DUP7 DUP7 PUSH1 0x40 MLOAD DUP7 PUSH4 0xFFFFFFFF AND PUSH1 0xE0 SHL DUP2 MSTORE PUSH1 0x4 ADD PUSH2 0x13A4 SWAP6 SWAP5 SWAP4 SWAP3 SWAP2 SWAP1 PUSH2 0x2FF0 JUMP JUMPDEST PUSH1 0x0 PUSH1 0x40 MLOAD DUP1 DUP4 SUB DUP2 PUSH1 0x0 DUP8 DUP1 EXTCODESIZE ISZERO DUP1 ISZERO PUSH2 0x13BE JUMPI PUSH1 0x0 DUP1 REVERT JUMPDEST POP GAS CALL ISZERO DUP1 ISZERO PUSH2 0x13D2 JUMPI RETURNDATASIZE PUSH1 0x0 DUP1 RETURNDATACOPY RETURNDATASIZE PUSH1 0x0 REVERT JUMPDEST POP POP POP POP POP POP POP POP POP JUMP JUMPDEST PUSH1 0x0 PUSH1 0x5 PUSH1 0x0 DUP9 PUSH2 0xFFFF AND PUSH2 0xFFFF AND DUP2 MSTORE PUSH1 0x20 ADD SWAP1 DUP2 MSTORE PUSH1 0x20 ADD PUSH1 0x0 KECCAK256 DUP7 DUP7 PUSH1 0x40 MLOAD PUSH2 0x140A SWAP3 SWAP2 SWAP1 PUSH2 0x2C2D JUMP JUMPDEST SWAP1 DUP2 MSTORE PUSH1 0x20 ADD PUSH1 0x40 MLOAD DUP1 SWAP2 SUB SWAP1 KECCAK256 PUSH1 0x0 DUP6 PUSH8 0xFFFFFFFFFFFFFFFF AND PUSH8 0xFFFFFFFFFFFFFFFF AND DUP2 MSTORE PUSH1 0x20 ADD SWAP1 DUP2 MSTORE PUSH1 0x20 ADD PUSH1 0x0 KECCAK256 SLOAD SWAP1 POP PUSH1 0x0 DUP1 SHL DUP2 SUB PUSH2 0x1485 JUMPI PUSH1 0x40 MLOAD PUSH32 0x8C379A000000000000000000000000000000000000000000000000000000000 DUP2 MSTORE PUSH1 0x4 ADD PUSH2 0x147C SWAP1 PUSH2 0x30B0 JUMP JUMPDEST PUSH1 0x40 MLOAD DUP1 SWAP2 SUB SWAP1 REVERT JUMPDEST DUP1 DUP4 DUP4 PUSH1 0x40 MLOAD PUSH2 0x1496 SWAP3 SWAP2 SWAP1 PUSH2 0x2C2D JUMP JUMPDEST PUSH1 0x40 MLOAD DUP1 SWAP2 SUB SWAP1 KECCAK256 EQ PUSH2 0x14DE JUMPI PUSH1 0x40 MLOAD PUSH32 0x8C379A000000000000000000000000000000000000000000000000000000000 DUP2 MSTORE PUSH1 0x4 ADD PUSH2 0x14D5 SWAP1 PUSH2 0x3142 JUMP JUMPDEST PUSH1 0x40 MLOAD DUP1 SWAP2 SUB SWAP1 REVERT JUMPDEST PUSH1 0x0 DUP1 SHL PUSH1 0x5 PUSH1 0x0 DUP10 PUSH2 0xFFFF AND PUSH2 0xFFFF AND DUP2 MSTORE PUSH1 0x20 ADD SWAP1 DUP2 MSTORE PUSH1 0x20 ADD PUSH1 0x0 KECCAK256 DUP8 DUP8 PUSH1 0x40 MLOAD PUSH2 0x150D SWAP3 SWAP2 SWAP1 PUSH2 0x2C2D JUMP JUMPDEST SWAP1 DUP2 MSTORE PUSH1 0x20 ADD PUSH1 0x40 MLOAD DUP1 SWAP2 SUB SWAP1 KECCAK256 PUSH1 0x0 DUP7 PUSH8 0xFFFFFFFFFFFFFFFF AND PUSH8 0xFFFFFFFFFFFFFFFF AND DUP2 MSTORE PUSH1 0x20 ADD SWAP1 DUP2 MSTORE PUSH1 0x20 ADD PUSH1 0x0 KECCAK256 DUP2 SWAP1 SSTORE POP PUSH2 0x15D8 DUP8 DUP8 DUP8 DUP1 DUP1 PUSH1 0x1F ADD PUSH1 0x20 DUP1 SWAP2 DIV MUL PUSH1 0x20 ADD PUSH1 0x40 MLOAD SWAP1 DUP2 ADD PUSH1 0x40 MSTORE DUP1 SWAP4 SWAP3 SWAP2 SWAP1 DUP2 DUP2 MSTORE PUSH1 0x20 ADD DUP4 DUP4 DUP1 DUP3 DUP5 CALLDATACOPY PUSH1 0x0 DUP2 DUP5 ADD MSTORE PUSH1 0x1F NOT PUSH1 0x1F DUP3 ADD AND SWAP1 POP DUP1 DUP4 ADD SWAP3 POP POP POP POP POP POP POP DUP7 DUP7 DUP7 DUP1 DUP1 PUSH1 0x1F ADD PUSH1 0x20 DUP1 SWAP2 DIV MUL PUSH1 0x20 ADD PUSH1 0x40 MLOAD SWAP1 DUP2 ADD PUSH1 0x40 MSTORE DUP1 SWAP4 SWAP3 SWAP2 SWAP1 DUP2 DUP2 MSTORE PUSH1 0x20 ADD DUP4 DUP4 DUP1 DUP3 DUP5 CALLDATACOPY PUSH1 0x0 DUP2 DUP5 ADD MSTORE PUSH1 0x1F NOT PUSH1 0x1F DUP3 ADD AND SWAP1 POP DUP1 DUP4 ADD SWAP3 POP POP POP POP POP POP POP PUSH2 0x1A37 JUMP JUMPDEST PUSH32 0xC264D91F3ADC5588250E1551F547752CA0CFA8F6B530D243B9F9F4CAB10EA8E5 DUP8 DUP8 DUP8 DUP8 DUP6 PUSH1 0x40 MLOAD PUSH2 0x160F SWAP6 SWAP5 SWAP4 SWAP3 SWAP2 SWAP1 PUSH2 0x3171 JUMP JUMPDEST PUSH1 0x40 MLOAD DUP1 SWAP2 SUB SWAP1 LOG1 POP POP POP POP POP POP POP JUMP JUMPDEST PUSH1 0x6 PUSH1 0x2 SWAP1 SLOAD SWAP1 PUSH2 0x100 EXP SWAP1 DIV PUSH20 0xFFFFFFFFFFFFFFFFFFFFFFFFFFFFFFFFFFFFFFFF AND DUP2 JUMP JUMPDEST PUSH2 0x164E PUSH2 0x19B9 JUMP JUMPDEST DUP1 PUSH1 0x2 PUSH1 0x0 DUP6 PUSH2 0xFFFF AND PUSH2 0xFFFF AND DUP2 MSTORE PUSH1 0x20 ADD SWAP1 DUP2 MSTORE PUSH1 0x20 ADD PUSH1 0x0 KECCAK256 PUSH1 0x0 DUP5 PUSH2 0xFFFF AND PUSH2 0xFFFF AND DUP2 MSTORE PUSH1 0x20 ADD SWAP1 DUP2 MSTORE PUSH1 0x20 ADD PUSH1 0x0 KECCAK256 DUP2 SWAP1 SSTORE POP PUSH32 0x9D5C7C0B934DA8FEFA9C7760C98383778A12DFBFC0C3B3106518F43FB9508AC0 DUP4 DUP4 DUP4 PUSH1 0x40 MLOAD PUSH2 0x16BA SWAP4 SWAP3 SWAP2 SWAP1 PUSH2 0x31BF JUMP JUMPDEST PUSH1 0x40 MLOAD DUP1 SWAP2 SUB SWAP1 LOG1 POP POP POP JUMP JUMPDEST PUSH1 0x0 DUP1 PUSH1 0x0 DUP1 PUSH1 0x0 DUP1 DUP7 DUP1 PUSH1 0x20 ADD SWAP1 MLOAD DUP2 ADD SWAP1 PUSH2 0x16E4 SWAP2 SWAP1 PUSH2 0x3234 JUMP JUMPDEST SWAP3 POP SWAP3 POP SWAP3 POP DUP3 DUP3 DUP3 SWAP6 POP SWAP6 POP SWAP6 POP POP POP POP SWAP2 SWAP4 SWAP1 SWAP3 POP JUMP JUMPDEST PUSH2 0x1705 PUSH2 0x19B9 JUMP JUMPDEST DUP2 DUP2 PUSH1 0x1 PUSH1 0x0 DUP7 PUSH2 0xFFFF AND PUSH2 0xFFFF AND DUP2 MSTORE PUSH1 0x20 ADD SWAP1 DUP2 MSTORE PUSH1 0x20 ADD PUSH1 0x0 KECCAK256 SWAP2 SWAP1 PUSH2 0x172F SWAP3 SWAP2 SWAP1 PUSH2 0x2048 JUMP JUMPDEST POP PUSH32 0xFA41487AD5D6728F0B19276FA1EDDC16558578F5109FC39D2DC33C3230470DAB DUP4 DUP4 DUP4 PUSH1 0x40 MLOAD PUSH2 0x1763 SWAP4 SWAP3 SWAP2 SWAP1 PUSH2 0x2DBF JUMP JUMPDEST PUSH1 0x40 MLOAD DUP1 SWAP2 SUB SWAP1 LOG1 POP POP POP JUMP JUMPDEST PUSH2 0x1778 PUSH2 0x19B9 JUMP JUMPDEST PUSH1 0x0 PUSH20 0xFFFFFFFFFFFFFFFFFFFFFFFFFFFFFFFFFFFFFFFF AND DUP2 PUSH20 0xFFFFFFFFFFFFFFFFFFFFFFFFFFFFFFFFFFFFFFFF AND SUB PUSH2 0x17E7 JUMPI PUSH1 0x40 MLOAD PUSH32 0x8C379A000000000000000000000000000000000000000000000000000000000 DUP2 MSTORE PUSH1 0x4 ADD PUSH2 0x17DE SWAP1 PUSH2 0x32F9 JUMP JUMPDEST PUSH1 0x40 MLOAD DUP1 SWAP2 SUB SWAP1 REVERT JUMPDEST PUSH2 0x17F0 DUP2 PUSH2 0x1A8E JUMP JUMPDEST POP JUMP JUMPDEST PUSH1 0x60 PUSH32 0x0 PUSH20 0xFFFFFFFFFFFFFFFFFFFFFFFFFFFFFFFFFFFFFFFF AND PUSH4 0xF5ECBDBC DUP7 DUP7 ADDRESS DUP7 PUSH1 0x40 MLOAD DUP6 PUSH4 0xFFFFFFFF AND PUSH1 0xE0 SHL DUP2 MSTORE PUSH1 0x4 ADD PUSH2 0x1854 SWAP5 SWAP4 SWAP3 SWAP2 SWAP1 PUSH2 0x3319 JUMP JUMPDEST PUSH1 0x0 PUSH1 0x40 MLOAD DUP1 DUP4 SUB DUP2 DUP7 GAS STATICCALL ISZERO DUP1 ISZERO PUSH2 0x1871 JUMPI RETURNDATASIZE PUSH1 0x0 DUP1 RETURNDATACOPY RETURNDATASIZE PUSH1 0x0 REVERT JUMPDEST POP POP POP POP PUSH1 0x40 MLOAD RETURNDATASIZE PUSH1 0x0 DUP3 RETURNDATACOPY RETURNDATASIZE PUSH1 0x1F NOT PUSH1 0x1F DUP3 ADD AND DUP3 ADD DUP1 PUSH1 0x40 MSTORE POP DUP2 ADD SWAP1 PUSH2 0x189A SWAP2 SWAP1 PUSH2 0x33CE JUMP JUMPDEST SWAP1 POP SWAP5 SWAP4 POP POP POP POP JUMP JUMPDEST PUSH1 0x0 PUSH2 0x18B1 DUP5 DUP5 DUP5 PUSH2 0x125F JUMP JUMPDEST SWAP1 POP PUSH2 0x18E0 PUSH1 0x6 PUSH1 0x0 SWAP1 SLOAD SWAP1 PUSH2 0x100 EXP SWAP1 DIV PUSH2 0xFFFF AND DUP3 CALLER ADDRESS PUSH1 0x40 MLOAD DUP1 PUSH1 0x20 ADD PUSH1 0x40 MSTORE DUP1 PUSH1 0x0 DUP2 MSTORE POP CALLVALUE PUSH2 0x1C70 JUMP JUMPDEST POP POP POP POP JUMP JUMPDEST PUSH1 0x0 CALLER SWAP1 POP SWAP1 JUMP JUMPDEST PUSH1 0x0 DUP1 PUSH2 0x199A GAS PUSH1 0x96 PUSH4 0x66AD5C8A PUSH1 0xE0 SHL DUP10 DUP10 DUP10 DUP10 PUSH1 0x40 MLOAD PUSH1 0x24 ADD PUSH2 0x1916 SWAP5 SWAP4 SWAP3 SWAP2 SWAP1 PUSH2 0x3417 JUMP JUMPDEST PUSH1 0x40 MLOAD PUSH1 0x20 DUP2 DUP4 SUB SUB DUP2 MSTORE SWAP1 PUSH1 0x40 MSTORE SWAP1 PUSH28 0xFFFFFFFFFFFFFFFFFFFFFFFFFFFFFFFFFFFFFFFFFFFFFFFFFFFFFFFF NOT AND PUSH1 0x20 DUP3 ADD DUP1 MLOAD PUSH28 0xFFFFFFFFFFFFFFFFFFFFFFFFFFFFFFFFFFFFFFFFFFFFFFFFFFFFFFFF DUP4 DUP2 DUP4 AND OR DUP4 MSTORE POP POP POP POP ADDRESS PUSH20 0xFFFFFFFFFFFFFFFFFFFFFFFFFFFFFFFFFFFFFFFF AND PUSH2 0x1E06 SWAP1 SWAP4 SWAP3 SWAP2 SWAP1 PUSH4 0xFFFFFFFF AND JUMP JUMPDEST SWAP2 POP SWAP2 POP DUP2 PUSH2 0x19B1 JUMPI PUSH2 0x19B0 DUP7 DUP7 DUP7 DUP7 DUP6 PUSH2 0x1E9E JUMP JUMPDEST JUMPDEST POP POP POP POP POP POP JUMP JUMPDEST PUSH2 0x19C1 PUSH2 0x18E6 JUMP JUMPDEST PUSH20 0xFFFFFFFFFFFFFFFFFFFFFFFFFFFFFFFFFFFFFFFF AND PUSH2 0x19DF PUSH2 0x105C JUMP JUMPDEST PUSH20 0xFFFFFFFFFFFFFFFFFFFFFFFFFFFFFFFFFFFFFFFF AND EQ PUSH2 0x1A35 JUMPI PUSH1 0x40 MLOAD PUSH32 0x8C379A000000000000000000000000000000000000000000000000000000000 DUP2 MSTORE PUSH1 0x4 ADD PUSH2 0x1A2C SWAP1 PUSH2 0x34B6 JUMP JUMPDEST PUSH1 0x40 MLOAD DUP1 SWAP2 SUB SWAP1 REVERT JUMPDEST JUMP JUMPDEST PUSH1 0x0 PUSH2 0x1A42 DUP5 PUSH2 0x16C7 JUMP JUMPDEST POP POP SWAP1 POP DUP1 PUSH1 0x6 PUSH1 0x2 PUSH2 0x100 EXP DUP2 SLOAD DUP2 PUSH20 0xFFFFFFFFFFFFFFFFFFFFFFFFFFFFFFFFFFFFFFFF MUL NOT AND SWAP1 DUP4 PUSH20 0xFFFFFFFFFFFFFFFFFFFFFFFFFFFFFFFFFFFFFFFF AND MUL OR SWAP1 SSTORE POP POP POP POP POP POP JUMP JUMPDEST PUSH1 0x0 DUP1 PUSH1 0x0 SWAP1 SLOAD SWAP1 PUSH2 0x100 EXP SWAP1 DIV PUSH20 0xFFFFFFFFFFFFFFFFFFFFFFFFFFFFFFFFFFFFFFFF AND SWAP1 POP DUP2 PUSH1 0x0 DUP1 PUSH2 0x100 EXP DUP2 SLOAD DUP2 PUSH20 0xFFFFFFFFFFFFFFFFFFFFFFFFFFFFFFFFFFFFFFFF MUL NOT AND SWAP1 DUP4 PUSH20 0xFFFFFFFFFFFFFFFFFFFFFFFFFFFFFFFFFFFFFFFF AND MUL OR SWAP1 SSTORE POP DUP2 PUSH20 0xFFFFFFFFFFFFFFFFFFFFFFFFFFFFFFFFFFFFFFFF AND DUP2 PUSH20 0xFFFFFFFFFFFFFFFFFFFFFFFFFFFFFFFFFFFFFFFF AND PUSH32 0x8BE0079C531659141344CD1FD0A4F28419497F9722A3DAAFE3B4186F6B6457E0 PUSH1 0x40 MLOAD PUSH1 0x40 MLOAD DUP1 SWAP2 SUB SWAP1 LOG3 POP POP JUMP JUMPDEST PUSH1 0x60 DUP2 PUSH1 0x1F DUP4 PUSH2 0x1B62 SWAP2 SWAP1 PUSH2 0x34D6 JUMP JUMPDEST LT ISZERO PUSH2 0x1BA3 JUMPI PUSH1 0x40 MLOAD PUSH32 0x8C379A000000000000000000000000000000000000000000000000000000000 DUP2 MSTORE PUSH1 0x4 ADD PUSH2 0x1B9A SWAP1 PUSH2 0x3578 JUMP JUMPDEST PUSH1 0x40 MLOAD DUP1 SWAP2 SUB SWAP1 REVERT JUMPDEST DUP2 DUP4 PUSH2 0x1BAF SWAP2 SWAP1 PUSH2 0x34D6 JUMP JUMPDEST DUP5 MLOAD LT ISZERO PUSH2 0x1BF2 JUMPI PUSH1 0x40 MLOAD PUSH32 0x8C379A000000000000000000000000000000000000000000000000000000000 DUP2 MSTORE PUSH1 0x4 ADD PUSH2 0x1BE9 SWAP1 PUSH2 0x35E4 JUMP JUMPDEST PUSH1 0x40 MLOAD DUP1 SWAP2 SUB SWAP1 REVERT JUMPDEST PUSH1 0x60 DUP3 ISZERO PUSH1 0x0 DUP2 EQ PUSH2 0x1C13 JUMPI PUSH1 0x40 MLOAD SWAP2 POP PUSH1 0x0 DUP3 MSTORE PUSH1 0x20 DUP3 ADD PUSH1 0x40 MSTORE PUSH2 0x1C64 JUMP JUMPDEST PUSH1 0x40 MLOAD SWAP2 POP PUSH1 0x1F DUP5 AND DUP1 ISZERO PUSH1 0x20 MUL DUP2 DUP5 ADD ADD DUP6 DUP2 ADD DUP8 DUP4 ISZERO PUSH1 0x20 MUL DUP5 DUP12 ADD ADD ADD JUMPDEST DUP2 DUP4 LT ISZERO PUSH2 0x1C51 JUMPI DUP1 MLOAD DUP4 MSTORE PUSH1 0x20 DUP4 ADD SWAP3 POP PUSH1 0x20 DUP2 ADD SWAP1 POP PUSH2 0x1C34 JUMP JUMPDEST POP DUP7 DUP6 MSTORE PUSH1 0x1F NOT PUSH1 0x1F DUP4 ADD AND PUSH1 0x40 MSTORE POP POP POP JUMPDEST POP DUP1 SWAP2 POP POP SWAP4 SWAP3 POP POP POP JUMP JUMPDEST PUSH1 0x0 PUSH1 0x1 PUSH1 0x0 DUP9 PUSH2 0xFFFF AND PUSH2 0xFFFF AND DUP2 MSTORE PUSH1 0x20 ADD SWAP1 DUP2 MSTORE PUSH1 0x20 ADD PUSH1 0x0 KECCAK256 DUP1 SLOAD PUSH2 0x1C98 SWAP1 PUSH2 0x2BCC JUMP JUMPDEST DUP1 PUSH1 0x1F ADD PUSH1 0x20 DUP1 SWAP2 DIV MUL PUSH1 0x20 ADD PUSH1 0x40 MLOAD SWAP1 DUP2 ADD PUSH1 0x40 MSTORE DUP1 SWAP3 SWAP2 SWAP1 DUP2 DUP2 MSTORE PUSH1 0x20 ADD DUP3 DUP1 SLOAD PUSH2 0x1CC4 SWAP1 PUSH2 0x2BCC JUMP JUMPDEST DUP1 ISZERO PUSH2 0x1D11 JUMPI DUP1 PUSH1 0x1F LT PUSH2 0x1CE6 JUMPI PUSH2 0x100 DUP1 DUP4 SLOAD DIV MUL DUP4 MSTORE SWAP2 PUSH1 0x20 ADD SWAP2 PUSH2 0x1D11 JUMP JUMPDEST DUP3 ADD SWAP2 SWAP1 PUSH1 0x0 MSTORE PUSH1 0x20 PUSH1 0x0 KECCAK256 SWAP1 JUMPDEST DUP2 SLOAD DUP2 MSTORE SWAP1 PUSH1 0x1 ADD SWAP1 PUSH1 0x20 ADD DUP1 DUP4 GT PUSH2 0x1CF4 JUMPI DUP3 SWAP1 SUB PUSH1 0x1F AND DUP3 ADD SWAP2 JUMPDEST POP POP POP POP POP SWAP1 POP PUSH1 0x0 DUP2 MLOAD SUB PUSH2 0x1D5C JUMPI PUSH1 0x40 MLOAD PUSH32 0x8C379A000000000000000000000000000000000000000000000000000000000 DUP2 MSTORE PUSH1 0x4 ADD PUSH2 0x1D53 SWAP1 PUSH2 0x3676 JUMP JUMPDEST PUSH1 0x40 MLOAD DUP1 SWAP2 SUB SWAP1 REVERT JUMPDEST PUSH2 0x1D67 DUP8 DUP8 MLOAD PUSH2 0x1F4C JUMP JUMPDEST PUSH32 0x0 PUSH20 0xFFFFFFFFFFFFFFFFFFFFFFFFFFFFFFFFFFFFFFFF AND PUSH4 0xC5803100 DUP4 DUP10 DUP5 DUP11 DUP11 DUP11 DUP11 PUSH1 0x40 MLOAD DUP9 PUSH4 0xFFFFFFFF AND PUSH1 0xE0 SHL DUP2 MSTORE PUSH1 0x4 ADD PUSH2 0x1DCB SWAP7 SWAP6 SWAP5 SWAP4 SWAP3 SWAP2 SWAP1 PUSH2 0x36A5 JUMP JUMPDEST PUSH1 0x0 PUSH1 0x40 MLOAD DUP1 DUP4 SUB DUP2 DUP6 DUP9 DUP1 EXTCODESIZE ISZERO DUP1 ISZERO PUSH2 0x1DE4 JUMPI PUSH1 0x0 DUP1 REVERT JUMPDEST POP GAS CALL ISZERO DUP1 ISZERO PUSH2 0x1DF8 JUMPI RETURNDATASIZE PUSH1 0x0 DUP1 RETURNDATACOPY RETURNDATASIZE PUSH1 0x0 REVERT JUMPDEST POP POP POP POP POP POP POP POP POP POP POP POP JUMP JUMPDEST PUSH1 0x0 PUSH1 0x60 PUSH1 0x0 DUP1 PUSH1 0x0 DUP7 PUSH2 0xFFFF AND PUSH8 0xFFFFFFFFFFFFFFFF DUP2 GT ISZERO PUSH2 0x1E2D JUMPI PUSH2 0x1E2C PUSH2 0x2524 JUMP JUMPDEST JUMPDEST PUSH1 0x40 MLOAD SWAP1 DUP1 DUP3 MSTORE DUP1 PUSH1 0x1F ADD PUSH1 0x1F NOT AND PUSH1 0x20 ADD DUP3 ADD PUSH1 0x40 MSTORE DUP1 ISZERO PUSH2 0x1E5F JUMPI DUP2 PUSH1 0x20 ADD PUSH1 0x1 DUP3 MUL DUP1 CALLDATASIZE DUP4 CALLDATACOPY DUP1 DUP3 ADD SWAP2 POP POP SWAP1 POP JUMPDEST POP SWAP1 POP PUSH1 0x0 DUP1 DUP8 MLOAD PUSH1 0x20 DUP10 ADD PUSH1 0x0 DUP14 DUP14 CALL SWAP2 POP RETURNDATASIZE SWAP3 POP DUP7 DUP4 GT ISZERO PUSH2 0x1E81 JUMPI DUP7 SWAP3 POP JUMPDEST DUP3 DUP2 MSTORE DUP3 PUSH1 0x0 PUSH1 0x20 DUP4 ADD RETURNDATACOPY DUP2 DUP2 SWAP5 POP SWAP5 POP POP POP POP SWAP5 POP SWAP5 SWAP3 POP POP POP JUMP JUMPDEST DUP2 DUP1 MLOAD SWAP1 PUSH1 0x20 ADD KECCAK256 PUSH1 0x5 PUSH1 0x0 DUP8 PUSH2 0xFFFF AND PUSH2 0xFFFF AND DUP2 MSTORE PUSH1 0x20 ADD SWAP1 DUP2 MSTORE PUSH1 0x20 ADD PUSH1 0x0 KECCAK256 DUP6 PUSH1 0x40 MLOAD PUSH2 0x1ECF SWAP2 SWAP1 PUSH2 0x374C JUMP JUMPDEST SWAP1 DUP2 MSTORE PUSH1 0x20 ADD PUSH1 0x40 MLOAD DUP1 SWAP2 SUB SWAP1 KECCAK256 PUSH1 0x0 DUP6 PUSH8 0xFFFFFFFFFFFFFFFF AND PUSH8 0xFFFFFFFFFFFFFFFF AND DUP2 MSTORE PUSH1 0x20 ADD SWAP1 DUP2 MSTORE PUSH1 0x20 ADD PUSH1 0x0 KECCAK256 DUP2 SWAP1 SSTORE POP PUSH32 0xE183F33DE2837795525B4792CA4CD60535BD77C53B7E7030060BFCF5734D6B0C DUP6 DUP6 DUP6 DUP6 DUP6 PUSH1 0x40 MLOAD PUSH2 0x1F3D SWAP6 SWAP5 SWAP4 SWAP3 SWAP2 SWAP1 PUSH2 0x3763 JUMP JUMPDEST PUSH1 0x40 MLOAD DUP1 SWAP2 SUB SWAP1 LOG1 POP POP POP POP POP JUMP JUMPDEST PUSH1 0x0 PUSH1 0x3 PUSH1 0x0 DUP5 PUSH2 0xFFFF AND PUSH2 0xFFFF AND DUP2 MSTORE PUSH1 0x20 ADD SWAP1 DUP2 MSTORE PUSH1 0x20 ADD PUSH1 0x0 KECCAK256 SLOAD SWAP1 POP PUSH1 0x0 DUP2 SUB PUSH2 0x1F7A JUMPI PUSH2 0x2710 SWAP1 POP JUMPDEST DUP1 DUP3 GT ISZERO PUSH2 0x1FBD JUMPI PUSH1 0x40 MLOAD PUSH32 0x8C379A000000000000000000000000000000000000000000000000000000000 DUP2 MSTORE PUSH1 0x4 ADD PUSH2 0x1FB4 SWAP1 PUSH2 0x3817 JUMP JUMPDEST PUSH1 0x40 MLOAD DUP1 SWAP2 SUB SWAP1 REVERT JUMPDEST POP POP POP JUMP JUMPDEST DUP3 DUP1 SLOAD PUSH2 0x1FCE SWAP1 PUSH2 0x2BCC JUMP JUMPDEST SWAP1 PUSH1 0x0 MSTORE PUSH1 0x20 PUSH1 0x0 KECCAK256 SWAP1 PUSH1 0x1F ADD PUSH1 0x20 SWAP1 DIV DUP2 ADD SWAP3 DUP3 PUSH2 0x1FF0 JUMPI PUSH1 0x0 DUP6 SSTORE PUSH2 0x2037 JUMP JUMPDEST DUP3 PUSH1 0x1F LT PUSH2 0x2009 JUMPI DUP1 MLOAD PUSH1 0xFF NOT AND DUP4 DUP1 ADD OR DUP6 SSTORE PUSH2 0x2037 JUMP JUMPDEST DUP3 DUP1 ADD PUSH1 0x1 ADD DUP6 SSTORE DUP3 ISZERO PUSH2 0x2037 JUMPI SWAP2 DUP3 ADD JUMPDEST DUP3 DUP2 GT ISZERO PUSH2 0x2036 JUMPI DUP3 MLOAD DUP3 SSTORE SWAP2 PUSH1 0x20 ADD SWAP2 SWAP1 PUSH1 0x1 ADD SWAP1 PUSH2 0x201B JUMP JUMPDEST JUMPDEST POP SWAP1 POP PUSH2 0x2044 SWAP2 SWAP1 PUSH2 0x20CE JUMP JUMPDEST POP SWAP1 JUMP JUMPDEST DUP3 DUP1 SLOAD PUSH2 0x2054 SWAP1 PUSH2 0x2BCC JUMP JUMPDEST SWAP1 PUSH1 0x0 MSTORE PUSH1 0x20 PUSH1 0x0 KECCAK256 SWAP1 PUSH1 0x1F ADD PUSH1 0x20 SWAP1 DIV DUP2 ADD SWAP3 DUP3 PUSH2 0x2076 JUMPI PUSH1 0x0 DUP6 SSTORE PUSH2 0x20BD JUMP JUMPDEST DUP3 PUSH1 0x1F LT PUSH2 0x208F JUMPI DUP1 CALLDATALOAD PUSH1 0xFF NOT AND DUP4 DUP1 ADD OR DUP6 SSTORE PUSH2 0x20BD JUMP JUMPDEST DUP3 DUP1 ADD PUSH1 0x1 ADD DUP6 SSTORE DUP3 ISZERO PUSH2 0x20BD JUMPI SWAP2 DUP3 ADD JUMPDEST DUP3 DUP2 GT ISZERO PUSH2 0x20BC JUMPI DUP3 CALLDATALOAD DUP3 SSTORE SWAP2 PUSH1 0x20 ADD SWAP2 SWAP1 PUSH1 0x1 ADD SWAP1 PUSH2 0x20A1 JUMP JUMPDEST JUMPDEST POP SWAP1 POP PUSH2 0x20CA SWAP2 SWAP1 PUSH2 0x20CE JUMP JUMPDEST POP SWAP1 JUMP JUMPDEST JUMPDEST DUP1 DUP3 GT ISZERO PUSH2 0x20E7 JUMPI PUSH1 0x0 DUP2 PUSH1 0x0 SWAP1 SSTORE POP PUSH1 0x1 ADD PUSH2 0x20CF JUMP JUMPDEST POP SWAP1 JUMP JUMPDEST PUSH1 0x0 PUSH1 0x40 MLOAD SWAP1 POP SWAP1 JUMP JUMPDEST PUSH1 0x0 DUP1 REVERT JUMPDEST PUSH1 0x0 DUP1 REVERT JUMPDEST PUSH1 0x0 PUSH2 0xFFFF DUP3 AND SWAP1 POP SWAP2 SWAP1 POP JUMP JUMPDEST PUSH2 0x2116 DUP2 PUSH2 0x20FF JUMP JUMPDEST DUP2 EQ PUSH2 0x2121 JUMPI PUSH1 0x0 DUP1 REVERT JUMPDEST POP JUMP JUMPDEST PUSH1 0x0 DUP2 CALLDATALOAD SWAP1 POP PUSH2 0x2133 DUP2 PUSH2 0x210D JUMP JUMPDEST SWAP3 SWAP2 POP POP JUMP JUMPDEST PUSH1 0x0 DUP1 REVERT JUMPDEST PUSH1 0x0 DUP1 REVERT JUMPDEST PUSH1 0x0 DUP1 REVERT JUMPDEST PUSH1 0x0 DUP1 DUP4 PUSH1 0x1F DUP5 ADD SLT PUSH2 0x215E JUMPI PUSH2 0x215D PUSH2 0x2139 JUMP JUMPDEST JUMPDEST DUP3 CALLDATALOAD SWAP1 POP PUSH8 0xFFFFFFFFFFFFFFFF DUP2 GT ISZERO PUSH2 0x217B JUMPI PUSH2 0x217A PUSH2 0x213E JUMP JUMPDEST JUMPDEST PUSH1 0x20 DUP4 ADD SWAP2 POP DUP4 PUSH1 0x1 DUP3 MUL DUP4 ADD GT ISZERO PUSH2 0x2197 JUMPI PUSH2 0x2196 PUSH2 0x2143 JUMP JUMPDEST JUMPDEST SWAP3 POP SWAP3 SWAP1 POP JUMP JUMPDEST PUSH1 0x0 PUSH8 0xFFFFFFFFFFFFFFFF DUP3 AND SWAP1 POP SWAP2 SWAP1 POP JUMP JUMPDEST PUSH2 0x21BB DUP2 PUSH2 0x219E JUMP JUMPDEST DUP2 EQ PUSH2 0x21C6 JUMPI PUSH1 0x0 DUP1 REVERT JUMPDEST POP JUMP JUMPDEST PUSH1 0x0 DUP2 CALLDATALOAD SWAP1 POP PUSH2 0x21D8 DUP2 PUSH2 0x21B2 JUMP JUMPDEST SWAP3 SWAP2 POP POP JUMP JUMPDEST PUSH1 0x0 DUP1 PUSH1 0x0 DUP1 PUSH1 0x0 DUP1 PUSH1 0x80 DUP8 DUP10 SUB SLT ISZERO PUSH2 0x21FB JUMPI PUSH2 0x21FA PUSH2 0x20F5 JUMP JUMPDEST JUMPDEST PUSH1 0x0 PUSH2 0x2209 DUP10 DUP3 DUP11 ADD PUSH2 0x2124 JUMP JUMPDEST SWAP7 POP POP PUSH1 0x20 DUP8 ADD CALLDATALOAD PUSH8 0xFFFFFFFFFFFFFFFF DUP2 GT ISZERO PUSH2 0x222A JUMPI PUSH2 0x2229 PUSH2 0x20FA JUMP JUMPDEST JUMPDEST PUSH2 0x2236 DUP10 DUP3 DUP11 ADD PUSH2 0x2148 JUMP JUMPDEST SWAP6 POP SWAP6 POP POP PUSH1 0x40 PUSH2 0x2249 DUP10 DUP3 DUP11 ADD PUSH2 0x21C9 JUMP JUMPDEST SWAP4 POP POP PUSH1 0x60 DUP8 ADD CALLDATALOAD PUSH8 0xFFFFFFFFFFFFFFFF DUP2 GT ISZERO PUSH2 0x226A JUMPI PUSH2 0x2269 PUSH2 0x20FA JUMP JUMPDEST JUMPDEST PUSH2 0x2276 DUP10 DUP3 DUP11 ADD PUSH2 0x2148 JUMP JUMPDEST SWAP3 POP SWAP3 POP POP SWAP3 SWAP6 POP SWAP3 SWAP6 POP SWAP3 SWAP6 JUMP JUMPDEST PUSH1 0x0 PUSH1 0x20 DUP3 DUP5 SUB SLT ISZERO PUSH2 0x229B JUMPI PUSH2 0x229A PUSH2 0x20F5 JUMP JUMPDEST JUMPDEST PUSH1 0x0 PUSH2 0x22A9 DUP5 DUP3 DUP6 ADD PUSH2 0x2124 JUMP JUMPDEST SWAP2 POP POP SWAP3 SWAP2 POP POP JUMP JUMPDEST PUSH1 0x0 DUP2 ISZERO ISZERO SWAP1 POP SWAP2 SWAP1 POP JUMP JUMPDEST PUSH2 0x22C7 DUP2 PUSH2 0x22B2 JUMP JUMPDEST DUP2 EQ PUSH2 0x22D2 JUMPI PUSH1 0x0 DUP1 REVERT JUMPDEST POP JUMP JUMPDEST PUSH1 0x0 DUP2 CALLDATALOAD SWAP1 POP PUSH2 0x22E4 DUP2 PUSH2 0x22BE JUMP JUMPDEST SWAP3 SWAP2 POP POP JUMP JUMPDEST PUSH1 0x0 DUP1 PUSH1 0x0 DUP1 PUSH1 0x0 DUP1 PUSH1 0x80 DUP8 DUP10 SUB SLT ISZERO PUSH2 0x2307 JUMPI PUSH2 0x2306 PUSH2 0x20F5 JUMP JUMPDEST JUMPDEST PUSH1 0x0 PUSH2 0x2315 DUP10 DUP3 DUP11 ADD PUSH2 0x2124 JUMP JUMPDEST SWAP7 POP POP PUSH1 0x20 PUSH2 0x2326 DUP10 DUP3 DUP11 ADD PUSH2 0x22D5 JUMP JUMPDEST SWAP6 POP POP PUSH1 0x40 DUP8 ADD CALLDATALOAD PUSH8 0xFFFFFFFFFFFFFFFF DUP2 GT ISZERO PUSH2 0x2347 JUMPI PUSH2 0x2346 PUSH2 0x20FA JUMP JUMPDEST JUMPDEST PUSH2 0x2353 DUP10 DUP3 DUP11 ADD PUSH2 0x2148 JUMP JUMPDEST SWAP5 POP SWAP5 POP POP PUSH1 0x60 DUP8 ADD CALLDATALOAD PUSH8 0xFFFFFFFFFFFFFFFF DUP2 GT ISZERO PUSH2 0x2376 JUMPI PUSH2 0x2375 PUSH2 0x20FA JUMP JUMPDEST JUMPDEST PUSH2 0x2382 DUP10 DUP3 DUP11 ADD PUSH2 0x2148 JUMP JUMPDEST SWAP3 POP SWAP3 POP POP SWAP3 SWAP6 POP SWAP3 SWAP6 POP SWAP3 SWAP6 JUMP JUMPDEST PUSH1 0x0 DUP2 SWAP1 POP SWAP2 SWAP1 POP JUMP JUMPDEST PUSH2 0x23A4 DUP2 PUSH2 0x2391 JUMP JUMPDEST DUP3 MSTORE POP POP JUMP JUMPDEST PUSH1 0x0 PUSH1 0x40 DUP3 ADD SWAP1 POP PUSH2 0x23BF PUSH1 0x0 DUP4 ADD DUP6 PUSH2 0x239B JUMP JUMPDEST PUSH2 0x23CC PUSH1 0x20 DUP4 ADD DUP5 PUSH2 0x239B JUMP JUMPDEST SWAP4 SWAP3 POP POP POP JUMP JUMPDEST PUSH2 0x23DC DUP2 PUSH2 0x2391 JUMP JUMPDEST DUP2 EQ PUSH2 0x23E7 JUMPI PUSH1 0x0 DUP1 REVERT JUMPDEST POP JUMP JUMPDEST PUSH1 0x0 DUP2 CALLDATALOAD SWAP1 POP PUSH2 0x23F9 DUP2 PUSH2 0x23D3 JUMP JUMPDEST SWAP3 SWAP2 POP POP JUMP JUMPDEST PUSH1 0x0 DUP1 PUSH1 0x40 DUP4 DUP6 SUB SLT ISZERO PUSH2 0x2416 JUMPI PUSH2 0x2415 PUSH2 0x20F5 JUMP JUMPDEST JUMPDEST PUSH1 0x0 PUSH2 0x2424 DUP6 DUP3 DUP7 ADD PUSH2 0x2124 JUMP JUMPDEST SWAP3 POP POP PUSH1 0x20 PUSH2 0x2435 DUP6 DUP3 DUP7 ADD PUSH2 0x23EA JUMP JUMPDEST SWAP2 POP POP SWAP3 POP SWAP3 SWAP1 POP JUMP JUMPDEST PUSH2 0x2448 DUP2 PUSH2 0x20FF JUMP JUMPDEST DUP3 MSTORE POP POP JUMP JUMPDEST PUSH1 0x0 PUSH1 0x20 DUP3 ADD SWAP1 POP PUSH2 0x2463 PUSH1 0x0 DUP4 ADD DUP5 PUSH2 0x243F JUMP JUMPDEST SWAP3 SWAP2 POP POP JUMP JUMPDEST PUSH1 0x0 DUP1 PUSH1 0x0 PUSH1 0x40 DUP5 DUP7 SUB SLT ISZERO PUSH2 0x2482 JUMPI PUSH2 0x2481 PUSH2 0x20F5 JUMP JUMPDEST JUMPDEST PUSH1 0x0 PUSH2 0x2490 DUP7 DUP3 DUP8 ADD PUSH2 0x2124 JUMP JUMPDEST SWAP4 POP POP PUSH1 0x20 DUP5 ADD CALLDATALOAD PUSH8 0xFFFFFFFFFFFFFFFF DUP2 GT ISZERO PUSH2 0x24B1 JUMPI PUSH2 0x24B0 PUSH2 0x20FA JUMP JUMPDEST JUMPDEST PUSH2 0x24BD DUP7 DUP3 DUP8 ADD PUSH2 0x2148 JUMP JUMPDEST SWAP3 POP SWAP3 POP POP SWAP3 POP SWAP3 POP SWAP3 JUMP JUMPDEST PUSH2 0x24D2 DUP2 PUSH2 0x22B2 JUMP JUMPDEST DUP3 MSTORE POP POP JUMP JUMPDEST PUSH1 0x0 PUSH1 0x20 DUP3 ADD SWAP1 POP PUSH2 0x24ED PUSH1 0x0 DUP4 ADD DUP5 PUSH2 0x24C9 JUMP JUMPDEST SWAP3 SWAP2 POP POP JUMP JUMPDEST PUSH1 0x0 PUSH1 0x20 DUP3 ADD SWAP1 POP PUSH2 0x2508 PUSH1 0x0 DUP4 ADD DUP5 PUSH2 0x239B JUMP JUMPDEST SWAP3 SWAP2 POP POP JUMP JUMPDEST PUSH1 0x0 DUP1 REVERT JUMPDEST PUSH1 0x0 PUSH1 0x1F NOT PUSH1 0x1F DUP4 ADD AND SWAP1 POP SWAP2 SWAP1 POP JUMP JUMPDEST PUSH32 0x4E487B7100000000000000000000000000000000000000000000000000000000 PUSH1 0x0 MSTORE PUSH1 0x41 PUSH1 0x4 MSTORE PUSH1 0x24 PUSH1 0x0 REVERT JUMPDEST PUSH2 0x255C DUP3 PUSH2 0x2513 JUMP JUMPDEST DUP2 ADD DUP2 DUP2 LT PUSH8 0xFFFFFFFFFFFFFFFF DUP3 GT OR ISZERO PUSH2 0x257B JUMPI PUSH2 0x257A PUSH2 0x2524 JUMP JUMPDEST JUMPDEST DUP1 PUSH1 0x40 MSTORE POP POP POP JUMP JUMPDEST PUSH1 0x0 PUSH2 0x258E PUSH2 0x20EB JUMP JUMPDEST SWAP1 POP PUSH2 0x259A DUP3 DUP3 PUSH2 0x2553 JUMP JUMPDEST SWAP2 SWAP1 POP JUMP JUMPDEST PUSH1 0x0 PUSH8 0xFFFFFFFFFFFFFFFF DUP3 GT ISZERO PUSH2 0x25BA JUMPI PUSH2 0x25B9 PUSH2 0x2524 JUMP JUMPDEST JUMPDEST PUSH2 0x25C3 DUP3 PUSH2 0x2513 JUMP JUMPDEST SWAP1 POP PUSH1 0x20 DUP2 ADD SWAP1 POP SWAP2 SWAP1 POP JUMP JUMPDEST DUP3 DUP2 DUP4 CALLDATACOPY PUSH1 0x0 DUP4 DUP4 ADD MSTORE POP POP POP JUMP JUMPDEST PUSH1 0x0 PUSH2 0x25F2 PUSH2 0x25ED DUP5 PUSH2 0x259F JUMP JUMPDEST PUSH2 0x2584 JUMP JUMPDEST SWAP1 POP DUP3 DUP2 MSTORE PUSH1 0x20 DUP2 ADD DUP5 DUP5 DUP5 ADD GT ISZERO PUSH2 0x260E JUMPI PUSH2 0x260D PUSH2 0x250E JUMP JUMPDEST JUMPDEST PUSH2 0x2619 DUP5 DUP3 DUP6 PUSH2 0x25D0 JUMP JUMPDEST POP SWAP4 SWAP3 POP POP POP JUMP JUMPDEST PUSH1 0x0 DUP3 PUSH1 0x1F DUP4 ADD SLT PUSH2 0x2636 JUMPI PUSH2 0x2635 PUSH2 0x2139 JUMP JUMPDEST JUMPDEST DUP2 CALLDATALOAD PUSH2 0x2646 DUP5 DUP3 PUSH1 0x20 DUP7 ADD PUSH2 0x25DF JUMP JUMPDEST SWAP2 POP POP SWAP3 SWAP2 POP POP JUMP JUMPDEST PUSH1 0x0 DUP1 PUSH1 0x0 PUSH1 0x60 DUP5 DUP7 SUB SLT ISZERO PUSH2 0x2668 JUMPI PUSH2 0x2667 PUSH2 0x20F5 JUMP JUMPDEST JUMPDEST PUSH1 0x0 PUSH2 0x2676 DUP7 DUP3 DUP8 ADD PUSH2 0x2124 JUMP JUMPDEST SWAP4 POP POP PUSH1 0x20 DUP5 ADD CALLDATALOAD PUSH8 0xFFFFFFFFFFFFFFFF DUP2 GT ISZERO PUSH2 0x2697 JUMPI PUSH2 0x2696 PUSH2 0x20FA JUMP JUMPDEST JUMPDEST PUSH2 0x26A3 DUP7 DUP3 DUP8 ADD PUSH2 0x2621 JUMP JUMPDEST SWAP3 POP POP PUSH1 0x40 PUSH2 0x26B4 DUP7 DUP3 DUP8 ADD PUSH2 0x21C9 JUMP JUMPDEST SWAP2 POP POP SWAP3 POP SWAP3 POP SWAP3 JUMP JUMPDEST PUSH1 0x0 DUP2 SWAP1 POP SWAP2 SWAP1 POP JUMP JUMPDEST PUSH2 0x26D1 DUP2 PUSH2 0x26BE JUMP JUMPDEST DUP3 MSTORE POP POP JUMP JUMPDEST PUSH1 0x0 PUSH1 0x20 DUP3 ADD SWAP1 POP PUSH2 0x26EC PUSH1 0x0 DUP4 ADD DUP5 PUSH2 0x26C8 JUMP JUMPDEST SWAP3 SWAP2 POP POP JUMP JUMPDEST PUSH1 0x0 PUSH20 0xFFFFFFFFFFFFFFFFFFFFFFFFFFFFFFFFFFFFFFFF DUP3 AND SWAP1 POP SWAP2 SWAP1 POP JUMP JUMPDEST PUSH1 0x0 PUSH2 0x271D DUP3 PUSH2 0x26F2 JUMP JUMPDEST SWAP1 POP SWAP2 SWAP1 POP JUMP JUMPDEST PUSH2 0x272D DUP2 PUSH2 0x2712 JUMP JUMPDEST DUP2 EQ PUSH2 0x2738 JUMPI PUSH1 0x0 DUP1 REVERT JUMPDEST POP JUMP JUMPDEST PUSH1 0x0 DUP2 CALLDATALOAD SWAP1 POP PUSH2 0x274A DUP2 PUSH2 0x2724 JUMP JUMPDEST SWAP3 SWAP2 POP POP JUMP JUMPDEST PUSH1 0x0 PUSH1 0x20 DUP3 DUP5 SUB SLT ISZERO PUSH2 0x2766 JUMPI PUSH2 0x2765 PUSH2 0x20F5 JUMP JUMPDEST JUMPDEST PUSH1 0x0 PUSH2 0x2774 DUP5 DUP3 DUP6 ADD PUSH2 0x273B JUMP JUMPDEST SWAP2 POP POP SWAP3 SWAP2 POP POP JUMP JUMPDEST PUSH1 0x0 DUP2 MLOAD SWAP1 POP SWAP2 SWAP1 POP JUMP JUMPDEST PUSH1 0x0 DUP3 DUP3 MSTORE PUSH1 0x20 DUP3 ADD SWAP1 POP SWAP3 SWAP2 POP POP JUMP JUMPDEST PUSH1 0x0 JUMPDEST DUP4 DUP2 LT ISZERO PUSH2 0x27B7 JUMPI DUP1 DUP3 ADD MLOAD DUP2 DUP5 ADD MSTORE PUSH1 0x20 DUP2 ADD SWAP1 POP PUSH2 0x279C JUMP JUMPDEST DUP4 DUP2 GT ISZERO PUSH2 0x27C6 JUMPI PUSH1 0x0 DUP5 DUP5 ADD MSTORE JUMPDEST POP POP POP POP JUMP JUMPDEST PUSH1 0x0 PUSH2 0x27D7 DUP3 PUSH2 0x277D JUMP JUMPDEST PUSH2 0x27E1 DUP2 DUP6 PUSH2 0x2788 JUMP JUMPDEST SWAP4 POP PUSH2 0x27F1 DUP2 DUP6 PUSH1 0x20 DUP7 ADD PUSH2 0x2799 JUMP JUMPDEST PUSH2 0x27FA DUP2 PUSH2 0x2513 JUMP JUMPDEST DUP5 ADD SWAP2 POP POP SWAP3 SWAP2 POP POP JUMP JUMPDEST PUSH1 0x0 PUSH1 0x20 DUP3 ADD SWAP1 POP DUP2 DUP2 SUB PUSH1 0x0 DUP4 ADD MSTORE PUSH2 0x281F DUP2 DUP5 PUSH2 0x27CC JUMP JUMPDEST SWAP1 POP SWAP3 SWAP2 POP POP JUMP JUMPDEST PUSH1 0x0 DUP1 PUSH1 0x40 DUP4 DUP6 SUB SLT ISZERO PUSH2 0x283E JUMPI PUSH2 0x283D PUSH2 0x20F5 JUMP JUMPDEST JUMPDEST PUSH1 0x0 PUSH2 0x284C DUP6 DUP3 DUP7 ADD PUSH2 0x2124 JUMP JUMPDEST SWAP3 POP POP PUSH1 0x20 PUSH2 0x285D DUP6 DUP3 DUP7 ADD PUSH2 0x2124 JUMP JUMPDEST SWAP2 POP POP SWAP3 POP SWAP3 SWAP1 POP JUMP JUMPDEST PUSH2 0x2870 DUP2 PUSH2 0x2712 JUMP JUMPDEST DUP3 MSTORE POP POP JUMP JUMPDEST PUSH1 0x0 PUSH1 0x20 DUP3 ADD SWAP1 POP PUSH2 0x288B PUSH1 0x0 DUP4 ADD DUP5 PUSH2 0x2867 JUMP JUMPDEST SWAP3 SWAP2 POP POP JUMP JUMPDEST PUSH1 0x0 DUP1 PUSH1 0x0 PUSH1 0x60 DUP5 DUP7 SUB SLT ISZERO PUSH2 0x28AA JUMPI PUSH2 0x28A9 PUSH2 0x20F5 JUMP JUMPDEST JUMPDEST PUSH1 0x0 PUSH2 0x28B8 DUP7 DUP3 DUP8 ADD PUSH2 0x273B JUMP JUMPDEST SWAP4 POP POP PUSH1 0x20 PUSH2 0x28C9 DUP7 DUP3 DUP8 ADD PUSH2 0x273B JUMP JUMPDEST SWAP3 POP POP PUSH1 0x40 PUSH2 0x28DA DUP7 DUP3 DUP8 ADD PUSH2 0x23EA JUMP JUMPDEST SWAP2 POP POP SWAP3 POP SWAP3 POP SWAP3 JUMP JUMPDEST PUSH1 0x0 DUP2 SWAP1 POP SWAP2 SWAP1 POP JUMP JUMPDEST PUSH1 0x0 PUSH2 0x2909 PUSH2 0x2904 PUSH2 0x28FF DUP5 PUSH2 0x26F2 JUMP JUMPDEST PUSH2 0x28E4 JUMP JUMPDEST PUSH2 0x26F2 JUMP JUMPDEST SWAP1 POP SWAP2 SWAP1 POP JUMP JUMPDEST PUSH1 0x0 PUSH2 0x291B DUP3 PUSH2 0x28EE JUMP JUMPDEST SWAP1 POP SWAP2 SWAP1 POP JUMP JUMPDEST PUSH1 0x0 PUSH2 0x292D DUP3 PUSH2 0x2910 JUMP JUMPDEST SWAP1 POP SWAP2 SWAP1 POP JUMP JUMPDEST PUSH2 0x293D DUP2 PUSH2 0x2922 JUMP JUMPDEST DUP3 MSTORE POP POP JUMP JUMPDEST PUSH1 0x0 PUSH1 0x20 DUP3 ADD SWAP1 POP PUSH2 0x2958 PUSH1 0x0 DUP4 ADD DUP5 PUSH2 0x2934 JUMP JUMPDEST SWAP3 SWAP2 POP POP JUMP JUMPDEST PUSH1 0x0 DUP1 PUSH1 0x0 DUP1 PUSH1 0x0 PUSH1 0x80 DUP7 DUP9 SUB SLT ISZERO PUSH2 0x297A JUMPI PUSH2 0x2979 PUSH2 0x20F5 JUMP JUMPDEST JUMPDEST PUSH1 0x0 PUSH2 0x2988 DUP9 DUP3 DUP10 ADD PUSH2 0x2124 JUMP JUMPDEST SWAP6 POP POP PUSH1 0x20 PUSH2 0x2999 DUP9 DUP3 DUP10 ADD PUSH2 0x2124 JUMP JUMPDEST SWAP5 POP POP PUSH1 0x40 PUSH2 0x29AA DUP9 DUP3 DUP10 ADD PUSH2 0x23EA JUMP JUMPDEST SWAP4 POP POP PUSH1 0x60 DUP7 ADD CALLDATALOAD PUSH8 0xFFFFFFFFFFFFFFFF DUP2 GT ISZERO PUSH2 0x29CB JUMPI PUSH2 0x29CA PUSH2 0x20FA JUMP JUMPDEST JUMPDEST PUSH2 0x29D7 DUP9 DUP3 DUP10 ADD PUSH2 0x2148 JUMP JUMPDEST SWAP3 POP SWAP3 POP POP SWAP3 SWAP6 POP SWAP3 SWAP6 SWAP1 SWAP4 POP JUMP JUMPDEST PUSH1 0x0 DUP1 PUSH1 0x0 PUSH1 0x60 DUP5 DUP7 SUB SLT ISZERO PUSH2 0x29FF JUMPI PUSH2 0x29FE PUSH2 0x20F5 JUMP JUMPDEST JUMPDEST PUSH1 0x0 PUSH2 0x2A0D DUP7 DUP3 DUP8 ADD PUSH2 0x2124 JUMP JUMPDEST SWAP4 POP POP PUSH1 0x20 PUSH2 0x2A1E DUP7 DUP3 DUP8 ADD PUSH2 0x2124 JUMP JUMPDEST SWAP3 POP POP PUSH1 0x40 PUSH2 0x2A2F DUP7 DUP3 DUP8 ADD PUSH2 0x23EA JUMP JUMPDEST SWAP2 POP POP SWAP3 POP SWAP3 POP SWAP3 JUMP JUMPDEST PUSH1 0x0 PUSH1 0x20 DUP3 DUP5 SUB SLT ISZERO PUSH2 0x2A4F JUMPI PUSH2 0x2A4E PUSH2 0x20F5 JUMP JUMPDEST JUMPDEST PUSH1 0x0 DUP3 ADD CALLDATALOAD PUSH8 0xFFFFFFFFFFFFFFFF DUP2 GT ISZERO PUSH2 0x2A6D JUMPI PUSH2 0x2A6C PUSH2 0x20FA JUMP JUMPDEST JUMPDEST PUSH2 0x2A79 DUP5 DUP3 DUP6 ADD PUSH2 0x2621 JUMP JUMPDEST SWAP2 POP POP SWAP3 SWAP2 POP POP JUMP JUMPDEST PUSH1 0x0 PUSH1 0x60 DUP3 ADD SWAP1 POP PUSH2 0x2A97 PUSH1 0x0 DUP4 ADD DUP7 PUSH2 0x2867 JUMP JUMPDEST PUSH2 0x2AA4 PUSH1 0x20 DUP4 ADD DUP6 PUSH2 0x2867 JUMP JUMPDEST PUSH2 0x2AB1 PUSH1 0x40 DUP4 ADD DUP5 PUSH2 0x239B JUMP JUMPDEST SWAP5 SWAP4 POP POP POP POP JUMP JUMPDEST PUSH1 0x0 DUP1 PUSH1 0x0 DUP1 PUSH1 0x80 DUP6 DUP8 SUB SLT ISZERO PUSH2 0x2AD3 JUMPI PUSH2 0x2AD2 PUSH2 0x20F5 JUMP JUMPDEST JUMPDEST PUSH1 0x0 PUSH2 0x2AE1 DUP8 DUP3 DUP9 ADD PUSH2 0x2124 JUMP JUMPDEST SWAP5 POP POP PUSH1 0x20 PUSH2 0x2AF2 DUP8 DUP3 DUP9 ADD PUSH2 0x2124 JUMP JUMPDEST SWAP4 POP POP PUSH1 0x40 PUSH2 0x2B03 DUP8 DUP3 DUP9 ADD PUSH2 0x273B JUMP JUMPDEST SWAP3 POP POP PUSH1 0x60 PUSH2 0x2B14 DUP8 DUP3 DUP9 ADD PUSH2 0x23EA JUMP JUMPDEST SWAP2 POP POP SWAP3 SWAP6 SWAP2 SWAP5 POP SWAP3 POP JUMP JUMPDEST PUSH1 0x0 DUP3 DUP3 MSTORE PUSH1 0x20 DUP3 ADD SWAP1 POP SWAP3 SWAP2 POP POP JUMP JUMPDEST PUSH32 0x4C7A4170703A20696E76616C696420656E64706F696E742063616C6C65720000 PUSH1 0x0 DUP3 ADD MSTORE POP JUMP JUMPDEST PUSH1 0x0 PUSH2 0x2B67 PUSH1 0x1E DUP4 PUSH2 0x2B20 JUMP JUMPDEST SWAP2 POP PUSH2 0x2B72 DUP3 PUSH2 0x2B31 JUMP JUMPDEST PUSH1 0x20 DUP3 ADD SWAP1 POP SWAP2 SWAP1 POP JUMP JUMPDEST PUSH1 0x0 PUSH1 0x20 DUP3 ADD SWAP1 POP DUP2 DUP2 SUB PUSH1 0x0 DUP4 ADD MSTORE PUSH2 0x2B96 DUP2 PUSH2 0x2B5A JUMP JUMPDEST SWAP1 POP SWAP2 SWAP1 POP JUMP JUMPDEST PUSH32 0x4E487B7100000000000000000000000000000000000000000000000000000000 PUSH1 0x0 MSTORE PUSH1 0x22 PUSH1 0x4 MSTORE PUSH1 0x24 PUSH1 0x0 REVERT JUMPDEST PUSH1 0x0 PUSH1 0x2 DUP3 DIV SWAP1 POP PUSH1 0x1 DUP3 AND DUP1 PUSH2 0x2BE4 JUMPI PUSH1 0x7F DUP3 AND SWAP2 POP JUMPDEST PUSH1 0x20 DUP3 LT DUP2 SUB PUSH2 0x2BF7 JUMPI PUSH2 0x2BF6 PUSH2 0x2B9D JUMP JUMPDEST JUMPDEST POP SWAP2 SWAP1 POP JUMP JUMPDEST PUSH1 0x0 DUP2 SWAP1 POP SWAP3 SWAP2 POP POP JUMP JUMPDEST PUSH1 0x0 PUSH2 0x2C14 DUP4 DUP6 PUSH2 0x2BFD JUMP JUMPDEST SWAP4 POP PUSH2 0x2C21 DUP4 DUP6 DUP5 PUSH2 0x25D0 JUMP JUMPDEST DUP3 DUP5 ADD SWAP1 POP SWAP4 SWAP3 POP POP POP JUMP JUMPDEST PUSH1 0x0 PUSH2 0x2C3A DUP3 DUP5 DUP7 PUSH2 0x2C08 JUMP JUMPDEST SWAP2 POP DUP2 SWAP1 POP SWAP4 SWAP3 POP POP POP JUMP JUMPDEST PUSH32 0x4C7A4170703A20696E76616C696420736F757263652073656E64696E6720636F PUSH1 0x0 DUP3 ADD MSTORE PUSH32 0x6E74726163740000000000000000000000000000000000000000000000000000 PUSH1 0x20 DUP3 ADD MSTORE POP JUMP JUMPDEST PUSH1 0x0 PUSH2 0x2CA2 PUSH1 0x26 DUP4 PUSH2 0x2B20 JUMP JUMPDEST SWAP2 POP PUSH2 0x2CAD DUP3 PUSH2 0x2C46 JUMP JUMPDEST PUSH1 0x40 DUP3 ADD SWAP1 POP SWAP2 SWAP1 POP JUMP JUMPDEST PUSH1 0x0 PUSH1 0x20 DUP3 ADD SWAP1 POP DUP2 DUP2 SUB PUSH1 0x0 DUP4 ADD MSTORE PUSH2 0x2CD1 DUP2 PUSH2 0x2C95 JUMP JUMPDEST SWAP1 POP SWAP2 SWAP1 POP JUMP JUMPDEST PUSH1 0x0 PUSH2 0x2CE4 DUP4 DUP6 PUSH2 0x2788 JUMP JUMPDEST SWAP4 POP PUSH2 0x2CF1 DUP4 DUP6 DUP5 PUSH2 0x25D0 JUMP JUMPDEST PUSH2 0x2CFA DUP4 PUSH2 0x2513 JUMP JUMPDEST DUP5 ADD SWAP1 POP SWAP4 SWAP3 POP POP POP JUMP JUMPDEST PUSH1 0x0 PUSH1 0xA0 DUP3 ADD SWAP1 POP PUSH2 0x2D1A PUSH1 0x0 DUP4 ADD DUP11 PUSH2 0x243F JUMP JUMPDEST PUSH2 0x2D27 PUSH1 0x20 DUP4 ADD DUP10 PUSH2 0x2867 JUMP JUMPDEST DUP2 DUP2 SUB PUSH1 0x40 DUP4 ADD MSTORE PUSH2 0x2D3A DUP2 DUP8 DUP10 PUSH2 0x2CD8 JUMP JUMPDEST SWAP1 POP PUSH2 0x2D49 PUSH1 0x60 DUP4 ADD DUP7 PUSH2 0x24C9 JUMP JUMPDEST DUP2 DUP2 SUB PUSH1 0x80 DUP4 ADD MSTORE PUSH2 0x2D5C DUP2 DUP5 DUP7 PUSH2 0x2CD8 JUMP JUMPDEST SWAP1 POP SWAP9 SWAP8 POP POP POP POP POP POP POP POP JUMP JUMPDEST PUSH1 0x0 DUP2 MLOAD SWAP1 POP PUSH2 0x2D79 DUP2 PUSH2 0x23D3 JUMP JUMPDEST SWAP3 SWAP2 POP POP JUMP JUMPDEST PUSH1 0x0 DUP1 PUSH1 0x40 DUP4 DUP6 SUB SLT ISZERO PUSH2 0x2D96 JUMPI PUSH2 0x2D95 PUSH2 0x20F5 JUMP JUMPDEST JUMPDEST PUSH1 0x0 PUSH2 0x2DA4 DUP6 DUP3 DUP7 ADD PUSH2 0x2D6A JUMP JUMPDEST SWAP3 POP POP PUSH1 0x20 PUSH2 0x2DB5 DUP6 DUP3 DUP7 ADD PUSH2 0x2D6A JUMP JUMPDEST SWAP2 POP POP SWAP3 POP SWAP3 SWAP1 POP JUMP JUMPDEST PUSH1 0x0 PUSH1 0x40 DUP3 ADD SWAP1 POP PUSH2 0x2DD4 PUSH1 0x0 DUP4 ADD DUP7 PUSH2 0x243F JUMP JUMPDEST DUP2 DUP2 SUB PUSH1 0x20 DUP4 ADD MSTORE PUSH2 0x2DE7 DUP2 DUP5 DUP7 PUSH2 0x2CD8 JUMP JUMPDEST SWAP1 POP SWAP5 SWAP4 POP POP POP POP JUMP JUMPDEST PUSH1 0x0 DUP2 PUSH1 0x60 SHL SWAP1 POP SWAP2 SWAP1 POP JUMP JUMPDEST PUSH1 0x0 PUSH2 0x2E09 DUP3 PUSH2 0x2DF1 JUMP JUMPDEST SWAP1 POP SWAP2 SWAP1 POP JUMP JUMPDEST PUSH1 0x0 PUSH2 0x2E1B DUP3 PUSH2 0x2DFE JUMP JUMPDEST SWAP1 POP SWAP2 SWAP1 POP JUMP JUMPDEST PUSH2 0x2E33 PUSH2 0x2E2E DUP3 PUSH2 0x2712 JUMP JUMPDEST PUSH2 0x2E10 JUMP JUMPDEST DUP3 MSTORE POP POP JUMP JUMPDEST PUSH1 0x0 PUSH2 0x2E45 DUP3 DUP6 PUSH2 0x2E22 JUMP JUMPDEST PUSH1 0x14 DUP3 ADD SWAP2 POP PUSH2 0x2E55 DUP3 DUP5 PUSH2 0x2E22 JUMP JUMPDEST PUSH1 0x14 DUP3 ADD SWAP2 POP DUP2 SWAP1 POP SWAP4 SWAP3 POP POP POP JUMP JUMPDEST PUSH32 0x4E6F6E626C6F636B696E674C7A4170703A2063616C6C6572206D757374206265 PUSH1 0x0 DUP3 ADD MSTORE PUSH32 0x204C7A4170700000000000000000000000000000000000000000000000000000 PUSH1 0x20 DUP3 ADD MSTORE POP JUMP JUMPDEST PUSH1 0x0 PUSH2 0x2EC1 PUSH1 0x26 DUP4 PUSH2 0x2B20 JUMP JUMPDEST SWAP2 POP PUSH2 0x2ECC DUP3 PUSH2 0x2E65 JUMP JUMPDEST PUSH1 0x40 DUP3 ADD SWAP1 POP SWAP2 SWAP1 POP JUMP JUMPDEST PUSH1 0x0 PUSH1 0x20 DUP3 ADD SWAP1 POP DUP2 DUP2 SUB PUSH1 0x0 DUP4 ADD MSTORE PUSH2 0x2EF0 DUP2 PUSH2 0x2EB4 JUMP JUMPDEST SWAP1 POP SWAP2 SWAP1 POP JUMP JUMPDEST PUSH32 0x4C7A4170703A206E6F20747275737465642070617468207265636F7264000000 PUSH1 0x0 DUP3 ADD MSTORE POP JUMP JUMPDEST PUSH1 0x0 PUSH2 0x2F2D PUSH1 0x1D DUP4 PUSH2 0x2B20 JUMP JUMPDEST SWAP2 POP PUSH2 0x2F38 DUP3 PUSH2 0x2EF7 JUMP JUMPDEST PUSH1 0x20 DUP3 ADD SWAP1 POP SWAP2 SWAP1 POP JUMP JUMPDEST PUSH1 0x0 PUSH1 0x20 DUP3 ADD SWAP1 POP DUP2 DUP2 SUB PUSH1 0x0 DUP4 ADD MSTORE PUSH2 0x2F5C DUP2 PUSH2 0x2F20 JUMP JUMPDEST SWAP1 POP SWAP2 SWAP1 POP JUMP JUMPDEST PUSH32 0x4E487B7100000000000000000000000000000000000000000000000000000000 PUSH1 0x0 MSTORE PUSH1 0x11 PUSH1 0x4 MSTORE PUSH1 0x24 PUSH1 0x0 REVERT JUMPDEST PUSH1 0x0 PUSH2 0x2F9D DUP3 PUSH2 0x2391 JUMP JUMPDEST SWAP2 POP PUSH2 0x2FA8 DUP4 PUSH2 0x2391 JUMP JUMPDEST SWAP3 POP DUP3 DUP3 LT ISZERO PUSH2 0x2FBB JUMPI PUSH2 0x2FBA PUSH2 0x2F63 JUMP JUMPDEST JUMPDEST DUP3 DUP3 SUB SWAP1 POP SWAP3 SWAP2 POP POP JUMP JUMPDEST PUSH1 0x0 PUSH2 0x2FD3 DUP3 DUP6 DUP8 PUSH2 0x2C08 JUMP JUMPDEST SWAP2 POP PUSH2 0x2FDF DUP3 DUP5 PUSH2 0x2E22 JUMP JUMPDEST PUSH1 0x14 DUP3 ADD SWAP2 POP DUP2 SWAP1 POP SWAP5 SWAP4 POP POP POP POP JUMP JUMPDEST PUSH1 0x0 PUSH1 0x80 DUP3 ADD SWAP1 POP PUSH2 0x3005 PUSH1 0x0 DUP4 ADD DUP9 PUSH2 0x243F JUMP JUMPDEST PUSH2 0x3012 PUSH1 0x20 DUP4 ADD DUP8 PUSH2 0x243F JUMP JUMPDEST PUSH2 0x301F PUSH1 0x40 DUP4 ADD DUP7 PUSH2 0x239B JUMP JUMPDEST DUP2 DUP2 SUB PUSH1 0x60 DUP4 ADD MSTORE PUSH2 0x3032 DUP2 DUP5 DUP7 PUSH2 0x2CD8 JUMP JUMPDEST SWAP1 POP SWAP7 SWAP6 POP POP POP POP POP POP JUMP JUMPDEST PUSH32 0x4E6F6E626C6F636B696E674C7A4170703A206E6F2073746F726564206D657373 PUSH1 0x0 DUP3 ADD MSTORE PUSH32 0x6167650000000000000000000000000000000000000000000000000000000000 PUSH1 0x20 DUP3 ADD MSTORE POP JUMP JUMPDEST PUSH1 0x0 PUSH2 0x309A PUSH1 0x23 DUP4 PUSH2 0x2B20 JUMP JUMPDEST SWAP2 POP PUSH2 0x30A5 DUP3 PUSH2 0x303E JUMP JUMPDEST PUSH1 0x40 DUP3 ADD SWAP1 POP SWAP2 SWAP1 POP JUMP JUMPDEST PUSH1 0x0 PUSH1 0x20 DUP3 ADD SWAP1 POP DUP2 DUP2 SUB PUSH1 0x0 DUP4 ADD MSTORE PUSH2 0x30C9 DUP2 PUSH2 0x308D JUMP JUMPDEST SWAP1 POP SWAP2 SWAP1 POP JUMP JUMPDEST PUSH32 0x4E6F6E626C6F636B696E674C7A4170703A20696E76616C6964207061796C6F61 PUSH1 0x0 DUP3 ADD MSTORE PUSH32 0x6400000000000000000000000000000000000000000000000000000000000000 PUSH1 0x20 DUP3 ADD MSTORE POP JUMP JUMPDEST PUSH1 0x0 PUSH2 0x312C PUSH1 0x21 DUP4 PUSH2 0x2B20 JUMP JUMPDEST SWAP2 POP PUSH2 0x3137 DUP3 PUSH2 0x30D0 JUMP JUMPDEST PUSH1 0x40 DUP3 ADD SWAP1 POP SWAP2 SWAP1 POP JUMP JUMPDEST PUSH1 0x0 PUSH1 0x20 DUP3 ADD SWAP1 POP DUP2 DUP2 SUB PUSH1 0x0 DUP4 ADD MSTORE PUSH2 0x315B DUP2 PUSH2 0x311F JUMP JUMPDEST SWAP1 POP SWAP2 SWAP1 POP JUMP JUMPDEST PUSH2 0x316B DUP2 PUSH2 0x219E JUMP JUMPDEST DUP3 MSTORE POP POP JUMP JUMPDEST PUSH1 0x0 PUSH1 0x80 DUP3 ADD SWAP1 POP PUSH2 0x3186 PUSH1 0x0 DUP4 ADD DUP9 PUSH2 0x243F JUMP JUMPDEST DUP2 DUP2 SUB PUSH1 0x20 DUP4 ADD MSTORE PUSH2 0x3199 DUP2 DUP7 DUP9 PUSH2 0x2CD8 JUMP JUMPDEST SWAP1 POP PUSH2 0x31A8 PUSH1 0x40 DUP4 ADD DUP6 PUSH2 0x3162 JUMP JUMPDEST PUSH2 0x31B5 PUSH1 0x60 DUP4 ADD DUP5 PUSH2 0x26C8 JUMP JUMPDEST SWAP7 SWAP6 POP POP POP POP POP POP JUMP JUMPDEST PUSH1 0x0 PUSH1 0x60 DUP3 ADD SWAP1 POP PUSH2 0x31D4 PUSH1 0x0 DUP4 ADD DUP7 PUSH2 0x243F JUMP JUMPDEST PUSH2 0x31E1 PUSH1 0x20 DUP4 ADD DUP6 PUSH2 0x243F JUMP JUMPDEST PUSH2 0x31EE PUSH1 0x40 DUP4 ADD DUP5 PUSH2 0x239B JUMP JUMPDEST SWAP5 SWAP4 POP POP POP POP JUMP JUMPDEST PUSH1 0x0 PUSH2 0x3201 DUP3 PUSH2 0x26F2 JUMP JUMPDEST SWAP1 POP SWAP2 SWAP1 POP JUMP JUMPDEST PUSH2 0x3211 DUP2 PUSH2 0x31F6 JUMP JUMPDEST DUP2 EQ PUSH2 0x321C JUMPI PUSH1 0x0 DUP1 REVERT JUMPDEST POP JUMP JUMPDEST PUSH1 0x0 DUP2 MLOAD SWAP1 POP PUSH2 0x322E DUP2 PUSH2 0x3208 JUMP JUMPDEST SWAP3 SWAP2 POP POP JUMP JUMPDEST PUSH1 0x0 DUP1 PUSH1 0x0 PUSH1 0x60 DUP5 DUP7 SUB SLT ISZERO PUSH2 0x324D JUMPI PUSH2 0x324C PUSH2 0x20F5 JUMP JUMPDEST JUMPDEST PUSH1 0x0 PUSH2 0x325B DUP7 DUP3 DUP8 ADD PUSH2 0x321F JUMP JUMPDEST SWAP4 POP POP PUSH1 0x20 PUSH2 0x326C DUP7 DUP3 DUP8 ADD PUSH2 0x321F JUMP JUMPDEST SWAP3 POP POP PUSH1 0x40 PUSH2 0x327D DUP7 DUP3 DUP8 ADD PUSH2 0x2D6A JUMP JUMPDEST SWAP2 POP POP SWAP3 POP SWAP3 POP SWAP3 JUMP JUMPDEST PUSH32 0x4F776E61626C653A206E6577206F776E657220697320746865207A65726F2061 PUSH1 0x0 DUP3 ADD MSTORE PUSH32 0x6464726573730000000000000000000000000000000000000000000000000000 PUSH1 0x20 DUP3 ADD MSTORE POP JUMP JUMPDEST PUSH1 0x0 PUSH2 0x32E3 PUSH1 0x26 DUP4 PUSH2 0x2B20 JUMP JUMPDEST SWAP2 POP PUSH2 0x32EE DUP3 PUSH2 0x3287 JUMP JUMPDEST PUSH1 0x40 DUP3 ADD SWAP1 POP SWAP2 SWAP1 POP JUMP JUMPDEST PUSH1 0x0 PUSH1 0x20 DUP3 ADD SWAP1 POP DUP2 DUP2 SUB PUSH1 0x0 DUP4 ADD MSTORE PUSH2 0x3312 DUP2 PUSH2 0x32D6 JUMP JUMPDEST SWAP1 POP SWAP2 SWAP1 POP JUMP JUMPDEST PUSH1 0x0 PUSH1 0x80 DUP3 ADD SWAP1 POP PUSH2 0x332E PUSH1 0x0 DUP4 ADD DUP8 PUSH2 0x243F JUMP JUMPDEST PUSH2 0x333B PUSH1 0x20 DUP4 ADD DUP7 PUSH2 0x243F JUMP JUMPDEST PUSH2 0x3348 PUSH1 0x40 DUP4 ADD DUP6 PUSH2 0x2867 JUMP JUMPDEST PUSH2 0x3355 PUSH1 0x60 DUP4 ADD DUP5 PUSH2 0x239B JUMP JUMPDEST SWAP6 SWAP5 POP POP POP POP POP JUMP JUMPDEST PUSH1 0x0 PUSH2 0x3371 PUSH2 0x336C DUP5 PUSH2 0x259F JUMP JUMPDEST PUSH2 0x2584 JUMP JUMPDEST SWAP1 POP DUP3 DUP2 MSTORE PUSH1 0x20 DUP2 ADD DUP5 DUP5 DUP5 ADD GT ISZERO PUSH2 0x338D JUMPI PUSH2 0x338C PUSH2 0x250E JUMP JUMPDEST JUMPDEST PUSH2 0x3398 DUP5 DUP3 DUP6 PUSH2 0x2799 JUMP JUMPDEST POP SWAP4 SWAP3 POP POP POP JUMP JUMPDEST PUSH1 0x0 DUP3 PUSH1 0x1F DUP4 ADD SLT PUSH2 0x33B5 JUMPI PUSH2 0x33B4 PUSH2 0x2139 JUMP JUMPDEST JUMPDEST DUP2 MLOAD PUSH2 0x33C5 DUP5 DUP3 PUSH1 0x20 DUP7 ADD PUSH2 0x335E JUMP JUMPDEST SWAP2 POP POP SWAP3 SWAP2 POP POP JUMP JUMPDEST PUSH1 0x0 PUSH1 0x20 DUP3 DUP5 SUB SLT ISZERO PUSH2 0x33E4 JUMPI PUSH2 0x33E3 PUSH2 0x20F5 JUMP JUMPDEST JUMPDEST PUSH1 0x0 DUP3 ADD MLOAD PUSH8 0xFFFFFFFFFFFFFFFF DUP2 GT ISZERO PUSH2 0x3402 JUMPI PUSH2 0x3401 PUSH2 0x20FA JUMP JUMPDEST JUMPDEST PUSH2 0x340E DUP5 DUP3 DUP6 ADD PUSH2 0x33A0 JUMP JUMPDEST SWAP2 POP POP SWAP3 SWAP2 POP POP JUMP JUMPDEST PUSH1 0x0 PUSH1 0x80 DUP3 ADD SWAP1 POP PUSH2 0x342C PUSH1 0x0 DUP4 ADD DUP8 PUSH2 0x243F JUMP JUMPDEST DUP2 DUP2 SUB PUSH1 0x20 DUP4 ADD MSTORE PUSH2 0x343E DUP2 DUP7 PUSH2 0x27CC JUMP JUMPDEST SWAP1 POP PUSH2 0x344D PUSH1 0x40 DUP4 ADD DUP6 PUSH2 0x3162 JUMP JUMPDEST DUP2 DUP2 SUB PUSH1 0x60 DUP4 ADD MSTORE PUSH2 0x345F DUP2 DUP5 PUSH2 0x27CC JUMP JUMPDEST SWAP1 POP SWAP6 SWAP5 POP POP POP POP POP JUMP JUMPDEST PUSH32 0x4F776E61626C653A2063616C6C6572206973206E6F7420746865206F776E6572 PUSH1 0x0 DUP3 ADD MSTORE POP JUMP JUMPDEST PUSH1 0x0 PUSH2 0x34A0 PUSH1 0x20 DUP4 PUSH2 0x2B20 JUMP JUMPDEST SWAP2 POP PUSH2 0x34AB DUP3 PUSH2 0x346A JUMP JUMPDEST PUSH1 0x20 DUP3 ADD SWAP1 POP SWAP2 SWAP1 POP JUMP JUMPDEST PUSH1 0x0 PUSH1 0x20 DUP3 ADD SWAP1 POP DUP2 DUP2 SUB PUSH1 0x0 DUP4 ADD MSTORE PUSH2 0x34CF DUP2 PUSH2 0x3493 JUMP JUMPDEST SWAP1 POP SWAP2 SWAP1 POP JUMP JUMPDEST PUSH1 0x0 PUSH2 0x34E1 DUP3 PUSH2 0x2391 JUMP JUMPDEST SWAP2 POP PUSH2 0x34EC DUP4 PUSH2 0x2391 JUMP JUMPDEST SWAP3 POP DUP3 PUSH32 0xFFFFFFFFFFFFFFFFFFFFFFFFFFFFFFFFFFFFFFFFFFFFFFFFFFFFFFFFFFFFFFFF SUB DUP3 GT ISZERO PUSH2 0x3521 JUMPI PUSH2 0x3520 PUSH2 0x2F63 JUMP JUMPDEST JUMPDEST DUP3 DUP3 ADD SWAP1 POP SWAP3 SWAP2 POP POP JUMP JUMPDEST PUSH32 0x736C6963655F6F766572666C6F77000000000000000000000000000000000000 PUSH1 0x0 DUP3 ADD MSTORE POP JUMP JUMPDEST PUSH1 0x0 PUSH2 0x3562 PUSH1 0xE DUP4 PUSH2 0x2B20 JUMP JUMPDEST SWAP2 POP PUSH2 0x356D DUP3 PUSH2 0x352C JUMP JUMPDEST PUSH1 0x20 DUP3 ADD SWAP1 POP SWAP2 SWAP1 POP JUMP JUMPDEST PUSH1 0x0 PUSH1 0x20 DUP3 ADD SWAP1 POP DUP2 DUP2 SUB PUSH1 0x0 DUP4 ADD MSTORE PUSH2 0x3591 DUP2 PUSH2 0x3555 JUMP JUMPDEST SWAP1 POP SWAP2 SWAP1 POP JUMP JUMPDEST PUSH32 0x736C6963655F6F75744F66426F756E6473000000000000000000000000000000 PUSH1 0x0 DUP3 ADD MSTORE POP JUMP JUMPDEST PUSH1 0x0 PUSH2 0x35CE PUSH1 0x11 DUP4 PUSH2 0x2B20 JUMP JUMPDEST SWAP2 POP PUSH2 0x35D9 DUP3 PUSH2 0x3598 JUMP JUMPDEST PUSH1 0x20 DUP3 ADD SWAP1 POP SWAP2 SWAP1 POP JUMP JUMPDEST PUSH1 0x0 PUSH1 0x20 DUP3 ADD SWAP1 POP DUP2 DUP2 SUB PUSH1 0x0 DUP4 ADD MSTORE PUSH2 0x35FD DUP2 PUSH2 0x35C1 JUMP JUMPDEST SWAP1 POP SWAP2 SWAP1 POP JUMP JUMPDEST PUSH32 0x4C7A4170703A2064657374696E6174696F6E20636861696E206973206E6F7420 PUSH1 0x0 DUP3 ADD MSTORE PUSH32 0x61207472757374656420736F7572636500000000000000000000000000000000 PUSH1 0x20 DUP3 ADD MSTORE POP JUMP JUMPDEST PUSH1 0x0 PUSH2 0x3660 PUSH1 0x30 DUP4 PUSH2 0x2B20 JUMP JUMPDEST SWAP2 POP PUSH2 0x366B DUP3 PUSH2 0x3604 JUMP JUMPDEST PUSH1 0x40 DUP3 ADD SWAP1 POP SWAP2 SWAP1 POP JUMP JUMPDEST PUSH1 0x0 PUSH1 0x20 DUP3 ADD SWAP1 POP DUP2 DUP2 SUB PUSH1 0x0 DUP4 ADD MSTORE PUSH2 0x368F DUP2 PUSH2 0x3653 JUMP JUMPDEST SWAP1 POP SWAP2 SWAP1 POP JUMP JUMPDEST PUSH2 0x369F DUP2 PUSH2 0x31F6 JUMP JUMPDEST DUP3 MSTORE POP POP JUMP JUMPDEST PUSH1 0x0 PUSH1 0xC0 DUP3 ADD SWAP1 POP PUSH2 0x36BA PUSH1 0x0 DUP4 ADD DUP10 PUSH2 0x243F JUMP JUMPDEST DUP2 DUP2 SUB PUSH1 0x20 DUP4 ADD MSTORE PUSH2 0x36CC DUP2 DUP9 PUSH2 0x27CC JUMP JUMPDEST SWAP1 POP DUP2 DUP2 SUB PUSH1 0x40 DUP4 ADD MSTORE PUSH2 0x36E0 DUP2 DUP8 PUSH2 0x27CC JUMP JUMPDEST SWAP1 POP PUSH2 0x36EF PUSH1 0x60 DUP4 ADD DUP7 PUSH2 0x3696 JUMP JUMPDEST PUSH2 0x36FC PUSH1 0x80 DUP4 ADD DUP6 PUSH2 0x2867 JUMP JUMPDEST DUP2 DUP2 SUB PUSH1 0xA0 DUP4 ADD MSTORE PUSH2 0x370E DUP2 DUP5 PUSH2 0x27CC JUMP JUMPDEST SWAP1 POP SWAP8 SWAP7 POP POP POP POP POP POP POP JUMP JUMPDEST PUSH1 0x0 PUSH2 0x3726 DUP3 PUSH2 0x277D JUMP JUMPDEST PUSH2 0x3730 DUP2 DUP6 PUSH2 0x2BFD JUMP JUMPDEST SWAP4 POP PUSH2 0x3740 DUP2 DUP6 PUSH1 0x20 DUP7 ADD PUSH2 0x2799 JUMP JUMPDEST DUP1 DUP5 ADD SWAP2 POP POP SWAP3 SWAP2 POP POP JUMP JUMPDEST PUSH1 0x0 PUSH2 0x3758 DUP3 DUP5 PUSH2 0x371B JUMP JUMPDEST SWAP2 POP DUP2 SWAP1 POP SWAP3 SWAP2 POP POP JUMP JUMPDEST PUSH1 0x0 PUSH1 0xA0 DUP3 ADD SWAP1 POP PUSH2 0x3778 PUSH1 0x0 DUP4 ADD DUP9 PUSH2 0x243F JUMP JUMPDEST DUP2 DUP2 SUB PUSH1 0x20 DUP4 ADD MSTORE PUSH2 0x378A DUP2 DUP8 PUSH2 0x27CC JUMP JUMPDEST SWAP1 POP PUSH2 0x3799 PUSH1 0x40 DUP4 ADD DUP7 PUSH2 0x3162 JUMP JUMPDEST DUP2 DUP2 SUB PUSH1 0x60 DUP4 ADD MSTORE PUSH2 0x37AB DUP2 DUP6 PUSH2 0x27CC JUMP JUMPDEST SWAP1 POP DUP2 DUP2 SUB PUSH1 0x80 DUP4 ADD MSTORE PUSH2 0x37BF DUP2 DUP5 PUSH2 0x27CC JUMP JUMPDEST SWAP1 POP SWAP7 SWAP6 POP POP POP POP POP POP JUMP JUMPDEST PUSH32 0x4C7A4170703A207061796C6F61642073697A6520697320746F6F206C61726765 PUSH1 0x0 DUP3 ADD MSTORE POP JUMP JUMPDEST PUSH1 0x0 PUSH2 0x3801 PUSH1 0x20 DUP4 PUSH2 0x2B20 JUMP JUMPDEST SWAP2 POP PUSH2 0x380C DUP3 PUSH2 0x37CB JUMP JUMPDEST PUSH1 0x20 DUP3 ADD SWAP1 POP SWAP2 SWAP1 POP JUMP JUMPDEST PUSH1 0x0 PUSH1 0x20 DUP3 ADD SWAP1 POP DUP2 DUP2 SUB PUSH1 0x0 DUP4 ADD MSTORE PUSH2 0x3830 DUP2 PUSH2 0x37F4 JUMP JUMPDEST SWAP1 POP SWAP2 SWAP1 POP JUMP INVALID LOG2 PUSH5 0x6970667358 0x22 SLT KECCAK256 SWAP9 LOG3 CHAINID KECCAK256 PUSH12 0x5F6980E26D0162B65A8360B SHL BALANCE OR PUSH23 0x8945E2BFB6B9D7A12C7ACC64736F6C634300080D003300 "
		},
		"gasEstimates": {
			"creation": {
				"codeDepositCost": "2889000",
				"executionCost": "infinite",
				"totalCost": "infinite"
			},
			"external": {
				"DEFAULT_PAYLOAD_SIZE_LIMIT()": "418",
				"decode(bytes)": "infinite",
				"dstChainId()": "2539",
				"encode(address,address,uint256)": "infinite",
				"estimateFee(uint16,bool,bytes,bytes)": "infinite",
				"failedMessages(uint16,bytes,uint64)": "infinite",
				"forceResumeReceive(uint16,bytes)": "infinite",
				"getConfig(uint16,uint16,address,uint256)": "infinite",
				"getTrustedRemoteAddress(uint16)": "infinite",
				"isTrustedRemote(uint16,bytes)": "infinite",
				"lzEndpoint()": "infinite",
				"lzReceive(uint16,bytes,uint64,bytes)": "infinite",
				"minDstGasLookup(uint16,uint16)": "infinite",
				"nonblockingLzReceive(uint16,bytes,uint64,bytes)": "infinite",
				"og()": "2631",
				"owner()": "2633",
				"payloadSizeLimitLookup(uint16)": "2883",
				"precrime()": "2560",
				"renounceOwnership()": "30443",
				"retryMessage(uint16,bytes,uint64,bytes)": "infinite",
				"sendDst(address,address,uint256)": "infinite",
				"setConfig(uint16,uint16,uint256,bytes)": "infinite",
				"setMinDstGas(uint16,uint16,uint256)": "infinite",
				"setPayloadSizeLimit(uint16,uint256)": "25166",
				"setPrecrime(address)": "infinite",
				"setReceiveVersion(uint16)": "infinite",
				"setSendVersion(uint16)": "infinite",
				"setTrustedRemote(uint16,bytes)": "infinite",
				"setTrustedRemoteAddress(address)": "infinite",
				"setTrustedRemoteAddress(uint16,bytes)": "infinite",
				"transferOwnership(address)": "30810",
				"trustedRemoteLookup(uint16)": "infinite"
			},
			"internal": {
				"_nonblockingLzReceive(uint16,bytes memory,uint64,bytes memory)": "infinite"
			}
		},
		"methodIdentifiers": {
			"DEFAULT_PAYLOAD_SIZE_LIMIT()": "c4461834",
			"decode(bytes)": "e5c5e9a3",
			"dstChainId()": "30c593f7",
			"encode(address,address,uint256)": "a7586bab",
			"estimateFee(uint16,bool,bytes,bytes)": "0bd856fa",
			"failedMessages(uint16,bytes,uint64)": "5b8c41e6",
			"forceResumeReceive(uint16,bytes)": "42d65a8d",
			"getConfig(uint16,uint16,address,uint256)": "f5ecbdbc",
			"getTrustedRemoteAddress(uint16)": "9f38369a",
			"isTrustedRemote(uint16,bytes)": "3d8b38f6",
			"lzEndpoint()": "b353aaa7",
			"lzReceive(uint16,bytes,uint64,bytes)": "001d3567",
			"minDstGasLookup(uint16,uint16)": "8cfd8f5c",
			"nonblockingLzReceive(uint16,bytes,uint64,bytes)": "66ad5c8a",
			"og()": "d43cc84f",
			"owner()": "8da5cb5b",
			"payloadSizeLimitLookup(uint16)": "3f1f4fa4",
			"precrime()": "950c8a74",
			"renounceOwnership()": "715018a6",
			"retryMessage(uint16,bytes,uint64,bytes)": "d1deba1f",
			"sendDst(address,address,uint256)": "fa15ea43",
			"setConfig(uint16,uint16,uint256,bytes)": "cbed8b9c",
			"setMinDstGas(uint16,uint16,uint256)": "df2a5b3b",
			"setPayloadSizeLimit(uint16,uint256)": "0df37483",
			"setPrecrime(address)": "baf3292d",
			"setReceiveVersion(uint16)": "10ddb137",
			"setSendVersion(uint16)": "07e0db17",
			"setTrustedRemote(uint16,bytes)": "eb8d72b7",
			"setTrustedRemoteAddress(address)": "6417c111",
			"setTrustedRemoteAddress(uint16,bytes)": "a6c3d165",
			"transferOwnership(address)": "f2fde38b",
			"trustedRemoteLookup(uint16)": "7533d788"
		}
	},
	"abi": [
		{
			"inputs": [
				{
					"internalType": "address",
					"name": "_lzEndpoint",
					"type": "address"
				}
			],
			"stateMutability": "nonpayable",
			"type": "constructor"
		},
		{
			"anonymous": false,
			"inputs": [
				{
					"indexed": false,
					"internalType": "uint16",
					"name": "_srcChainId",
					"type": "uint16"
				},
				{
					"indexed": false,
					"internalType": "bytes",
					"name": "_srcAddress",
					"type": "bytes"
				},
				{
					"indexed": false,
					"internalType": "uint64",
					"name": "_nonce",
					"type": "uint64"
				},
				{
					"indexed": false,
					"internalType": "bytes",
					"name": "_payload",
					"type": "bytes"
				},
				{
					"indexed": false,
					"internalType": "bytes",
					"name": "_reason",
					"type": "bytes"
				}
			],
			"name": "MessageFailed",
			"type": "event"
		},
		{
			"anonymous": false,
			"inputs": [
				{
					"indexed": true,
					"internalType": "address",
					"name": "previousOwner",
					"type": "address"
				},
				{
					"indexed": true,
					"internalType": "address",
					"name": "newOwner",
					"type": "address"
				}
			],
			"name": "OwnershipTransferred",
			"type": "event"
		},
		{
			"anonymous": false,
			"inputs": [
				{
					"indexed": true,
					"internalType": "address",
					"name": "_origin",
					"type": "address"
				},
				{
					"indexed": true,
					"internalType": "address",
					"name": "_collection",
					"type": "address"
				},
				{
					"indexed": true,
					"internalType": "uint256",
					"name": "_tokenId",
					"type": "uint256"
				}
			],
			"name": "Receipt",
			"type": "event"
		},
		{
			"anonymous": false,
			"inputs": [
				{
					"indexed": false,
					"internalType": "uint16",
					"name": "_srcChainId",
					"type": "uint16"
				},
				{
					"indexed": false,
					"internalType": "bytes",
					"name": "_srcAddress",
					"type": "bytes"
				},
				{
					"indexed": false,
					"internalType": "uint64",
					"name": "_nonce",
					"type": "uint64"
				},
				{
					"indexed": false,
					"internalType": "bytes32",
					"name": "_payloadHash",
					"type": "bytes32"
				}
			],
			"name": "RetryMessageSuccess",
			"type": "event"
		},
		{
			"anonymous": false,
			"inputs": [
				{
					"indexed": false,
					"internalType": "uint16",
					"name": "_dstChainId",
					"type": "uint16"
				},
				{
					"indexed": false,
					"internalType": "uint16",
					"name": "_type",
					"type": "uint16"
				},
				{
					"indexed": false,
					"internalType": "uint256",
					"name": "_minDstGas",
					"type": "uint256"
				}
			],
			"name": "SetMinDstGas",
			"type": "event"
		},
		{
			"anonymous": false,
			"inputs": [
				{
					"indexed": false,
					"internalType": "address",
					"name": "precrime",
					"type": "address"
				}
			],
			"name": "SetPrecrime",
			"type": "event"
		},
		{
			"anonymous": false,
			"inputs": [
				{
					"indexed": false,
					"internalType": "uint16",
					"name": "_remoteChainId",
					"type": "uint16"
				},
				{
					"indexed": false,
					"internalType": "bytes",
					"name": "_path",
					"type": "bytes"
				}
			],
			"name": "SetTrustedRemote",
			"type": "event"
		},
		{
			"anonymous": false,
			"inputs": [
				{
					"indexed": false,
					"internalType": "uint16",
					"name": "_remoteChainId",
					"type": "uint16"
				},
				{
					"indexed": false,
					"internalType": "bytes",
					"name": "_remoteAddress",
					"type": "bytes"
				}
			],
			"name": "SetTrustedRemoteAddress",
			"type": "event"
		},
		{
			"inputs": [],
			"name": "DEFAULT_PAYLOAD_SIZE_LIMIT",
			"outputs": [
				{
					"internalType": "uint256",
					"name": "",
					"type": "uint256"
				}
			],
			"stateMutability": "view",
			"type": "function"
		},
		{
			"inputs": [
				{
					"internalType": "bytes",
					"name": "data",
					"type": "bytes"
				}
			],
			"name": "decode",
			"outputs": [
				{
					"internalType": "address",
					"name": "",
					"type": "address"
				},
				{
					"internalType": "address",
					"name": "",
					"type": "address"
				},
				{
					"internalType": "uint256",
					"name": "",
					"type": "uint256"
				}
			],
			"stateMutability": "pure",
			"type": "function"
		},
		{
			"inputs": [],
			"name": "dstChainId",
			"outputs": [
				{
					"internalType": "uint16",
					"name": "",
					"type": "uint16"
				}
			],
			"stateMutability": "view",
			"type": "function"
		},
		{
			"inputs": [
				{
					"internalType": "address",
					"name": "_origin",
					"type": "address"
				},
				{
					"internalType": "address",
					"name": "_localCollection",
					"type": "address"
				},
				{
					"internalType": "uint256",
					"name": "_tokenId",
					"type": "uint256"
				}
			],
			"name": "encode",
			"outputs": [
				{
					"internalType": "bytes",
					"name": "",
					"type": "bytes"
				}
			],
			"stateMutability": "pure",
			"type": "function"
		},
		{
			"inputs": [
				{
					"internalType": "uint16",
					"name": "_dstChainId",
					"type": "uint16"
				},
				{
					"internalType": "bool",
					"name": "_useZro",
					"type": "bool"
				},
				{
					"internalType": "bytes",
					"name": "_payload",
					"type": "bytes"
				},
				{
					"internalType": "bytes",
					"name": "_adapterParams",
					"type": "bytes"
				}
			],
			"name": "estimateFee",
			"outputs": [
				{
					"internalType": "uint256",
					"name": "nativeFee",
					"type": "uint256"
				},
				{
					"internalType": "uint256",
					"name": "zroFee",
					"type": "uint256"
				}
			],
			"stateMutability": "view",
			"type": "function"
		},
		{
			"inputs": [
				{
					"internalType": "uint16",
					"name": "",
					"type": "uint16"
				},
				{
					"internalType": "bytes",
					"name": "",
					"type": "bytes"
				},
				{
					"internalType": "uint64",
					"name": "",
					"type": "uint64"
				}
			],
			"name": "failedMessages",
			"outputs": [
				{
					"internalType": "bytes32",
					"name": "",
					"type": "bytes32"
				}
			],
			"stateMutability": "view",
			"type": "function"
		},
		{
			"inputs": [
				{
					"internalType": "uint16",
					"name": "_srcChainId",
					"type": "uint16"
				},
				{
					"internalType": "bytes",
					"name": "_srcAddress",
					"type": "bytes"
				}
			],
			"name": "forceResumeReceive",
			"outputs": [],
			"stateMutability": "nonpayable",
			"type": "function"
		},
		{
			"inputs": [
				{
					"internalType": "uint16",
					"name": "_version",
					"type": "uint16"
				},
				{
					"internalType": "uint16",
					"name": "_chainId",
					"type": "uint16"
				},
				{
					"internalType": "address",
					"name": "",
					"type": "address"
				},
				{
					"internalType": "uint256",
					"name": "_configType",
					"type": "uint256"
				}
			],
			"name": "getConfig",
			"outputs": [
				{
					"internalType": "bytes",
					"name": "",
					"type": "bytes"
				}
			],
			"stateMutability": "view",
			"type": "function"
		},
		{
			"inputs": [
				{
					"internalType": "uint16",
					"name": "_remoteChainId",
					"type": "uint16"
				}
			],
			"name": "getTrustedRemoteAddress",
			"outputs": [
				{
					"internalType": "bytes",
					"name": "",
					"type": "bytes"
				}
			],
			"stateMutability": "view",
			"type": "function"
		},
		{
			"inputs": [
				{
					"internalType": "uint16",
					"name": "_srcChainId",
					"type": "uint16"
				},
				{
					"internalType": "bytes",
					"name": "_srcAddress",
					"type": "bytes"
				}
			],
			"name": "isTrustedRemote",
			"outputs": [
				{
					"internalType": "bool",
					"name": "",
					"type": "bool"
				}
			],
			"stateMutability": "view",
			"type": "function"
		},
		{
			"inputs": [],
			"name": "lzEndpoint",
			"outputs": [
				{
					"internalType": "contract ILayerZeroEndpoint",
					"name": "",
					"type": "address"
				}
			],
			"stateMutability": "view",
			"type": "function"
		},
		{
			"inputs": [
				{
					"internalType": "uint16",
					"name": "_srcChainId",
					"type": "uint16"
				},
				{
					"internalType": "bytes",
					"name": "_srcAddress",
					"type": "bytes"
				},
				{
					"internalType": "uint64",
					"name": "_nonce",
					"type": "uint64"
				},
				{
					"internalType": "bytes",
					"name": "_payload",
					"type": "bytes"
				}
			],
			"name": "lzReceive",
			"outputs": [],
			"stateMutability": "nonpayable",
			"type": "function"
		},
		{
			"inputs": [
				{
					"internalType": "uint16",
					"name": "",
					"type": "uint16"
				},
				{
					"internalType": "uint16",
					"name": "",
					"type": "uint16"
				}
			],
			"name": "minDstGasLookup",
			"outputs": [
				{
					"internalType": "uint256",
					"name": "",
					"type": "uint256"
				}
			],
			"stateMutability": "view",
			"type": "function"
		},
		{
			"inputs": [
				{
					"internalType": "uint16",
					"name": "_srcChainId",
					"type": "uint16"
				},
				{
					"internalType": "bytes",
					"name": "_srcAddress",
					"type": "bytes"
				},
				{
					"internalType": "uint64",
					"name": "_nonce",
					"type": "uint64"
				},
				{
					"internalType": "bytes",
					"name": "_payload",
					"type": "bytes"
				}
			],
			"name": "nonblockingLzReceive",
			"outputs": [],
			"stateMutability": "nonpayable",
			"type": "function"
		},
		{
			"inputs": [],
			"name": "og",
			"outputs": [
				{
					"internalType": "address",
					"name": "",
					"type": "address"
				}
			],
			"stateMutability": "view",
			"type": "function"
		},
		{
			"inputs": [],
			"name": "owner",
			"outputs": [
				{
					"internalType": "address",
					"name": "",
					"type": "address"
				}
			],
			"stateMutability": "view",
			"type": "function"
		},
		{
			"inputs": [
				{
					"internalType": "uint16",
					"name": "",
					"type": "uint16"
				}
			],
			"name": "payloadSizeLimitLookup",
			"outputs": [
				{
					"internalType": "uint256",
					"name": "",
					"type": "uint256"
				}
			],
			"stateMutability": "view",
			"type": "function"
		},
		{
			"inputs": [],
			"name": "precrime",
			"outputs": [
				{
					"internalType": "address",
					"name": "",
					"type": "address"
				}
			],
			"stateMutability": "view",
			"type": "function"
		},
		{
			"inputs": [],
			"name": "renounceOwnership",
			"outputs": [],
			"stateMutability": "nonpayable",
			"type": "function"
		},
		{
			"inputs": [
				{
					"internalType": "uint16",
					"name": "_srcChainId",
					"type": "uint16"
				},
				{
					"internalType": "bytes",
					"name": "_srcAddress",
					"type": "bytes"
				},
				{
					"internalType": "uint64",
					"name": "_nonce",
					"type": "uint64"
				},
				{
					"internalType": "bytes",
					"name": "_payload",
					"type": "bytes"
				}
			],
			"name": "retryMessage",
			"outputs": [],
			"stateMutability": "payable",
			"type": "function"
		},
		{
			"inputs": [
				{
					"internalType": "address",
					"name": "_origin",
					"type": "address"
				},
				{
					"internalType": "address",
					"name": "_localCollection",
					"type": "address"
				},
				{
					"internalType": "uint256",
					"name": "_tokenId",
					"type": "uint256"
				}
			],
			"name": "sendDst",
			"outputs": [],
			"stateMutability": "payable",
			"type": "function"
		},
		{
			"inputs": [
				{
					"internalType": "uint16",
					"name": "_version",
					"type": "uint16"
				},
				{
					"internalType": "uint16",
					"name": "_chainId",
					"type": "uint16"
				},
				{
					"internalType": "uint256",
					"name": "_configType",
					"type": "uint256"
				},
				{
					"internalType": "bytes",
					"name": "_config",
					"type": "bytes"
				}
			],
			"name": "setConfig",
			"outputs": [],
			"stateMutability": "nonpayable",
			"type": "function"
		},
		{
			"inputs": [
				{
					"internalType": "uint16",
					"name": "_dstChainId",
					"type": "uint16"
				},
				{
					"internalType": "uint16",
					"name": "_packetType",
					"type": "uint16"
				},
				{
					"internalType": "uint256",
					"name": "_minGas",
					"type": "uint256"
				}
			],
			"name": "setMinDstGas",
			"outputs": [],
			"stateMutability": "nonpayable",
			"type": "function"
		},
		{
			"inputs": [
				{
					"internalType": "uint16",
					"name": "_dstChainId",
					"type": "uint16"
				},
				{
					"internalType": "uint256",
					"name": "_size",
					"type": "uint256"
				}
			],
			"name": "setPayloadSizeLimit",
			"outputs": [],
			"stateMutability": "nonpayable",
			"type": "function"
		},
		{
			"inputs": [
				{
					"internalType": "address",
					"name": "_precrime",
					"type": "address"
				}
			],
			"name": "setPrecrime",
			"outputs": [],
			"stateMutability": "nonpayable",
			"type": "function"
		},
		{
			"inputs": [
				{
					"internalType": "uint16",
					"name": "_version",
					"type": "uint16"
				}
			],
			"name": "setReceiveVersion",
			"outputs": [],
			"stateMutability": "nonpayable",
			"type": "function"
		},
		{
			"inputs": [
				{
					"internalType": "uint16",
					"name": "_version",
					"type": "uint16"
				}
			],
			"name": "setSendVersion",
			"outputs": [],
			"stateMutability": "nonpayable",
			"type": "function"
		},
		{
			"inputs": [
				{
					"internalType": "uint16",
					"name": "_remoteChainId",
					"type": "uint16"
				},
				{
					"internalType": "bytes",
					"name": "_path",
					"type": "bytes"
				}
			],
			"name": "setTrustedRemote",
			"outputs": [],
			"stateMutability": "nonpayable",
			"type": "function"
		},
		{
			"inputs": [
				{
					"internalType": "address",
					"name": "_otherContract",
					"type": "address"
				}
			],
			"name": "setTrustedRemoteAddress",
			"outputs": [],
			"stateMutability": "nonpayable",
			"type": "function"
		},
		{
			"inputs": [
				{
					"internalType": "uint16",
					"name": "_remoteChainId",
					"type": "uint16"
				},
				{
					"internalType": "bytes",
					"name": "_remoteAddress",
					"type": "bytes"
				}
			],
			"name": "setTrustedRemoteAddress",
			"outputs": [],
			"stateMutability": "nonpayable",
			"type": "function"
		},
		{
			"inputs": [
				{
					"internalType": "address",
					"name": "newOwner",
					"type": "address"
				}
			],
			"name": "transferOwnership",
			"outputs": [],
			"stateMutability": "nonpayable",
			"type": "function"
		},
		{
			"inputs": [
				{
					"internalType": "uint16",
					"name": "",
					"type": "uint16"
				}
			],
			"name": "trustedRemoteLookup",
			"outputs": [
				{
					"internalType": "bytes",
					"name": "",
					"type": "bytes"
				}
			],
			"stateMutability": "view",
			"type": "function"
		},
		{
			"stateMutability": "payable",
			"type": "receive"
		}
	]
}